:020000040000FA
:1000000080313228080008007E1480318B1E0928B8
:100010000A2812280B1D0D280E2812288A314F227B
:10002000803130288B1D152816281E280B1C1928F6
:100030001A281E2897319227803130280B1F21283B
:10004000222830282100121D2628272830282000A9
:10005000121D2B282C2830288131E32180313028B3
:100060007E10090080313428C6308400833085003A
:1000700028308600233087000030FF00C8309731D9
:10008000D72780319C30840088308500203086005E
:10009000023087000030FF0020309731D7278031B1
:1000A000A0308400003085001C30FE000030FF00CE
:1000B0009731CB278031B0308400013085003E304D
:1000C000FE000030FF009731CB27803140308400A4
:1000D000023085001630FE000030FF009731CB273C
:1000E0008031A0308400023085004030FE000030B6
:1000F000FF009731CB27803120308400033085000A
:100100004030FE000030FF009731CB2780317E1059
:10011000200089312A2920005203031D90289128AC
:10012000A92850081F39003A031D97289828A928A4
:100130002100AF17033020005106031DA028A1287D
:10014000A7280130E60066082300DF00A928230065
:10015000DF0120005208031DAE28AF28E229500815
:100160001F39023A031DB528B628E22954080F3971
:10017000003A0319BC28BD28E22954080F39E600CB
:10018000033066020318C528C628E2292030210062
:100190003906031DCC28CD28E229AF172000D41B37
:1001A000D228D328E92854080F390907B03E860021
:1001B00001308700403FEB00413FEC0054080F390D
:1001C000BA3E8600013087000108E6006608EA00B2
:1001D000FD2854080F390907A73E86008701403FD4
:1001E000EB00413FEC0054080F39BD3E8600013062
:1001F00087000108E6006608EA006A18002901295C
:100200000C29FB30E600FF30E7006B086605EB00C9
:100210006C086705EC00122904306B04EB00003019
:100220006C04EC00D41B15291629222954080F3917
:100230000907B03E8600013087006B08C03F6C089C
:10024000C13F2C2954080F390907A73E86008701B2
:100250006B08C03F6C08C13F03305106031D3129B4
:10026000322958296B0886006C088700811F3929BC
:100270003A294D29D41B3D293E29462954080F39D6
:10028000BA3E86000130870081144D2954080F3989
:10029000BD3E86000130870081146B0886006C0823
:1002A000870001156B0886006C0887008117E2291A
:1002B00004306B06EB0000306C06EC006B08860027
:1002C0006C088700811F6529662983297F30E60035
:1002D0006B0886006C088700660881056B0886003D
:1002E0006C08870001170530E0000030E1006C0861
:1002F000E3006B08E2000230E4000030E5008931E1
:10030000AC21803188296B0886006C0887000117B2
:10031000043020006B06EB0000306C06EC00EA189D
:10032000922993299B296B0886006C088700811FFE
:100330009A299B29C629D41B9E299F29A72954089D
:100340000F39BA3E8600013087008110AE2954086B
:100350000F39BD3E86000130870081103B30E6003A
:100360006B0886006C088700660881050530E00090
:100370000030E1006C08E3006B08E2000230E400AA
:100380000030E5008931AC218031CE293B30E600D8
:100390006B0886006C0887006608810520005408F9
:1003A0000F39983EE600E7010E30E73D6608E800A9
:1003B0006708E900FE30E6006808860069088700E3
:1003C00066088105080021003903031DE829E92991
:1003D000F6293D008E1AED29EE29F6299001121416
:1003E000121602302100BE003E08B9003D00101D6B
:1003F000FA29FB29082A121DFE29FF29082AFB30A9
:100400002100BE003E083D0090058831BC208131AE
:100410003D008E1C0C2A0D2A102A20001211FB2AE6
:10042000101C132A142A262A121C172A182A262AD4
:10043000853140258131210012150430BE003E086F
:10044000B900FE30BE003E083D009005101E292A6E
:100450002A2A312A121E2D2A2E2A312A88317C205E
:1004600081313D00101F352A362A632A121F392A8E
:100470003A2A4A2A73302000E0000030E1000030C0
:10048000E2000030E3000130E4000030E500893193
:10049000AC218131BF302100BE003E083D009005F7
:1004A00088314220813123005C080319582A592AD7
:1004B0005B2A0130DC025C08031D5F2A602A632A84
:1004C0008C31F12481313D00901E672A682A6F2A01
:1004D000921E6B2A6C2A6F2A8931532181313D008B
:1004E000901C732A742A8A2A921C772A782A8A2ACC
:1004F000FF302000E0007F30E1000030E2000030FB
:10050000E3000130E4000030E5008931AC218131A5
:100510003D0093010430210039020318902A912AEA
:10052000942A20001211FB2A3D00921D982A992A34
:10053000F92A2100C0013D00901D9F2AA02AF92A16
:100540000F082100BE003E08BA003A0CBE00BE0CE7
:100550003E0C0F39BF003F08B500F730BE003E0823
:100560003D00900521003A19B62AB72AC72A350856
:10057000BA3E86000130870001080139BE00013013
:10058000BE0601083E06FE393E068100D62A350821
:10059000BD3E86000130870001080139BE000130F0
:1005A000BE0601083E06FE393E0681003508031DE1
:1005B000DA2ADB2ADF2A8A31ED228131EE2A7230F3
:1005C0002000E0000030E100BA30E2000030E3003B
:1005D0000030E400E5008931AC2181310130210097
:1005E000BE003E08C00704304002031CF82AF92A66
:1005F0009B2A2000121108007108FD007008FC0001
:1006000074087504031D052B062B072BC52B7C08CE
:1006100086007D0887007208810074087C07F60058
:1006200075087D3DF7007608FF3EF800FF30773D06
:10063000F900780886007908870072088100003088
:1006400075020330031974020318272B282B292B5A
:10065000C52B7C08013EF60000307D3DF700760892
:10066000860077088700720881007C08023EF60049
:1006700000307D3DF7007608860077088700720815
:10068000810074087C07F60075087D3DF700760848
:10069000FE3EF800FF30773DF900780886007908C3
:1006A00087007208810074087C07F60075087D3D9C
:1006B000F7007608FD3EF800FF30773DF900780836
:1006C00086007908870072088100003075020730C3
:1006D0000319740203186D2B6E2B6F2BC52B7C082E
:1006E000033EF60000307D3DF7007608860077086F
:1006F00087007208810074087C07F60075087D3D4C
:10070000F7007608FC3EF800FF30773DF9007808E6
:100710008600790887007208810000307502093070
:10072000031974020318952B962B972BC52B7C0964
:10073000F6007D09F700F60A0319F70A033076057B
:10074000FA0000307705FB007A08FC077B08FD3DC6
:100750007A08F4027B08F53BFC30F405FF30F50520
:10076000BF2B7C0886007D0887007208810001305D
:10077000F4020030F53B0130FC070030FD3D740809
:100780007504031DC42BC52BB12B080000340134A4
:10079000023403340434053406340734083409348D
:1007A0000A340B340C340D340E340F34103411343D
:1007B00012341334143415341634173418341934ED
:1007C0001A341B341C341D341E341F34203421349D
:1007D000223423342434253426342734283429344D
:1007E0002A342B342C342D342E342F3430343134FD
:1007F00032343334343435343634373438343934AD
:100800003A343B343C343D343E343F34403441345C
:10081000423443344434453446344734483449340C
:100820004A344B344C344D344E344F3450345134BC
:10083000523453345434553456345734583459346C
:100840005A345B345C345D345E345F34603461341C
:1008500062346334643465346634673468346934CC
:100860006A346B346C346D346E346F34703471347C
:10087000723473347434753476347734783479342C
:100880007A347B347C347D347E347F3480348134DC
:10089000823483348434853486348734883489348C
:1008A0008A348B348C348D348E348F34903491343C
:1008B00092349334943495349634973498349934EC
:1008C0009A349B349C349D349E349F34A034A1349C
:1008D000A234A334A434A534A634A734A834A9344C
:1008E000AA34AB34AC34AD34AE34AF34B034B134FC
:1008F000B234B334B434B534B634B734B834B934AC
:10090000BA34BB34BC34BD34BE34BF34C034C1345B
:10091000C234C334C434C534C634C73421001211C0
:100920003D009301900198010E302100C3009930E1
:10093000C200C401420886004308870081010130DB
:10094000C2070030C33D0130C1004108C407023076
:100950004402031CAC2CAD2C9A2C16303D009100A7
:100960009F3097007B3092002100C5014508C100EF
:100970000130C135FF3E031DB92C4135203E8600B4
:1009800087010030C03F0030C13FC23FC33F01304C
:10099000C1004108C5070C304502031CD02CD12CE6
:1009A000B62C3D000E1796010E120E13F7302100E3
:1009B000C10041083D0090052100AF01A201A30143
:1009C000A4013D009019E52CE62CD62C0130210025
:1009D000C10041082300DA0001302100C1004108B4
:1009E0002300D900D801D701DE012100C50145351A
:1009F000A73E860087010030C03FC13F4535B03E6D
:100A00008600013087000030C03FC13F4508BD3E31
:100A100086000130870081014508BA3E860001301A
:100A2000870081010130C1004108C507033045023C
:100A3000031C1B2D1C2DF72C2830A7000030A8000C
:100A400016303D00980000302000A3005030A20076
:100A50000830A10004302100C10041082000A0009E
:100A6000A0172100BB0100302300B9000030B800FE
:100A70000030B7000030B600D6012100B9010800EF
:100A8000210012113D009301900198010E30F200F7
:100A90009930F100F3017108860072088700810126
:100AA0000130F1070030F23D0130F0007008F3072B
:100AB00002307302031C5D2D5E2D4B2D16303D0060
:100AC00091009F3097007B309200F4017408F00091
:100AD0000130F035FF3E031D692D7035203E860044
:100AE00087010030C03F0030C13FC23FC33F0130EB
:100AF000F0007008F4070C307402031C802D812D67
:100B0000662D3D000E1796010E120E13F730F00001
:100B1000700890052100AF01A201A301A4013D00CE
:100B20009019932D942D862D0130F000700823002C
:100B3000DA000130F0007008D900D801D701DE01D9
:100B4000F4017435A73E860087010030C03FC13FE5
:100B50007435B03E8600013087000030C03FC13F91
:100B60007408BD3E86000130870081017408BA3EDA
:100B700086000130870081010130F0007008F40721
:100B800003307402031CC52DC62DA12D2830210071
:100B9000A7000030A80016303D009800003020006B
:100BA000A3005030A2000830A1000430F00070080B
:100BB000A000A0172100BB0100302300B9000030C5
:100BC000B8000030B7000030B600D6012100B901EE
:100BD00008002100380886008701413FF5007508AC
:100BE000F200F30173082402031DF82D720823029A
:100BF0000318FB2DFC2D002E2308F2007208F500CF
:100C00007508F200F3017208A3027308A43BF40113
:100C10001D2E7408583E860087010108F200200846
:100C2000860001308700720881000130F2007208EE
:100C3000A0070130F2007208F40775087402031C63
:100C4000222E232E092E230824040319282E292EB0
:100C5000612E3208013EF2000030333DF30072088D
:100C6000860073088700083081005830F200003099
:100C7000F300320886003308870042317208C03F13
:100C80007308C13F380886008701011B482E492E92
:100C9000552E32088600330887004830810032081C
:100CA0008600330887008117912E320886003308AA
:100CB00087000830810032088600330887008117DA
:100CC000912E3208013EF2000030333DF3007208ED
:100CD000860073088700083081005030F200003031
:100CE000F300320886003308870042317208C03FA3
:100CF0007308C13F32088600330887000430810042
:100D00003208860033088700811725082608A213B9
:100D100023005B08031D8D2E8E2E912E8C31F12425
:100D2000853108003D000E122100AF1B982E992E30
:100D3000DE2EA21F9C2E9D2EAE2E0230F5007508D1
:100D4000B60023005708031DA62EA72EAA2E8B310E
:100D5000432386312300D901DA012F2F3208013EC7
:100D6000F5000030333DF6007508860076088700F0
:100D7000083081005030F5000030F600320886005F
:100D80003308870042317508C03F7608C13F3208FA
:100D90008600330887000C30810032088600330853
:100DA0008700811727088600280887000430810003
:100DB000270886002808870081172F2F2000D01FC2
:100DC000E22EE32EFD2E0130F50075082100B6005D
:100DD00023005808031DED2EEE2EF12E8B314323F8
:100DE00086312300D901DA015B08031DF82EF92EA4
:100DF0002F2F8C31F12486312F2F0230F50075080A
:100E00002100B6003208013EF5000030333DF60007
:100E10007508860076088700083081005030F5009C
:100E20000030F6003208860033088700423175082A
:100E3000C03F7608C13F320886003308870004307F
:100E40008100320886003308870081172300D9010A
:100E5000DA015B08031D2D2F2E2F2F2FF92E0800EE
:100E60002100AF170E302000E8009930E700E901BB
:100E7000670886006808870081010130E7070030B5
:100E8000E83D0130E6006608E90702306902031C0C
:100E90004A2F4B2F382F2030F0000030F100003067
:100EA000F200F3003030F4000030F5008231FC2213
:100EB00087313D000E172000EA016A08BD3E86001A
:100EC0000130870081016A08BA3E86000130870040
:100ED00081010130E6006608EA0703306A02031C5C
:100EE000722F732F5D2FEC30F0000130F1000030D5
:100EF000F200F3000230F4000030F5008231FC22F1
:100F000087313D000E1328302100A7000030A800D3
:100F100020302000E60066082100B8003808B20042
:100F2000FF39031D0030B30020005208E6006608B8
:100F30002100BB003B08031D9E2F9F2FA62F1030C2
:100F40002000E60066082100B900BC2F0130200017
:100F5000E0000030E100BB30E2000030E30001308F
:100F6000E4000030E5008931AC21873120302000D9
:100F7000E60066082100B9000800F5002030F10005
:100F80007108F6007008F1000130F135890BC52FAA
:100F90007508F2000130F235FF3E031DCB2F72358C
:100FA0007107F3000130F335FF3E031DD32F733576
:100FB000F4007408F607760886008701811370082C
:100FC000031DE32FE42FEE2F7535B03E8600013070
:100FD00087007608C03F0030C13FF62F7535A73E29
:100FE000860087017608C03F0030C13F7608860042
:100FF000870101137608043E860087010117080067
:1010060097317F278831A0309731B6278831240061
:10101600161B0E280F2803289731852788310800CC
:101026008931032188319731E327883197317B272E
:10103600883184318E24883197319B2788318831D5
:101046002920883188315E20883108002100150862
:10105600C039123895000630200095000630210070
:10106600C30043082300D4000B118B160330210064
:10107600C1000030C2009731AD2788310800013029
:101086002300B6070030B73D0030B83D0030B93D0B
:101096005E08031D4F2850285D280130F0007008B7
:1010A600D6075608031D582859285D28FF30F0003A
:1010B6007008D600080021003908031D632864283B
:1010C6007B283D008E019201163091009F309700DB
:1010D6007B3092002100121571288E153D008E1D61
:1010E60075287628702801302100C1004108B90012
:1010F60008003D001215EF302000E60066083D00AE
:1011060090058E1401302000E60066082300DE00FC
:10111600D60175302000E0000030E1000030E2002A
:101126000030E3000030E400E5008931AC2188316D
:101136000800003401340234033404340534063420
:101146000734083409340A340B340C340D340E34A5
:101156000F34103411341234133414341534163455
:101166001734183419341A341B341C341D341E3405
:101176001F342300DE0174302000E0000030E1005F
:101186000030E2000030E3000030E400E500893181
:10119600AC2188313D008E101211D728FB3020007B
:1011A600E60066083D0090051019DA28DB28D128EC
:1011B6002300D6010800FC00771DE228E328E82872
:1011C600F0017C088731BD278831F71CEB28EC2815
:1011D600F228F001F00A7C088731BD2788317C08A7
:1011E600983EF800F9010E30F93D7808FA007908C2
:1011F600FB007A0886007B088700770881000800D4
:1012060022008C018D0120308E00203021008C00C0
:10121600F0308D00DF308E00CC3023008E008D0143
:1012260010308C0024008D018C01210095172200BE
:101236009D01270093129216911602302100C100DB
:101246000030C2009731A42789318B1508008831F8
:10125600132089319731BF2789318B170B1723004C
:1012660064080319372938293929E4016308031961
:101276003D293E293F29E3016208031943294429F0
:101286003229E20100302100C200C3002830C40028
:101296002330C5008D316A258931322980313228C3
:1012A6003D00181C5729582979292100380886003D
:1012B600870180300106031D6129622977292708E5
:1012C60086002808870084300106031D6B296C29D7
:1012D60077290C30F00038088600870170088100F5
:1012E60038088600870181173D001810DF30F000AE
:1012F600700890050800F8007108F6007008F500FF
:101306007808F4007408F9009F29750886007608A5
:1013160087000108F4007408F7000130F507003073
:10132600F63D7708F4007908860087017408810085
:101336000130F4007408F9070130F2020030F33B83
:10134600720A031DAA29730A031DAA29AB29882933
:101356000800B5298931DE218931DD298C310A243D
:101366008931DD2920006108003A0319BE297F3A38
:101376000319D829DD296008013A0319AD29033A72
:101386000319DD29013A0319B129063A0319DD29A2
:10139600773A0319DD29013A0319DD29073A0319BA
:1013A600DD29013A0319DD29DD296008FF3A031911
:1013B600DD29DD29080000302300E8000030E700C1
:1013C6004B30E6000030E500E901EA010830FD0097
:1013D6007D08EB00D3011A30FD007D08F7000130CF
:1013E6008831DE2089311E30FD007D08F70002308D
:1013F6008831DE208931F001C030F1002030F20062
:101406004030FD007D08F30002308E3166268931BA
:1014160071082300C3007008C200C001C101210089
:10142600B4010800023021003606031D1B2A1C2ABF
:10143600202A8531E9258A314E2AB60123005D0826
:10144600031D262A272A4D2A21003208013EF600CE
:101456000030333DF70076088600770887000830AD
:1014660081005030F6000030F7003208860033085D
:10147600870042317608C03F7708C13F32088600B0
:10148600330887000C308100320886003308870055
:1014960081174E2ADD0108000B1123005408200095
:1014A600950023004808490403195A2A5B2A602A32
:1014B60049088A0048080A008A3101302300CA0711
:1014C6000030CB3D4B08803AF000F5307002031D2A
:1014D6006E2A30304A02031C712A722A752A2300AA
:1014E600E301E30A01302300CC070030CD3D4D086F
:1014F600803AF00080307002031D832A14304C02BB
:10150600031C862A872A972A0130F00070082300D8
:10151600D507333055020318912A922A952AE401F9
:10152600E40A972AE201E20A08002100B701230033
:10153600DB01D801D701DD012100B6017F30200093
:10154600EF002100270886002808870020006F0882
:101556008105043021002706A70000302806A800D0
:101566007F302000EF00210027088600280887002A
:1015760020006F088105043021002706A7000030EF
:101586002806A8007F302000EF00210032088600E0
:101596003308870020006F0881052100AF01B001E4
:1015A600B101A201A301A4018E31ED268A310330D7
:1015B6002000E0000030E1000030E2000030E300EF
:1015C6000030E400E5008931AC218A31863192266B
:1015D6008A3108002D302100BC003C082300DC00C5
:1015E60021003A08FD39031DF92AFA2A362B3A3624
:1015F6003F39BC000130BC35FF3E031DFE2A3C3599
:10160600203EBD003D08B8003808B200FF39031D72
:101616000030B30004303206B20000303306B300A7
:10162600380886008701010C890C0F390D3A031D15
:101636001D2B1E2B322B3808023E86008701403FA9
:10164600F000413FF1000830F2000030F300503066
:1016560089317E218A318A3198228A31422B8A3118
:1016660015228A31422BFD303A05BC0004303C0677
:10167600031D3E2B3F2B422B8C3179248A310800E7
:101686002300D801D701023021003606031D4C2B5A
:101696004D2B722B3208013EF3000030333DF4002F
:1016A6007308860074088700083081005830F300FC
:1016B6000030F40032088600330887004231730890
:1016C600C03F7408C13F320886003308870048309F
:1016D600810032088600330887008117A22B310863
:1016E60020005702031D7B2B2100300820005602E4
:1016F60003187E2B7F2B862B57082100B100200074
:1017060056082100B0008D31E5258B315830F300A5
:101716000030F4002100270886002808870042319F
:101726007308C03F7408C13F270886002808870051
:10173600483081002708860028088700811708009E
:101746002000D801D901E72B2100AF1723005F0342
:10175600031DAE2BAF2BFB2B2000D814FB2B210037
:10176600AF17FB2B2100AF172000D41BBB2BBC2BC4
:10177600C82B54080F390907B03E86000130870090
:10178600403FF200413FF300D22B54080F390907BE
:10179600A73E86008701403FF200413FF3007208F2
:1017A600860073088700811FD92BDA2BFB2B720862
:1017B600860073088700011DE12BE22BFB2B01300D
:1017C600F0007008D800FB2B50081F39F000F1011B
:1017D6007108003A0319F02BFB2B7008003A031925
:1017E600A72B013A0319B22B033A0319B52BFB2B8E
:1017F6002100AF1FFF2B002C092C5830AD00003004
:10180600AE002F140230F0007008B000080020006F
:1018160050081F39013A0319112C122C132C782C5D
:10182600500E890C0339013A03191A2C1B2C1C2C57
:10183600782C54080319202C212C5F2C54030319EF
:10184600252C262C5F2C782C4E302100AD00023042
:10185600AE000030B1000830B0002F14AF17782C5E
:101866004E302100AD000230AE00AF17782C57087D
:101876002100A400200056082100A300E530F00056
:101886007008A000A501A601A217782CE53021005A
:10189600AD000130AE000030B1000730B000C130FD
:1018A600F0007008AF00782C5208F0007008230092
:1018B600D0002100AF17782C5108F000F101710813
:1018C600003A0319672C782C7008003A0319272C64
:1018D600013A0319332C213A03193A2C013A031918
:1018E600492C033A0319572C782C080021002708A5
:1018F6008600280887000030011B0130F5000430FF
:101906002706A70000302806A80008303906031D60
:101916008D2C8E2CA32C200052087F393D0096007A
:1019260016080319972C982C9E2C1030F300730878
:101936002100B900A32C0430F30073082100B9007C
:101946003603031DA72CA82CE82C5830F3000030D2
:10195600F400270886002808870042317308C03F34
:101966007408C13F8D31E5258C31023021003706E0
:10197600031DBE2CBF2CCB2C270886002808870009
:101986000430810027088600280887008117F02C7C
:101996007508031DCF2CD02CDC2C270886002808C0
:1019A60087004830810027088600280887008117AD
:1019B600F02C2708860028088700083081002708B1
:1019C6008600280887008117F02CA21FEB2CEC2C30
:1019D600EF2C25082608A213B601080023005A0892
:1019E600031DF62CF72C692D0130F0007008DA0083
:1019F6005908031DFF2C002D692D0130F0007008D9
:101A0600D900023021003606031D0A2D0B2D1D2D8F
:101A160027088600280887004131810127088600AB
:101A26002808870048308100270886002808870094
:101A36008117692D3603031D212D222D692D2300C3
:101A4600DD010830F0002100380A860087017008A1
:101A560081005030F0000030F1003808023E860068
:101A660087017008C03F7108C13F0430F000380894
:101A76008600870170088100380886008701811773
:101A86000130F00070082300DD0021003208013E1D
:101A9600F0000030333DF1007008860071088700C1
:101AA600083081005030F0000030F1003208860026
:101AB6003308870042317008C03F7108C13F3208C1
:101AC60086003308870080308100692D08001F30AA
:101AD600210042052400D6000030210043052400E1
:101AE600D700560857040319792D7A2D7B2DE42D3E
:101AF6002100C90149082400D600D7010530D63592
:101B0600D70D890B822D56082100C20724005708DD
:101B16002100C33D42082400D60056082100C70014
:101B260097317F278D31A0309731B6278D31003020
:101B36009731B6278D31210047089731B6278D3169
:101B46002100C80148082400D600D7012100490811
:101B56002400D800D901D835D90DD835D90D580863
:101B6600210044072400DA0059082100453D2400DD
:101B7600DB0056085A07860057085B3D87000108B8
:101B86009731B6278D3101302400D6005608210042
:101B9600C80720304802031CD12DD22DA52D973120
:101BA60085278D31883103208D3101302400D60000
:101BB60056082100C90732304902031CE32DE42DE3
:101BC6007D2D08000830F0007008F200003021007A
:101BD60031020830031930020318F22DF32D0A2EB4
:101BE6003008F0007008F2003708031DFB2DFC2DAD
:101BF600012E0130F0007008B7000A2E3703031DCE
:101C0600052E062E0A2E0230F0007008B700720864
:101C1600F000F1017008B0027108B13B2708013EDF
:101C2600F0000030283DF10070088600710887003A
:101C3600720881005830F00070082300E00021008F
:101C46002F18262E272E602E412E21002D088400C7
:101C56002E0885000008F000230060088600870132
:101C66007008810001302100AD070030AE3D013023
:101C7600F00070082300E0070130F2027208031D2D
:101C8600452E462E282E652E21002D0884002E086E
:101C960085000008F00023006008860087017008B0
:101CA600810001302100AD070030AE3D0130F0006B
:101CB60070082300E0070130F2027208031D642E4B
:101CC600652E472E0800F800700803196B2E6C2E3F
:101CD600752E7835A73E86008701403FF900413FC3
:101CE600FA007E2E7835B03E860001308700403FF0
:101CF600F900413FFA0079087A04031D832E842EE9
:101D0600872EF001F101EC2EFF307105F4007F30D3
:101D16007205F500790886007A0887004231740852
:101D2600C03F7508C13F7908013EF40000307A3D96
:101D3600F500740886007508870073088100403036
:101D4600F400790886007A08870074088105790806
:101D560086007A0887008115790886007A08870048
:101D6600811770080319B82EB92ED02E7835A73EE4
:101D760086008701403FF400413FF50004307406B9
:101D8600F60000307506F7007835A73E8600870115
:101D96007608C03F7708C13FE82E7835B03E86000A
:101DA60001308700403FF400413FF50004307406DF
:101DB600F60000307506F7007835B03E8600013033
:101DC60087007608C03F7708C13F7A08F100790896
:101DD600F00008002000500E890C0339003A031960
:101DE600F52EF62E492F742F2100AF17083020004C
:101DF600ED006D082100B900742F8F3175278E31E3
:101E0600742F873130278E31742FBB302100AD00FF
:101E16000030AE002F1401302000ED006D082100C7
:101E2600B000AF17742F8B31A3238E31742F8031FE
:101E36008B208E31742F5408EC3E2100AD0001300A
:101E4600AE002F1401302000ED006D082100B00017
:101E5600AF17742F2100AF1720005208ED00540869
:101E6600EC3E8600013087006D088100742F023039
:101E7600E0000030E1000030E2000030E300003016
:101E8600E400E5008931AC218E31742F5108ED0054
:101E9600EE016E08003A0319512F742F6D08003AAF
:101EA6000319162F013A03191A2F023A03191A2F8A
:101EB600063A0319F72E033A0319002F013A0319BC
:101EC6003A2F0F3A0319082F013A0319042F033A40
:101ED60003191E2F013A03192D2F073A0319742FE0
:101EE600742F0800803020005006031D7B2F7C2FA6
:101EF600FF2FC030F00070082100AF00EB2F8D30AF
:101F06002100AD009030AE000030B1001230B000BC
:101F1600FF2F5208031D902F912FC02F5208F0005B
:101F2600F101F035F10D1430700784009830713DE1
:101F36008500003F2100AD00013FAE002E08F100F4
:101F46002D08F00002307007840071080318710A2A
:101F560085000008F2007208B0002E08F1002D0876
:101F6600F00003307007840071080318710A8500B9
:101F76000008F2007208B100FF2F2100AF01FF2F09
:101F8600043052020318C82FC92FE52F5208F0005B
:101F9600F101F035F10D0030700784009830713D85
:101FA6008500003F2100AD00013FAE002D088400F2
:101FB6002E0885000008F000F1017008B0007108D5
:101FC600B100FF2F2100AF01FF2F2100AF01FF2F2E
:101FD60020005308F000F1017108003A0319F42FAC
:101FE600E82F7008013A0319822F033A03198C2F40
:101FF600013A0319C32FE82F080009340234433489
:102006000034023401340034C03432340934043428
:10201600003400340134023402340134003405340F
:1020260024340034103401340434243402340234A9
:1020360005342434063400340134053424340134A0
:102046000034013407340534813403340A3400344F
:102056000234093404340134003402340A340034BE
:10206600003400340734053402340234403400347A
:1020760000340734053482340234403400340034EA
:10208600343403344D34003469340034633400345A
:10209600723400346F3400346334003468340034EE
:1020A600693400347034003420340034543400343D
:1020B6006534003463340034683400346E340034DC
:1020C6006F3400346C3400346F34003467340034B9
:1020D6007934003420340034493400346E3400340A
:1020E600633400342E34003416340334533400344D
:1020F6006D34003461340034723400347434003486
:102106002034003453340034683400346F340034DF
:10211600653400341234013400340234023400349D
:1021260000340834D83404340A340034003401341A
:082136000134023403340134CA
:102EF60016302100970008002400161497318B27FE
:102F0600973108002400161597318B279731080052
:102F16002000911D8F2F902F8B2F911108002700D5
:102F2600931E962F972F9A2F9731F12797310800E6
:102F3600A03021009E009F019B019C0101309D0055
:102F46000800210042082300EF0021004108230069
:102F5600EE000800210042082300C90021004108B4
:102F66002300C80008002100C10041082400910088
:102F760097318B279731080024009401083095007B
:102F86009601133092002000911124009516080036
:102F96006400800101310130FE020030FF3B7F08F2
:102FA6007E04031DCC2F0034FE0012001E000130EB
:102FB600FE020030FF3B7F087E04031DD82F00343D
:102FC6007C3021009900980127009B012200960180
:102FD60021001A1FEF2FF02FEB2F080023006E0899
:102FE6006F040319F72FF82FFD2F6F088A006E085C
:102FF6000A0097312700931208001034983443349E
:1030060090347734903408349834083403343134A7
:103016000034323400343434003404340334093494
:0630260004340034903474
:020000040001F9
:04000E00E43FFF3F8D
:00000001FF
