:020000040000FA
:0400000080312628FD
:1000060008007E1480318B1E09280A2812280B1D31
:100016000D280E28122896311D26803124280B1F04
:100026001528162824282100121D1A281B282428E2
:100036002000121D1F28202824288E31E02680311A
:1000460024287E100900803128280230840085305B
:10005600850050308600223087000130FF00A03036
:100066009131CA218031A0308400003085001630DD
:10007600FE000030FF009131BE218031B030840097
:10008600013085003F30FE000030FF009131BE2177
:10009600803120308400023085002530FE0000309B
:1000A600FF009131BE218031A030840002308500EE
:1000B6004030FE000030FF009131BE2180312030FB
:1000C6008400033085004030FE000030FF0091318F
:1000D600BE2180317E1020009631952E2300EF0040
:1000E6006F08031D77287828BB2909309131F42140
:1000F600803121001B08BD00BE010530BD35BE0D97
:10010600890B81281C08BF00C0010D30BF35C00D0A
:10011600890B89283D083F04C1003E084004C200FF
:100126002D08C300C401C335C40D2E08C500C60181
:10013600C50EC60EF030C60545080F39C604F030A8
:10014600C5055030C7002230C80045084707C9001A
:100156004608483DCA0043084907860044084A3D08
:1001660087004108C03F4208C13F08309131F42161
:10017600803121001C08BD00BE01BD35BE0DBD3558
:10018600BE0DBD35BE0D2D08BF00C001BF35C00D6B
:100196002E08C100C201C10EC20EF030C2054108D0
:1001A6000F39C204F030C1055030C3002230C400FC
:1001B60041084307C5004208443DC6003F084507BD
:1001C60086004008463D87003D08810441313E08CF
:1001D60081041B08BD000530BD36890BEF283D089C
:1001E600BE00BF012D08C000C101C035C10D2E08DB
:1001F600C200C301C20EC30EF030C30542080F3958
:10020600C304F030C2055030C4002230C500420895
:100216004407C6004308453DC70040084607860018
:100226004108473D87003E08810441313F0881046B
:100236000130BD003D08AD071B08BD00BE010A30F8
:10024600BD35BE0D890B23292D08BF00C001BF3562
:10025600C00D2E08C100C201C10EC20EF030C2058B
:1002660041080F39C204F030C1055030C3002230B6
:10027600C40041084307C5004208443DC6003F0884
:10028600450786004008463D87003D08C03F3E08BA
:10029600C13F07309131F421803121002D08BD0086
:1002A600BE01BD35BE0D2E08BF00C001BF0EC00E7B
:1002B600F030C0053F080F39C004F030BF0550309C
:1002C600C1002230C2003F084107C3004008423D3A
:1002D600C4003D08430786003E08443D87001B08CE
:1002E600810441311C0881040130BD003D08AD0781
:1002F60006309131F421803121001B08BD00BE017A
:100306000530BD35BE0D890B84291C08BF00C00110
:100316000D30BF35C00D890B8C293D083F04C10047
:100326003E084004C2002D08C300C401C335C40DF5
:100336002E08C500C601C50EC60EF030C605450816
:100346000F39C604F030C5055030C7002230C8004A
:1003560045084707C9004608483DCA0043084907FB
:10036600860044084A3D87004108C03F4208C13F15
:1003760023006F03031DC029C1294B2B093091317E
:10038600F421803121001C08BD00BE01BD35BE0D23
:10039600BD35BE0DBD35BE0D2D08BF00C001BF3534
:1003A600C00D2E08C100C201C10EC20EF030C2053A
:1003B60041080F39C204F030C1055030C300223065
:1003C600C40041084307C5004208443DC6003F0833
:1003D600450786004008463D87003D0881044131B7
:1003E6003E0881041B08BD000530BD36890BF8297F
:1003F6003D08BE00BF012D08C000C101C035C10DBA
:100406002E08C200C301C20EC30EF030C305420857
:100416000F39C304F030C2055030C4002230C50085
:1004260042084407C6004308453DC7004008460742
:1004360086004108473D87003E08810441313F0858
:1004460081040130BD003D08AD071B08BD00BE019B
:100456000A30BD35BE0D890B2C2A2D08BF00C00100
:10046600BF35C00D2E08C100C201C10EC20EF0304C
:10047600C20541080F39C204F030C1055030C3002F
:100486002230C40041084307C5004208443DC60067
:100496003F08450786004008463D87003D08C03FA7
:1004A6003E08C13F08309131F421803121002D08EA
:1004B600BD00BE01BD35BE0D2E08BF00C001BF0E7A
:1004C600C00EF030C0053F080F39C004F030BF053C
:1004D6005030C1002230C2003F084107C300400827
:1004E600423DC4003D08430786003E08443D870060
:1004F6001B08810441311C0881040130BD003D0800
:10050600AD0707309131F421803121001C08BD0070
:10051600BE010D30BD35BE0D890B8D2A2D08BF00DD
:10052600C001BF35C00D2E08C100C201C10EC20EEA
:10053600F030C20541080F39C204F030C105503011
:10054600C3002230C40041084307C5004208443DA9
:10055600C6003F08450786004008463D87003D081F
:10056600C03F3E08C13F1B08BD00BE010530BD357A
:10057600BE0D890BBA2A2D08BF00C001BF35C00DBC
:100586002E08C100C201C10EC20EF030C2054108DC
:100596000F39C204F030C1055030C3002230C40008
:1005A60041084307C5004208443DC6003F084507C9
:1005B60086004008463D87003D08810441313E08DB
:1005C600810406309131F421803121001C08BD00E0
:1005D600BE01BD35BE0DBD35BE0DBD35BE0D2D08EA
:1005E600BF00C001BF35C00D2E08C100C201C10E3B
:1005F600C20EF030C20541080F39C204F030C10501
:100606005030C3002230C40041084307C5004208E9
:10061600443DC6003F08450786004008463D870022
:100626003D08810441313E0881041B08BD000530A8
:10063600BD36890B1B2B3D08BE00BF012D08C0002F
:10064600C101C035C10D2E08C200C301C20EC30EC2
:10065600F030C30542080F39C304F030C2055030EC
:10066600C4002230C50042084407C6004308453D81
:10067600C7004008460786004108473D87003E08F8
:10068600810441313F0881040130BD003D08AD07BA
:10069600033023006F06031D512B522B012D210021
:1006A6001B08BD00BE010A30BD35BE0D890B572B98
:1006B6002D08BF00C001BF35C00D2E08C100C20104
:1006C600C10EC20EF030C20541080F39C204F03027
:1006D600C1055030C3002230C40041084307C5009D
:1006E6004208443DC6003F08450786004008463D8F
:1006F60087003D08C03F3E08C13F09309131F421D3
:10070600803121001C08BD00BE013D08BE00BD01B0
:100716002D08C000C101C035C10D2E08C200C3019D
:10072600C20EC30EF030C30542080F39C304F030C1
:10073600C2055030C4002230C50042084407C60036
:100746004308453DC7004008460786004108473D27
:1007560087003D08810441313E0881041B08BD0025
:10076600BE012D08BF00C001BF35C00D2E08C10057
:10077600C201C10EC20EF030C20541080F39C204D3
:10078600F030C1055030C3002230C4004108430791
:10079600C5004208443DC6003F084507860040089C
:1007A600463D87003D08810441313E088104013001
:1007B600BD003D08AD0708309131F421803121009C
:1007C6001C08BD00BE010D30BD35BE0D890BE72BE3
:1007D6002D08BF00C001BF35C00D2E08C100C201E3
:1007E600C10EC20EF030C20541080F39C204F03006
:1007F600C1055030C3002230C40041084307C5007C
:100806004208443DC6003F08450786004008463D6D
:1008160087003D08C03F3E08C13F1B08BD00BE0122
:100826000530BD35BE0D890B142C2D08BF00C00147
:10083600BF35C00D2E08C100C201C10EC20EF03078
:10084600C20541080F39C204F030C1055030C3005B
:100856002230C40041084307C5004208443DC60093
:100866003F08450786004008463D87003D08C03FD3
:100876003E08C13F07309131F421803121001C0828
:10088600BD00BE01BD35BE0DBD35BE0DBD35BE0DAF
:100896002D08BF00C001BF35C00D2E08C100C20122
:1008A600C10EC20EF030C20541080F39C204F03045
:1008B600C1055030C3002230C40041084307C500BB
:1008C6004208443DC6003F08450786004008463DAD
:1008D60087003D08810441313E0881041B08BD00A4
:1008E6000530BD36890B742C3D08BE00BF012D08AE
:1008F600C000C101C035C10D2E08C200C301C20E21
:10090600C30EF030C30542080F39C304F030C205E8
:100916005030C4002230C50042084407C6004308D0
:10092600453DC7004008460786004108473D870009
:100936003E08810441313F0881040130BD003D0875
:10094600AD071B08BD00BE010A30BD35BE0D890BC3
:10095600A82C2D08BF00C001BF35C00D2E08C10050
:10096600C201C10EC20EF030C20541080F39C204E1
:10097600F030C1055030C3002230C400410843079F
:10098600C5004208443DC6003F08450786004008AA
:10099600463D87003D08C03F3E08C13F06309131C5
:1009A600F421803121002D08BD00BE01BD35BE0DEC
:1009B6002E08BF00C001BF0EC00EF030C0053F08B4
:1009C6000F39C004F030BF055030C1002230C200DC
:1009D6003F084107C3004008423DC4003D084307A5
:1009E60086003E08443D87001B08C03F1C08C13FE7
:1009F6000130BD003D08AE07AD011D1008000034F2
:100A06000034013400340234003403340034043436
:100A16000034053400340634003407340034083416
:100A26000034093400340A3400340B3400340C34F6
:100A360000340D3400340E3400340F3400341034D6
:100A460000341134003412340034133400341434B6
:100A56000034153400341634003417340034183496
:100A66000034193400341A3400341B3400341C3476
:100A760000341D3400341E3400341F340034203456
:100A86000034213400342234003423340034243436
:100A96000034253400342634003427340034283416
:100AA6000034293400342A3400342B3400342C34F6
:100AB60000342D3400342E3400342F3400343034D6
:100AC60000343134003432340034333400343434B6
:100AD6000034353400343634003437340034383496
:100AE6000034393400343A3400343B3400343C3476
:100AF60000343D3400343E3400343F340034403456
:100B06000034413400344234003443340034443435
:100B16000034453400344634003447340034483415
:100B26000034493400344A3400344B3400344C34F5
:100B360000344D3400344E3400344F3400345034D5
:100B460000345134003452340034533400345434B5
:100B56000034553400345634003457340034583495
:100B66000034593400345A3400345B3400345C3475
:100B760000345D3400345E3400345F340034603455
:100B86000034613400346234003463340034643435
:100B96000034653400346634003467340034683415
:100BA6000034693400346A3400346B3400346C34F5
:100BB60000346D3400346E3400346F3400347034D5
:100BC60000347134003472340034733400347434B5
:100BD6000034753400347634003477340034783495
:100BE6000034793400347A3400347B3400347C3475
:100BF60000347D3400347E3400347F340034803455
:100C06000034813400348234003483340034843434
:100C16000034853400348634003487340034883414
:100C26000034893400348A3400348B3400348C34F4
:100C360000348D3400348E3400348F3400349034D4
:100C460000349134003492340034933400349434B4
:100C56000034953400349634003497340034983494
:100C66000034993400349A3400349B3400349C3474
:100C760000349D3400349E3400349F340034A03454
:100C86000034A1340034A2340034A3340034A43434
:100C96000034A5340034A6340034A7340034A83414
:100CA6000034A9340034AA340034AB340034AC34F4
:100CB6000034AD340034AE340034AF340034B034D4
:100CC6000034B1340034B2340034B3340034B434B4
:100CD6000034B5340034B6340034B7340034B83494
:100CE6000034B9340034BA340034BB340034BC3474
:100CF6000034BD340034BE340034BF340034C03454
:100D06000034C1340034C2340034C3340034C43433
:100D16000034C5340034C6340034C7340034C83413
:100D26000034C9340034CA340034CB340034CC34F3
:100D36000034CD340034CE340034CF3400342000B7
:100D46005203031DA72EA82EC02E50081F39003AA5
:100D5600031DAE2EAF2EC02E2100A8170330200093
:100D66005106031DB72EB82EBE2E0130E6006608CA
:100D76002300EB00C02E2300EB0120005208031DC8
:100D8600C52EC62EF92F50081F39023A031DCC2E48
:100D9600CD2EF92F54080F39003A0319D32ED42E2D
:100DA600F92F54080F39E600033066020318DC2ECB
:100DB600DD2EF92F203021003306031DE32EE42E0D
:100DC600F92FA8172000D41BE92EEA2E002F54086D
:100DD6000F390907B73E860001308700403FEB0018
:100DE600413FEC0054080F39C13E860001308700B0
:100DF6000108E6006608EA00142F54080F390907AF
:100E0600A03E86008701403FEB00413FEC005408BE
:100E16000F39C43E8600013087000108E6006608E7
:100E2600EA006A18172F182F232FFB30E600FF3031
:100E3600E7006B086605EB006C086705EC00292FD8
:100E460004306B04EB0000306C04EC00D41B2C2F38
:100E56002D2F392F54080F390907B73E8600013068
:100E660087006B08C03F6C08C13F432F54080F39F9
:100E76000907A03E860087016B08C03F6C08C13F8A
:100E860003305106031D482F492F6F2F6B0886002C
:100E96006C088700811F502F512F642FD41B542FAD
:100EA600552F5D2F54080F39C13E8600013087004B
:100EB6008114642F54080F39C43E86000130870020
:100EC60081146B0886006C08870001156B08860084
:100ED6006C0887008117F92F04306B06EB00003091
:100EE6006C06EC006B0886006C088700811F7C2F5F
:100EF6007D2F9A2F7F30E6006B0886006C088700EE
:100F0600660881056B0886006C08870001170530A6
:100F1600E0000030E1006C08E3006B08E2000230FC
:100F2600E4000030E5009331542386319F2F6B088F
:100F360086006C0887000117043020006B06EB0062
:100F460000306C06EC00EA18A92FAA2FB22F6B0806
:100F560086006C088700811FB12FB22FDD2FD41BAE
:100F6600B52FB62FBE2F54080F39C13E860001306B
:100F760087008110C52F54080F39C43E8600013002
:100F8600870081103B30E6006B0886006C088700FE
:100F9600660881050530E0000030E1006C08E300DA
:100FA6006B08E2000230E4000030E5009331542380
:100FB6008631E52F3B30E6006B0886006C0887001B
:100FC60066088105200054080F39983EE600E701BF
:100FD6000E30E73D6608E8006708E900FE30E600E7
:100FE60068088600690887006608810508002400ED
:0A0FF600161591318721873108009C
:101004000830F0007008F200003021002A02083095
:101014000319290203180F28102827282908F0008B
:101024007008F2003108031D182819281E28013001
:10103400F0007008B10027283103031D222823285B
:1010440027280230F0007008B1007208F000F101A6
:101054007008A9027108AA3B2008013EF000003084
:10106400213DF10070088600710887007208810034
:101074005830F00070082300EC00210028184328A1
:1010840044287D285E28210026088400270885003E
:101094000008F00023006C088600870170088100B6
:1010A40001302100A6070030A73D0130F000700890
:1010B4002300EC070130F2027208031D6228632842
:1010C4004528822821002608840027088500000876
:1010D400F00023006C08860087017008810001304D
:1010E4002100A6070030A73D0130F000700823005E
:1010F400EC070130F2027208031D8128822864285B
:101104000800F8007008031988288928922878357F
:10111400A03E86008701403FF900413FFA009B282A
:101124007835B73E860001308700403FF900413FE3
:10113400FA0079087A04031DA028A128A428F00144
:10114400F1010929FF307105F4007F307205F500C3
:10115400790886007A08870042317408C03F750810
:10116400C13F7908013EF40000307A3DF50074086F
:10117400860075088700730881004030F400790800
:1011840086007A08870074088105790886007A0841
:1011940087008115790886007A088700811770080E
:1011A4000319D528D628ED287835A03E8600870176
:1011B400403FF400413FF50004307406F60000306F
:1011C4007506F7007835A03E860087017608C03F93
:1011D4007708C13F05297835B73E8600013087007E
:1011E400403FF400413FF50004307406F60000303F
:1011F4007506F7007835B73E86000130870076081B
:10120400C03F7708C13F7A08F1007908F000080070
:101214002000500E890C0339003A031912291329AE
:10122400662991292100A81708302000ED006D08D7
:101234002100B300912989319221893191298A3180
:101244001D2289319129B5302100A6000030A70064
:10125400281401302000ED006D082100A900A81712
:10126400912995314725893191298631A2268931E1
:1012740091295408ED3E2100A6000130A70028144E
:1012840001302000ED006D082100A900A817912964
:101294002100A81720005208ED005408ED3E8600F6
:1012A400013087006D08810091290230E000003090
:1012B400E1000030E2000030E3000030E400E5002B
:1012C40093315423893191295108ED00EE016E08C0
:1012D400003A03196E2991296D08003A031933293C
:1012E400013A03193729023A03193729063A03192F
:1012F4001429033A03191D29013A031957290F3AEE
:1013040003192529013A03192129033A03193B2911
:10131400013A03194A29073A031991299129080026
:10132400803020005006031D982999291C2AC030BA
:10133400F00070082100A800082A8D302100A600C2
:101344009830A7000030AA001230A9001C2A5208C5
:10135400031DAD29AE29DD295208F000F101F03555
:10136400F10DB330700784009830713D8500003F63
:101374002100A600013FA7002708F1002608F0007D
:1013840002307007840071080318710A8500000890
:10139400F2007208A9002708F1002608F0000330C3
:1013A4007007840071080318710A85000008F200B0
:1013B4007208AA001C2A2100A8011C2A0430520227
:1013C4000318E529E629022A5208F000F101F03554
:1013D400F10D9F30700784009830713D8500003F07
:1013E4002100A600013FA7002608840027088500E5
:1013F4000008F000F1017008A9007108AA001C2A75
:101404002100A8011C2A2100A8011C2A200053083D
:10141400F000F1017108003A0319112A052A700835
:10142400013A03199F29033A0319A929013A031917
:10143400E029052A08002100A8170E302000E80042
:101444009930E700E9016708860068088700810190
:101454000130E7070030E83D0130E6006608E9079F
:1014640002306902031C372A382A252A2030F0006A
:101474000030F1000030F200F3003030F4000030AE
:10148400F5008E3116268A313D000E172000EA0140
:101494006A08C43E86000130870081016A08C13EA3
:1014A40086000130870081010130E6006608EA0702
:1014B40003306A02031C5F2A602A4A2AED30F000D6
:1014C4000130F1000030F200F3000230F40000308B
:1014D400F5008E3116268A313D000E132830210086
:1014E400A0000030A10020302000E60066082100A2
:1014F400B2003208AB00FF39031D0030AC002000FD
:101504005208E60066082100B5003508031D8B2A41
:101514008C2A932A10302000E60066082100B300CC
:10152400A92A01302000E0000030E100B530E200DB
:101534000030E3000130E4000030E500933154232F
:101544008A3120302000E60066082100B30008003C
:101554003D000E122100A81BB02AB12AF92A23004B
:10156400B21FB52AB62AC82A0230F5007508210030
:10157400B00023006208031DC02AC12AC42A943182
:10158400E7248A312300E401E5014A2B21002B08DA
:10159400013EF50000302C3DF60075088600760803
:1015A4008700083081005030F5000030F6002B0829
:1015B40086002C08870042317508C03F7608C13F79
:1015C4002B0886002C0887000C3081002B0886002D
:1015D4002C08870081172008860021088700043022
:1015E4008100200886002108870081174A2B2000EB
:1015F400D01FFD2AFE2A182B0130F50075082100A2
:10160400B00023006308031D082B092B0C2B943115
:10161400E7248A312300E401E5016608031D132B46
:10162400142B4A2B97310D278A314A2B0230F500AF
:1016340075082100B0002B08013EF50000302C3D58
:10164400F60075088600760887000830810050305F
:10165400F5000030F6002B0886002C088700423184
:101664007508C03F7608C13F2B0886002C08870008
:10167400043081002B0886002C0887008117230082
:10168400E401E5016608031D482B492B4A2B142B62
:101694000800210012113D009301900198010E30C1
:1016A400F2009930F100F301710886007208870096
:1016B40081010130F1070030F23D0130F000700883
:1016C400F30702307302031C682B692B562B163068
:1016D4003D0091009F3097007B309200F401740824
:1016E400F0000130F035FF3E031D742B7035203EB1
:1016F400860087010030C03F0030C13FC23FC33F76
:101704000130F0007008F4070C307402031C8B2BBA
:101714008C2B712B3D000E1796010E120E13F73011
:10172400F000700890052100A8012300B201B30164
:10173400B4013D0090199F2BA02B912B0130F00098
:1017440070082300E5000130F0007008E400E301B4
:10175400E201EA01F4017435A03E860087010030FD
:10176400C03FC13F7435B73E86000130870000306A
:10177400C03FC13F7408C43E860001308700810128
:101784007408C13E86000130870081010130F000F9
:101794007008F40703307402031CD12BD22BAD2B39
:1017A40028302100A0000030A10016303D00980030
:1017B40000302000A3005030A2000830A100043003
:1017C400F0007008A000A0172100B501003023002C
:1017D400C0000030BF000030BE000030BD00E10199
:1017E4002100B30108002100320886008701413F2F
:1017F400F5007508F200F301730823003402031D99
:10180400052C720833020318082C092C0D2C3308FC
:10181400F2007208F5007508F200F3017208B302D1
:101824007308B43BF4012A2C7408583E86008701DF
:101834000108F20030088600023087007208810037
:101844000130F2007208B0070130F2007208F407A8
:1018540075087402031C2F2C302C162C3308340406
:101864000319352C362C6F2C21002B08013EF20075
:1018740000302C3DF300720886007308870008309E
:1018840081005830F2000030F3002B0886002C0849
:10189400870042317208C03F7308C13F3208860096
:1018A4008701011B562C572C632C2B0886002C080F
:1018B4008700483081002B0886002C088700811798
:1018C400A02C2B0886002C088700083081002B08E8
:1018D40086002C0887008117A02C21002B08013ECC
:1018E400F20000302C3DF300720886007308870074
:1018F400083081005030F2000030F3002B088600DD
:101904002C08870042317208C03F7308C13F2B087E
:1019140086002C088700043081002B0886002C08E0
:1019240087008117230035083608B2136608031DA3
:101934009C2C9D2CA02C97310D278B310800210065
:1019440012113D009301900198010E302100BD0059
:101954009930BC00BE013C0886003D088700810127
:101964000130BC070030BD3D0130BB003B08BE0761
:1019740002303E02031CBF2CC02CAD2C16303D009F
:1019840091009F3097007B3092002100BF013F08F7
:10199400BB000130BB35FF3E031DCC2C3B35203E44
:1019A400860087010030C03F0030C13FC23FC33FC3
:1019B4000130BB003B08BF070C303F02031CE32C83
:1019C400E42CC92C3D000E1796010E120E13F730AD
:1019D4002100BB003B083D0090052100A801230025
:1019E400B201B301B4013D009019F92CFA2CE92C91
:1019F40001302100BB003B082300E5000130210039
:101A0400BB003B082300E400E301E201EA012100FA
:101A1400BF013F35A03E860087010030C03FC13F73
:101A24003F35B73E8600013087000030C03FC13FDC
:101A34003F08C43E86000130870081013F08C13E53
:101A440086000130870081010130BB003B08BF07DD
:101A540003303F02031C2F2D302D0B2D2830A00006
:101A64000030A10016303D00980000302000A30093
:101A74005030A2000830A10004302100BB003B0814
:101A84002000A000A0172100B50100302300C000F1
:101A94000030BF000030BE000030BD00E101210075
:101AA400B30108001F3021003C05C00000303D0593
:101AB400C100400841040319602D612D622D152ECB
:101AC4002400C70121003D08C00040082400C500CF
:101AD40021003C08C00040082400C6009131812147
:101AE4008D31A0309131A9218D31240045089131E7
:101AF400A9218D31240046089131A9218D3124007A
:101B0400C801C90149082100C000C101C035C10D87
:101B1400240047082100C200C301C235C30D2400BC
:101B2400480821004207C40043080318430AC500BB
:101B3400C40EC50EF030C50544080F39C504F03095
:101B4400C40544083E07C60045083F3DC700400899
:101B5400460786004108473D8700403FC800413F93
:101B6400C90049089131A9218D3124004908210077
:101B7400C000C101C035C10D240047082100C200C6
:101B8400C301C235C30D2400480821004207C40024
:101B940043080318430AC500C40EC50EF030C5053A
:101BA40044080F39C504F030C40544083E07C60094
:101BB40045083F3DC7004008460786004108473DA9
:101BC400870001089131A9218D3101302100C00025
:101BD40040082400C90708304902031CF22DF32DE4
:101BE400842D01302100C00040082400C8070230C1
:101BF4004802031CFE2DFF2D832D8731FA278D31DA
:101C04009131E4218D3120302100BC070030BD3DED
:101C14000130C00040082400C7070D304702031CF0
:101C2400142E152E642D08007108FD007008FC00A8
:101C340074087504031D1F2E202E212EDF2E7C0810
:101C440086007D0887007208810074087C07F6000E
:101C540075087D3DF7007608FF3EF800FF30773DBC
:101C6400F90078088600790887007208810000303E
:101C740075020330031974020318412E422E432EB9
:101C8400DF2E7C08013EF60000307D3DF70076082B
:101C9400860077088700720881007C08023EF600FF
:101CA40000307D3DF70076088600770887007208CB
:101CB400810074087C07F60075087D3DF7007608FE
:101CC400FE3EF800FF30773DF90078088600790879
:101CD40087007208810074087C07F60075087D3D52
:101CE400F7007608FD3EF800FF30773DF9007808EC
:101CF4008600790887007208810000307502073079
:101D0400031974020318872E882E892EDF2E7C086F
:101D1400033EF60000307D3DF70076088600770824
:101D240087007208810074087C07F60075087D3D01
:101D3400F7007608FC3EF800FF30773DF90078089C
:101D44008600790887007208810000307502093026
:101D5400031974020318AF2EB02EB12EDF2E7C09A6
:101D6400F6007D09F700F60A0319F70A0330760531
:101D7400FA0000307705FB007A08FC077B08FD3D7C
:101D84007A08F4027B08F53BFC30F405FF30F505D6
:101D9400D92E7C0886007D088700720881000130F6
:101DA400F4020030F53B0130FC070030FD3D7408BF
:101DB4007504031DDE2EDF2ECB2E08002100330315
:101DC400031DE52EE62EF32E3D008E1AEA2EEB2E91
:101DD400F32E90011214121602302100B8003808B4
:101DE400B3003D00101DF72EF82E052F121DFB2EFB
:101DF400FC2E052FFB302100B80038083D0090056B
:101E0400923190228E313D008E1C092F0A2F0D2F06
:101E140020001211FF2F101C102F112F232F121C22
:101E2400142F152F232F8B314B238E3121001215A4
:101E34000430B8003808B300FE30B80038083D005C
:101E44009005101E262F272F2E2F121E2A2F2B2FE0
:101E54002E2F923170228E313D00101F322F332FDE
:101E6400602F121F362F372F472F73302000E000CA
:101E74000030E1000030E2000030E3000130E40013
:101E84000030E500933154238E31BF302100B80077
:101E940038083D009005923136228E3123006708C0
:101EA4000319552F562F582F0130E7026708031DD9
:101EB4005C2F5D2F602F97310D278E313D00901ED2
:101EC400642F652F6C2F921E682F692F6C2F92310F
:101ED400FB228E313D00901C702F712F872F921C96
:101EE400742F752F872FFF302000E0007F30E10032
:101EF4000030E2000030E3000130E4000030E5008F
:101F0400933154238E313D00930104302100330278
:101F140003188D2F8E2F912F20001211FF2F3D00BB
:101F2400921D952F962FFD2F2100BA013D00901D83
:101F34009C2F9D2FFD2F0F082100B8003808B400F6
:101F4400340CB800B80C380C0F39B9003908230028
:101F5400E900F7302100B80038083D009005210061
:101F64003419B52FB62FC82F23006908C13E860047
:101F740001308700010801392100B8000130B8069A
:101F840001083806FE3938068100D92F2300690874
:101F9400C43E860001308700010801392100B800E1
:101FA4000130B80601083806FE39380681002300DE
:101FB4006908031DDE2FDF2FE32F943191248E3126
:101FC400F22F72302000E0000030E100B430E20073
:101FD4000030E3000030E400E500933154238E31F7
:101FE40001302100B8003808BA0704303A02031C53
:0C1FF400FC2FFD2F982F20001211080078
:1022FA001630210097000800240016149131872116
:10230A00913108002000911D8B298C298729911170
:10231A000800903021009E009F019B019C01013022
:10232A009D00080021003C082400CC0021003B0845
:10233A002400CB00080021003C082300CA00210029
:10234A003B082300C90008002100BB003B08240009
:10235A0091009131872191310800240094010830BD
:10236A0095009601133092002000911124009516D1
:10237A0008006400800101310130FE020030FF3B99
:10238A007F087E04031DBF290034FE0012001E00D0
:10239A000130FE020030FF3B7F087E04031DCB297B
:1023AA0000347C3021009900980127009B0122000B
:1023BA00960121001A1FE229E329DE29080091313A
:1023CA0081219131A0309131A92191312400161B2C
:1023DA00EF29F029E4298731FA27913108002100F1
:1023EA00BC003C08BB00BB0DBB0D1D083B06833976
:1023FA003B069D001D149D149D18042A052A012AD6
:10240A001D1008009231B22292319131D6219231B7
:10241A0091317D2192318C31A124923191318E21D9
:10242A00923192311D229231923152229231080018
:10243A0021001508C0391238950006302000950091
:10244A0006302100BD003D082300D9000B118B1670
:10245A0003302100BB000030BC009131A021923131
:10246A00080001302300BD070030BE3D0030BF3DEB
:10247A000030C03D6A08031D432A442A512A01300C
:10248A00F0007008E1076108031D4C2A4D2A512A01
:10249A00FF30F0007008E100080021003308031D36
:1024AA00572A582A6F2A3D008E0192011630910050
:1024BA009F3097007B30920021001215652A8E15F5
:1024CA003D008E1D692A6A2A642A01302100BB0058
:1024DA003B08B30008003D001215EF302000E6006B
:1024EA0066083D0090058E1401302000E60066085B
:1024FA002300EA00E10175302000E0000030E1002D
:10250A000030E2000030E3000030E400E5009331DF
:10251A005423923108002300EA0174302000E000BD
:10252A000030E1000030E2000030E3000030E40057
:10253A00E5009331542392313D008E101211AB2ADB
:10254A00FB302000E60066083D0090051019AE2A0F
:10255A00AF2AA52A2300E101080022008C018D017F
:10256A008E01303021008C00F0308D00FF308E005B
:10257A00CC3023008E008D018C0124008D018C014A
:10258A002100951722009D01270093129216911699
:10259A0000302100BB000030BC00913197219231FC
:1025AA000800FC00771DDA2ADB2AE02AF0017C0801
:1025BA009331F8239231F71CE32AE42AEA2AF0013C
:1025CA00F00A7C089331F82392317C08983EF8008F
:1025DA00F9010E30F93D7808FA007908FB007A080B
:1025EA0086007B0887007708810008003D00181CD8
:1025FA00FF2A002B212B2100320886008701803018
:10260A000106031D092B0A2B1F2B2008860021080F
:10261A00870084300106031D132B142B1F2B0C304B
:10262A00F0003208860087017008810032088600AF
:10263A00870181173D001810DF30F00070089005FF
:10264A000800F8007108F6007008F5007808F40030
:10265A007408F900472B7508860076088700010878
:10266A00F4007408F7000130F5070030F63D7708EA
:10267A00F400790886008701740881000130F400AB
:10268A007408F9070130F2020030F33B720A031DA5
:10269A00522B730A031D522B532B302B08005D2B30
:1026AA00933186239331852B9531AE259331852B32
:1026BA0020006108003A0319662B7F3A0319802B20
:1026CA00852B6008013A0319552B033A0319852B08
:1026DA00013A0319592B063A0319852B773A03193C
:1026EA00852B013A0319852B073A0319852B013AE1
:1026FA000319852B852B6008FF3A0319852B852B37
:10270A00080000302400C1000030C0004B30BF0078
:10271A000030BE00C201C3010830FD007D08C400BC
:10272A002300E0011A30FD007D08F70001309231E4
:10273A00D62293311E30FD007D08F7000230923117
:10274A00D6229331F001C030F1002030F20040303F
:10275A00FD007D08F300023088318320933171082F
:10276A002300D0007008CF00CD01CE012100AF01B7
:10277A000800023021003006031DC42BC52BC92BCB
:10278A008B31F5239331F72BB00123006808031D21
:10279A00CF2BD02BF62B21002B08013EF600003060
:1027AA002C3DF700760886007708870008308100FC
:1027BA005030F6000030F7002B0886002C088700FE
:1027CA0042317608C03F7708C13F2B0886002C08A3
:1027DA0087000C3081002B0886002C08870081179F
:1027EA00F72BE8010800F5002030F1007108F60027
:1027FA007008F1000130F135890B002C7508F200E0
:10280A000130F235FF3E031D062C72357107F300C5
:10281A000130F335FF3E031D0E2C7335F4007408A6
:10282A00F60776088600870181137008031D1E2C9F
:10283A001F2C292C7535B73E860001308700760893
:10284A00C03F0030C13F312C7535A03E860087015C
:10285A007608C03F0030C13F760886008701011321
:10286A007608043E86008701011708002100B1019D
:10287A002300E601E301E201E8012100B0017F3013
:10288A002000EF0021002008860021088700200090
:10289A006F088105043021002006A00000302106BF
:1028AA00A1007F302000EF002100200886002108C7
:1028BA00870020006F088105043021002006A0004F
:1028CA0000302106A1007F302000EF0021002B08F4
:1028DA0086002C08870020006F0881052100A801C6
:1028EA00A901AA012300B201B301B40189310A2165
:1028FA00943103302000E0000030E1000030E200B3
:10290A000030E3000030E400E500933154239431B1
:10291A008A31AA22943108002D302100B6003608E7
:10292A002300E70021003408FD39031D9D2C9E2C4D
:10293A00DA2C34363F39B6000130B635FF3E031D76
:10294A00A22C3635203EB7003708B2003208AB0059
:10295A00FF39031D0030AC0004302B06AB000030F9
:10296A002C06AC00320886008701010C890C0F394D
:10297A000D3A031DC12CC22CD62C3208023E860009
:10298A008701403FF000413FF1000830F20000307B
:10299A00F300503093312623943194313B249431FF
:1029AA00E62C9331BE239431E62CFD303405B60073
:1029BA0004303606031DE22CE32CE62C97318627D9
:1029CA00943108002300E301E201023021003006BD
:1029DA00031DF02CF12C162D2B08013EF3000030BC
:1029EA002C3DF400730886007408870008308100C3
:1029FA005830F3000030F4002B0886002C088700BA
:102A0A0042317308C03F7408C13F2B0886002C0866
:102A1A008700483081002B0886002C088700811720
:102A2A00462D2A0820005702031D1F2D21002908C0
:102A3A00200056020318222D232D2A2D5708210083
:102A4A00AA00200056082100A900883102209431EA
:102A5A005830F3000030F4002100200886002108D5
:102A6A00870042317308C03F7408C13F20088600BE
:102A7A002108870048308100200886002108870045
:102A8A00811708002000D801D9018B2D2100A81731
:102A9A0023006B03031D522D532D9F2D2000D814A4
:102AAA009F2D2100A8179F2D2100A8172000D41BB5
:102ABA005F2D602D6C2D54080F390907B73E86002B
:102ACA0001308700403FF200413FF300762D540861
:102ADA000F390907A03E86008701403FF200413FB7
:102AEA00F3007208860073088700811F7D2D7E2DF2
:102AFA009F2D7208860073088700011D852D862D7B
:102B0A009F2D0130F0007008D8009F2D50081F3902
:102B1A00F000F1017108003A0319942D9F2D7008F5
:102B2A00003A03194B2D013A0319562D033A03199A
:102B3A00592D9F2D2100A81FA32DA42DAD2D58304E
:102B4A00A6000030A70028140230F0007008A9007F
:102B5A000800200050081F39013A0319B52DB62D77
:102B6A00B72D1C2E500E890C0339013A0319BE2DBC
:102B7A00BF2DC02D1C2E54080319C42DC52D032E9C
:102B8A0054030319C92DCA2D032E1C2E36302100D9
:102B9A00A6000230A7000030AA000830A9002814B5
:102BAA00A8171C2E36302100A6000230A700A8174D
:102BBA001C2E57082300B400200056082300B30037
:102BCA003E30F0007008B000B501B601B2171C2EF5
:102BDA003E302100A6000230A7000030AA000730CC
:102BEA00A900C130F0007008A8001C2E5208F0009D
:102BFA0070082300DD002100A8171C2E5108F000E0
:102C0A00F1017108003A03190B2E1C2E7008003AC4
:102C1A000319CB2D013A0319D72D213A0319DE2DB9
:102C2A00013A0319ED2D033A0319FB2D1C2E080056
:102C3A000B112300590820009500230049084A0473
:102C4A000319282E292E2E2E4A088A0049080A001E
:102C5A00963101302300CB070030CC3D13304C02B3
:102C6A00883003194B02031C3B2E3C2E4D2E2100AB
:102C7A008E12133023004C029C3003194B02031CA2
:102C8A00472E482E4D2E21008E162300CB01CC0153
:102C9A0001302400B0070030B13D3108803AF0001D
:102CAA00F5307002031D5B2E30303002031C5E2E9D
:102CBA005F2E652E2400B001B1012300DC01DC0A7D
:102CCA0001302400B2070030B33D3308803AF000E7
:102CDA0080307002031D732E0A303202031C762ED6
:102CEA00772E942E24002F08803AF000803070024C
:102CFA00031D812E4E302E020318842E852E8E2E11
:102D0A0001302400AE070030AF3D2300DA01DA0AB1
:102D1A00912E2300DB01DB0A2400B201B301080073
:102D2A009231072296319131B22196318B170B17C6
:102D3A0023005A080319A22EA32ECB2EDA01570814
:102D4A00031DA82EA92EB42E003080317120963191
:102D5A0001302400CA004A082300D707CB2E5703A4
:102D6A00031DB82EB92EBE2E013080317120963146
:102D7A00AD2E02305706031DC32EC42ECB2E0330B0
:102D8A008031712096312300D701CB2E5C080319BC
:102D9A00CF2ED02EDE2EDC01270093128B15630076
:102DAA008B11270093122300D601DB012400AE0108
:102DBA00AF0123005B080319E32EE42E9D2E56086B
:102DCA00031DE82EE92E9D2EDB010F304802FF304D
:102DDA0003194702031CF22EF32EF52EC701C80170
:102DEA0048082100BD00230047082100BC005030DC
:102DFA00BE002230BF008D3154259631A030230009
:102E0A00C7070130C83DD601D60A9D2E8031262833
:102E1A0023006508031D122F132F852F0130F000A0
:102E2A007008E5006408031D1B2F1C2F852F013035
:102E3A00F0007008E400023021003006031D262F3E
:102E4A00272F392F20088600210887004131810168
:102E5A002008860021088700483081002008860063
:102E6A00210887008117852F3003031D3D2F3E2F30
:102E7A00852F2300E8010830F0002100320A86007D
:102E8A008701700881005030F0000030F1003208EC
:102E9A00023E860087017008C03F7108C13F0430B6
:102EAA00F000320886008701700881003208860027
:102EBA00870181170130F00070082300E800210023
:102ECA002B08013EF00000302C3DF100700886000E
:102EDA0071088700083081005030F0000030F1009E
:102EEA002B0886002C08870042317008C03F710801
:102EFA00C13F2B0886002C08870080308100852F6F
:102F0A000800210020088600210887000030011BE4
:102F1A000130F50004302006A00000302106A1008F
:102F2A0008303306031D9A2F9B2FB02F200052081A
:102F3A007F393D00960016080319A42FA52FAB2F41
:102F4A001030F30073082100B300B02F0430F300EF
:102F5A0073082100B3003003031DB42FB52FF52FDA
:102F6A005830F3000030F40020088600210887005A
:102F7A0042317308C03F7408C13F8831022097313B
:102F8A00023021003106031DCB2FCC2FD82F200869
:102F9A008600210887000430810020088600210865
:102FAA0087008117FF2F7508031DDC2FDD2FE92FFE
:102FBA002008860021088700483081002008860002
:102FCA00210887008117FF2F200886002108870023
:102FDA000830810020088600210887008117FF2F0A
:102FEA002300B21FF92FFA2FFD2F35083608B21326
:102FFA002100B00108000934023443340034023499
:10300A0001340034C0343234093404340034003416
:10301A0001340234023401340034053424340034D7
:10302A001034013404342434023402340534243490
:10303A0006340034013405342434013400340134B4
:10304A0007340534813403340A3400340234093431
:10305A0004340134003402340A34003400340034B5
:10306A00073405340234023440340034003407345F
:10307A0005348234023440340034003434340334A6
:10308A004D3400346934003463340034723400340B
:10309A006F340034633400346834003469340034E3
:1030AA00703400342034003454340034653400342D
:1030BA0063340034683400346E3400346F340034BE
:1030CA006C3400346F34003467340034793400349B
:1030DA0020340034493400346E340034633400340C
:1030EA002E34003416340334533400346D3400342F
:1030FA0061340034723400347434003420340034BF
:10310A0053340034683400346F3400346534003486
:10311A0012340134003402340234003400340834E6
:10312A00D83404340A34003400340134013402340B
:10313A0003340134AF3498344334983477349834B0
:10314A00A734983408340334313400343234003428
:10315A0034340034043403340934043400349834E5
:020000040001F9
:04000E00E43FFF3F8D
:00000001FF
