:020000040000FA
:1000000080314228053008007E1480318B1D09287C
:100010000A2812280B1C0D280E2812289B316F234A
:10002000803140280B1F1528162840282100121D5A
:100030001A281B2824282000121D1F2820282428C5
:1000400083310D23803140282100921D2828292842
:1000500035282000921D2D282E28352821003C0807
:100060008A003B080A00803140282100911D392870
:100070003A2840282000911D3E283F2840282E285D
:100080007E10090080314428503084000030850003
:100090000B309B3151238031A0308400003085002B
:1000A00031309B3151238031203084000130850074
:1000B0002D309B31512380317E10200096318A2EC5
:1000C00020004203031D652866287C2840081F394C
:1000D000003A031D6C286D287C28D2170330410696
:1000E000031D732874287A2801302100D90059088B
:1000F000C8007C282100C80120004208031D812877
:100100008228BE2940081F39023A031D8828892801
:10011000BE2944080F39003A03198F289028BE29B8
:1001200044080F392100D9000230590203189928D8
:100130009A28BE2920304D06031D9F28A028BE29DD
:100140002000D217C41BA528A628BD2844080F39B3
:100150000907AB3E86008701403F2100DE00413F9A
:10016000DF00200044080F39B73E860087010108F0
:100170002100D9005908DD00D32844080F390907A8
:10018000553E86008701403F2100DE00413FDF00F1
:10019000200044080F39B93E86008701010821007C
:1001A000D9005908DD005D18D628D728E228FB3091
:1001B000D900FF30DA005E085905DE005F085A05F5
:1001C000DF00E82804305E04DE0000305F04DF005A
:1001D0002000C41BEC28ED28F92844080F39090732
:1001E000AB3E8600870121005E08C03F5F08C13F2B
:1001F000042944080F390907553E8600870121006C
:100200005E08C03F5F08C13F033020004106031D68
:100210000A290B29322921005E0886005F08870021
:10022000811F1329142926292000C41B18291929E4
:10023000202944080F39B73E8600870181142629FA
:1002400044080F39B93E86008701811421005E08F9
:1002500086005F08870001155E0886005F0887003A
:100260008117BE29043021005E06DE0000305F06E3
:10027000DF005E0886005F088700811F4029412952
:100280005E297F30D9005E0886005F088700590824
:1002900081055E0886005F08870001170530D300DE
:1002A0000030D4005F08D6005E08D5000230D700C9
:1002B0000030D8009F310027803163295E08860016
:1002C0005F0887000117043021005E06DE00003061
:1002D0005F06DF00DD186D296E2976295E0886002D
:1002E0005F088700811F75297629A1292000C41B7A
:1002F0007A297B29822944080F39B73E8600870175
:100300008110882944080F39B93E86008701811081
:100310003B302100D9005E0886005F08870059083D
:1003200081050530D3000030D4005F08D6005E0898
:10033000D5000230D7000030D8009F31002780312F
:10034000A9293B30D9005E0886005F08870059085C
:100350008105200044080F39983E2100D900DA01B8
:100360000E30DA3D5908DB005A08DC00FE30D900B7
:100370005B0886005C08870059088105080020009A
:100380004203031DC429C529DB2940081F39003A4F
:10039000031DCB29CC29DB29D21703304106031DCD
:1003A000D229D329D9290130F90079082100C800C0
:1003B000DB292100C80120004208031DE029E129B2
:1003C0000C2B40081F39023A031DE729E8290C2BA2
:1003D00044080F39003A0319EE29EF290C2B440881
:1003E0000F39F900023079020318F729F8290C2B8C
:1003F000203021004D06031DFE29FF290C2B200073
:10040000D217C41B042A052A192A44080F390907E0
:10041000AB3E86008701403FDE00413FDF004408DD
:100420000F39B73E860087010108F9007908DD0021
:100430002C2A44080F390907553E86008701403FA2
:10044000DE00413FDF0044080F39B93E86008701D6
:100450000108F9007908DD005D182F2A302A3B2AAF
:10046000FB30F900FF30FA005E087905DE005F0816
:100470007A05DF00412A04305E04DE0000305F04AC
:10048000DF00C41B442A452A502A44080F390907B3
:10049000AB3E860087015E08C03F5F08C13F5A2A15
:1004A00044080F390907553E860087015E08C03FA2
:1004B0005F08C13F03304106031D5F2A602A842A7A
:1004C0005E0886005F088700811F672A682A792AEC
:1004D000C41B6B2A6C2A732A44080F39B73E860066
:1004E00087018114792A44080F39B93E86008701B3
:1004F00081145E0886005F08870001155E0886008B
:100500005F08870081170C2B04305E06DE00003088
:100510005F06DF005E0886005F088700811F912A62
:10052000922AAF2A7F30F9005E0886005F088700B4
:10053000790881055E0886005F088700011705308D
:10054000F3000030F4005F08F6005E08F5000230AA
:10055000F7000030F8009E311D268131B42A5E0874
:1005600086005F0887000117043020005E06DE0069
:1005700000305F06DF00DD18BE2ABF2AC72A5E08EA
:1005800086005F088700811FC62AC72AF02AC41B7D
:10059000CA2ACB2AD22A44080F39B73E86008701DF
:1005A0008110D82A44080F39B93E8600870181108E
:1005B0003B30F9005E0886005F08870079088105F6
:1005C0000530F3000030F4005F08F6005E08F50027
:1005D0000230F7000030F8009E311D268131F82AE4
:1005E0003B30F9005E0886005F08870079088105C6
:1005F000200044080F39983EF900FA010E30FA3D08
:100600007908DB007A08DC00FE30F9005B08860020
:100610005C08870079088105080021004D03031D4F
:10062000122B132B212B3D008E1A172B182B212B4D
:1006300090011214121602302000E200620821001C
:10064000CD003D00101D252B262B332B121D292BF1
:100650002A2B332BFB302000E20062083D0090057E
:100660009D31202583313D008E1C372B382B3B2BB1
:10067000200012112B2C101C3E2B3F2B542B121C34
:10068000422B432B542B8D316025833121001215D1
:1006900004302000E20062082100CD00FE3020007E
:1006A000E20062083D009005101E572B582B5F2B6F
:1006B000121E5B2B5C2B5F2B9C318D2483313D0004
:1006C000101F632B642B902B121F672B682B772B2B
:1006D0007330F3000030F4000030F5000030F60015
:1006E0000130F7000030F8009E311D268331BF3005
:1006F0002000E20062083D0090059C3171248331A6
:10070000210044080319852B862B882B0130C40255
:100710004408031D8C2B8D2B902B9531982583310C
:100720003D00901E942B952B9C2B921E982B992B61
:100730009C2B9E314A2683313D00901CA02BA12B7F
:10074000B62B921CA42BA52BB62BFF30F3007F30C9
:10075000F4000030F5000030F6000130F700003002
:10076000F8009E311D2683313D00930104302100A5
:100770004D020318BC2BBD2BC02B200012112B2CBB
:100780003D00921DC42BC52B292C2000E4013D0007
:10079000901DCB2BCC2B292C0F082000E2006208E7
:1007A0002100CE004E0C2000E200E20C620C0F395A
:1007B000E30063082100C600F7302000E200620871
:1007C0003D00900521004E19E62BE72BF72B46083C
:1007D000B73E86008701010801392000E2000130A0
:1007E000E20601086206FE3962068100062C460810
:1007F000B93E86008701010801392000E20001307E
:10080000E20601086206FE39620681002100460800
:10081000031D0B2C0C2C102C9231D62283311E2C54
:100820007230F3000030F400CE30F5000030F600F6
:100830000030F700F8009E311D2683310130200082
:10084000E2006208E40704306402031C282C292C0F
:10085000C72B20001211080021004D03031D312C6D
:10086000322C3F2C3D008E1A362C372C3F2C900119
:100870001214121602302100E5006508CD003D007B
:10088000101D432C442C512C121D472C482C512C4C
:10089000FB302100E50065083D0090059D317E2577
:1008A00084313D008E1C552C562C592C20001211E1
:1008B000412D101C5C2C5D2C6F2C121C602C612CAB
:1008C0006F2C8631AD268431210012150430E500ED
:1008D0006508CD00FE30E50065083D009005101E5E
:1008E000722C732C7A2C121E762C772C7A2C9D313C
:1008F000022584313D00101F7E2C7F2CAC2C121F52
:10090000822C832C932C73302100D3000030D40030
:100910000030D5000030D6000130D7000030D800BC
:100920009F3100278431BF302100E50065083D007C
:1009300090059D315E258431210044080319A12CC6
:10094000A22CA42C0130C4024408031DA82CA92CFD
:10095000AC2C96310E2684313D00901EB02CB12C6B
:10096000B82C921EB42CB52CB82C9F315D27843145
:100970003D00901CBC2CBD2CD32C921CC02CC12C37
:10098000D32CFF302100D3007F30D4000030D500BD
:100990000030D6000130D7000030D8009F3100274A
:1009A00084313D009301043021004D020318D92CFD
:1009B000DA2CDD2C20001211412D3D00921DE12C7E
:1009C000E22C3F2D2100E7013D00901DE82CE92C91
:1009D0003F2D0F082100E5006508CE004E0CE50014
:1009E000E50C650C0F39E6006608C600F730E50037
:1009F00065083D00900521004E19FF2C002D0F2D9C
:100A00004608B73E8600870101080139E50001303C
:100A1000E50601086506FE39650681001D2D4608BC
:100A2000B93E8600870101080139E5000130E5067D
:100A300001086506FE39650681004608031D212D63
:100A4000222D262D923129228431342D7230D3006B
:100A50000030D400CE30D5000030D6000030D700B2
:100A6000D8009F310027843101302100E50065085E
:100A7000E70704306702031C3E2D3F2DE42C2000C5
:100A80001211080021004C0886008701413FD60062
:100A90005608D300D40154082402031D512D5308D5
:100AA00023020318542D552D592D2308D300530824
:100AB000D6005608D300D4015308A3025408A43B1F
:100AC000D501752D5508483E860087010108D300E1
:100AD000200886008701530881000130D3005308A5
:100AE000A0070130D3005308D50756085502031C50
:100AF0007A2D7B2D622D230824040319802D812D4E
:100B0000C12D20005908013E2100D30000302000F3
:100B10005A3D2100D400530886005408870008304D
:100B200081004830D3000030D400200059088600EE
:100B30005A088700423121005308C03F5408C13F82
:100B40004C0886008701011BA62DA72DB42D20007F
:100B5000590886005A0887004830810059088600E5
:100B60005A0887008117F82D2000590886005A0876
:100B7000870008308100590886005A0887008117CD
:100B8000F82D20005908013E2100D300003020003C
:100B90005A3D2100D40053088600540887000830CD
:100BA00081004030D3000030D40020005908860076
:100BB0005A088700423121005308C03F5408C13F02
:100BC0002000590886005A0887000430810059081F
:100BD00086005A0887008117210025082608A213DD
:100BE0004308031DF42DF52DF82D96310E26853181
:100BF0000800803020004006031DFF2D002EAC2E83
:100C0000C0302100D10051082000D200982EC430FD
:100C10002000D0009830D1000030D4001230D30032
:100C2000AC2E20004208031D162E172E4F2E420810
:100C30002100D100D201D135D20DEA305107840014
:100C40009830523D8500003F2000D000013FD10088
:100C500051082100D200200050082100D1000230AC
:100C60005107840052080318520A85000008D30077
:100C700053082000D30051082100D2002000500862
:100C80002100D10003305107840052080318520A92
:100C900085000008D30053082000D400AC2ED201F8
:100CA000AC2E0430200042020318572E582E792E05
:100CB00042082100D100D201D135D20DD6305107E2
:100CC00084009830523D8500003F2000D000013F55
:100CD000D100500884005108850000082100D1008F
:100CE000D20151082000D300210052082000D40076
:100CF000AC2EEE304206031D7E2E7F2E932EB23098
:100D0000D0009830D10050088400510885000008B8
:100D10002100D100D20151082000D3002100520847
:100D20002000D400AC2ED201AC2E2000D201AC2E7B
:100D300043082100D100D2015208003A0319A12E24
:100D4000952E5108013A0319072E033A0319112E63
:100D5000013A0319512E952E0800210012113D0071
:100D60009301900198010E302100D2009930D100FA
:100D7000D301510886005208870081010130D10754
:100D80000030D23D01302000E50065082100D30786
:100D900053080319CC2ECD2EB92E12303D009100F0
:100DA0009F3097007B3092002100D401540820002E
:100DB000E5000130E535FF3E031DDA2E6535203EA6
:100DC000860087010030C03F0030C13FC23FC33FB3
:100DD0000130E50065082100D40708305402031CE7
:100DE000F22EF32ED62E3D000E1796010E120E1384
:100DF000F7302000E50065083D0090052000D20195
:100E00002100A201A301A4013D009019082F092F80
:100E1000F82E01302000E50065082100C2000130F5
:100E20002000E50065082100C100C001BF01C70125
:100E3000D4015435553E860087010030C03FC13F84
:100E40005435AB3E860087010030C03FC13F540897
:100E5000B93E8600870181015408B73E86008701AC
:100E6000810101302000E50065082100D40702302F
:100E70005402031C3C2F3D2F192F28302000D50091
:100E80000030D60016303D00980000302000A3004E
:100E90004030A2000830A1000430E5006508A00041
:100EA000A0172100D0010030AA000030A9000030B6
:100EB000A8000030A700BE01CD0108003D000E12C1
:100EC0002000D21B642F652FAB2F2100A21F692F9A
:100ED0006A2F7A2F0230F5007508CA003F08031DFB
:100EE000722F732F762F9331302387312100C10168
:100EF000C201FB2F20005908013EF50000305A3D89
:100F0000F6007508860076088700083081004030BA
:100F1000F5000030F600590886005A088700423173
:100F20007508C03F7608C13F590886005A088700F7
:100F30000C308100590886005A088700811755082F
:100F40008600560887000430810055088600560840
:100F500087008117FB2FC01FAE2FAF2FC82F013086
:100F6000F50075082100CA004008031DB82FB92FED
:100F7000BC2F9331302387312100C101C2014308C6
:100F8000031DC32FC42FFB2F953198258731FB2FCD
:100F90000230F50075082100CA0020005908013E02
:100FA000F50000305A3DF600750886007608870087
:100FB000083081004030F5000030F6005908860006
:100FC0005A08870042317508C03F7608C13F59086A
:100FD00086005A08870004308100590886005A08A4
:100FE000870081172100C101C2014308031DF92FA9
:100FF000FA2FFB2FC42F080016302100970008009D
:101000009E31A426883108002000D2170E30DC0063
:101010009930DB00DD015B0886005C0887008101F8
:101020000130DB070030DC3D0130FA007A08DD07D3
:101030005D0803191C281D280B280030F000F10062
:101040002030F2000030F30020308C31BC24883195
:101050003D000E172000DE015E08B93E86008701C4
:1010600081015E08B73E8600870181010130FA00E8
:101070007A08DE0702305E02031C3F2840282C2835
:101080000030F000F1000130F2000030F300CF300A
:101090008C31BC2488313D000E1328302000D5004F
:1010A0000030D6002030FA007A082100CC004C082D
:1010B0002000D900FF39031D0030DA004208FA0091
:1010C0007A082100D0005008031D672868286D2881
:1010D0001030FA007A08CD0081280130F30000308A
:1010E000F400D030F5000030F6000130F700003099
:1010F000F8009E311D2688312030FA007A08210040
:10110000CD0008002000D2170E302100DD009930FC
:10111000DC00DE015C0886005D088700810101308B
:10112000DC070030DD3D0130DB005B08DE075E08D8
:1011300003199B289C288A280030D100D200203037
:10114000D3000030D40020308E31042688313D0099
:101150000E172100DF015F08B93E8600870181017B
:101160005F08B73E8600870181010130DB005B0824
:10117000DF0702305F02031CBE28BF28AB28003007
:10118000D100D2000130D3000030D400CF308E31F6
:10119000042688313D000E1328302000D500003091
:1011A000D60020302100DB005B08CC004C0820007A
:1011B000D900FF39031D0030DA0042082100DB00AE
:1011C0005B08D0005008031DE628E728EC28103003
:1011D000DB005B08CD0000290130D3000030D400D3
:1011E000D030D5000030D6000130D7000030D80014
:1011F0009F310027883120302100DB005B08CD00C3
:101200000800200055088600560887000030011BA2
:1012100001302100D500043020005506D5000030F3
:101220005606D600083021004D06031D182919293D
:101230002E29200042087F393D0096001608031928
:1012400022292329292910302100D3005308CD0059
:101250002E2904302100D3005308CD004A03031D7A
:101260003229332978294830D3000030D4002000B7
:101270005508860056088700423121005308C03FB8
:101280005408C13F8B3195238931023021004B0630
:10129000031D4B294C295929200055088600560862
:1012A00087000430810055088600560887008117A2
:1012B00080295508031D5D295E296B2920005508EA
:1012C0008600560887004830810055088600560879
:1012D000870081178029200055088600560887005E
:1012E000083081005508860056088700811780293C
:1012F000A21F7B297C297F2925082608A213CA0161
:1013000008000830F0007008F2000030200054029D
:1013100008300319530203188E298F29A72953086F
:10132000F0007008F20021004B08031D982999294C
:101330009E290130F0007008CB00A7294B03031D44
:10134000A229A329A7290230F0007008CB00720857
:10135000F000F10170082000D3027108D43B550859
:10136000013EF0000030563DF10070088600710823
:101370008700720881004830F00070082100C90021
:1013800020005218C429C529FE29DF292000500851
:101390008400510885000008F000210049088600FB
:1013A00087017008810001302000D0070030D13D56
:1013B0000130F00070082100C9070130F202720804
:1013C000031DE329E429C629032A200050088400CC
:1013D000510885000008F0002100490886008701B7
:1013E0007008810001302000D0070030D13D01306D
:1013F000F00070082100C9070130F2027208031DD5
:10140000022A032AE52908002100D80051080319FF
:101410000A2A0B2A142A5835553E86008701403F78
:10142000D900413FDA001C2A5835AB3E86008701BF
:10143000403FD900413FDA0059085A04031D212AD0
:10144000222A252AD101D201862A5208D40001304D
:10145000D500590886005A08870042315408C03F19
:101460005508C13F5908013ED40000305A3DD5000F
:101470005408860055088700530881004030D40086
:10148000590886005A0887005408810559088600C3
:101490005A0887008115590886005A088700811765
:1014A00051080319542A552A6C2A5835553E86008E
:1014B0008701403FD400413FD50004305406D60098
:1014C00000305506D7005835553E8600870156082E
:1014D000C03F5708C13F822A5835AB3E860087017E
:1014E000403FD400413FD50004305406D6000030C0
:1014F0005506D7005835AB3E860087015608C03FD9
:101500005708C13F5A08D2005908D1000800C0301E
:1015100020004006031D8D2A8E2ACA2AEE3041067D
:10152000031D932A942A0B2B043044064504031D03
:101530009A2A9B2A0B2B3430840098308500003F78
:101540002100D100013FD200520820004702031DB4
:10155000AD2A21005108200046020318B02AB12A02
:10156000B82A47082100D200200046082100D100F7
:1015700034302000D0009830D100210052082000E3
:10158000D400210051082000D300C030E5006508D8
:10159000D2000B2BC1304006031DCF2AD02A0B2BC3
:1015A000EE304106031DD52AD62A0B2B0530440602
:1015B0004504031DDC2ADD2A0B2B0030840090300B
:1015C0008500003F2100D100013FD20052082000D9
:1015D0004702031DEF2A210051082000460203188C
:1015E000F22AF32AFA2A47082100D20020004608EE
:1015F0002100D10000302000D0009030D100210027
:1016000052082000D400210051082000D300C0302F
:10161000E5006508D20008002000400E890C03395F
:10162000003A0319142B152B682B942B2000D2178A
:1016300008302100E0006008CD00942B8531F925A9
:101640008B31942B883182208B31942BD030200029
:10165000D0000030D100521401302100E0006008B9
:101660002000D300D217942B943151248B31942B2A
:10167000803160208B31942B20004408CF3ED00075
:101680000030D100521401302100E0006008200039
:10169000D300D217942B2000D21742082100E0007B
:1016A00020004408CF3E86008701210060088100A9
:1016B000942B0230D3000030D4000030D50000302D
:1016C000D6000030D700D8009F3100278B31942BF3
:1016D00041082100E000E1016108003A0319712B83
:1016E000942B6008003A0319342B013A0319382B64
:1016F000023A0319382B063A0319162B033A031939
:101700001E2B013A0319592B0F3A0319262B013AC4
:101710000319222B033A03193C2B013A03194B2BD3
:10172000073A0319942B942B080008302100D100AC
:1017300051082000E500003054020830031953021C
:101740000318A32BA42BBE2B53082100D100510852
:101750002000E50021004B08031DAF2BB02BB52B5B
:101760000130D1005108CB00BE2B4B03031DB92B18
:10177000BA2BBE2B0230D1005108CB0020006508E7
:101780002100D100D20151082000D30221005208CB
:101790002000D43B5508013E2100D100003020003C
:1017A000563D2100D20051088600520887002000D3
:1017B0006508810048302100D1005108C90020008F
:1017C0005218E32BE42B1D2CFE2B500884005108EB
:1017D000850000082100D1004908860087015108D2
:1017E000810001302000D0070030D13D01302100C0
:1017F000D1005108C90701302000E5026508031D2A
:10180000022C032CE52B222C500884005108850063
:1018100000082100D1004908860087015108810095
:1018200001302000D0070030D13D01302100D1002F
:101830005108C90701302000E5026508031D212C6D
:10184000222C042C0800803020004006031D292C87
:101850002A2CBB2CC030F0007008D200A82CC43059
:10186000D0009830D1000030D4001230D300BB2C0F
:101870004208031D3C2C3D2C6B2C4208F000F1016A
:10188000F035F10DEA30700784009830713D850025
:10189000003FD000013FD1005108F1005008F00096
:1018A00002307007840071080318710A850000086F
:1018B000F2007208D3005108F1005008F000033024
:1018C0007007840071080318710A85000008F2008F
:1018D0007208D400BB2CD201BB2C04304202031886
:1018E000722C732C8E2C4208F000F101F035F10DB2
:1018F000D630700784009830713D8500003FD000DD
:10190000013FD10050088400510885000008F00014
:10191000F1017008D3007108D400BB2CEE304206F0
:10192000031D932C942CA42CB230D0009830D100FD
:1019300050088400510885000008F000F10170088B
:10194000D3007108D400BB2CD201BB2CD201BB2C1C
:101950004308F000F1017108003A0319B02CA62CDD
:101960007008013A03192F2C033A0319382C013A55
:1019700003196D2CA62C0800F6007608F4007408F4
:10198000F90072087304031DC62CC72CC82C5F2DE8
:101990007008F400790886008701740881007008D7
:1019A000F40072087907F5007508FF3E860087018C
:1019B00074088100003073020330031972020318A7
:1019C000E22CE32CE42C5F2D7008F400790A8600E9
:1019D0008701740881007008F4007908023E8600CF
:1019E0008701740881007008F40072087907F50017
:1019F0007508FE3E86008701740881007008F400B7
:101A000072087907F5007508FD3E860087017408A5
:101A10008100003073020730031972020318112D80
:101A2000122D132D5F2D7008F4007908033E8600F7
:101A30008701740881007008F40072087907F500C6
:101A40007508FC3E8600870174088100003073022F
:101A500009300319720203182E2D2F2D302D5F2D02
:101A60007909F4007A09F500F40A0319F50A03303C
:101A70007405F70000307505F8007708F400740865
:101A8000F9077708F2027808F33BFC30F205FF30E3
:101A9000F305592D7008F400790886008701740851
:101AA00081000130F2020030F33B0130F400740891
:101AB000F90772087304031D5E2D5F2D4A2D08007F
:101AC000210012113D009301900198010E30F200A7
:101AD0009930F100F30171088600720887008101D6
:101AE0000130F1070030F23D0130F0007008F307DB
:101AF000730803197C2D7D2D6B2D12303D00910054
:101B00009F3097007B309200F4017408F0000130A0
:101B1000F035FF3E031D882D7035203E860087017D
:101B20000030C03F0030C13FC23FC33F0130F00032
:101B30007008F40708307402031C9F2DA02D852D1A
:101B40003D000E1796010E120E13F730F0007008CC
:101B500090052000D2012100A201A301A4013D00B3
:101B60009019B32DB42DA52D0130F000700821007F
:101B7000C2000130F0007008C100C001BF01C70100
:101B8000F4017435553E860087010030C03FC13FE7
:101B90007435AB3E860087010030C03FC13F7408FA
:101BA000B93E8600870181017408B73E860087012F
:101BB00081010130F0007008F40702307402031C48
:101BC000E22DE32DC12D28302000D5000030D600B5
:101BD00016303D00980000302000A3004030A200E5
:101BE0000830A1000430F0007008A000A017210008
:101BF000D0010030AA000030A9000030A800003059
:101C0000A700BE01CD0108002100D9005908D50068
:101C10005508DA0053085404031D0F2E102E112E00
:101C2000A82E5108D5005A08860087015508810062
:101C30005108D50053085A07D6005608FF3E8600C3
:101C40008701550881000030540203300319530204
:101C500003182B2E2C2E2D2EA82E5108D5005A0AF3
:101C600086008701550881005108D5005A08023EB8
:101C700086008701550881005108D50053085A078E
:101C8000D6005608FE3E860087015508810051089F
:101C9000D50053085A07D6005608FD3E8600870136
:101CA000550881000030540207300319530203180D
:101CB0005A2E5B2E5C2EA82E5108D5005A08033EE2
:101CC00086008701550881005108D50053085A073E
:101CD000D6005608FC3E860087015508810000307A
:101CE00054020930031953020318772E782E792EE7
:101CF000A82E5A09D5005B09D600D50A0319D60AC1
:101D000003305505D70000305605D8005708D500D8
:101D10005508DA075708D3025808D43BFC30D305DE
:101D2000FF30D405A22E5108D5005A08860087013D
:101D3000550881000130D3020030D43B0130D5007A
:101D40005508DA0753085404031DA72EA82E932E16
:101D500008003D000E122000D21BAF2EB02EFC2E2C
:101D60002100A21FB42EB52EC52E0230D500550875
:101D7000CA003F08031DBD2EBE2EC12E9331ED2398
:101D80008E312100C101C201522F20005908013EAD
:101D90002100D500003020005A3D2100D600550812
:101DA000860056088700083081004030D50000309A
:101DB000D6002000590886005A08870042312100C9
:101DC0005508C03F5608C13F2000590886005A08F0
:101DD00087000C308100590886005A088700811757
:101DE0005508860056088700043081005508860093
:101DF000560887008117522FC01FFF2E002F192F62
:101E000001302100D5005508CA004008031D092FE4
:101E10000A2F0D2F9331ED238E312100C101C20114
:101E20004308031D142F152F522F96310E268E3185
:101E3000522F02302100D5005508CA002000590851
:101E4000013E2100D500003020005A3D2100D6007F
:101E50005508860056088700083081004030D500BC
:101E60000030D6002000590886005A088700423109
:101E700021005508C03F5608C13F20005908860080
:101E80005A08870004308100590886005A088700E4
:101E900081172100C101C2014308031D502F512F9A
:101EA000522F152F080021004C0886008701413F62
:101EB000F5007508F200F30173082402031D622F78
:101EC000720823020318652F662F6A2F2308F20079
:101ED0007208F5007508F200F3017208A302730896
:101EE000A43BF401862F7408483E86008701010850
:101EF000F200200886008701720881000130F2009C
:101F00007208A0070130F2007208F4077508740225
:101F1000031C8B2F8C2F732F230824040319912F5C
:101F2000922FCE2F20005908013EF20000305A3D7A
:101F3000F30072088600730887000830810048307B
:101F4000F2000030F300590886005A088700423139
:101F50007208C03F7308C13F21004C08860087010A
:101F6000011BB32FB42FC12F2000590886005A0837
:101F7000870048308100590886005A088700811779
:101F8000FF2F2000590886005A088700083081007A
:101F9000590886005A0887008117FF2F200059082A
:101FA000013EF20000305A3DF300720886007308CB
:101FB0008700083081004030F2000030F3005908FB
:101FC00086005A08870042317208C03F7308C13F3B
:101FD000590886005A088700043081005908860095
:101FE0005A0887008117210025082608A2134308F4
:101FF000031DFB2FFC2FFF2F953198258F310800F3
:102000008E3400340034003400340134053400349C
:10201000013400348434003400340034013400349A
:10202000003400342834003444340034653400343F
:102030007634003469340034633400346534003459
:10204000493400346E340034743400346534003460
:102050007234003466340034613400346334003444
:102060006534003447340034553400344934003486
:1020700044340034003400344E340034003400342E
:102080007B34003435340034383400346434003464
:1020900030340034373400343234003431340034D6
:1020A000303400342D3400343234003437340034CA
:1020B00063340034313400342D340034313400348E
:1020C0003134003464340034643400342D3400344A
:1020D0006234003464340034303400346234003408
:1020E0002D3400343034003438340034303400348B
:1020F000303400343234003430340034303400347E
:1021000063340034393400346134003436340034FC
:10211000363400347D34003400340034080002309A
:1021200021004A06031D952896289A288F315327A7
:102130009031C728CA014508031D9F28A028C6283A
:1021400020005908013EF60000305A3DF70076089D
:10215000860077088700083081004030F6000030A4
:10216000F700590886005A08870042317608C03FB8
:102170007708C13F590886005A0887000C30810053
:10218000590886005A0887008117C728C50108002A
:10219000023021004A06031DCE28CF28D3288531DE
:1021A000422590310629CA014508031DD828D9289F
:1021B000052920005908013E2100D70000302000E9
:1021C0005A3D2100D800570886005808870008307B
:1021D00081004030D7000030D80020005908860028
:1021E0005A088700423121005708C03F5808C13FB4
:1021F0002000590886005A0887000C3081005908D1
:1022000086005A08870081170629C50108002100A9
:10221000DD003408DA003308D9000730DA36D90C8B
:10222000890B0E290E305905DB003D08F1395B049E
:10223000DC005C08DE009B318A23913121005E08BE
:102240009C31E4249131210033089C31E424913104
:102250002100DF013B295F085D07D900590886008E
:102260000130870001089C31E424913101302100C4
:10227000D9005908DF0758085F02031C402941298B
:102280002B299B31942391319C312E2491310800CC
:102290009B3102239131FA00220037088600870122
:1022A0007A0881000130FA007A08B7070130B802D5
:1022B0000030B93B3808390403195F2960296529C2
:1022C0009B310F23913105308D29BC156F299B312E
:1022D0003B2391318D299B31362391318D292C0857
:1022E000FA007A08F90021088A0020080A009131D2
:1022F000FB00FC017C08003A03197F296B297B084D
:10230000013A03196B29033A03196729013A0319A2
:102310006729073A03196B296B2908002100CB01B3
:10232000C301C001BF01C501CA017F30FD0020000B
:1023300055088600560887007D088105043055063B
:10234000D50000305606D6007F30FD0055088600C7
:10235000560887007D08810504305506D5000030F9
:102360005606D6007F30FD00590886005A088700BF
:102370007D088105D201D301D4012100A201A3016E
:10238000A4019731832791310330F3000030F4002A
:102390000030F5000030F6000030F700F8009E3104
:1023A0001D26913187315E27913108002100CB0134
:1023B000C301C001BF01C501CA017F30E200200096
:1023C0005508860056088700210062088105043000
:1023D00020005506D50000305606D6007F3021007B
:1023E000E200200055088600560887002100620898
:1023F0008105043020005506D50000305606D60071
:102400007F302100E2002000590886005A0887002A
:102410002100620881052000D201D301D4012100EE
:10242000A201A301A4018B310C23913103302100BF
:10243000D3000030D4000030D5000030D60000308A
:10244000D700D8009F31002791318E31A9269131D4
:1024500008002D302100E3006308C4004E08FD3958
:10246000031D332A342A722A4E363F39E3000130E5
:10247000E335FF3E031D382A6335203EE40064083F
:10248000CC004C082000D900FF39031D0030DA00D1
:1024900004305906D90000305A06DA0021004C08F1
:1024A00086008701010C890C0F390D3A031D592A4A
:1024B0005A2A6E2A4C08023E86008701403FD1000E
:1024C000413FD2000830D3000030D40040309F316B
:1024D0008E2792319131D62192317E2A9031C820B7
:1024E00092317E2AFD304E05E30004306306031D61
:1024F0007A2A7B2A7E2A89310121923108009B3178
:1025000045239231003A0319862A872AB82A942A49
:102510009B311D239231D52A9B3122239231D52A1A
:102520009B312C239231D52A22002F08FA007A08F9
:10253000F9000630203E860001308700413F8A00C6
:10254000403F0A009231FB00FC017C08003A03196D
:10255000AA2A902A7B08013A0319902A033A031900
:10256000882A013A03198C2A073A0319902A902ADB
:1025700022003C101730203E860001308700403F8B
:1025800084008501810A00089B31132392310130B8
:102590002200B8020030B93B38083904031DD12AA3
:1025A000D22AD42A0630D52A033008002D30200044
:1025B000E00060082100C4004E08FD39031DE12A37
:1025C000E22A222B4E363F392000E0000130E03570
:1025D000FF3E031DE72A6035203EE100610821002F
:1025E000CC004C082000D900FF39031D0030DA0070
:1025F00004305906D90000305A06DA0021004C0890
:1026000086008701010C890C0F390D3A031D092B37
:102610000A2B1E2B4C08023E86008701403FF0002B
:10262000413FF1000830F2000030F30040309E31AD
:10263000D226923191318E2192312F2B90318F20E1
:1026400092312F2BFD304E052000E0000430600653
:10265000031D2B2B2C2B2F2B973106279231080093
:102660002100C001BF0102304A06031D382B392B5F
:102670005F2B20005908013EF30000305A3DF40062
:102680007308860074088700083081004830F30022
:102690000030F400590886005A0887004231730858
:1026A000C03F7408C13F590886005A088700483067
:1026B0008100590886005A08870081178A2B20005C
:1026C00054084702031D662B530846020318692B62
:1026D0006A2B6E2B4708D4004608D300893181212C
:1026E00093314830F3000030F40020005508860094
:1026F0005608870042317308C03F7408C13F55082F
:102700008600560887004830810055088600560824
:102710008700811708002000C801C901CA2BD21701
:1027200021004803031D952B962BDE2B2000C81497
:10273000DE2BD217DE2BD217C41B9F2BA02BAB2B6B
:1027400044080F390907AB3E86008701403FF2007D
:10275000413FF300B52B44080F390907553E860069
:102760008701403FF200413FF30072088600730882
:102770008700811FBC2BBD2BDE2B720886007308DF
:102780008700011DC42BC52BDE2B0130F000700823
:10279000C800DE2B40081F39F000F1017108003A33
:1027A0000319D32BDE2B7008003A03198F2B013A43
:1027B0000319992B033A03199B2BDE2B2000D21F00
:1027C000E22BE32BEC2B4830D0000030D100521428
:1027D0000230F0007008D30008002100C001BF01E2
:1027E00002304A06031DF52BF62B222C2000590837
:1027F000013E2100D300003020005A3D2100D400CA
:102800005308860054088700083081004830D30000
:102810000030D4002000590886005A088700423151
:1028200021005308C03F5408C13F200059088600CA
:102830005A08870048308100590886005A088700E6
:102840008117502C200054084702031D292C5308DF
:10285000460203182C2C2D2C312C4708D400460896
:10286000D3008B319523933148302100D3000030C1
:10287000D400200055088600560887004231210008
:102880005308C03F5408C13F200055088600560831
:102890008700483081005508860056088700811758
:1028A00008002000C801C901962C2000D217210081
:1028B0004803031D5C2C5D2CAB2C2000C814AB2CF2
:1028C0002000D217AB2C2000D217C41B682C692C17
:1028D000752C44080F390907AB3E86008701403F3D
:1028E0002100D300413FD400802C44080F39090750
:1028F000553E86008701403F2100D300413FD40070
:102900005308860054088700811F872C882CAB2C25
:102910005308860054088700011D8F2C902CAB2C87
:102920000130D10051082000C800AB2C40081F39ED
:102930002100D100D2015208003A0319A02CAB2C7F
:102940005108003A0319552C013A0319602C033A37
:102950000319632CAB2C2000D21FAF2CB02CBB2C46
:102960004830D0000030D100521402302100D10094
:1029700051082000D3000800C03020004006031D8D
:10298000C22CC32CF32CEE304106031DC82CC92CDD
:10299000282D043044064504031DCF2CD02C282DAF
:1029A0003430840098308500003FF100013FF20090
:1029B00072084702031DDE2C710846020318E12C41
:1029C000E22CE62C4708F2004608F1003430D00033
:1029D0009830D1007208D4007108D300C030F000E4
:1029E0007008D200282DC1304006031DF82CF92CA8
:1029F000282DEE304106031DFE2CFF2C282D05301E
:102A000044064504031D052D062D282D00308400A5
:102A100090308500003FF100013FF200720847024C
:102A2000031D142D710846020318172D182D1C2D97
:102A30004708F2004608F1000030D0009030D10085
:102A40007208D4007108D300C030F0007008D200C2
:102A500008002100DC003408D9003308D800073012
:102A6000D936D80C890B302D0E305805DA003D08C8
:102A7000F1395A04DB005B08DD009B318A23953174
:102A800021005D089C31E4249531210033089C31FC
:102A9000E42495319B318A23953121005D0801386A
:102AA0009C31E42495312100DE01DF018A2D560896
:102AB000FF3ED800FF30573DD90059085F02031D83
:102AC000632D58085E020318662D672D772D0030A0
:102AD0009C31C62495312100D8005E085C07D900DE
:102AE000590886000130870058088100862D803003
:102AF0009C31C62495312100D8005E085C07D900BE
:102B00005908860001308700580881000130DE072F
:102B10000030DF3D57085F02031D902D56085E020E
:102B2000031C932D942D572D9B3194239531080030
:102B300021004208031D9D2D9E2D0D2E0130F00019
:102B40007008C2004108031DA62DA72D0D2E0130CF
:102B5000F0007008C10002304A06031DB02DB12DEF
:102B6000C42D200055088600560887004131810198
:102B700055088600560887004830810055088600B1
:102B80005608870081170D2E4A03031DC82DC92D35
:102B90000D2EC5010830F0004C0A86008701700830
:102BA00081004030F0000030F1004C08023E860009
:102BB00087017008C03F7108C13F0430F0004C0825
:102BC00086008701700881004C0886008701811704
:102BD0000130F0007008C50020005908013EF000E7
:102BE00000305A3DF10070088600710887000830F7
:102BF00081004030F0000030F100590886005A088A
:102C0000870042317008C03F7108C13F59088600F3
:102C10005A088700803081000D2E080021004208EC
:102C2000031D132E142E892E0130D1005108C2002D
:102C30004108031D1C2E1D2E892E0130D100510884
:102C4000C10002304A06031D262E272E3A2E2000F0
:102C500055088600560887004131810155088600D5
:102C600056088700483081005508860056088700BE
:102C70008117892E4A03031D3E2E3F2E892EC50142
:102C80000830D1004C0A860087015108810040308D
:102C9000D1000030D2004C08023E86008701510866
:102CA000C03F5208C13F0430D1004C088600870164
:102CB000510881004C088600870181170130D1003E
:102CC0005108C50020005908013E2100D100003004
:102CD00020005A3D2100D20051088600520887008A
:102CE000083081004030D1000030D2002000590867
:102CF00086005A088700423121005108C03F52081F
:102D0000C13F2000590886005A08870080308100A2
:102D1000892E08009C31432496318B170B17A03065
:102D20002100E8006808BD00AA302100B30000308F
:102D3000B4005530E80068082200BD003D089E310F
:102D4000772696313D309F31C5279631B03021002E
:102D5000B3000030B400EA016A080F3CE8006A08DA
:102D60003D3E860001308700680881000130E800A0
:102D70006808EA0710306A02031CBF2EC02EAC2E72
:102D80001030E8006808D8003D30913107219631B5
:102D900010302100D6000030D7003D309531292574
:102DA000963184312C249631203021004D06031DAC
:102DB000DA2EDB2E942E3D008E1CDF2EE02EE12E2F
:102DC000942E2100310832040319E72EE82EF02E4C
:102DD0003108860032088700811BEF2EF02E942EDA
:102DE000D101D10A3D30E8006808D2001030E90076
:102DF0006908D30081308A310422963121005208BB
:102E0000B2005108B100942E8031422820005508AC
:102E10008600560887000030011B0130F5000430A1
:102E20005506D50000305606D600083021004D0664
:102E3000031D1B2F1C2F312F200042087F393D001E
:102E4000960016080319252F262F2C2F1030F3007B
:102E500073082100CD00312F0430F30073082100E6
:102E6000CD004A03031D352F362F7A2F4830F3004B
:102E70000030F400200055088600560887004231D3
:102E80007308C03F7408C13F8931812197310230F6
:102E900021004B06031D4D2F4E2F5B2F20005508A0
:102EA00086005608870004308100550886005608C1
:102EB00087008117822F7508031D5F2F602F6D2FEC
:102EC00020005508860056088700483081005508C4
:102ED0008600560887008117822F2000550886003B
:102EE000560887000830810055088600560887007C
:102EF0008117822FA21F7D2F7E2F812F2508260864
:102F0000A213CA0108002000400E890C0339003AC0
:102F100003198B2F8C2FD42FFF2FD2170830FB00D3
:102F20007B082100CD00FF2F8C3123249731FF2F08
:102F3000883104209731FF2FD030D0000030D100ED
:102F400052140130FB007B08D300D217FF2F9331BE
:102F50008B239731FF2F8131BF219731FF2F4408F9
:102F6000CF3ED0000030D10052140130FB007B086E
:102F7000D300D217FF2FD2174208FB004408CF3EE0
:102F8000860087017B088100FF2F0230F3000030AC
:102F9000F4000030F5000030F6000030F700F800D3
:102FA0009E311D269731FF2F4108FB00FC017C0854
:102FB000003A0319DC2FFF2F7B08003A0319A72FD3
:102FC000013A0319AB2F023A0319AB2F063A031942
:102FD0008D2F033A0319942F013A0319C52F0F3A85
:102FE00003199C2F013A0319982F033A0319AF2FA5
:102FF000013A0319BB2F073A0319FF2FFF2F0800CF
:10300000343403344D3400346934003463340034D0
:10301000723400346F340034633400346834003464
:1030200069340034703400342034003454340034B3
:103030006534003463340034683400346E34003452
:103040006F3400346C3400346F340034673400342F
:103050007934003420340034493400346E34003480
:10306000633400342E340034283400340034003407
:1030700000340134043400340134003400340034AA
:1030800000340034003400340034013457344934FF
:103090004E34553453344234003400340034003458
:1030A0000034003400340034003400340034003480
:1030B000003400340034003418341B3466341B34BC
:1030C0005E341B347F3412344834113457341B348B
:1030D0002E341F341D341B3422341B3427341B344C
:1030E0002C341B3431341B3436341B343B341B3406
:1030F00040341B34F0341D3409340234203400349D
:10310000013401340034C03432340934043400341E
:1031100000340234FF34FF34FF3400340734053404
:1031200001340334083400340A340734053481345C
:103130000334083400340A3416340334533400346E
:103140006D3400346134003472340034743400342B
:103150002034003453340034683400346F34003485
:1031600065340034123403344D34003453340034A5
:1031700046340034543400343134003430340034B4
:1031800030340034EE34003412340134003402346C
:103190000034003400340834D83404345334003458
:1031A000003401340134023403340134E6349834F9
:1031B000003498349C349834DE3498340834033422
:1031C00031340034323400343434003404340334C1
:0831D000093404347C34983406
:1035EE000130080024009614080024001615080067
:1035FE0024009615080024001108080020009115DB
:10360E0008002000911108002400961616160800D6
:10361E002400961216160800F0007008240091007F
:10362E0008002200BC10BB010E3008009A31F922AE
:10363E009B31013008009A31F9229B31023008008B
:10364E009A31F9229B31013008009A31FC229B31CC
:10365E00003008009B310F239B31053008009B3151
:10366E000B239B310A3008009B310B239B31093011
:10367E0008002200BC10BB010E3008002400160EFC
:10368E00890C890C0139080021005208EC00510800
:10369E00EB000800640080010131890B522B0034CD
:1036AE0022003C109A31FF229B3104300800220088
:1036BE003C1436359B3113239B3103300800220016
:1036CE003C140314360D9B3113239B310530080037
:1036DE002700931E732B742B772B9B31B9239B31B1
:1036EE000800A03021009E009F019B019C0101302B
:1036FE009D000800240094010830950096013B308F
:10370E0092009512080021000D1620000D172100C1
:10371E000D1220000D120D13080020000D132100B4
:10372E000D1220000D120D1721000D16080076083F
:10373E00F1007508F0007708F8007808F200003004
:10374E009D31C6259B3108007830210099009801E3
:10375E0027009B012200960121001A1FB72BB82BC0
:10376E00B32B080021006B086C040319BF2BC02B70
:10377E00C52B6C088A006B080A009B312700931238
:10378E000800F3002200BC1DCD2BCE2BD72B7308C7
:10379E00F2007208B7007108B9007008B800BC11C9
:1037AE0008000230F0000030F10079089B31C82388
:1037BE009B310030F500F600F7019B319E239B31C3
:1037CE00043008000130F0000030F10079089B3120
:1037DE00C8239B310030F500F600F7019B319E2384
:1037EE009B31023008000230F0000030F100790801
:1037FE009B31C8239B310030F500F600F7019B3159
:10380E009E239B31023008000130F0000030F100A1
:10381E0079089B31C8239C310030F500F600F70182
:10382E009B319E239C31043008002000E5000D13CF
:10383E00E51F222C232C262C21000D162A2C2100CC
:10384E000D1220000D1220000D170D1308009B31D4
:10385E008A239C3121003D089C31E4249C312100B7
:10386E00D6005608D700570303193E2C3F2C2E2C9A
:10387E009B3194239C3108009B3181239C319D31D7
:10388E009F259C319B31AB239C318731FC279C318A
:10389E008631AD269C319B3178239C319D313F255D
:1038AE009C310800790886008701403FF000413FB7
:1038BE00F1007908023E8600870101089B31C8237A
:1038CE009C310030F500F600F7019B319E239C31B0
:1038DE000230080001302100A7070030A83D00305B
:1038EE00A93D0030AA3D4708031D7E2C7F2C8C2C51
:1038FE000130F0007008BE073E08031D872C882C8F
:10390E008C2CFF30F0007008BE0008003D00121530
:10391E00EF30F900790890058E140130F90079081E
:10392E002100C700BE017530F3000030F4000030F6
:10393E00F5000030F6000030F700F8009E311D262D
:10394E009C3108002100D10020000D1321000D161E
:10395E0020000D17FE30E50021005108860087017A
:10396E002000650881050D1EBD2CBE2CC32C210028
:10397E00510886008701011420000D130800210054
:10398E00D300D501D4015535D2005208D500D5301B
:10399E009C31A9249C3101302100D2005208D40759
:1039AE0008305402031CDC2CDD2CCA2C53089C312D
:1039BE001C249C312100550808002100D300D5019C
:1039CE00D40153089C311C249C3121005335D20064
:1039DE005208D3000130D2005208D40708305402E6
:1039EE00031CFA2CFB2CE82CD5309C31A9249C31DD
:1039FE002100550808003D001215EF302100D900B6
:103A0E0059083D0090058E1401302100D900590847
:103A1E00C700BE017530D3000030D4000030D50091
:103A2E000030D6000030D700D8009F3100279D31DE
:103A3E0008002100C7017430F3000030F40000309C
:103A4E00F5000030F6000030F700F8009E311D261C
:103A5E009D313D008E101211382DFB30F900790882
:103A6E00900510193B2D3C2D342D2100BE01080070
:103A7E0021004D08031D442D452D5D2D3D008E0169
:103A8E009201123091009F3097007B3092002100FE
:103A9E001215522D8E153D008E1D562D572D512D62
:103AAE0001302000E50065082100CD00080001303E
:103ABE002100A7070030A83D0030A93D0030AA3DE7
:103ACE004708031D6B2D6C2D7D2D01302000E50068
:103ADE0065082100BE073E08031D762D772D7D2D2E
:103AEE00FF302000E50065082100BE00080021001F
:103AFE00C7017430D3000030D4000030D500003040
:103B0E00D6000030D700D8009F3100279D313D00F0
:103B1E008E101211982DFB302100D90059083D004E
:103B2E00900510199B2D9C2D922D2100BE01080091
:103B3E0022008C018D0120308E00203021008C005F
:103B4E00A0308D00DF308E00CC3023008E008D0132
:103B5E0010308C0024008D018C012100951722005D
:103B6E009D0127009312921691168E302100D100DE
:103B7E001030D2009B314B239D318B150800F40081
:103B8E00700871040319CC2DCD2DE02D7435203E17
:103B9E008600013087007008C03F7108C13F72086F
:103BAE00F30074082C3E86000130870073088100F4
:103BBE00EF2D7435203E860001308700F730C03F70
:103BCE001A30C13F74082C3E8600013087008101F7
:103BDE00080022003C100230FA007A08BB00FF2DCC
:103BEE009B3127239D311C2E9B312C239D311C2E66
:103BFE002E08FA007A08F9000430203E86000130C3
:103C0E008700413F8A00403F0A009E31FB00FC01C5
:103C1E007C08003A0319142EFB2D7B08023A031977
:103C2E00F72D013A0319F72DFB2D0800222E9431A2
:103C3E00BC249E31492E7408003A03192A2E7F3A6D
:103C4E000319442E492E7308013A0319492E033ADB
:103C5E000319492E013A03191E2E063A0319492E4D
:103C6E00773A0319492E013A0319492E073A0319D7
:103C7E00492E013A0319492E492E7308FF3A0319AA
:103C8E00492E492E08003D00181C4E2E4F2E722E26
:103C9E0021004C088600870180300106031D582E36
:103CAE00592E702E20005508860056088700843045
:103CBE000106031D632E642E702E0C30F0002100C1
:103CCE004C0886008701700881004C088600870129
:103CDE0081173D001810DF30F000700890050800C5
:103CEE002100DC003408D9003308D8000730D9365B
:103CFE00D80C890B7E2E0E305805DA003D08F139AE
:103D0E005A04DB005B08DD009B318A239E312100C3
:103D1E005D089C31E4249E31210033089C31E4245B
:103D2E009E3121005C089C31E4249E319B3194230A
:103D3E009E319C312E249E3108009B3108239E31EA
:103D4E0022003C1CAB2EAC2EBA2E9B3145239E314D
:103D5E00003A0319B32EB42EBA2E0F302000DB001A
:103D6E005B082200BA0022003A082000DB00DC01CA
:103D7E00DB35DC0D5C305B07840098305C3D8500E4
:103D8E00013F8A00003F0A009E312000DD005D08E1
:103D9E002200BA000800F5007108F7007008F6005E
:103DAE007508F4007408F900F32E7608860077087B
:103DBE0087000108F4007408F8000130F60700309F
:103DCE00F73D7808F40079088600870174088100B1
:103DDE000130F4007408F9070130F2020030F33BB1
:103DEE00720A031DFE2E730A031DFE2EFF2EDC2EFD
:103DFE000800052F8A3187229F312D2F210054086C
:103E0E00003A03190E2F7F3A0319282F2D2F53082E
:103E1E00013A03192D2F033A03192D2F013A0319D5
:103E2E00012F063A03192D2F773A03192D2F013A38
:103E3E0003192D2F073A03192D2F013A03192D2F90
:103E4E002D2F5308FF3A03192D2F2D2F0800220076
:103E5E00BC153E2F9B3127239F315C2F9B310523B1
:103E6E009F3103305C2F9B312C239F315C2F2C080C
:103E7E00FA007A08F90021088A0020080A009F310A
:103E8E00FB00FC017C08003A03194E2F3A2F7B08E9
:103E9E00013A03193A2F033A0319312F013A031944
:103EAE00312F073A0319352F3A2F08003D00181C01
:103EBE00612F622F872F21004C08860087018030EA
:103ECE000106031D6B2F6C2F852F200055088600D1
:103EDE005608870084300106031D762F772F852F15
:103EEE000C30E50021004C08860087012000650893
:103EFE00810021004C088600870181173D001810B3
:103F0E00DF302000E50065083D0090050800210027
:103F1E00D8005208D7005108D60058082000E500F6
:103F2E0065082100D900B82F56088600570887006B
:103F3E0001082000E50065082100D5000130D607F4
:103F4E000030D73D55082000E500210059088600B5
:103F5E0087012000650881000130E5006508210019
:103F6E00D9070130D3020030D43B530A031DC32FAF
:103F7E00540A031DC32FC42F9B2F08002100DA0003
:103F8E003408D7003308D6000730D736D60C890B45
:103F9E00CC2F0E305605D8003D08F1395804D90003
:103FAE005908DB009B318A239F3121005B089C312D
:103FBE00E4249F31210033089C31E4249F319B314E
:103FCE008A239F3121005B0801389C31E4249F3104
:103FDE0080309C31C6249F31013E2100D6005A0804
:103FEE00860001308700560881009B3194239F3153
:023FFE000800B9
:020000040001F9
:04000E00E43F8F3FFD
:00000001FF
