:020000040000FA
:0400000080312628FD
:100008007E1480318B1E09280A2812280B1D0D2802
:100018000E2812288C31BD24803124280B1F152866
:10002800162824282100121D1A281B2824282000FD
:10003800121D1F2820282428833169238031242871
:100048007E100900803128287130840080308500B6
:1000580050308600223087000130FF00A0309231F6
:100068009F228031B7308400003085001430FE00B4
:100078000030FF00923193228031B030840001308B
:1000880085003F30FE000030FF009231932280311E
:1000980020308400023085002730FE000030FF0049
:1000A800923193228031A0308400023085004030A4
:1000B800FE000030FF00923193228031203084000E
:1000C800033085004030FE000030FF00923193225B
:1000D80080317E1020008631392E003400340134FE
:1000E800003402340034033400340434003405345A
:1000F800003406340034073400340834003409343A
:1001080000340A3400340B3400340C3400340D3419
:1001180000340E3400340F340034103400341134F9
:1001280000341234003413340034143400341534D9
:1001380000341634003417340034183400341934B9
:1001480000341A3400341B3400341C3400341D3499
:1001580000341E3400341F34003420340034213479
:100168000034223400342334003424340034253459
:100178000034263400342734003428340034293439
:1001880000342A3400342B3400342C3400342D3419
:1001980000342E3400342F340034303400343134F9
:1001A80000343234003433340034343400343534D9
:1001B80000343634003437340034383400343934B9
:1001C80000343A3400343B3400343C3400343D3499
:1001D80000343E3400343F34003440340034413479
:1001E8000034423400344334003444340034453459
:1001F8000034463400344734003448340034493439
:1002080000344A3400344B3400344C3400344D3418
:1002180000344E3400344F340034503400345134F8
:1002280000345234003453340034543400345534D8
:1002380000345634003457340034583400345934B8
:1002480000345A3400345B3400345C3400345D3498
:1002580000345E3400345F34003460340034613478
:100268000034623400346334003464340034653458
:100278000034663400346734003468340034693438
:1002880000346A3400346B3400346C3400346D3418
:1002980000346E3400346F340034703400347134F8
:1002A80000347234003473340034743400347534D8
:1002B80000347634003477340034783400347934B8
:1002C80000347A3400347B3400347C3400347D3498
:1002D80000347E3400347F34003480340034813478
:1002E8000034823400348334003484340034853458
:1002F8000034863400348734003488340034893438
:1003080000348A3400348B3400348C3400348D3417
:1003180000348E3400348F340034903400349134F7
:1003280000349234003493340034943400349534D7
:1003380000349634003497340034983400349934B7
:1003480000349A3400349B3400349C3400349D3497
:1003580000349E3400349F340034A0340034A13477
:100368000034A2340034A3340034A4340034A53457
:100378000034A6340034A7340034A8340034A93437
:100388000034AA340034AB340034AC340034AD3417
:100398000034AE340034AF340034B0340034B134F7
:1003A8000034B2340034B3340034B4340034B534D7
:1003B8000034B6340034B7340034B8340034B934B7
:1003C8000034BA340034BB340034BC340034BD3497
:1003D8000034BE340034BF340034C0340034C13477
:1003E8000034C2340034C3340034C4340034C53457
:1003F8000034C6340034C7340034C8340034C93437
:100408000034CA340034CB340034CC340034CD3416
:100418000034CE340034CF34003420005203031D9E
:10042800162A172A2F2A50081F39003A031D1D2A99
:100438001E2A2F2A2100BF17033020005106031D52
:10044800262A272A2D2A0130E60066082300E9001B
:100458002F2A2300E90120005208031D342A352AD7
:10046800682B50081F39023A031D3B2A3C2A682B87
:1004780054080F39003A0319422A432A682B5408B2
:100488000F39E6000330660203184B2A4C2A682B02
:10049800203021004906031D522A532A682BBF1712
:1004A8002000D41B582A592A6F2A54080F390907E3
:1004B800B73E860001308700403FEB00413FEC002B
:1004C80054080F39C13E8600013087000108E60054
:1004D8006608EA00832A54080F390907B73E8600E0
:1004E8008701403FEB00413FEC0054080F39C43E00
:1004F8008600013087000108E6006608EA006A18ED
:10050800862A872A922AFB30E600FF30E7006B082C
:100518006605EB006C086705EC00982A04306B044C
:10052800EB0000306C04EC00D41B9B2A9C2AA82A00
:1005380054080F390907B73E8600013087006B0859
:10054800C03F6C08C13FB22A54080F390907B73EAB
:10055800860087016B08C03F6C08C13F0330510615
:10056800031DB72AB82ADE2A6B0886006C088700A4
:10057800811FBF2AC02AD32AD41BC32AC42ACC2A43
:1005880054080F39C13E8600013087008114D32AF0
:1005980054080F39C43E86000130870081146B0867
:1005A80086006C08870001156B0886006C088700B8
:1005B8008117682B04306B06EB0000306C06EC00EA
:1005C8006B0886006C088700811FEB2AEC2A092B30
:1005D8007F30E6006B0886006C0887006608810596
:1005E8006B0886006C08870001170530E0000030B2
:1005F800E1006C08E3006B08E2000230E400003020
:10060800E5009431492482310E2B6B0886006C0872
:1006180087000117043020006B06EB0000306C06E1
:10062800EC00EA18182B192B212B6B0886006C0894
:100638008700811F202B212B4C2BD41B242B252BEF
:100648002D2B54080F39C13E8600013087008110D8
:10065800342B54080F39C43E8600013087008110BE
:100668003B30E6006B0886006C0887006608810549
:100678000530E0000030E1006C08E3006B08E200A0
:100688000230E4000030E500943149248231542BD3
:100698003B30E6006B0886006C0887006608810519
:1006A800200054080F39983EE600E7010E30E73D78
:1006B8006608E8006708E900FE30E600680886007A
:1006C8006908870066088105080021004903031DA1
:1006D8006E2B6F2B7C2B3D008E1A732B742B7C2B6F
:1006E80090011214121602302100A2002208C9003B
:1006F8003D00101D802B812B8E2B121D842B852BEA
:100708008E2BFB302100A20022083D00900593317A
:100718005D2383313D008E1C922B932B962B20005A
:100728001211882C101C992B9A2BAC2B121C9D2B68
:100738009E2BAC2B8D31F925833121001215043005
:10074800A2002208C900FE30A20022083D00900540
:10075800101EAF2BB02BB72B121EB32BB42BB72BFD
:1007680093313D2383313D00101FBB2BBC2BE92B5C
:10077800121FBF2BC02BD02B73302000E00000309D
:10078800E1000030E2000030E3000130E400003016
:10079800E500943149248331BF302100A2002208AA
:1007A8003D00900593310323833123006508031925
:1007B800DE2BDF2BE12B0130E5026508031DE52B5D
:1007C800E62BE92B8831122083313D00901EED2B5A
:1007D800EE2BF52B921EF12BF22BF52B9331F023F8
:1007E80083313D00901CF92BFA2B102C921CFD2B09
:1007F800FE2B102CFF302000E0007F30E10000309D
:10080800E2000030E3000130E4000030E5009431FC
:10081800492483313D009301043021004902031823
:10082800162C172C1A2C20001211882C3D00921D12
:100838001E2C1F2C862C2100A4013D00901D252C68
:10084800262C862C0F082100A2002208CA004A0C78
:10085800A200A20C220C0F39A30023082300E700F2
:10086800F7302100A20022083D00900521004A1916
:100878003E2C3F2C512C23006708C13E86000130D6
:100888008700010801392100A2000130A2060108F1
:100898002206FE3922068100622C23006708C43E26
:1008A800860001308700010801392100A2000130CB
:1008B800A20601082206FE392206810023006708E5
:1008C800031D672C682C6C2C9631042683317B2CF5
:1008D80072302000E0000030E100CA30E200003051
:1008E800E3000030E400E50094314924833101300D
:1008F8002100A2002208A40704302402031C852C2E
:10090800862C212C2000121108002100121123002E
:100918004B084C040319912C922C9D2C4B088600F3
:100928004C088700811F992C9A2C9D2C21001215A8
:100938006E2D033021004606031DA32CA42CA52CE4
:10094800C6014608031DA92CAA2CAC2C12156E2D25
:1009580002304606031DB12CB22CCB2CA501A50AEA
:100968000030A6000030A700A80102308B311D23FB
:100978008431210026082300CC002100250823000B
:10098800CB0003302100B0003008C6006C2D4603B0
:10099800031DCF2CD02C6C2D413023005D02031C8D
:1009A800D62CD72CDD2C40302100B0003008B20006
:1009B800E22C5D082100B0003008B20032082300A4
:1009C8005D022100B00030082300DD002030D00097
:1009D8008030CF0021003208B0003008B100230079
:1009E8005C08031DF82CF92C392D162D230051080D
:1009F80084005208850000082100B00023004F0839
:100A0800860050088700210030088100013023004B
:100A1800CF070030D03D0130D1070030D23D013042
:100A28002100B10221003108031D1B2D1C2DFA2CB9
:100A38003F2D23005108840052088500000821003A
:100A4800B00023004F0886005008870021003008B6
:100A5800810001302300CF070030D03D0130D1079D
:100A68000030D23D01302100B10221003108031DC0
:100A78003E2D3F2D1D2D23005D08031D442D452DC2
:100A8800552D403021003206031D4B2D4C2D512D84
:100A98000230B0003008C600552D0330B0003008D1
:100AA800C6002100A501A50A8030A6002030A700B5
:100AB8003208B0003008A80002308B311D23843181
:100AC800210026082300CC00210025082300CB00A4
:100AD8002100121508007108FD007008FC00740858
:100AE8007504031D782D792D7A2D382E7C08860003
:100AF8007D0887007208810074087C07F600750875
:100B08007D3DF7007608FF3EF800FF30773DF9009D
:100B1800780886007908870072088100003075021D
:100B280003300319740203189A2D9B2D9C2D382E1F
:100B38007C08013EF60000307D3DF700760886000F
:100B480077088700720881007C08023EF6000030B2
:100B58007D3DF700760886007708870072088100D7
:100B680074087C07F60075087D3DF7007608FE3EA0
:100B7800F800FF30773DF90078088600790887008B
:100B88007208810074087C07F60075087D3DF7003F
:100B98007608FD3EF800FF30773DF90078088600BA
:100BA8007908870072088100003075020730031940
:100BB80074020318E02DE12DE22D382E7C08033E47
:100BC800F60000307D3DF70076088600770887003C
:100BD8007208810074087C07F60075087D3DF700EF
:100BE8007608FC3EF800FF30773DF900780886006B
:100BF80079088700720881000030750209300319EE
:100C080074020318082E092E0A2E382E7C09F600C5
:100C18007D09F700F60A0319F70A03307605FA008A
:100C280000307705FB007A08FC077B08FD3D7A0851
:100C3800F4027B08F53BFC30F405FF30F505322E55
:100C48007C0886007D088700720881000130F40264
:100C58000030F53B0130FC070030FD3D7408750499
:100C6800031D372E382E242E08009231B9228631E2
:100C78009231872286318731BF2786318B170B1730
:100C8800230058080319492E4A2E4B2ED8015A081A
:100C980003194F2E502E542ED9012400B001B10152
:100CA800230059080319592E5A2E802E5408031D63
:100CB8005E2E5F2E802ED9010F304802FF300319B7
:100CC8004702031C682E692E6B2EC701C80148080D
:100CD8002100A700230047082100A6005030A800E3
:100CE8002230A900873102278631A0302300C707A8
:100CF8000130C83DD401D40AB6302100B00000301C
:100D0800B100B201B20A9731902786316B302100C9
:100D18003606031D902E912EC12E6E30B400340875
:100D2800B6002300C701C80101302100B40034080F
:100D38002300D700D30121004608031DA42EA52EA9
:100D4800FC2E0030A600A7005030A8002230A900D1
:100D580089318B21863120302300C7070030C83DF8
:100D680050302100A5002230A6002030B4003408FD
:100D7800A7009231E8228631FC2E63303606031D27
:100D8800C62EC72EFC2E6E30B4003408B6002300E1
:100D980053080319D02ED12EDC2EAF302100A50028
:100DA8009830A6009431ED2486312300D701FC2E1B
:100DB80048082100A700230047082100A60050305A
:100DC800A8002230A90089318B21863120302300E8
:100DD800C7070030C83D0F304802FF3003194702EB
:100DE800031CF72EF82EB42ED301D30AC701C8016D
:100DF800843189248631442E803126281F302100F1
:100E08002605AA0000302705AB002A082B04031981
:100E18000E2F0F2F102FBE2F2400C90121002708E5
:100E2800AA002A082400C70021002608AA002A08C8
:100E38002400C800923142228731A03092317E22AC
:100E480087312400470892317E22873124004808E0
:100E580092317E2287312400CA01CB014B08210040
:100E6800AA00AB01AA35AB0D240049082100AC004B
:100E7800AD01AC35AD0D24004A0821002C07AE00A9
:100E88002D0803182D0AAF00AE0EAF0EF030AF05D7
:100E98002E080F39AF04F030AE052E082807B00031
:100EA8002F08293DB1002A08300786002B08313D5C
:100EB8008700403FB200413FB300330892317E22A1
:100EC800873124004B082100AA00AB01AA35AB0DDD
:100ED800240049082100AC00AD01AC35AD0D24005B
:100EE8004A0821002C07AE002D0803182D0AAF0070
:100EF800AE0EAF0EF030AF052E080F39AF04F0304C
:100F0800AE052E082807B0002F08293DB1002A0891
:100F1800300786002B08313D8700010892317E2278
:100F2800873101302100AA002A082400CB070830A5
:100F38004B02031CA02FA12F322F01302100AA0041
:100F48002A082400CA0702304A02031CAC2FAD2F1E
:100F5800312F923148228731883102208731013080
:100F68002100AA002A082400C90749080319BD2F2F
:100F7800BE2F122F080000302400C3000030C2002A
:100F88004B30C1000030C000C401C5010830210049
:100F9800B20032082400C6002300DE011A30210006
:100FA800B2003208AC0001309331C82387311E30BB
:100FB8002100B2003208AC0002309331C8238731D7
:100FC8002100A501C030A6002030A7004030B200A3
:100FD8003208A80002308B311D23873121002608F2
:100FE8002300CE00210025082300CD00CB01CC0131
:080FF8002100C60108000800F9
:10100400923142228831A03092317E2288312400EC
:10101400161B0D280E280228923148228831080018
:1010240023006308031D172818288A280130F000BC
:101034007008E3006208031D202821288A28013053
:10104400F0007008E200023021004706031D2B283F
:101054002C283E2837088600380887004131810152
:101064003708860038088700483081003708860032
:101074003808870081178A284703031D422843281C
:101084008A282300E6010830F0002100480A86007F
:101094008701700881005030F0000030F1004808EA
:1010A400023E860087017008C03F7108C13F0430CA
:1010B400F00048088600870170088100480886000F
:1010C400870181170130F00070082300E600210039
:1010D4004208013EF0000030433DF10070088600F4
:1010E40071088700083081005030F0000030F100B2
:1010F400420886004308870042317008C03F7108E7
:10110400C13F4208860043088700803081008A2856
:101114000800210037088600380887000030011BCA
:101124000130F50004303706B70000303806B80047
:1011340008304906031D9F28A028B528200052081E
:101144007F393D00960016080319A928AA28B0285B
:101154001030F30073082100C900B5280430F300EF
:1011640073082100C9004703031DB928BA28FD28C4
:101174005830F3000030F400370886003808870040
:1011840042317308C03F7408C13F89310821883156
:10119400023023006B06031DD028D128DE2821004D
:1011A4003708860038088700043081003708860035
:1011B40038088700811707297508031DE228E328EA
:1011C400F02821003708860038088700483081005D
:1011D4003708860038088700811707292100370857
:1011E40086003808870008308100370886003808F0
:1011F4008700811707292300B21F01290229052925
:1012040035083608B2132100C70108000830F00081
:101214007008F20000302100410208300319400236
:101224000318152916292E294008F0007008F20029
:1012340023006B08031D1F29202925290130F000F4
:101244007008EB002E296B03031D29292A292E2956
:101254000230F0007008EB007208F000F101700831
:101264002100C0027108C13B3708013EF000003084
:10127400383DF1007008860071088700720881000B
:101284005830F00070082300EA0021003F184B2971
:101294004C298529662921003D0884003E088500E3
:1012A4000008F00023006A088600870170088100A6
:1012B40001302100BD070030BE3D0130F000700850
:1012C4002300EA070130F2027208031D6A296B2920
:1012D4004D298A2921003D0884003E088500000824
:1012E400F00023006A08860087017008810001303D
:1012F4002100BD070030BE3D0130F000700823001E
:10130400EA070130F2027208031D89298A296C292F
:10131400080021002708AA002A08B1002608AA000C
:101324002A08B000923142228931A03092317E22C3
:1013340089312100310892317E228931210030081F
:1013440092317E228931923142228931A130923107
:101354007E2289312100B201B30192313C228931CC
:10136400240011082100AA002A08B1009231552254
:10137400893192313C22893121003308AA00AB0122
:10138400AA35AB0D3208AC00AD01AC0EAD0EF03099
:10139400AD052C080F39AD04F030AC052C08280736
:1013A400AE002D08293DAF002A082E0786002B0821
:1013B4002F3D870024001108C03F21003108C13FA0
:1013C4003208031DE629E729EB2992315522893198
:1013D400F529073033020318F029F129F229E72906
:1013E40092315C22893101302100AA002A08B30716
:1013F40008303302031CFF29002AAF290130AA0058
:101404002A08B20702303202031C092A0A2AAE292A
:101414009231482289310800F80070080319132A10
:10142400142A1D2A7835B73E86008701403FF9000B
:10143400413FFA00262A7835B73E860001308700FE
:10144400403FF900413FFA0079087A04031D2B2A32
:101454002C2A2F2AF001F101942AFF307105F4009F
:101464007F307205F500790886007A0887004231DA
:101474007408C03F7508C13F7908013EF40000308C
:101484007A3DF500740886007508870073088100AA
:101494004030F400790886007A08870074088105D2
:1014A400790886007A0887008115790886007A0809
:1014B4008700811770080319602A612A782A783511
:1014C400B73E86008701403FF400413FF5000430F9
:1014D4007406F60000307506F7007835B73E8600CE
:1014E40087017608C03F7708C13F902A7835B73E18
:1014F400860001308700403FF400413FF50004308E
:101504007406F60000307506F7007835B73E86009D
:10151400013087007608C03F7708C13F7A08F100A0
:101524007908F00008002000500E890C0339003AB5
:1015340003199D2A9E2AF12A1C2B2100BF1708306B
:101544002000ED006D082100C9001C2B8B31A52360
:101554008A311C2B8C3130248A311C2BEE30210033
:10156400BD000130BE003F1401302000ED006D08C5
:101574002100C000BF171C2B9631BA268A311C2BC0
:10158400823111228A311C2B5408EC3E2100BD000B
:101594000130BE003F1401302000ED006D08210031
:1015A400C000BF171C2B2100BF1720005208ED00FC
:1015B4005408EC3E8600013087006D0881001C2B26
:1015C4000230E0000030E1000030E2000030E300CF
:1015D4000030E400E500943149248A311C2B510881
:1015E400ED00EE016E08003A0319F92A1C2B6D0870
:1015F400003A0319BE2A013A0319C22A023A03190E
:10160400C22A063A03199F2A033A0319A82A013A5F
:101614000319E22A0F3A0319B02A013A0319AC2A32
:10162400033A0319C62A013A0319D52A073A0319BA
:101634001C2B1C2B08002100AD0025080319232BAB
:10164400242B2D2B2D35B73E86008701403FAE005D
:10165400413FAF00362B2D35B73E86000130870061
:10166400403FAE00413FAF002E082F04031D3B2B2B
:101674003C2B3F2BA501A601A42BFF302605A90076
:101684007F302705AA002E0886002F0887004231E4
:101694002908C03F2A08C13F2E08013EA900003096
:1016A4002F3DAA00290886002A08870028088100FF
:1016B4004030A9002E0886002F08870029088105DC
:1016C4002E0886002F08870081152E0886002F0813
:1016D4008700811725080319702B712B882B2D3552
:1016E400B73E86008701403FA900413FAA0004306D
:1016F4002906AB0000302A06AC002D35B73E860023
:1017040087012B08C03F2C08C13FA02B2D35B73EC5
:10171400860001308700403FA900413FAA00043001
:101724002906AB0000302A06AC002D35B73E8600F2
:10173400013087002B08C03F2C08C13F2F08A600AA
:101744002E08A5000800803020005006031DAB2B96
:10175400AC2B2F2CC030F00070082100BF001B2CD4
:101764008D302100BD009830BE000030C100123021
:10177400C0002F2C5208031DC02BC12BF02B520884
:10178400F000F101F035F10DB930700784009830A4
:10179400713D8500003F2100BD00013FBE003E08B1
:1017A400F1003D08F000023070078400710803184E
:1017B400710A85000008F2007208C0003E08F100BA
:1017C4003D08F00003307007840071080318710AA3
:1017D40085000008F2007208C1002F2C2100BF010F
:1017E4002F2C043052020318F82BF92B152C520815
:1017F400F000F101F035F10D9F307007840098304E
:10180400713D8500003F2100BD00013FBE003D0841
:1018140084003E0885000008F000F1017008C00053
:101824007108C1002F2C2100BF012F2C2100BF0102
:101834002F2C20005308F000F1017108003A03191D
:10184400242C182C7008013A0319B22B033A0319FB
:10185400BC2B013A0319F32B182C08002100BF17E5
:101864000E302000E8009930E700E901670886009F
:101874006808870081010130E7070030E83D013046
:10188400E6006608E90702306902031C4A2C4B2C67
:10189400382C2030F0000030F1000030F200F3006A
:1018A4003030F4000030F50085316F258C313D0077
:1018B4000E172000EA016A08C43E86000130870042
:1018C40081016A08C13E8600013087008101013030
:1018D400E6006608EA0703306A02031C722C732CC4
:1018E4005D2CEC30F0000130F1000030F200F30028
:1018F4000230F4000030F50085316F258C313D0055
:101904000E1328302100B7000030B800203020002A
:10191400E60066082100C8004808C200FF39031D1C
:101924000030C30020005208E60066082300EE00E1
:101934006E08031D9E2C9F2CA62C10302000E60060
:1019440066082100C900BC2C01302000E0000030F2
:10195400E100EE30E2000130E3000130E400003049
:10196400E500943149248C3120302000E6006608DB
:101974002100C90008000B1123005608200095001F
:1019840024002E082F040319C82CC92CCE2C2F0890
:101994008A002E080A008C3123005708031DD32C1B
:1019A400D42C572D01302400B2070030B33D13303E
:1019B4003302883003193202031CE12CE22CF32C8D
:1019C40021008E121330240033029C30031932029A
:1019D400031CED2CEE2CF32C21008E162400B201F6
:1019E400B30101302300C9070030CA3D4A08803AD8
:1019F400F000F3307002031D012D3C304902031C3A
:101A0400042D052D242D3C30230049067330031981
:101A14004A06031D0E2D0F2D112D21008E1230307C
:101A240023004906753003194A06031D1A2D1B2D80
:101A3400242D21008E162300C901CA010130F000B3
:101A44007008DA0001302400B4070030B53D3508D1
:101A5400803AF00080307002031D322D0A303402C7
:101A6400031C352D362D572D24003108803AF00003
:101A740080307002031D402D4E3030020318432D78
:101A8400442D4F2D01302400B0070030B13D01300A
:101A9400F00070082300D800542D0130F0007008C5
:101AA4002300D9002400B401B50108003D000E1242
:101AB4002100BF1B5E2D5F2DA72D2300B21F632DB8
:101AC400642D762D0230F50075082100C70023002F
:101AD4006008031D6E2D6F2D722D96315A268D319F
:101AE4002300E201E301F82D21004208013EF50044
:101AF4000030433DF60075088600760887000830FC
:101B040081005030F5000030F6004208860043089A
:101B1400870042317508C03F7608C13F42088600FD
:101B2400430887000C308100420886004308870080
:101B34008117370886003808870004308100370889
:101B44008600380887008117F82D2000D01FAB2DA0
:101B5400AC2DC62D0130F50075082100C700230007
:101B64006108031DB62DB72DBA2D96315A268D3135
:101B74002300E201E3016408031DC12DC22DF82DE9
:101B8400883112208D31F82D0230F50075082100BE
:101B9400C7004208013EF5000030433DF6007508D9
:101BA400860076088700083081005030F500003048
:101BB400F600420886004308870042317508C03F9A
:101BC4007608C13F4208860043088700043081003C
:101BD400420886004308870081172300E201E301DD
:101BE4006408031DF62DF72DF82DC22D08002100E1
:101BF40012113D009301900198010E30F2009930CA
:101C0400F100F30171088600720887008101013038
:101C1400F1070030F23D0130F0007008F3070230A4
:101C24007302031C162E172E042E16303D0091004D
:101C34009F3097007B309200F4017408F00001306B
:101C4400F035FF3E031D222E7035203E86008701AD
:101C54000030C03F0030C13FC23FC33F0130F000FD
:101C64007008F4070C307402031C392E3A2E1F2E10
:101C74003D000E1796010E120E13F730F000700897
:101C840090052100BF012300B201B301B4013D005E
:101C940090194D2E4E2E3F2E0130F0007008230077
:101CA400E3000130F0007008E200E101E001E80126
:101CB400F4017435B73E860087010030C03FC13F50
:101CC4007435B73E8600013087000030C03FC13F05
:101CD4007408C43E86000130870081017408C13E47
:101CE40086000130870081010130F0007008F4079C
:101CF40003307402031C7F2E802E5B2E28302100BB
:101D0400B7000030B80016303D00980000302000C5
:101D1400A3005030A2000830A1000430F000700885
:101D2400A000A0172300EE010030C0000030BF0067
:101D34000030BE000030BD00DF012100C9010800F1
:101D44002100480886008701413FF5007508F2002C
:101D5400F301730823003402031DB22E7208330208
:101D64000318B52EB62EBA2E3308F2007208F50009
:101D74007508F200F3017208B3027308B43BF4016E
:101D8400D72E7408583E860087010108F2003008F7
:101D9400860002308700720881000130F200720868
:101DA400B0070130F2007208F40775087402031CCE
:101DB400DC2EDD2EC32E330834040319E22EE32E69
:101DC4001C2F21004208013EF2000030433DF30085
:101DD4007208860073088700083081005830F200CA
:101DE4000030F3004208860043088700423172083D
:101DF400C03F7308C13F480886008701011B032FB9
:101E0400042F102F420886004308870048308100C1
:101E1400420886004308870081174D2F4208860038
:101E24004308870008308100420886004308870081
:101E340081174D2F21004208013EF2000030433D3E
:101E4400F300720886007308870008308100503060
:101E5400F2000030F3004208860043088700423154
:101E64007208C03F7308C13F4208860043088700D8
:101E7400043081004208860043088700811723004C
:101E840035083608B2136408031D492F4A2F4D2F15
:101E9400883112208E310800210012113D00930177
:101EA400900198010E302100A7009930A600A801E6
:101EB400260886002708870081010130A607003024
:101EC400A73D0130A5002508A80702302802031CFD
:101ED4006C2F6D2F5A2F16303D0091009F309700C4
:101EE4007B3092002100A9012908A5000130A53505
:101EF400FF3E031D792F2535203E860087010030E3
:101F0400C03F0030C13FC23FC33F0130A500250898
:101F1400A9070C302902031C902F912F762F3D0026
:101F24000E1796010E120E13F7302100A500250896
:101F34003D0090052100BF012300B201B301B401AB
:101F44003D009019A62FA72F962F01302100A50040
:101F540025082300E30001302100A5002508230003
:101F6400E200E101E001E8012100A9012935B73EC1
:101F7400860087010030C03FC13F2935B73E860047
:101F8400013087000030C03FC13F2908C43E8600AD
:101F94000130870081012908C13E86000130870095
:101FA40081010130A5002508A90703302902031C7B
:101FB400DC2FDD2FB82F2830B7000030B8001630E2
:101FC4003D00980000302000A3005030A2000830EB
:101FD400A10004302100A50025082000A000A017BE
:101FE4002300EE010030C0000030BF000030BE000E
:0C1FF4000030BD00DF012100C901080021
:1024700016302100970008002400961592314E2254
:10248000923108002400161492314E229231080035
:102490002400161592314E22923108002000911D21
:1024A000522A532A4E2A9111080024009612161619
:1024B00092314E229231080024009616161692315F
:1024C0004E2292310800903021009E009F019B0116
:1024D0009C0101309D000800210026082400CD0049
:1024E000210025082400CC00080021002608240033
:1024F000AF00210025082400AE0008002100A5003F
:1025000025082400910092314E22923108002400C7
:10251000940108309500960113309200200091112B
:102520002400951608006400800101310130FE028C
:102530000030FF3B7F087E04031D942A0034FE0018
:1025400012001E000130FE020030FF3B7F087E04B7
:10255000031DA02A00347C30210099009801270037
:102560009B012200960121001A1FB72AB82AB32A1C
:10257000080093317F2392319231AB229231923114
:10258000382292318F314E2792319231632292312B
:102590009231CF22923193311F23923108002100D2
:1025A0001508C03912389500063020009500063015
:1025B0002100A70027082300D6000B118B16FF303F
:1025C0002100A5000730A600923175229231080043
:1025D000210012114608031DEE2AEF2A012B2608BE
:1025E0002300D200210025082300D1002100270864
:1025F000A80028082300DD00DC01DC0A2100C60158
:10260000C60A1215080001302300BD070030BE3D88
:102610000030BF3D0030C03D6808031D102B112B5A
:102620001E2B0130F0007008DF075F08031D192B17
:102630001A2B1E2BFF30F0007008DF00080021006D
:102640004908031D242B252B3C2B3D008E019201B4
:10265000163091009F3097007B30920021001215B8
:10266000322B8E153D008E1D362B372B312B013032
:102670002100A5002508C90008003D001215EF3013
:102680002000E60066083D0090058E140130200011
:10269000E60066082300E800DF0175302000E00056
:1026A0000030E1000030E2000030E3000030E400E0
:1026B000E50094314924933108002300E801743087
:1026C0002000E0000030E1000030E2000030E300D4
:1026D0000030E400E5009431492493313D008E1030
:1026E0001211782BFB302000E60066083D009005B3
:1026F00010197B2B7C2B722B2300DF01080022009A
:102700008C018D018E01303021008C00F0308D0065
:10271000FF308E00CC3023008E008D018C01240010
:102720008D018C012100951722009D012700931235
:102730009216911600302100A5000030A6009231BB
:102740006C2293310800FC00771DA72BA82BAD2B22
:10275000F0017C08953128259331F71CB02BB12B63
:10276000B72BF001F00A7C089531282593317C08BD
:10277000983EF800F9010E30F93D7808FA00790822
:10278000FB007A0886007B08870077088100080034
:102790002100B1002C1DCD2BCE2BD32BA501310850
:1027A00095316B2593312100AC1CD72BD82BDE2B18
:1027B000A501A50A310895316B2593312100310817
:1027C000983EAD00AE010E30AE3D2D08AF002E0894
:1027D000B0002F088600300887002C088100080010
:1027E0003D00181CF42BF52B162C21004808860000
:1027F000870180300106031DFE2BFF2B142C3708A8
:1028000086003808870084300106031D082C092C37
:10281000142C0C30F00048088600870170088100F5
:1028200048088600870181173D001810DF30F0004E
:10283000700890050800F8007108F6007008F500AF
:102840007808F4007408F9003C2C750886007608B6
:1028500087000108F4007408F7000130F507003024
:10286000F63D7708F4007908860087017408810036
:102870000130F4007408F9070130F2020030F33B34
:10288000720A031D472C730A031D472C482C252C64
:102890000800522C94317B2494317A2C97312127D3
:1028A00094317A2C20006108003A03195B2C7F3A9E
:1028B0000319752C7A2C6008013A03194A2C033A43
:1028C00003197A2C013A03194E2C063A03197A2C73
:1028D000773A03197A2C013A03197A2C073A03192B
:1028E0007A2C013A03197A2C7A2C6008FF3A0319E2
:1028F0007A2C7A2C080000302400C3000030C2007B
:102900004B30C1000030C000C401C5010830FD00DB
:102910007D08C6002300DE011A30FD007D08F700A7
:1029200001309331A32394311E30FD007D08F70060
:1029300002309331A3239431F001C030F1002030F4
:10294000F2004030FD007D08F30002308A310E2293
:10295000943171082300CE007008CD00CB01CC016A
:102960002100C6010800023021004706031DB92CD2
:10297000BA2CBE2C8E31A2269431EC2CC701230038
:102980006608031DC42CC52CEB2C21004208013E17
:10299000F6000030433DF700760886007708870090
:1029A000083081005030F6000030F7004208860001
:1029B0004308870042317608C03F7708C13F42088C
:1029C0008600430887000C308100420886004308D7
:1029D00087008117EC2CE60108002100121146083F
:1029E0000319F32CF42CF62C1215272DAC01260814
:1029F000AB002508AA000130A7002708AC072C0A65
:102A0000031D032D042D052D152D2B08A8002A08C4
:102A1000A700AA0A0319AB0A270884002808850022
:102A20001200031D142D152DFB2C26082300D200A7
:102A3000210025082300D10021002C08A700270829
:102A40002300DD00DC012100C601C60A12150800C2
:102A5000F5002030F1007108F6007008F100013037
:102A6000F135890B302D7508F2000130F235FF3E4B
:102A7000031D362D72357107F3000130F335FF3E2B
:102A8000031D3E2D7335F4007408F60776088600A2
:102A9000870181137008031D4E2D4F2D592D75355B
:102AA000B73E8600013087007608C03F0030C13F46
:102AB000612D7535B73E860087017608C03F00302E
:102AC000C13F76088600870101137608043E860020
:102AD0008701011708002100AA002030A60026085F
:102AE000AB002508A6000130A635890B742D2A08F5
:102AF000A7000130A735FF3E031D7A2D2735260795
:102B0000A8000130A835FF3E031D822D2835A900FD
:102B10002908AB072B088600870181132508031DB0
:102B2000922D932D9D2D2A35B73E860001308700CA
:102B30002B08C03F0030C13FA52D2A35B73E860087
:102B400087012B08C03F0030C13F2B08860087015A
:102B500001132B08043E860087010117080023009B
:102B6000EB01E401E101E001E6012100C7017F3052
:102B70002000EF0021003708860038088700200079
:102B80006F088105043021003706B7000030380691
:102B9000B8007F302000EF00210037088600380899
:102BA000870020006F088105043021003706B70038
:102BB00000303806B8007F302000EF0021004208C6
:102BC00086004308870020006F0881052100BF01AF
:102BD000C001C1012300B201B301B4018A319522C1
:102BE000953103302000E0000030E1000030E200C9
:102BF0000030E3000030E400E500943149249531D1
:102C00008D315825953108002D302100A000200875
:102C10002300E50021004A08FD39031D102E112E66
:102C20004D2E4A363F39A0000130A035FF3E031D2E
:102C3000152E2035203EA1002108C8004808C200FA
:102C4000FF39031D0030C30004304206C2000030CB
:102C50004306C300480886008701010C890C0F3920
:102C60000D3A031D342E352E492E4808023E8600AB
:102C70008701403FF000413FF1000830F200003092
:102C8000F300503094311B2496319531AF259631A5
:102C9000592E9431B3249631592EFD304A05A000A7
:102CA00004302006031D552E562E592E88318B20B8
:102CB000963108002300E101E001023021004706BF
:102CC000031D632E642E892E4208013EF30000305E
:102CD000433DF400730886007408870008308100C3
:102CE0005830F3000030F4004208860043088700A3
:102CF00042317308C03F7408C13F42088600430850
:102D00008700483081004208860043088700811709
:102D1000B92E410820005702031D922E21004008C1
:102D2000200056020318952E962E9D2E570821003E
:102D3000C100200056082100C000893108219631C9
:102D40005830F3000030F4002100370886003808BE
:102D5000870042317308C03F7408C13F37088600BE
:102D60003808870048308100370886003808870017
:102D7000811708002000D801D901FE2E2100BF17BD
:102D800023006903031DC52EC62E122F2000D81460
:102D9000122F2100BF17122F2100BF172000D41BB4
:102DA000D22ED32EDF2E54080F390907B73E8600E6
:102DB00001308700403FF200413FF300E92E540804
:102DC0000F390907B73E86008701403FF200413FB7
:102DD000F3007208860073088700811FF02EF12E21
:102DE000122F7208860073088700011DF82EF92E35
:102DF000122F0130F0007008D800122F50081F3930
:102E0000F000F1017108003A0319072F122F700822
:102E1000003A0319BE2E013A0319C92E033A0319C9
:102E2000CC2E122F2100BF1F162F172F202F583006
:102E3000BD000030BE003F140230F0007008C0003A
:102E40000800200050081F39013A0319282F292FA4
:102E50002A2F8F2F500E890C0339013A0319312F75
:102E6000322F332F8F2F54080319372F382F762FF7
:102E7000540303193C2F3D2F762F8F2F383021001C
:102E8000BD000230BE000030C1000830C0003F1459
:102E9000BF178F2F38302100BD000230BE00BF1792
:102EA0008F2F57082300B400200056082300B300DA
:102EB0004030F0007008B000B501B601B2178F2F96
:102EC00040302100BD000230BE000030C10007309C
:102ED000C000C130F0007008BF008F2F5208F00012
:102EE00070082300DB002100BF178F2F5108F0006E
:102EF000F1017108003A03197E2F8F2F7008003AF4
:102F000003193E2F013A03194A2F213A0319512F71
:102F1000013A0319602F033A03196E2F8F2F08000F
:102F20002300DE014D084E040319972F982FA02F80
:102F30004D0886004E088700811B9F2FA02FFE2F73
:102F40004D0886004E0887004131210032080102F9
:102F50000318AB2FAC2FB82F23004D0886004E0866
:102F60008700413101082400C70047082100B20052
:102F70002300DE01DE2F5E08C03E86008701203080
:102F8000873D01082400C70023005E082400C80014
:102F9000C9014808210030072400CA00490821005F
:102FA000313D2400CB004A0886004B0887004708C3
:102FB00081000130C70047082300DE0721003208E6
:102FC00023005E02031CE52FE62FBB2F2100A50185
:102FD000C030A6002030A70040302400C7004708BA
:102FE0002100A80002308B311D23973121002608D3
:102FF0002300CE00210025082300CD005E08080034
:103000000934023443340034023401340034C0340F
:1030100032340934043400340034013402340234CC
:1030200001340034053424340034103401340434C1
:103030002434023402340534243406340034013498
:103040000534243401340034013407340534813428
:1030500003340A34003402340934043401340034B3
:1030600002340A34003400340034073405340234A6
:1030700002344034003400340734053482340234DE
:10308000403400340034343403344D340034693473
:10309000003463340034723400346F3400346334E9
:1030A000003468340034693400347034003420341F
:1030B00000345434003465340034633400346834EC
:1030C00000346E3400346F3400346C3400346F34A8
:1030D0000034673400347934003420340034493407
:1030E00000346E340034633400342E34003416342B
:1030F0000334533400346D3400346134003472349A
:1031000000347434003420340034533400346834D0
:1031100000346F3400346534003412340134003428
:1031200002340234003400340834D83404340A340D
:103130000034003401340134023403340134B53432
:1031400098344334983477349834A7349834083416
:1031500003343134003432340034343400345334E2
:1031600074346F347034213400340434033409343B
:0631700004340034983421
:020000040001F9
:04000E00E43FFF3F8D
:00000001FF
