:020000040000FA
:0400000080314E28D5
:1000060008007E1480318B1E09280A2812280B1D31
:100016000D280E2812288B31AE2380314C280B1F59
:10002600152816284C282100121D1A281B282728B7
:100036002000121D1F28202827282300CD01CE01CD
:100046008631C92680314C288B1D2A282B284C281E
:100056002700931E2F2830284C2801302100A500A8
:1000660025082300DB008B11270093122300580874
:1000760003193E283F28462801302100A5002508FF
:100086002300D7004C2801302100A50025082300B5
:10009600D8007E1009008031502829308400853030
:1000A600850050308600223087000130FF00A030E6
:1000B6009D311C258031B830840000308500123017
:1000C600FE000030FF009D3110258031B0308400E5
:1000D600013085004030FE000030FF009D311025C4
:1000E600803120308400023085002E30FE00003042
:1000F600FF009D3110258031A0308400023085003C
:100106004030FE000030FF009D3110258031203048
:100116008400033085004030FE000030FF009D3132
:10012600102580317E1020008D316B2D2100B60008
:100136003608031D9F28A028E329093088310120AD
:10014600803121001B08A800A9010530A835A90D9A
:10015600890BA9281C08AA00AB010D30AA35AB0DE6
:10016600890BB12828082A04AC0029082B04AD0005
:100176003F08AE00AF01AE35AF0D4008B000B1018B
:10018600B00EB10EF030B10530080F39B104F030C1
:10019600B0055030B2002230B30030083207B40048
:1001A6003108333DB5002E08340786002F08353D4B
:1001B60087002C08C03F2D08C13F08308831012038
:1001C600803121001C08A800A901A835A90DA83571
:1001D600A90DA835A90D3F08AA00AB01AA35AB0D9C
:1001E6004008AC00AD01AC0EAD0EF030AD052C08EC
:1001F6000F39AD04F030AC055030AE002230AF0000
:100206002C082E07B0002D082F3DB1002A08300714
:1002160086002B08313D87002808810441312908D2
:1002260081041B08A8000530A836890B1729280861
:10023600A900AA013F08AB00AC01AB35AC0D4008E4
:10024600AD00AE01AD0EAE0EF030AE052D080F3985
:10025600AE04F030AD055030AF002230B0002D08AE
:100266002F07B1002E08303DB2002B08310786005B
:100276002C08323D87002908810441312A0881046F
:100286000130A8002808BF071B08A800A9010A30EA
:10029600A835A90D890B4B293F08AA00AB01AA3541
:1002A600AB0D4008AC00AD01AC0EAD0EF030AD05A7
:1002B6002C080F39AD04F030AC055030AE002230BA
:1002C600AF002C082E07B0002D082F3DB1002A08DC
:1002D600300786002B08313D87002808C03F2908D3
:1002E600C13F073088310120803121003F08A80036
:1002F600A901A835A90D4008AA00AB01AA0EAB0EAC
:10030600F030AB052A080F39AB04F030AA0550309F
:10031600AC002230AD002A082C07AE002B082D3D7C
:10032600AF0028082E07860029082F3D87001B08E6
:10033600810441311C0881040130A8002808BF0748
:10034600063088310120803121001B08A800A90150
:100356000530A835A90D890BAC291C08AA00AB01EC
:100366000D30AA35AB0D890BB42928082A04AC0038
:1003760029082B04AD003F08AE00AF01AE35AF0D26
:100386004008B000B101B00EB10EF030B105300832
:100396000F39B104F030B0055030B2002230B3004E
:1003A60030083207B4003108333DB5002E08340753
:1003B60086002F08353D87002C08C03F2D08C13F19
:1003C6003603031DE729E829722B093088310120FD
:1003D600803121001C08A800A901A835A90DA8355F
:1003E600A90DA835A90D3F08AA00AB01AA35AB0D8A
:1003F6004008AC00AD01AC0EAD0EF030AD052C08DA
:100406000F39AD04F030AC055030AE002230AF00ED
:100416002C082E07B0002D082F3DB1002A08300702
:1004260086002B08313D87002808810441312908C0
:1004360081041B08A8000530A836890B1F2A280846
:10044600A900AA013F08AB00AC01AB35AC0D4008D2
:10045600AD00AE01AD0EAE0EF030AE052D080F3973
:10046600AE04F030AD055030AF002230B0002D089C
:100476002F07B1002E08303DB2002B083107860049
:100486002C08323D87002908810441312A0881045D
:100496000130A8002808BF071B08A800A9010A30D8
:1004A600A835A90D890B532A3F08AA00AB01AA3526
:1004B600AB0D4008AC00AD01AC0EAD0EF030AD0595
:1004C6002C080F39AD04F030AC055030AE002230A8
:1004D600AF002C082E07B0002D082F3DB1002A08CA
:1004E600300786002B08313D87002808C03F2908C1
:1004F600C13F083088310120803121003F08A80023
:10050600A901A835A90D4008AA00AB01AA0EAB0E99
:10051600F030AB052A080F39AB04F030AA0550308D
:10052600AC002230AD002A082C07AE002B082D3D6A
:10053600AF0028082E07860029082F3D87001B08D4
:10054600810441311C0881040130A8002808BF0736
:10055600073088310120803121001C08A800A9013C
:100566000D30A835A90D890BB42A3F08AA00AB01A6
:10057600AA35AB0D4008AC00AD01AC0EAD0EF030A7
:10058600AD052C080F39AD04F030AC055030AE0087
:100596002230AF002C082E07B0002D082F3DB100E9
:1005A6002A08300786002B08313D87002808C03FFF
:1005B6002908C13F1B08A800A9010530A835A90DC7
:1005C600890BE12A3F08AA00AB01AA35AB0D40080A
:1005D600AC00AD01AC0EAD0EF030AD052C080F39F8
:1005E600AD04F030AC055030AE002230AF002C0820
:1005F6002E07B0002D082F3DB1002A0830078600CF
:100606002B08313D870028088104413129088104DF
:10061600063088310120803121001C08A800A9017C
:10062600A835A90DA835A90DA835A90D3F08AA001A
:10063600AB01AA35AB0D4008AC00AD01AC0EAD0E5A
:10064600F030AD052C080F39AD04F030AC05503054
:10065600AE002230AF002C082E07B0002D082F3D2B
:10066600B1002A08300786002B08313D870028088C
:1006760081044131290881041B08A8000530A836E9
:10068600890B422B2808A900AA013F08AB00AC0140
:10069600AB35AC0D4008AD00AE01AD0EAE0EF03080
:1006A600AE052D080F39AE04F030AD055030AF0061
:1006B6002230B0002D082F07B1002E08303DB200C1
:1006C6002B08310786002C08323D87002908810453
:1006D60041312A0881040130A8002808BF070330E9
:1006E6003606031D772B782B282D1B08A800A90199
:1006F6000A30A835A90D890B7C2B3F08AA00AB014F
:10070600AA35AB0D4008AC00AD01AC0EAD0EF03015
:10071600AD052C080F39AD04F030AC055030AE00F5
:100726002230AF002C082E07B0002D082F3DB10057
:100736002A08300786002B08313D87002808C03F6D
:100746002908C13F093088310120803121001C0869
:10075600A800A9012808A900A8013F08AB00AC0120
:10076600AB35AC0D4008AD00AE01AD0EAE0EF030AF
:10077600AE052D080F39AE04F030AD055030AF0090
:100786002230B0002D082F07B1002E08303DB200F0
:100796002B08310786002C08323D87002808810483
:1007A6004131290881041B08A800A9013F08AA00B5
:1007B600AB01AA35AB0D4008AC00AD01AC0EAD0ED9
:1007C600F030AD052C080F39AD04F030AC055030D3
:1007D600AE002230AF002C082E07B0002D082F3DAA
:1007E600B1002A08300786002B08313D870028080B
:1007F60081044131290881040130A8002808BF0777
:10080600083088310120803121001C08A800A90188
:100816000D30A835A90D890B0C2C3F08AA00AB0199
:10082600AA35AB0D4008AC00AD01AC0EAD0EF030F4
:10083600AD052C080F39AD04F030AC055030AE00D4
:100846002230AF002C082E07B0002D082F3DB10036
:100856002A08300786002B08313D87002808C03F4C
:100866002908C13F1B08A800A9010530A835A90D14
:10087600890B392C3F08AA00AB01AA35AB0D4008FD
:10088600AC00AD01AC0EAD0EF030AD052C080F3945
:10089600AD04F030AC055030AE002230AF002C086D
:1008A6002E07B0002D082F3DB1002A08300786001C
:1008B6002B08313D8700280881044131290881042D
:1008C600073088310120803121001C08A800A901C9
:1008D600A835A90DA835A90DA835A90D3F08AA0068
:1008E600AB01AA35AB0D4008AC00AD01AC0EAD0EA8
:1008F600F030AD052C080F39AD04F030AC055030A2
:10090600AE002230AF002C082E07B0002D082F3D78
:10091600B1002A08300786002B08313D87002808D9
:1009260081044131290881041B08A8000530A83636
:10093600890B9A2C2808A900AA013F08AB00AC0134
:10094600AB35AC0D4008AD00AE01AD0EAE0EF030CD
:10095600AE052D080F39AE04F030AD055030AF00AE
:100966002230B0002D082F07B1002E08303DB2000E
:100976002B08310786002C08323D870029088104A0
:1009860041312A0881040130A8002808BF071B0846
:10099600A800A9010A30A835A90D890BCE2C3F085D
:1009A600AA00AB01AA35AB0D4008AC00AD01AC0EF8
:1009B600AD0EF030AD052C080F39AD04F030AC05A6
:1009C6005030AE002230AF002C082E07B0002D08A4
:1009D6002F3DB1002A08300786002B08313D8700DD
:1009E6002808C03F2908C13F0630883101208031E0
:1009F60021003F08A800A901A835A90D4008AA00B2
:100A0600AB01AA0EAB0EF030AB052A080F39AB04CA
:100A1600F030AA055030AC002230AD002A082C0771
:100A2600AE002B082D3DAF0028082E0786002908AA
:100A36002F3D87001B08810441311C0881040130C9
:100A4600A8002808C007BF011D10080000340034A4
:100A560001340034023400340334003404340034E6
:100A660005340034063400340734003408340034C6
:100A7600093400340A3400340B3400340C340034A6
:100A86000D3400340E3400340F3400341034003486
:100A96001134003412340034133400341434003466
:100AA6001534003416340034173400341834003446
:100AB600193400341A3400341B3400341C34003426
:100AC6001D3400341E3400341F3400342034003406
:100AD60021340034223400342334003424340034E6
:100AE60025340034263400342734003428340034C6
:100AF600293400342A3400342B3400342C340034A6
:100B06002D3400342E3400342F3400343034003485
:100B16003134003432340034333400343434003465
:100B26003534003436340034373400343834003445
:100B3600393400343A3400343B3400343C34003425
:100B46003D3400343E3400343F3400344034003405
:100B560041340034423400344334003444340034E5
:100B660045340034463400344734003448340034C5
:100B7600493400344A3400344B3400344C340034A5
:100B86004D3400344E3400344F3400345034003485
:100B96005134003452340034533400345434003465
:100BA6005534003456340034573400345834003445
:100BB600593400345A3400345B3400345C34003425
:100BC6005D3400345E3400345F3400346034003405
:100BD60061340034623400346334003464340034E5
:100BE60065340034663400346734003468340034C5
:100BF600693400346A3400346B3400346C340034A5
:100C06006D3400346E3400346F3400347034003484
:100C16007134003472340034733400347434003464
:100C26007534003476340034773400347834003444
:100C3600793400347A3400347B3400347C34003424
:100C46007D3400347E3400347F3400348034003404
:100C560081340034823400348334003484340034E4
:100C660085340034863400348734003488340034C4
:100C7600893400348A3400348B3400348C340034A4
:100C86008D3400348E3400348F3400349034003484
:100C96009134003492340034933400349434003464
:100CA6009534003496340034973400349834003444
:100CB600993400349A3400349B3400349C34003424
:100CC6009D3400349E3400349F340034A034003404
:100CD600A1340034A2340034A3340034A4340034E4
:100CE600A5340034A6340034A7340034A8340034C4
:100CF600A9340034AA340034AB340034AC340034A4
:100D0600AD340034AE340034AF340034B034003483
:100D1600B1340034B2340034B3340034B434003463
:100D2600B5340034B6340034B7340034B834003443
:100D3600B9340034BA340034BB340034BC34003423
:100D4600BD340034BE340034BF340034C034003403
:100D5600C1340034C2340034C3340034C4340034E3
:100D6600C5340034C6340034C7340034C8340034C3
:100D7600C9340034CA340034CB340034CC340034A3
:100D8600CD340034CE340034CF3400342100470350
:100D9600031DCE2ECF2EDC2E3D008E1AD32ED42E42
:100DA600DC2E90011214121602302100A200220835
:100DB600C7003D00101DE02EE12EEE2E121DE42E82
:100DC600E52EEE2EFB302100A20022083D00900504
:100DD6009D31B02586313D008E1CF22EF32EF62E67
:100DE60020001211E12F101CF92EFA2E0C2F121CC6
:100DF600FD2EFE2E0C2F883114208631210012156F
:100E06000430A2002208C700FE30A20022083D00DE
:100E16009005101E0F2F102F172F121E132F142F91
:100E2600172F9D31902586313D00101F1B2F1C2F3B
:100E3600492F121F1F2F202F302F73302000E00064
:100E46000030E1000030E2000030E3000130E40051
:100E56000030E5009E319D268631BF302100A2007C
:100E660022083D0090059031012086312300690853
:100E760003193E2F3F2F412F0130E9026908031D58
:100E8600452F462F492F9231AA2286313D00901ECA
:100E96004D2F4E2F552F921E512F522F552F9E31CB
:100EA600422686313D00901C592F5A2F702F921CD6
:100EB6005D2F5E2F702FFF302000E0007F30E100B5
:100EC6000030E2000030E3000130E4000030E500CD
:100ED6009E319D2686313D00930104302100470254
:100EE6000318762F772F7A2F20001211E12F3D005D
:100EF600921D7E2F7F2FDF2F2100A4013D00901D24
:100F0600852F862FDF2F0F082100A2002208C80098
:100F1600480CA200A20C220C0F39A3002308C30020
:100F2600F730A20022083D009005210048199C2FA9
:100F36009D2FAD2F4308C13E860001308700010872
:100F46000139A2000130A20601082206FE39220656
:100F56008100BC2F4308C43E86000130870001088B
:100F66000139A2000130A20601082206FE39220636
:100F760081004308031DC02FC12FC52F9031B82013
:100F86008631D42F72302000E0000030E100C830F6
:100F9600E2000030E3000030E400E5009E319D26CB
:100FA600863101302100A2002208A4070430240261
:100FB600031CDE2FDF2F812F2000121108002100D5
:100FC6004708031DE72FE82FFF2F3D008E019201F2
:100FD600163091009F3097007B3092002100121549
:100FE600F52F8E153D008E1DF92FFA2FF42F0130A7
:0A0FF6002100A6002608C70008002D
:101002002100A7002708A600A60DA60D1D0826068A
:10101200833926069D001D149D149D18112812283F
:101022000E281D100800210012113D0093019001AD
:1010320098010E30F2009930F100F3017108860038
:101042007208870081010130F1070030F23D013062
:10105200F0007008F30702307302031C31283228B3
:101062001F2816303D0091009F3097007B30920080
:10107200F4017408F0000130F035FF3E031D3D28F5
:101082007035203E860087010030C03F0030C13FEE
:10109200C23FC33F0130F0007008F4070C30740205
:1010A200031C542855283A283D000E1796010E12AB
:1010B2000E13F730F000700890052100BA012300EA
:1010C200B201B301B4013D009019682869285A2879
:1010D2000130F00070082300E8000130F0007008D1
:1010E200E700E601E501EB01F4017435B73E860045
:1010F200013087000030C03FC13F74352A3E860070
:10110200023087000030C03FC13F7408C43E8600F1
:101112000130870081017408C13E860001308700DA
:1011220081010130F0007008F40703307402031CDF
:101132009B289C28762828302300B7000030B8006E
:1011420016303D00980000302000A3005030A2006D
:101152000830A1000430F0007008A000A0172100A0
:10116200C90100302300C0000030BF000030BE00C3
:101172000030BD00E4012100C7010800210046083B
:1011820086008701413FF5007508F200F3017308FC
:1011920023003402031DCF28720833020318D22819
:1011A200D328D7283308F2007208F5007508F20038
:1011B200F3017208B3027308B43BF401F428740813
:1011C200583E860087010108F2003008860002308E
:1011D2008700720881000130F2007208B007013006
:1011E200F2007208F40775087402031CF928FA2841
:1011F200E028330834040319FF2800293929210083
:101202003D08013EF20000303E3DF30072088600C8
:1012120073088700083081005830F2000030F30074
:101222003D0886003E08870042317208C03F7308BD
:10123200C13F460886008701011B202921292D294B
:101242003D0886003E088700483081003D08860040
:101252003E08870081176B293D0886003E088700FB
:10126200083081003D0886003E08870081176B29FF
:1012720021003D08013EF20000303E3DF3007208BD
:10128200860073088700083081005030F200003079
:10129200F3003D0886003E08870042317208C03FD5
:1012A2007308C13F3D0886003E0887000430810074
:1012B2003D0886003E08870081172300350836085E
:1012C200B21321004208031D672968296B29923154
:1012D200AA2288310800210012113D0093019001D9
:1012E20098010E302100A8009930A700A901270813
:1012F20086002808870081010130A7070030A83D39
:101302000130A6002608A90702302902031C8A29F7
:101312008B29782916303D0091009F3097007B3051
:1013220092002100AA012A08A6000130A635FF3E3C
:10133200031D97292635203E860087010030C03FD5
:101342000030C13FC23FC33F0130A6002608AA07B2
:101352000C302A02031CAE29AF2994293D000E1736
:1013620096010E120E13F7302100A60026083D004A
:1013720090052100BA012300B201B301B4013D007E
:101382009019C429C529B42901302100A6002608D4
:101392002300E80001302100A60026082300E70010
:1013A200E601E501EB012100AA012A35B73E8600DC
:1013B200013087000030C03FC13F2A352A3E8600F7
:1013C200023087000030C03FC13F2A08C43E860079
:1013D2000130870081012A08C13E86000130870062
:1013E20081010130A6002608AA0703302A02031C45
:1013F200FB29FC29D62928302300B7000030B80089
:1014020016303D00980000302000A3005030A200AA
:101412000830A10004302100A60026082000A00008
:10142200A0172100C90100302300C0000030BF0016
:101432000030BE000030BD00E4012100C7010800F9
:101442001F3021002705AB0000302805AC002B0817
:101452002C0403192D2A2E2A2F2AE32A2400D00134
:1014620021002808AB002B082400CE002100270809
:10147200AB002B082400CF0020302100A70700304A
:10148200A83D9C31BF248A31A0309C31FB248A3193
:1014920024004E089C31FB248A3124004F089C31E1
:1014A200FB248A312400D101D20152082100AB0071
:1014B200AC01AB35AC0D240050082100AD00AE01EB
:1014C200AD35AE0D2400510821002D07AF002E08C6
:1014D20003182E0AB000AF0EB00EF030B0052F0880
:1014E2000F39B004F030AF052F082907B1003008DA
:1014F2002A3DB2002B08310786002C08323D8700B6
:10150200403FB300413FB40034089C31FB248A3190
:10151200240052082100AB00AC01AB35AC0D240015
:1015220050082100AD00AE01AD35AE0D24005108CA
:1015320021002D07AF002E0803182E0AB000AF0EAF
:10154200B00EF030B0052F080F39B004F030AF05FF
:101552002F082907B10030082A3DB2002B083107B5
:1015620086002C08323D870001089C31FB248A3119
:1015720001302100AB002B082400D20708305202B0
:10158200031CC42AC52A562A01302100AB002B08AD
:101592002400D10702305102031CD02AD12A552A35
:1015A2009C31C5248A319D3136258A310130210092
:1015B200AB002B082400D0070D305002031CE22A96
:1015C200E32A312A08007108FD007008FC00740843
:1015D2007504031DED2AEE2AEF2AAD2B7C08860046
:1015E2007D0887007208810074087C07F600750880
:1015F2007D3DF7007608FF3EF800FF30773DF900A9
:101602007808860079088700720881000030750228
:1016120003300319740203180F2B102B112BAD2B5F
:101622007C08013EF60000307D3DF700760886001A
:1016320077088700720881007C08023EF6000030BD
:101642007D3DF700760886007708870072088100E2
:1016520074087C07F60075087D3DF7007608FE3EAB
:10166200F800FF30773DF900780886007908870096
:101672007208810074087C07F60075087D3DF7004A
:101682007608FD3EF800FF30773DF90078088600C5
:10169200790887007208810000307502073003194B
:1016A20074020318552B562B572BAD2B7C08033E87
:1016B200F60000307D3DF700760886007708870047
:1016C2007208810074087C07F60075087D3DF700FA
:1016D2007608FC3EF800FF30773DF9007808860076
:1016E20079088700720881000030750209300319F9
:1016F200740203187D2B7E2B7F2BAD2B7C09F60009
:101702007D09F700F60A0319F70A03307605FA0095
:1017120000307705FB007A08FC077B08FD3D7A085C
:10172200F4027B08F53BFC30F405FF30F505A72BEE
:101732007C0886007D088700720881000130F4026F
:101742000030F53B0130FC070030FD3D74087504A4
:10175200031DAC2BAD2B992B08000B112300550850
:10176200200095002400340835040319B92BBA2B44
:10177200BF2B35088A0034080A008B3123005B082E
:101782000319C42BC52BD52B0130F0007008DA07E2
:101792000A305A06031DCE2BCF2BD52B27009312CE
:1017A2008B152300DB01DA015608031DD92BDA2B36
:1017B200582C0130CB070030CC3D88304B0613301B
:1017C20003194C06031DE62BE72BE92B21008E1291
:1017D20064009C3023004B06133003194C06031D92
:1017E200F32BF42BF92B21008E162300CB01CC0115
:1017F2000130CD070030CE3D3C304D067330031929
:101802004E06031D052C062C082C21008E123030AA
:1018120023004D06753003194E06031D112C122CA0
:10182200202C5908031D162C172C202C21008E1653
:101832002300CD01CE010130F0007008E00001303C
:101842002400B6070030B73D3708803AF0008030F8
:101852007002031D2E2C0A303602031C312C322C4E
:10186200832C230057080319372C382C542C4A0890
:10187200803AF00080307002031D412C4E30490244
:101882000318442C452C4F2C01302300C90700308B
:10189200CA3D0130F0007008DD00542C0130F00028
:1018A20070082300DF002400B601B701832C013049
:1018B200CB070030CC3DE8304B06033003194C0611
:1018C200031D642C652C742C21008E120130F00053
:1018D20070082300DE070B305E06031D712C722C8C
:1018E200742CD601DE014C304B06043003194C0631
:1018F200031D7C2C7D2C832C640021008E1623007A
:10190200CB01CC0108002100121123004F08500422
:1019120003198C2C8D2C982C4F08860050088700B8
:10192200811F942C952C982C210012156A2D0330BE
:1019320021004106031D9E2C9F2CA02CC1014108B1
:10194200031DA42CA52CA72C12156A2D02304106CA
:10195200031DAC2CAD2CC62CA601A60A0030A70094
:101962000030A800A9010230963144268C312100B2
:1019720027082300D000210026082300CF000330CF
:101982002100B1003108C100682D4103031DCA2C9A
:10199200CB2C682D413023006202031CD12CD22CA7
:1019A200D82C40302100B1003108B300DD2C620890
:1019B2002100B1003108B300330823006202210084
:1019C200B10031082300E20020302400BB00803047
:1019D200BA0021003308B1003108B20023006108C7
:1019E200031DF42CF52C352D122D24003C08840007
:1019F2003D08850000082100B10024003A08860055
:101A02003B08870021003108810001302400BA0719
:101A12000030BB3D0130BC070030BD3D013021002C
:101A2200B20221003208031D172D182DF62C3B2D72
:101A320024003C0884003D08850000082100B10014
:101A420024003A0886003B08870021003108810003
:101A520001302400BA070030BB3D0130BC07003022
:101A6200BD3D01302100B20221003208031D3A2D92
:101A72003B2D192D23006208031D402D412D512DB0
:101A8200403021003306031D472D482D4D2D0230D5
:101A9200B1003108C100512D0330B1003108C1003D
:101AA2002100A601A60A8030A7002030A800330832
:101AB200B1003108A9000230963144268C31210050
:101AC20027082300D000210026082300CF00210090
:101AD200121508002400D4019D3146258D319D3117
:101AE20004258D319F317C278D318B170B172300F5
:101AF2005D0803197D2D7E2DA62DDD015408031DE1
:101B0200832D842D8F2D0030803199208D3101302D
:101B12002100B70037082300D407A62D5403031D64
:101B2200932D942D992D0130803199208D31882D5E
:101B320002305406031D9E2D9F2DA62D03308031A9
:101B420099208D312300D401A62D60080319AA2DF6
:101B5200AB2DCF2DE0014A08803A2100B70080303A
:101B62003702031DB72D013023004902031CBA2D91
:101B7200BB2DC12D23005C080319C02DC12DAC2D36
:101B8200270093128B152300D801D7016300270089
:101B920093122300DC01DF01C901CA015F080319A6
:101BA200D32DD42DFF2D5C08031DD82DD92DFF2D4B
:101BB200DF010F304802FF3003194702031CE22DF8
:101BC200E32DE52DC701C80148082100A800230024
:101BD20047082100A7005030A9002230AA008A310C
:101BE20021228D31A0302300C7070130C83D0130CA
:101BF2002100B70037082300DC00D9012100B10120
:101C0200B10A553091316E218D316B302400550669
:101C1200031D0C2E0D2E442E6E302100B700370806
:101C22002400D5002300C701C80101302100B700FC
:101C320037082300D600D301CB01CC0100302100AC
:101C4200A700A8005030A9002230AA009431242411
:101C52008D3120302300C7070030C83D21008E128D
:101C62004108031D352E362E312E5030A60022306B
:101C7200A7002030B7003708A8009D3175258D31A7
:101C820021008E16A02E63305506031D492E4A2EC2
:101C9200A02E6E302100B70037082400D5002300A3
:101CA20053080319552E562E692E21008E12410813
:101CB200031D5C2E5D2E582EAF30A6009830A70073
:101CC2009F3141278D3121008E162300D601A02E8F
:101CD2000F304802E130031947020318712E722EA9
:101CE2009C2E21008E12230048082100A800230008
:101CF20047082100A7005030A9002230AA009431E1
:101D020024248D3121004108031D882E892E832E23
:101D12005030A6002230A7002030B7003708A800B4
:101D22009D3175258D3121008E1620302300C70785
:101D32000030C83DA02ED301D30AC701C8018C319F
:101D420084248D31782D80314E2820005203031DCA
:101D5200AB2EAC2EC42E50081F39003A031DB22EF2
:101D6200B32EC42E2100BA17033020005106031DE2
:101D7200BB2EBC2EC22E0130E60066082300EC000A
:101D8200C42E2300EC0120005208031DC92ECA2EC6
:101D9200FF2F50081F39023A031DD02ED12EFF2FDC
:101DA20054080F39003A0319D72ED82EFF2F5408A2
:101DB2000F39E600033066020318E02EE12EFF2FF2
:101DC200203021004706031DE72EE82EFF2FBA1709
:101DD2002000D41BED2EEE2E042F54080F390907D4
:101DE2002A3E860002308700403FEB00413FEC0074
:101DF20054080F39C13E8600013087000108E60011
:101E02006608EA00192F54080F390907B73E860001
:101E120001308700403FEB00413FEC0054080F398E
:101E2200C43E8600013087000108E6006608EA0029
:101E32006A181C2F1D2F282FFB30E600FF30E70009
:101E42006B086605EB006C086705EC002E2F04306A
:101E52006B04EB0000306C04EC00D41B312F322FEA
:101E62003E2F54080F3909072A3E860002308700A8
:101E72006B08C03F6C08C13F492F54080F3909074E
:101E8200B73E8600013087006B08C03F6C08C13F37
:101E920003305106031D4E2F4F2F752F6B088600FE
:101EA2006C088700811F562F572F6A2FD41B5A2F79
:101EB2005B2F632F54080F39C13E86000130870023
:101EC20081146A2F54080F39C43E860001308700FE
:101ED20081146B0886006C08870001156B08860068
:101EE2006C0887008117FF2F04306B06EB0000306F
:101EF2006C06EC006B0886006C088700811F822F3D
:101F0200832FA02F7F30E6006B0886006C088700C5
:101F1200660881056B0886006C088700011705308A
:101F2200E0000030E1006C08E3006B08E2000230E0
:101F3200E4000030E5009E319D268E31A52F6B080E
:101F420086006C0887000117043020006B06EB0046
:101F520000306C06EC00EA18AF2FB02FB82F6B08D8
:101F620086006C088700811FB72FB82FE32FD41B80
:101F7200BB2FBC2FC42F54080F39C13E860001303D
:101F820087008110CB2F54080F39C43E86000130E0
:101F9200870081103B30E6006B0886006C088700E2
:101FA200660881050530E0000030E1006C08E300BE
:101FB2006B08E2000230E4000030E5009E319D260D
:101FC2008E31EB2F3B30E6006B0886006C088700F1
:101FD20066088105200054080F39983EE600E701A3
:101FE2000E30E73D6608E8006708E900FE30E600CB
:0E1FF2006808860069088700660881050800F7
:1020020001302300BD070030BE3D0030BF3D00302F
:10201200C03D6B08031D0E280F281C280130F0005C
:102022007008E4076408031D172818281C28FF30CD
:10203200F0007008E40008002100AB002030A70087
:102042002708AC002608A7000130A735890B2628EF
:102052002B08A8000130A835FF3E031D2C28283587
:102062002707A9000130A935FF3E031D3428293571
:10207200AA002A08AC072C088600870181132608CB
:10208200031D442845284F282B352A3E860002305E
:1020920087002C08C03F0030C13F58282B35B73E7F
:1020A2008600013087002C08C03F0030C13F2C0859
:1020B2008600870101132C08043E86008701011760
:1020C20008002100C501C2012300E601E501EA0181
:1020D2002100C4017F302000EF0023003708860072
:1020E2003808870020006F08810504302300370676
:1020F200B70000303806B8007F302000EF00230020
:10210200370886003808870020006F0881050430F0
:1021120023003706B70000303806B8007F302000B1
:10212200EF0021003D0886003E08870020006F086E
:1021320081052100BA01BB01BC012300B201B30138
:10214200B4019431A724903103302000E000003024
:10215200E1000030E2000030E3000030E400E5007E
:102162009E319D26903197315C27903108002D30A9
:102172002100A00020082300E90021004808FD39C1
:10218200031DC428C528012948363F39A000013063
:10219200A035FF3E031DC9282035203EA10021089D
:1021A200C6004608BD00FF39031D0030BE000430E2
:1021B2003D06BD0000303E06BE004608860087018F
:1021C200010C890C0F390D3A031DE828E928FD2876
:1021D2004608023E86008701403FF000413FF10081
:1021E2000830F2000030F30050309E316F269031FB
:1021F2009031622090310D299F31072790310D29AE
:10220200FD304805A00004302006031D09290A29D3
:102212000D2993312423903108002300E601E501C2
:10222200023021004406031D172918293D293D08C3
:10223200013EF30000303E3DF4007308860074084E
:102242008700083081005830F3000030F4003D0868
:1022520086003E08870042317308C03F7408C13FC0
:102262003D0886003E088700483081003D08860010
:102272003E08870081176D293C0820005702031D84
:10228200462921003B0820005602031849294A2901
:10229200512957082100BC00200056082100BB002C
:1022A2009331A32391315830F3000030F40023001E
:1022B200370886003808870042317308C03F740827
:1022C200C13F370886003808870048308100370848
:1022D200860038088700811708002100B400230017
:1022E200E3015108520403197729782980295108FA
:1022F200860052088700811B7F298029D129510835
:10230200860052088700413121003108010203187A
:102312008B298C29972923005108860052088700AF
:10232200413101082100B2003208B1002300E3016B
:10233200B3296308C03E860087012030873D01082B
:102342002100B2002300630821003407B3003308E0
:10235200860002308700320881000130B200320864
:102362002300E3072100310823006302031CBA297A
:10237200BB299A292100A601C030A7002030A8005D
:102382004030B2003208A900023096314426913121
:10239200210027082300D200210026082300D100B3
:1023A200630808002000D801D901182A2100BA17B1
:1023B20023006C03031DDE29DF292C2A2000D814F8
:1023C2002C2A2100BA172C2A2100BA172000D41B6C
:1023D200EB29EC29F82954080F3909072A3E86000F
:1023E20002308700403FF200413FF300032A5408C5
:1023F2000F390907B73E860001308700403FF200DF
:10240200413FF3007208860073088700811F0A2A81
:102412000B2A2C2A7208860073088700011D122AD3
:10242200132A2C2A0130F0007008D8002C2A5008F8
:102432001F39F000F1017108003A0319212A2C2AF0
:102442007008003A0319D729013A0319E229033A1D
:102452000319E5292C2A2100BA1F302A312A3A2AE7
:102462005830B8000030B9003A140230F000700859
:10247200BB000800200050081F39013A0319422A04
:10248200432A442AA92A500E890C0339013A031916
:102492004B2A4C2A4D2AA92A54080319512A522A96
:1024A200902A54030319562A572A902AA92A3F3000
:1024B2002100B8000230B9000030BC000830BB0077
:1024C2003A14BA17A92A3F302100B8000230B900E5
:1024D200BA17A92A57082300B4002000560823007F
:1024E200B3004730F0007008B000B501B601B21772
:1024F200A92A47302100B8000230B9000030BC00E0
:102502000730BB00C130F0007008BA00A92A520897
:10251200F00070082400BE002100BA17A92A510851
:10252200F000F1017108003A0319982AA92A7008EB
:10253200003A0319582A013A0319642A213A031965
:102542006B2A013A03197A2A033A0319882AA92A1B
:10255200080023006808031DAF2AB02A232B01308C
:10256200F0007008E8006708031DB82AB92A232B77
:102572000130F0007008E700023021004406031D1C
:10258200C32AC42AD72A23003708860038088700BE
:1025920041318101370886003808870048308100C0
:1025A20037088600380887008117232B4403031D50
:1025B200DB2ADC2A232B2300EA010830F000210069
:1025C200460A86008701700881005030F000003012
:1025D200F1004608023E860087017008C03F71087C
:1025E200C13F0430F0004608860087017008810070
:1025F20046088600870181170130F0007008230029
:10260200EA0021003D08013EF00000303E3DF100AD
:102612007008860071088700083081005030F00091
:102622000030F1003D0886003E0887004231700804
:10263200C03F7108C13F3D0886003E0887008030D8
:102642008100232B08002300370886003808870002
:102652000030011B0130F50004303706B7000030AE
:102662003806B800083021004706031D392B3A2BE3
:102672004F2B200052087F393D009600160803199F
:10268200432B442B4A2B1030F30073082100C70060
:102692004F2B0430F30073082100C7004403031DCD
:1026A200532B542B982B5830F3000030F4002300A6
:1026B200370886003808870042317308C03F740823
:1026C200C13F9331A3239331023021004506031DFC
:1026D2006B2B6C2B792B2300370886003808870078
:1026E2000430810037088600380887008117A22B42
:1026F2007508031D7D2B7E2B8B2B2300370886004C
:10270200380887004830810037088600380887007B
:102712008117A22B2300370886003808870008306B
:10272200810037088600380887008117A22B230012
:10273200B21F9C2B9D2BA02B35083608B21321000B
:10274200C40108000830F0007008F20000302100D7
:102752003C02083003193B020318B02BB12BC82BE3
:102762003B08F0007008F2004508031DB92BBA2B94
:10277200BF2B0130F0007008C500C82B4503031DB4
:10278200C32BC42BC82B0230F0007008C50072089E
:10279200F000F1017008BB027108BC3B230037084E
:1027A200013EF0000030383DF100700886007108EB
:1027B2008700720881005830F0007008ED00210097
:1027C2003A18E42BE52B1E2CFF2B2100380884003D
:1027D200390885000008F00023006D088600870193
:1027E2007008810001302100B8070030B93D013086
:1027F200F00070082300ED070130F2027208031D99
:10280200032C042CE62B232C2100380884003908E1
:1028120085000008F00023006D088600870170081B
:10282200810001302100B8070030B93D0130F000CD
:1028320070082300ED070130F2027208031D222CFA
:10284200232C052C080021002808AB002B08B2001D
:102852002708AB002B08B1009C31BF249431A03073
:102862009C31FB249431210032089C31FB249431A9
:10287200210031089C31FB2494319C31BF249431D6
:10288200A1309C31FB2494312100B301B4019C316D
:10289200B9249431240011082100AB002B08B200A6
:1028A2009C31D22494319C31B924943121003408D2
:1028B200AB00AC01AB35AC0D3308AD00AE01AD0ED3
:1028C200AE0EF030AE052D080F39AE04F030AD0576
:1028D2002D082907AF002E082A3DB0002B082F072C
:1028E20086002C08303D870024001108C03F2100DB
:1028F2003208C13F3308031D7F2C802C842C9C316D
:10290200D22494318E2C073034020318892C8A2C5D
:102912008B2C802C9C31D924943101302100AB00C6
:102922002B08B40708303402031C982C992C482C2D
:102932000130AB002B08B30702303302031CA22C78
:10294200A32C472C9C31C524943108002000500E42
:10295200890C0339003A0319AF2CB02C032D2E2D0C
:102962002100BA1708302000ED006D082100C700D1
:102972002E2D9531B92594312E2D9631CF269431B5
:102982002E2DC9302100B8000030B9003A140130B0
:102992002000ED006D082100BB00BA172E2D9131E9
:1029A200D32194312E2D8E31A62694312E2D54080A
:1029B200EE3E2100B8000130B9003A140130200087
:1029C200ED006D082100BB00BA172E2D2100BA17A9
:1029D20020005208ED005408EE3E860001308700C8
:1029E2006D0881002E2D0230E0000030E100003041
:1029F200E2000030E3000030E400E5009E319D2655
:102A020094312E2D5108ED00EE016E08003A0319A3
:102A12000B2D2E2D6D08003A0319D02C013A031903
:102A2200D42C023A0319D42C063A0319B12C033AD6
:102A32000319BA2C013A0319F42C0F3A0319C22CC8
:102A4200013A0319BE2C033A0319D82C013A03198F
:102A5200E72C073A03192E2D2E2D0800F8007008D6
:102A62000319342D352D3F2D7835B73E86000130C0
:102A72008700403FF900413FFA00482D78352A3E51
:102A8200860002308700403FF900413FFA00790892
:102A92007A04031D4D2D4E2D512DF001F101B82D5B
:102AA200FF307105F4007F307205F5007908860069
:102AB2007A08870042317408C03F7508C13F79081F
:102AC200013EF40000307A3DF50074088600750876
:102AD2008700730881004030F400790886007A0884
:102AE200870074088105790886007A0887008115B5
:102AF200790886007A088700811770080319822DE9
:102B0200832D9C2D7835B73E860001308700403FEB
:102B1200F400413FF50004307406F60000307506FB
:102B2200F7007835B73E8600013087007608C03F4F
:102B32007708C13FB42D78352A3E860002308700DF
:102B4200403FF400413FF50004307406F6000030C7
:102B52007506F70078352A3E86000230870076082F
:102B6200C03F7708C13F7A08F1007908F0000800F9
:102B7200803020005006031DBF2DC02D432EC030D3
:102B8200F00070082100BA002F2E8D302100B8000D
:102B92009830B9000030BC001230BB00432E5208FE
:102BA200031DD42DD52D042E5208F000F101F0356D
:102BB200F10DB930700784009830713D8500003FF7
:102BC2002100B800013FB9003908F1003808F000CF
:102BD20002307007840071080318710A850000082A
:102BE200F2007208BB003908F1003808F000033027
:102BF2007007840071080318710A85000008F2004A
:102C02007208BC00432E2100BA01432E0430520246
:102C120003180C2E0D2E292E5208F000F101F0356A
:102C2200F10D9F30700784009830713D8500003FA0
:102C32002100B800013FB900380884003908850036
:102C42000008F000F1017008BB007108BC00432EBF
:102C52002100BA01432E2100BA01432E200053085D
:102C6200F000F1017108003A0319382E2C2E700879
:102C7200013A0319C62D033A0319D02D013A03195B
:102C8200072E2C2E08002100AE00260803194A2E1A
:102C92004B2E552E2E35B73E860001308700403F21
:102CA200AF00413FB0005E2E2E352A3E8600023034
:102CB2008700403FAF00413FB0002F083004031DA2
:102CC200632E642E672EA601A701CE2EFF302705A4
:102CD200AA007F302805AB002F0886003008870045
:102CE20042312A08C03F2B08C13F2F08013EAA00EB
:102CF2000030303DAB002A0886002B0887002908E7
:102D020081004030AA002F088600300887002A0878
:102D120081052F0886003008870081152F0886005C
:102D220030088700811726080319982E992EB22E93
:102D32002E35B73E860001308700403FAA00413F52
:102D4200AB0004302A06AC0000302B06AD002E3555
:102D5200B73E8600013087002C08C03F2D08C13FD6
:102D6200CA2E2E352A3E860002308700403FAA0036
:102D7200413FAB0004302A06AC0000302B06AD0008
:102D82002E352A3E8600023087002C08C03F2D08CF
:102D9200C13F3008A7002F08A60008002100BA177B
:102DA2000E302000E8009930E700E901670886004C
:102DB2006808870081010130E7070030E83D0130F3
:102DC200E6006608E90702306902031CE92EEA2ED2
:102DD200D72E2030F0000030F1000030F200F30076
:102DE2003030F4000030F5008A31E42296313D00A3
:102DF2000E172000EA016A08C43E860001308700EF
:102E020081016A08C13E86000130870081010130DC
:102E1200E6006608EA0703306A02031C112F122F2C
:102E2200FC2EEE30F0000130F1000030F200F30031
:102E32000230F4000030F5008A31E42296313D0080
:102E42000E1328302300B7000030B80020302000D5
:102E5200E60066082100C6004608BD00FF39031DD2
:102E62000030BE0020005208E60066082100C900BA
:102E72004908031D3D2F3E2F452F10302000E6004C
:102E820066082100C7005B2F01302000E0000030FF
:102E9200E100C930E2000030E3000130E40000301C
:102EA200E5009E319D26963120302000E60066081E
:102EB2002100C70008003D000E122100BA1B622F3C
:102EC200632FAC2F2300B21F672F682F7A2F023097
:102ED200F50075082100C40023006508031D722F48
:102EE200732F762F91310E2197312300E701E801EC
:102EF200FF2F21003D08013EF50000303E3DF60067
:102F02007508860076088700083081005030F50089
:102F12000030F6003D0886003E0887004231750801
:102F2200C03F7608C13F3D0886003E0887000C304E
:102F320081003D0886003E0887008117230037087C
:102F42008600380887000430810037088600380878
:102F520087008117FF2F2000D01FB02FB12FCC2F59
:102F62000130F50075082100C40023006608031D26
:102F7200BB2FBC2FBF2F91310E2197312300E701C8
:102F8200E80121004208031DC72FC82FFF2F9231ED
:102F9200AA229731FF2F0230F50075082100C400E4
:102FA2003D08013EF50000303E3DF6007508860002
:102FB20076088700083081005030F5000030F600B6
:102FC2003D0886003E08870042317508C03F7608FA
:102FD200C13F3D0886003E088700043081003D085D
:102FE20086003E08870081172300E701E8012100DF
:102FF2004208031DFD2FFE2FFF2FC82F08000934A2
:10300200023443340034023401340034C0343234E4
:1030120009340434003400340134023402340134FB
:10302200003405342434003410340134043424349C
:1030320002340234053424340634003401340534B5
:103042002434013400340134073405348134033428
:103052000A340034023409340434013400340234B2
:103062000A340034003400340734053402340234A4
:10307200403400340034073405348234023440349E
:1030820000340034343403344D34003469340034B1
:1030920063340034723400346F34003463340034E7
:1030A200683400346934003470340034203400341D
:1030B20054340034653400346334003468340034EA
:1030C2006E3400346F3400346C3400346F340034A6
:1030D2006734003479340034203400344934003405
:1030E2006E340034633400342E3400341634033426
:1030F200533400346D34003461340034723400349B
:1031020074340034203400345334003468340034CE
:103112006F34003465340034123401340034023424
:103122000234003400340834D83404340A3400340D
:10313200003401340134023403340134B534983498
:103142004334983477349834A734983408340334A9
:10315200313400343234003434340034533474346F
:103162006F347034213400340434033409340434A9
:043172000034983459
:10396A001830210097000800240096159C31CB24BA
:10397A009C310800240016149C31CB249C31080089
:10398A00240016159C31CB249C3108002000911D7F
:10399A00CF2CD02CCB2C911108002400961216168D
:1039AA009C31CB249C3108002400961616169C31B3
:1039BA00CB249C310800903021009E009F019B017E
:1039CA009C0101309D000800210027082400D7002F
:1039DA00210026082400D600080021002708240018
:1039EA00B500210026082400B40008002100A60022
:1039FA002608240091009C31CB249C310800240025
:103A0A00940108309500960113309200200091111C
:103A1A002400951608006400800101310130FE027D
:103A2A000030FF3B7F087E04031D112D0034FE0089
:103A3A0012001E000130FE020030FF3B7F087E04A8
:103A4A00031D1D2D00347C302100990098012700A8
:103A5A009B012200960121001A1F342D352D302D8D
:103A6A0008009C31BF249D31A0309C31FB249D313C
:103A7A002400161B412D422D362D9C31C5249D3123
:103A8A0008009D31D2259D319D3128259D319C31DB
:103A9A00B5249D3189316C219D319C31E0249D31C1
:103AAA009D315C259D318731E2279D310800210037
:103ABA001508C039123895000630200095000630E6
:103ACA002100A80028082300D5000B118B1603300B
:103ADA002100A6000030A7009C31F2249D31080085
:103AEA00210012114108031D7B2D7C2D8E2D2708E4
:103AFA002400BD00210026082400BC00210028085B
:103B0A00A90029082300E200E101E10A2100C1011C
:103B1A00C10A121508003D001215EF302000E60018
:103B2A0066083D0090058E1401302000E600660804
:103B3A002300EB00E40175302000E0000030E100D2
:103B4A000030E2000030E3000030E400E5009E317E
:103B5A009D269D3108002300EB0174302000E0000F
:103B6A000030E1000030E2000030E3000030E40001
:103B7A00E5009E319D269D313D008E101211CB2D00
:103B8A00FB302000E60066083D0090051019CE2D96
:103B9A00CF2DC52D2300E401080022008C018D01E0
:103BAA008E01303021008C00F0308D00FF308E0005
:103BBA00CC3023008E008D018C0124008D018C01F4
:103BCA002100951722009D012700931291160030BB
:103BDA002100A6000030A7009C31E9249D3108008D
:103BEA00FC00771DF92DFA2DFF2DF0017C089F317D
:103BFA00BC279D31F71C022E032E092EF001F00A74
:103C0A007C089F31BC279D317C08983EF800F90159
:103C1A000E30F93D7808FA007908FB007A08860028
:103C2A007B0887007708810008002100B2002D1D5B
:103C3A001F2E202E252EA601320890311D209E31DE
:103C4A002100AD1C292E2A2E302EA601A60A3208E2
:103C5A0090311D209E3121003208983EAE00AF01FE
:103C6A000E30AF3D2E08B0002F08B1003008860094
:103C7A00310887002D08810008003D00181C462ED7
:103C8A00472E6A2E210046088600870180300106E9
:103C9A00031D502E512E682E23003708860038083F
:103CAA00870084300106031D5B2E5C2E682E0C30C3
:103CBA00F000210046088600870170088100460846
:103CCA008600870181173D001810DF30F000700868
:103CDA0090050800F8007108F6007008F5007808E9
:103CEA00F4007408F900902E75088600760887009B
:103CFA000108F4007408F7000130F5070030F63DBA
:103D0A007708F40079088600870174088100013079
:103D1A00F4007408F9070130F2020030F33B720A2A
:103D2A00031D9B2E730A031D9B2E9C2E792E0800C1
:103D3A00A62E9E31CF269E31CE2E92313B229E3127
:103D4A00CE2E20006108003A0319AF2E7F3A0319DC
:103D5A00C92ECE2E6008013A03199E2E033A031982
:103D6A00CE2E013A0319A22E063A0319CE2E773A1D
:103D7A000319CE2E013A0319CE2E073A0319CE2E75
:103D8A00013A0319CE2ECE2E6008FF3A0319CE2E21
:103D9A00CE2E080000302400CA000030C9004B3083
:103DAA00C8000030C700CB01CC010830FD007D08F7
:103DBA00CD002300E3011A30FD007D08F700013031
:103DCA009D31F5259E311E30FD007D08F700023039
:103DDA009D31F5259E31F001C030F1002030F2000E
:103DEA004030FD007D08F300023095312F259E31C9
:103DFA0071082300D2007008D100CF01D001210040
:103E0A00C1010800023021004406031D0D2F0E2FA8
:103E1A00122F8831BF209F31402FC40123006A0826
:103E2A00031D182F192F3F2F21003D08013EF600D0
:103E3A0000303E3DF7007608860077088700083094
:103E4A0081005030F6000030F7003D0886003E0839
:103E5A00870042317608C03F7708C13F3D08860097
:103E6A003E0887000C3081003D0886003E08870026
:103E7A008117402FEA010800210012114108031995
:103E8A00472F482F4A2F12157B2FAD012708AC0068
:103E9A002608AB000130A8002808AD072D0A031D2B
:103EAA00572F582F592F692F2C08A9002B08A80023
:103EBA00AB0A0319AC0A28088400290885001200F5
:103ECA00031D682F692F4F2F27082400BD002100EA
:103EDA0026082400BC0021002D08A8002808230079
:103EEA00E200E1012100C101C10A121508000030F7
:103EFA002400CA000030C9004B30C8000030C70097
:103F0A00CB01CC0108302100B30033082400CD00D6
:103F1A002300E3011A302100B3003308AD00013059
:103F2A009E311A269F311E302100B3003308AD009E
:103F3A0002309E311A269F312100A601C030A70007
:103F4A002030A8004030B3003308A900023096316F
:103F5A0044269F31210027082300D2002100260889
:103F6A002300D100CF01D0012100C1010800F500D2
:103F7A002030F1007108F6007008F1000130F135C7
:103F8A00890BC42F7508F2000130F235FF3E031D7C
:103F9A00CA2F72357107F3000130F335FF3E031D56
:103FAA00D22F7335F4007408F60776088600870165
:103FBA0081137008031DE22FE32FED2F75352A3E7A
:103FCA008600023087007608C03F0030C13FF62FD6
:103FDA007535B73E8600013087007608C03F00304D
:103FEA00C13F76088600870101137608043E8600E1
:063FFA0087010117080019
:020000040001F9
:04000E00F43FFF3F7D
:00000001FF
