:020000040000FA
:1000000080313328961508007E1480318B1A0B1D21
:100010000D289B314923803131288B190B1C142862
:100020009A317D22803131280B1F31282100121D89
:1000300020282000121D20288331AC238031312854
:1000400021009219200092192B282100911D31289E
:100050002000911D3128230057088A0056080A0005
:1000600080317E100900803135282100C601C7018A
:10007000C801C901CA01B030840001308500403098
:10008000FE000030FF009A31D422803120308400FD
:10009000023085004E30FE000030FF009A31D4223D
:1000A0008031A0308400023085004A30FE000030EC
:1000B000FF009A31D4228031203084000330850043
:1000C0004030FE000030FF009A31D4227E10200024
:1000D0008831562820005203031D832850081F39F9
:1000E000003A031D83282300C51703302000510662
:1000F000031D812801302100B90039082300E900DF
:1001000083282300E90120005208031D080050083D
:100110001F39023A031D080054080F39003A031929
:10012000080054080F392100B900033039020318C0
:10013000080020304906031D08002300C5172000D1
:10014000D41BB32854080F390907BD3E860001307F
:100150008700403F2100BE00413FBF0020005408FF
:100160000F39C83EC32854080F390907B73E860027
:1001700001308700403F2100BE00413FBF0020000A
:1001800054080F39CB3E860001308700010821005A
:10019000B9003908BD003D18D728FB30B900FF3041
:1001A000BA003E083905BE003F083A05DC28043095
:1001B0003E04BE0000303F04BF002000D41BED28E9
:1001C00054080F390907BD3E860001308700210021
:1001D0003E08C03F3F08C13FF92854080F390907BE
:1001E000B73E86000130870021003E08C03F3F082F
:1001F000C13F033020005106031D1F2921003E0886
:1002000086003F088700811F13292000D41B0C297A
:1002100054080F39C83E0F2954080F39CB3E8600C9
:1002200001308700811421003E0886003F088700C6
:1002300001153E0886003F0887008117080004303A
:1002400021003E06BE0000303F06BF003E0886008B
:100250003F088700811F49297F30B9003E0886008A
:100260003F088700390881053E0886003F0887005F
:1002700001170530B3000030B4003F08B6003E0857
:10028000B5000230B7000030B8009E31C32680317F
:100290004E293E0886003F088700011704302100E0
:1002A0003E06BE0000303F06BF00BD185D293E0877
:1002B00086003F088700811F84292000D41B642901
:1002C00054080F39C83E672954080F39CB3E8600C1
:1002D0000130870081103B302100B9003E088600C4
:1002E0003F088700390881050530B3000030B400AD
:1002F0003F08B6003E08B5000230B7000030B80035
:100300009E31C32680318C293B30B9003E088600DF
:100310003F08870039088105200054080F39983EAE
:100320002100B900BA010E30BA3D3908BB003A08C5
:10033000BC00FE30B9003B0886003C088700390845
:100340008105080020005203031DBA2950081F39F7
:10035000003A031DBA292300C517033020005106B7
:10036000031DB8290130E60066082300E900BA2918
:100370002300E90120005208031D080050081F391E
:10038000023A031D080054080F39003A0319080007
:1003900054080F39E60003306602031808002030C5
:1003A00021004906031D08002300C5172000D41BA7
:1003B000E82954080F390907BD3E8600013087003F
:1003C000403FEB00413FEC0054080F39C83EF6298E
:1003D00054080F390907B73E860001308700403FB7
:1003E000EB00413FEC0054080F39CB3E8600013052
:1003F00087000108E6006608EA006A18092AFB304F
:10040000E600FF30E7006B086605EB006C08670547
:100410000E2A04306B04EB0000306C04EC00D41B9B
:100420001D2A54080F390907BD3E86000130870098
:100430006B08C03F6C08C13F282A54080F390907D0
:10044000B73E8600013087006B08C03F6C08C13F93
:1004500003305106031D4A2A6B0886006C0887008A
:10046000811F3F2AD41B382A54080F39C83E3B2A23
:1004700054080F39CB3E86000130870081146B0889
:1004800086006C08870001156B0886006C088700E1
:100490008117080004306B06EB0000306C06EC009E
:1004A0006B0886006C088700811F732A7F30E60086
:1004B0006B0886006C088700660881056B0886005B
:1004C0006C08870001170530E0000030E1006C087F
:1004D000E3006B08E2000230E4000030E5009E31EA
:1004E00094268131782A6B0886006C0887000117F2
:1004F000043020006B06EB0000306C06EC00EA18BC
:10050000872A6B0886006C088700811FAC2AD41BE1
:100510008D2A54080F39C83E902A54080F39CB3E13
:1005200086000130870081103B30E6006B088600B2
:100530006C088700660881050530E0000030E100A6
:100540006C08E3006B08E2000230E4000030E500D4
:100550009E3194268131B42A3B30E6006B08860038
:100560006C08870066088105200054080F39983E02
:10057000E600E7010E30E73D6608E8006708E9009D
:10058000FE30E60068088600690887006608810575
:1005900008004903031DD82A3D008E1AD82A90016D
:1005A0001214121602302500EA006A082100C90060
:1005B0003D001019121DE52AFB302500EA006A08EB
:1005C0003D0090059D31042582313D008E1CEB2AB3
:1005D0002000121108001018121CFE2A8F31532718
:1005E0008231121504302500EA006A082100C90092
:1005F000FE302500EA006A083D009005101A121E20
:10060000042B9C31862482313D00101F2D2B121F9C
:10061000192B73302100B3000030B4000030B50056
:100620000030B6000130B7000030B8009E31C3265C
:100630008231BF302500EA006A083D0090059C31F8
:100640004B24823165080319272B0130E502650828
:10065000031D2D2B97318E2782313D00901A921E5B
:10066000342B9D31982582319018921C492BFF30F4
:100670002100B3007F30B4000030B5000030B60078
:100680000130B7000030B8009E31C32682313D00F2
:1006900093010430210049020318512B200012114C
:1006A00008003D00921DA92B2100C501A62B0F08B3
:1006B0002500EA006A082100CA004A0C2500EA0069
:1006C000EA0C6A0C0F39EB006B082300E700F730E7
:1006D0002500EA006A083D00900521004A19742BA4
:1006E00023006708C83E772B23006708CB3E8600AF
:1006F00001308700010801392500EA000130EA06CF
:1007000001086A06FE396A06810023006708031D96
:100710008D2B9131E82182319C2B72302100B30066
:100720000030B400CA30B5000030B6000030B70069
:10073000B8009E31C326823101302500EA006A08E4
:100740002100C507043045020318A92B3D0090196C
:10075000572B20001211080021004903031DBB2B59
:100760003D008E1ABB2B900112141216023021008C
:10077000A2002208C9003D001019121DC82BFB3031
:100780002100A20022083D0090059C31C424833141
:100790003D008E1CCE2B2000121108001018121CD8
:1007A000DE2B8E31B226833112150430A2002208CE
:1007B000C900FE30A20022083D009005101A121E4A
:1007C000E42B9C31682483313D00101F0D2C121F37
:1007D000F92B73302000E0000030E1000030E2002F
:1007E0000030E3000130E4000030E5009E31942643
:1007F0008331BF302100A20022083D0090059B31CB
:10080000B023833165080319072C0130E502650820
:10081000031D0D2C9631AE2683313D00901A921E99
:10082000142C9D31242583319018921C292CFF30E3
:100830002000E0007F30E1000030E2000030E30003
:100840000130E4000030E5009E31942683313D0004
:1008500093010430210049020318312C20001211A9
:1008600008003D00921D862C2100A401832C0F0856
:100870002100A2002208CA004A0CA200A20C220CED
:100880000F39A30023082300E700F7302100A2005E
:1008900022083D00900521004A19522C23006708C8
:1008A000C83E552C23006708CB3E860001308700E8
:1008B000010801392100A2000130A2060108220628
:1008C000FE392206810023006708031D6B2C91313D
:1008D0009B2183317A2C72302000E0000030E1004F
:1008E000CA30E2000030E3000030E400E5009E3151
:1008F0009426833101302100A2002208A40704308D
:1009000024020318862C3D009019372C2000121168
:100910000800210012112400450846040319992CEF
:100920004508860046088700811F992C2100121572
:100930000800033023005D060319DD015D08031D77
:10094000A42C21001215080002305D06031DC22CE4
:100950002100A501A50A0030A6000030A700A801CB
:1009600002308931D421843126082400C6002100B8
:1009700025082400C50003302100B0003008230002
:10098000DD004D2D5D03031D4D2D41305A02031C2A
:10099000CB2C4030CC2C5A082100B0003008B200DB
:1009A000320823005A022100B00030082300DA0088
:1009B00020302400C8008030C70021003208B00079
:1009C0003008B100230059080319032D242D2400F9
:1009D000490886004A08870001082100B000240069
:1009E0004708860048088700210030088100013050
:1009F0002400C7070030C83D0130C9070030CA3D98
:100A000001302100B102210031080319282DE72C03
:100A10002400490886004A08870001082100B00028
:100A2000240047088600480887002100300881001C
:100A300001302400C7070030C83D0130C90700302D
:100A4000CA3D01302100B10221003108031D082DEB
:100A500023005A08031D382D403021003206031DA3
:100A6000332D0230342D0330B00030082300DD0078
:100A70002100A501A50A8030A6002030A700320879
:100A8000B0003008A80002308931D42126082400A3
:100A9000C600210025082400C50021001215080009
:100AA0002608B2002508B10029082A040319080005
:100AB000310886003208870027088100290831079D
:100AC000AB002A08323DAC002B08FF3EAD00FF30E2
:100AD0002C3DAE002D0886002E08870027088100D7
:100AE00000302A02033003192902031C08003108D0
:100AF000013EAB000030323DAC002B0886002C08D4
:100B00008700270881003108023EAB000030323DEB
:100B1000AC002B0886002C088700270881002908D4
:100B20003107AB002A08323DAC002B08FE3EAD0079
:100B3000FF302C3DAE002D0886002E0887002708C8
:100B4000810029083107AB002A08323DAC002B0890
:100B5000FD3EAD00FF302C3DAE002D0886002E0876
:100B600087002708810000302A0207300319290274
:100B7000031C08003108033EAB000030323DAC00DE
:100B80002B0886002C0887002708810029083107D8
:100B9000AB002A08323DAC002B08FC3EAD00FF3014
:100BA0002C3DAE002D0886002E0887002708810006
:100BB00000302A02093003192902031C08003109F8
:100BC000AB003209AC00AB0A0319AC0A03302B05A9
:100BD000AF0000302C05B0002F08B1073008B23D3F
:100BE0002F08A9023008AA3BFC30A905FF30AA054E
:100BF00029082A04031908003108860032088700F2
:100C0000270881000130A9020030AA3B0130B1075A
:100C10000030B23DF82D7108FD007008FC0074082A
:100C20007504031908007C0886007D088700720897
:100C3000810074087C07F60075087D3DF700760892
:100C4000FF3EF800FF30773DF9007808860079080C
:100C500087007208810000307502033003197402A6
:100C6000031C08007C08013EF60000307D3DF700C3
:100C70007608860077088700720881007C08023EAB
:100C8000F60000307D3DF700760886007708870083
:100C90007208810074087C07F60075087D3DF70036
:100CA0007608FE3EF800FF30773DF90078088600B0
:100CB000790887007208810074087C07F6007508BF
:100CC0007D3DF7007608FD3EF800FF30773DF900E6
:100CD0007808860079088700720881000030750264
:100CE000073003197402031C08007C08033EF60059
:100CF00000307D3DF700760886007708870072088F
:100D0000810074087C07F60075087D3DF7007608C1
:100D1000FC3EF800FF30773DF9007808860079083E
:100D200087007208810000307502093003197402CF
:100D3000031C08007C09F6007D09F700F60A031978
:100D4000F70A03307605FA0000307705FB007A08D1
:100D5000FC077B08FD3D7A08F4027B08F53BFC307C
:100D6000F405FF30F50574087504031908007C08C4
:100D700086007D088700720881000130F40200308F
:100D8000F53B0130FC070030FD3DB32E2100480843
:100D900086008701413FAA002A08A700A801280869
:100DA00023003402031DD82E21002708230033021C
:100DB0000318DF2E33082100A7002708AA0021000E
:100DC0002A08A700A80127082300B3022100280849
:100DD0002300B43B2100A9012A0829020318092F86
:100DE0002908583E860087010108A7002300300823
:100DF0008600023087002100270881000130A7000B
:100E000027082300B00701302100A7002708A90701
:100E1000EC2E2300330834040319452F2100460823
:100E2000013EA7000030473DA8002708860028089B
:100E30008700083081005830A7000030A80046081D
:100E400086004708870042312708C03F2808C13F75
:100E5000480886008701011B392F4608860047088D
:100E600087004830810046088600470887008117C0
:100E700008004608860047088700083081004608B9
:100E80008600470887008117080021004608013EB8
:100E9000A7000030473DA8002708860028088700E3
:100EA000083081005030A7000030A80046088600B6
:100EB0004708870042312708C03F2808C13F46083D
:100EC00086004708870004308100460886004708EE
:100ED00087008117230035083608B2136408031D04
:100EE000080097318E2708003D000E122300C51B15
:100EF000BC2FB21F8A2F02302100AA002A0823002B
:100F0000EB006008031D862F933194232300E20138
:100F1000E301080021004608013EAA000030473DD9
:100F2000AB002A0886002B0887000830810050306B
:100F3000AA000030AB00460886004708870042310F
:100F40002A08C03F2B08C13F460886004708870093
:100F50000C3081004608860047088700811723006F
:100F6000370886003808870004308100370886007B
:100F700038088700811708002000D01FD42F0130C7
:100F80002100AA002A082300EB006108031DCB2FD3
:100F90009331942387312300E201E3016408031DA8
:100FA000080097318E27080002302100AA002A0885
:100FB0002300EB0021004608013EAA000030473D17
:100FC000AB002A0886002B088700083081005030CB
:100FD000AA000030AB00460886004708870042316F
:100FE0002A08C03F2B08C13F4608860047088700F3
:100FF0000430810046088600470887008117CB2F00
:101000009A314322093008002300EC01E401E10198
:10101000E001E601EB017F302000EF0023003708FC
:1010200086003808870020006F08810504302300FF
:101030003706B70000303806B8007F302000EF00D8
:101040002300370886003808870020006F088105D4
:10105000043023003706B70000303806B8007F3070
:101060002000EF0021004608860047088700200086
:101070006F0881052300C501C601C701B201B30194
:10108000B4018831D020883103302000E0000030E6
:10109000E1000030E2000030E3000030E400E50051
:1010A0009E31942688318C31F22408009B3198239C
:1010B00088318B170B17A0302500EC006C0823003B
:1010C000DC00AA302300D2000030D30055302500C8
:1010D000EC006C082400CF004F089E31F2268831C6
:1010E0004F3090310B208831B0302300D2000030D7
:1010F000D3002500ED016D080F3CEC006D084F3E5C
:101100008600023087006C0881000130EC006C081A
:10111000ED0710306D02031C7B281030EC006C08CA
:101120002100AD004F309031892088311030AB0064
:101130000030AC004F3094314D2488318231C922C7
:1011400088319331F0238831203021004906031D76
:1011500061283D008E1861282300500851040319AE
:10116000B7285008860051088700811B612821009C
:10117000A501A50A4F30A6000230A70010302500B7
:10118000EC006C082100A80081308931D42188311D
:1011900026082300D100210025082300D000612863
:1011A0002000500E890C0339003A031D0800252940
:1011B0002300C51708302000ED006D082100C9008C
:1011C00008008A31DB2208008B31E5230800EF306C
:1011D0002300C3000130C400451401302000ED009D
:1011E0006D082300C600C517080093313823080096
:1011F0008131A22108005408ED3E2300C3000130D4
:10120000C400451401302000ED006D082300C60025
:10121000C51708002300C51720005208ED00540828
:10122000ED3E8600013087006D0881000800023025
:10123000E0000030E1000030E2000030E300003068
:10124000E400E5009E31942608005108ED00EE010F
:101250006E08003A03192D2950296D08003A031928
:10126000F528013A0319F828023A0319F828063A32
:101270000319D828033A0319E128013A0319172959
:101280000F3A0319E728013A0319E428033A03192E
:10129000FB28013A03190A29073A03195029502952
:1012A0000800F800700803195E297835B73E8600FB
:1012B00001308700403FF900413F66297835BD3E47
:1012C000860001308700403FF900413FFA0079086D
:1012D0007A04031D6E29F001F1010800FF30710549
:1012E000F4007F307205F500790886007A088700DF
:1012F00042317408C03F7508C13F7908013EF400CF
:1013000000307A3DF5007408860075088700730880
:1013100081004030F400790886007A08870074085C
:101320008105790886007A0887008115790886008A
:101330007A088700811770080319B7297835B73EF6
:10134000860001308700403FF400413FF500043043
:101350007406F60000307506F7007835B73E860053
:10136000013087007608C03F7708C13FCF29783524
:10137000BD3E860001308700403FF400413FF5004C
:1013800004307406F60000307506F7007835BD3E6F
:101390008600013087007608C03F7708C13F7A0891
:1013A000F1007908F0000800AD0025080319E129D3
:1013B0002D35B73E860001308700403FAE00413FEB
:1013C000E9292D35BD3E860001308700403FAE0043
:1013D000413FAF002E082F04031DF129A501A601EE
:1013E0000800FF302605A9007F302705AA002E0837
:1013F00086002F08870042312908C03F2A08C13FD4
:101400002E08013EA90000302F3DAA0029088600C1
:101410002A088700280881004030A9002E0886008D
:101420002F088700290881052E0886002F088700CD
:1014300081152E0886002F088700811725080319BB
:101440003A2A2D35B73E860001308700403FA9007B
:10145000413FAA0004302906AB0000302A06AC0048
:101460002D35B73E8600013087002B08C03F2C0881
:10147000C13F522A2D35BD3E860001308700403FD6
:10148000A900413FAA0004302906AB0000302A061B
:10149000AC002D35BD3E8600013087002B08C03FD3
:1014A0002C08C13F2F08A6002E08A5000800230025
:1014B000C5170E302100BB009930BA00BC013A08B4
:1014C00086003B08870081010130BA070030BB3D30
:1014D0000130B9003908BC0702303C02031C5F2A06
:1014E0002030A5000030A6000030A700A800303052
:1014F000A9000030AA00853150258A313D000E1721
:101500002100BD013D08CB3E8600013087008101EE
:101510003D08C83E86000130870081010130B900D6
:101520003908BD0703303D02031C822AED30A500B7
:101530000130A6000030A700A8000230A90000304A
:10154000AA00853150258A313D000E132830230032
:10155000B7000030B80020302100B9003908C800B9
:101560004808C600FF39031D0030C700200052089C
:101570002100B90039082300EF006F08031DC62AB7
:1015800010302100B9003908C900080001302100DD
:10159000B3000030B400EF30B5000130B6000130C8
:1015A000B7000030B8009E31C32620302100B900BA
:1015B0003908C9000800803020005006031D0800CB
:1015C000C030F00070082300C5004B2BAD30230065
:1015D000C3009830C4000030C7001230C6000800B5
:1015E0005208031D222B5208F000F101F035F10DD5
:1015F000D330700784009830713D8500003F230090
:10160000C300013FC4004408F1004308F000023069
:101610007007840071080318710A85000008F20041
:101620007208C6004408F1004308F0000330700758
:10163000840071080318710A85000008F20072081E
:10164000C70008002300C501080004305202031837
:10165000452B5208F000F101F035F10DBF30700755
:1016600084009830713D8500003F2300C300013F96
:10167000C40043088400440885000008F000F1011C
:101680007008C6007108C70008002300C5010800E3
:101690002300C501080020005308F000F101710883
:1016A000003A0319542B482B7008013A0319E62A13
:1016B000033A0319F02A013A0319252B482B080095
:1016C0002000500E890C0339003A031D0800B82B86
:1016D0002300C51708302100C0004008C9000800D9
:1016E0008D317A2508008A3157220800EF30230017
:1016F000C3000130C400451401302100C00040087F
:101700002300C600C51708009431AC2408008031BE
:101710006A20080020005408ED3E2300C300013079
:10172000C400451401302100C00040082300C60059
:10173000C51708002300C517200052082100C0006B
:1017400020005408ED3E860001308700210040084B
:10175000810008000230B3000030B4000030B50052
:101760000030B6000030B700B8009E31C326080034
:1017700051082100C000C1014108003A0319C12BE2
:10178000E42B4008003A0319842B013A0319872BF4
:10179000023A0319872B063A0319682B033A0319F7
:1017A000702B013A0319AA2B0F3A0319762B013A31
:1017B0000319732B033A03198A2B013A03199A2B45
:1017C000073A0319E42BE42B08002300C5170E3059
:1017D0002000E8009930E700E90167088600680802
:1017E000870081010130E7070030E83D0130E60065
:1017F0006608E90702306902031CED2B2030F00077
:101800000030F1000030F200F3003030F40000301E
:10181000F50086310B268B313D000E172000EA01C2
:101820006A08CB3E86000130870081016A08C83E05
:1018300086000130870081010130E6006608EA0772
:1018400003306A02031C102CED30F0000130F1006F
:101850000030F200F3000230F4000030F500863171
:101860000B268B313D000E1328302300B7000030CB
:10187000B80020302000E60066082100C8004808B3
:10188000C600FF39031D0030C70020005208E600E3
:1018900066082300EF006F08031D552C1030200050
:1018A000E60066082100C900080001302000E000C1
:1018B0000030E100EF30E2000130E3000130E400ED
:1018C0000030E5009E31942620302000E6006608B6
:1018D0002100C900080008302100A5002508A70044
:1018E00000302300470208300319460203188C2CED
:1018F00046082100A5002508A70023006C08031D49
:10190000832C0130872C6C03031D8C2C02302100AA
:10191000A50025082300EC0021002708A500A6014A
:1019200025082300C602210026082300C73B3708EC
:10193000013E2100A50000302300383D2100A60013
:101940002508860026088700270881005830A50052
:1019500025082300EA00451CCB2CED2C230043086E
:1019600084004408850000082100A50023006A08BF
:101970008600870121002508810001302300C3076C
:101980000030C43D01302100A50025082300EA07EE
:1019900001302100A7022100270803190800AE2CFE
:1019A0002300430884004408850000082100A500A6
:1019B00023006A0886008701210025088100013084
:1019C0002300C3070030C43D01302100A5002508D5
:1019D0002300EA0701302100A7022100270803198C
:1019E0000800D02C3D000E122300C51B382DB21F5D
:1019F000062D0230F5007508EB006008031D022D6E
:101A0000923185222300E201E3010800210046080B
:101A1000013EF5000030473DF60075088600760867
:101A20008700083081005030F5000030F60046088D
:101A300086004708870042317508C03F7608C13FDD
:101A400046088600470887000C308100460886005B
:101A50004708870081172300370886003808870069
:101A60000430810037088600380887008117080095
:101A70002000D01F4F2D0130F50075082300EB002A
:101A80006108031D462D923185228C312300E2012D
:101A9000E3016408031D08009631AE2608000230F9
:101AA000F50075082300EB0021004608013EF50013
:101AB0000030473DF600750886007608870008303C
:101AC00081005030F5000030F600460886004708D7
:101AD000870042317508C03F7608C13F460886003E
:101AE00047088700043081004608860047088700C1
:101AF0008117462D803020005006031D0800C0309D
:101B00002100A50025082300C500FB2DAD302300D2
:101B1000C3009830C4000030C7001230C60008006F
:101B200020005208031DCC2D52082100A500A6015B
:101B3000A535A60DD330250784009830263D8500B5
:101B4000003F2300C300013FC40044082100A60059
:101B5000230043082100A500023025078400260841
:101B60000318260A85000008A70027082300C600DE
:101B700044082100A600230043082100A5000330EB
:101B80002507840026080318260A85000008A700F8
:101B900027082300C70008002300C50108000430FF
:101BA000200052020318F52D52082100A500A601BD
:101BB000A535A60DBF30250784009830263D850049
:101BC000003F2300C300013FC400430884004408D1
:101BD000850000082100A500A60125082300C600F5
:101BE000210026082300C70008002300C5010800C3
:101BF0002300C5010800200053082100A500A6010C
:101C00002608003A0319052EF82D2508013A031974
:101C1000862D033A0319902D013A0319CF2DF82D83
:101C200008002100480886008701413FF50075083B
:101C3000F200F301730823003402031D212E720801
:101C400033020318272E3308F2007208F5007508D6
:101C5000F200F3017208B3027308B43BF401750893
:101C600074020318482E7408583E86008701010844
:101C7000F2003008860002308700720881000130CF
:101C8000F2007208B0070130F2007208F4072F2E3C
:101C9000330834040319832E21004608013EF20064
:101CA0000030473DF3007208860073088700083053
:101CB00081005830F2000030F300460886004708E3
:101CC000870042317208C03F7308C13F4808860050
:101CD0008701011B772E4608860047088700483099
:101CE00081004608860047088700811708004608DB
:101CF00086004708870008308100460886004708AC
:101D000087008117080021004608013EF2000030DC
:101D1000473DF30072088600730887000830810091
:101D20005030F2000030F300460886004708870074
:101D300042317208C03F7308C13F46088600470819
:101D40008700043081004608860047088700811715
:101D5000230035083608B2136408031D08009631C5
:101D6000AE260800210012113D0093019001980158
:101D70000E30F2009930F100F3017108860072080C
:101D8000870081010130F1070030F23D0130F000A1
:101D90007008F30702307302031CBD2E1630910049
:101DA0009F3097007B309200F4017408F0000130FE
:101DB000F035FF3E031DD82E7035203E860087018A
:101DC0000030C03F0030C13FC23FC33F0130F00090
:101DD0007008F4070C307402031CD52E0E17960100
:101DE0000E120E13F730F000700890052300C501A5
:101DF000B201B301B4013D009019F22E0130F000A0
:101E000070082300E3000130F0007008E200E101F7
:101E1000E001E801F4017435B73E86000130870027
:101E20000030C03FC13F7435BD3E860001308700A1
:101E30000030C03FC13F7408CB3E860001308700B0
:101E400081017408C83E860001308700810101309D
:101E5000F0007008F40703307402031C0B2F2830C5
:101E60002300B7000030B80016303D009800003065
:101E70002000A3005030A2000830A1000430F00080
:101E80007008A000A0172300EF0100302400C40058
:101E90000030C3000030C2000030C1002300DF0169
:101EA0002100C9010800210012113D009301900199
:101EB00098010E302100A7009930A600A80126083D
:101EC00086002708870081010130A6070030A73D62
:101ED0000130A5002508A80702302802031C5F2F47
:101EE00016303D0091009F3097007B30920021001A
:101EF000A9012908A5000130A535FF3E031D7C2F4F
:101F00002535203E860087010030C03F0030C13FAC
:101F1000C23FC33F0130A5002508A9070C302902A4
:101F2000031C792F3D000E1796010E120E13F73089
:101F30002100A50025083D0090052300C501B20140
:101F4000B301B4013D009019972F01302100A50085
:101F500025082300E30001302100A5002508230007
:101F6000E200E101E001E8012100A9012935B73EC5
:101F70008600013087000030C03FC13F2935BD3E9B
:101F80008600013087000030C03FC13F2908CB3EAA
:101F900086000130870081012908C83E8600013093
:101FA000870081010130A5002508A9070330290217
:101FB000031CB62F28302300B7000030B8001630BD
:101FC0003D00980000302000A3005030A2000830EF
:101FD000A10004302100A50025082000A000A017C2
:101FE0002300EF0100302400C4000030C3000030A3
:101FF000C2000030C1002300DF012100C901080038
:10200000080020000D1321000D1220000D120D17E5
:1020100021000D160800AF00230053082100AC007A
:10202000230052082100AB000730AC36AB0C890B03
:1020300015280E302B05AD0023005C08F139210076
:102040002D04AE002E08B0009A31AA229031210052
:1020500030089C3130249031230052089C313024C8
:1020600090319A31AA2290312100300801389C31F8
:102070003024903180309B31FC239031013EAB0005
:102080002F088600023087002B0881009031012044
:1020900008009A3134229031FA003708860087010F
:1020A0007A0881000130FA007A08B7070130B802D7
:1020B0000030B93B38083904031962289A314722A5
:1020C00005300800BC156A288831002008009A31C4
:1020D000632208002C08FA007A08F90021088A0017
:1020E00020080A009031FB00FC017C08003A03192B
:1020F0007A2867287B08013A03196728033A0319ED
:102100006428013A03196428073A031967286728E5
:102110000800B200230053082100AF00230052083A
:102120002100AE000730AF36AE0C890B93280E307D
:102130002E05B00023005C08F13921003004B10005
:102140003108B3009A31AA229031210033089C3122
:1021500030249031230052089C3130249031B40156
:102160002D0834020318C42834083207AE002E08A4
:1021700086000230870001089C3130249031013004
:10218000AE002E08B407B0289031012090319B3169
:1021900059230800F5002030F1007108F60070089E
:1021A000F1000130F135890BD2287508F2000130B9
:1021B000F235FF3E031DD82872357107F300013058
:1021C000F335FF3E031DE0287335F4007408F6076D
:1021D00076088600870181137008031DF92875357C
:1021E000BD3E8600013087007608C03F0030C13F09
:1021F00002297535B73E8600013087007608C03F5A
:102200000030C13F76088600870101137608043E3E
:102210008600870101170800AA002030A6002608C2
:10222000AB002508A6000130A635890B14292A0821
:10223000A7000130A735FF3E031D1A2927352607C1
:10224000A8000130A835FF3E031D22292835A9002A
:102250002908AB072B088600870181132508031D79
:102260003B292A35BD3E8600013087002B08C03F40
:102270000030C13F44292A35B73E8600013087002F
:102280002B08C03F0030C13F2B0886008701011397
:102290002B08043E86008701011708009A3171223D
:1022A0009131003A031D5E2981299A314F2208009D
:1022B0009A31532208009A315B2208002F08FA0055
:1022C0007A08F9000630203E860002308700413F40
:1022D0008A00403F0A009131FB00FC017C08003A73
:1022E000031973295B297B08013A03195B29033A17
:1022F00003195529013A03195829073A03195B298B
:102300005B293C101730203E860002308700403F9A
:1023100084008501810A00089A314B2291310130F5
:10232000B8020030B93B38083904031D992906303A
:102330000800033008002D302100A00020082300F1
:10234000E50021004A08FD39031DDE294A363F39E0
:10235000A0000130A035FF3E031DAA292035203EF4
:10236000A1002108C8004808C600FF39031D00303D
:10237000C70004304606C60000304706C7004808BC
:1023800086008701010C890C0F390D3A031DDB29EA
:102390004808023E86008701403FF000413FF100BF
:1023A0000830F2000030F30050309D31E9259131C2
:1023B0008831042008009F3123270800FD304A059A
:1023C000A00004302006031D08009531D92508001F
:1023D0002D302100C30043082300E50021004A08F6
:1023E000FD39031D2B2A4A363F39C3000130C3355E
:1023F000FF3E031DF7294335203EC4004408C800B2
:102400004808C600FF39031D0030C70004304606E7
:10241000C60000304706C700480886008701010C47
:10242000890C0F390D3A031D282A4808023E860000
:102430008701403FA500413FA6000830A7000030BB
:10244000A80050309E311326913192313522080078
:102450009F3157270800FD304A05C300043043066A
:10246000031D080097311C2708002300EC01E4013C
:10247000E101E001E601EB017F302100C200230011
:10248000370886003808870021004208810504309B
:1024900023003706B70000303806B8007F3021002F
:1024A000C200230037088600380887002100420850
:1024B0008105043023003706B70000303806B80025
:1024C0007F302100C2004608860047088700420886
:1024D00081052300C501C601C701B201B301B401E2
:1024E0008B316023923103302100B3000030B400FF
:1024F0000030B5000030B6000030B700B8009E31A3
:10250000C3269231873174270800E101E0010230CF
:102510006B06031DB12A21004608013EF30000307E
:10252000473DF40073088600740887000830810076
:102530005830F3000030F400460886004708870052
:1025400042317308C03F7408C13F460886004708FF
:1025500087004830810046088600470887008117B9
:102560000800470820005702031DBA2A2300460826
:10257000200056020318C32A57082300C700200072
:1025800056082300C600953171255830F3000030FD
:10259000F400370886003808870042317308C03FCE
:1025A0007408C13F3708860038088700483081002A
:1025B000370886003808870081170800B300230019
:1025C000DB014E084F040319EB2A4E0886004F0822
:1025D0008700811B362B4E0886004F08870041314B
:1025E0002100300801020318002B23004E0886004A
:1025F0004F088700413101082100B1003108B000C7
:102600002300DB012100300823005B020318222B8A
:102610005B08C03E860087012030873D010821000D
:10262000B10023005B0821003307B20032088600A6
:1026300002308700310881000130B10031082300E9
:10264000DB07022B2100A501C030A6002030A70027
:102650004030B1003108A80002308931D421260869
:102660002300CF00210025082300CE005B080800CE
:102670002000D801D901732B2300C5176903031D5E
:10268000872B2000D814872B2300C517872B230006
:10269000C5172000D41B572B54080F390907BD3E1E
:1026A000860001308700403FF200413F612B540813
:1026B0000F390907B73E860001308700403FF2001E
:1026C000413FF3007208860073088700811F872B43
:1026D0007208860073088700011D872B0130F00007
:1026E0007008D800872B50081F39F000F1017108DD
:1026F000003A03197C2B872B7008003A03193C2BF6
:10270000013A0319442B033A0319472B872B230063
:10271000C51F08005830C3000030C4004514023003
:10272000F0007008C6000800E101E00102306B060D
:10273000031DC02B21004608013EA8000030473D84
:10274000A900280886002908870008308100583031
:10275000A8000030A90046088600470887004231DB
:102760002808C03F2908C13F46088600470887005F
:102770004830810046088600470887008117080016
:10278000470820005702031DC92B230046082000DC
:1027900056020318D22B57082300C7002000560802
:1027A0002300C6008C316B245830A8000030A900EB
:1027B00023003708860038088700423121002808A6
:1027C000C03F2908C13F230037088600380887002A
:1027D00048308100370886003808870081170800D4
:1027E000203021004902031C08003D008E1808001B
:1027F00023005D08031D4A2C40302100B40034083A
:10280000B000AA309231DE2293312100B5003508A4
:10281000B600B701252C3708AA3E86000230870093
:102820000108192C3708AA3E8600023087000108EB
:10283000013EB4003708203E86000330870034088C
:1028400081000130B4003408B70736083702031896
:102850003F2C3708AA3E8600023087000108B400EA
:10286000B5013508003A0319362C122C34080A3AFF
:1028700003190B2C073A03190B2C122C212C3608A8
:1028800003194A2C3608B4003408A50020309B31C7
:10289000C9239331843189240800B10023005308EF
:1028A0002100AE00230052082100AD000730AE36F3
:1028B000AD0C890B572C0E302D05AF0023005C08A2
:1028C000F13921002F04B0003008B2009A31AA2259
:1028D0009431210032089C31302494312300520875
:1028E0009C31302494319A31AA229431210032084B
:1028F00001389C3130249431B301B4012C083402E6
:10290000031D842C2B0833020318A92C2B08FF3E2F
:10291000AD00FF302C3DAE002E083402031D922C7A
:102920002D0833020318962C0030972C80309B31F1
:10293000FC239431AD0033083107AE002E08860029
:10294000023087002D0881000130B3070030B43D0C
:102950007E2C9031012008002000D801D901EA2CFA
:102960002300C5176903031DFF2C2000D814FF2C7A
:102970002300C517FF2C2300C5172000D41BCC2C27
:1029800054080F390907BD3E860001308700403FDB
:102990002100A700413FD72C54080F390907B73E43
:1029A000860001308700403F2100A700413FA8007A
:1029B0002708860028088700811FFF2C270886002B
:1029C00028088700011DFF2C0130A50025082000E4
:1029D000D800FF2C50081F392100A500A6012608A9
:1029E000003A0319F42CFF2C2508003A0319B02CE7
:1029F000013A0319B82C033A0319BB2CFF2C23000E
:102A0000C51F08005830C3000030C4004514023010
:102A10002100A50025082300C600080050081F3922
:102A2000013A031D0800500E890C0339013A031DB9
:102A3000080054080319572D5403031D0800572D8F
:102A40005F302300C3000230C4000030C7000830EC
:102A5000C6004514C51708005F302300C3000230CC
:102A6000C400C517080057082300B400200056080A
:102A70002300B3006730F0007008B000B501B60164
:102A8000B217080067302300C3000230C4000030D2
:102A9000C7000730C600C130F0007008C50008004C
:102AA0005208F00070082300D800C517080051082C
:102AB000F000F1017108003A03195F2D702D7008C4
:102AC000003A0319202D013A03192C2D213A03193C
:102AD000332D013A0319422D033A0319502D702D5D
:102AE00008000830F0007008F200003023004702B0
:102AF00008300319460203188D2D4608F0007008AF
:102B0000F2006C08031D862D01308A2D6C03031D15
:102B10008D2D0230F0007008EC007208F000F10119
:102B20007008C6027108C73B3708013EF00000304C
:102B3000383DF10070088600710887007208810036
:102B40005830F0007008EA00451CBC2DD52D430814
:102B50008400440885000008F0006A0886008701A8
:102B6000700881000130C3070030C43D0130F0001F
:102B70007008EA070130F202720803190800A72D55
:102B800043088400440885000008F0006A088600B5
:102B90008701700881000130C3070030C43D013057
:102BA000F0007008EA070130F20272080319080009
:102BB000C02D230037088600380887000030011B2D
:102BC0000130F50004303706B70000303806B80091
:102BD000083021004906031DFC2D200052087F39D2
:102BE0003D00960016080319F72D1030F82D04301B
:102BF000F30073082100C90023006B03031D3B2E63
:102C00005830F3000030F400370886003808870099
:102C100042317308C03F7408C13F95317125953129
:102C200002306C06031D202E370886003808870006
:102C300004308100370886003808870081170800B3
:102C40007508031D2F2E3708860038088700483086
:102C50008100370886003808870081170800370888
:102C60008600380887000830810037088600380859
:102C7000870081170800B21F402E35083608B213AE
:102C8000EB010800200050081F39013A031D08001D
:102C9000500E890C0339013A031D0800540803192A
:102CA000932E5403031D0800932E5F302300C300AE
:102CB0000230C4000030C7000830C6004514C517F4
:102CC00008005F302300C3000230C400C5170800AD
:102CD000200057082300B400200056082300B3004A
:102CE00067302100A50025082300B000B501B6011A
:102CF000B217080067302300C3000230C400003060
:102D0000C7000730C600C1302100A50025082300F8
:102D1000C5000800200052082100A5002508230056
:102D2000D800C517080051082100A500A6012608F3
:102D3000003A03199C2EAD2E2508003A0319552E92
:102D4000013A0319612E213A0319682E013A031939
:102D50007A2E033A03198A2EAD2E08002300630849
:102D6000031D08000130F0007008E3006208031D35
:102D700008000130F0007008E20002306B06031D0D
:102D8000D32E370886003808870041318101370883
:102D900086003808870048308100370886003808E8
:102DA0008700811708006B03031D0800E601083047
:102DB000F0002100480A8600870170088100503029
:102DC000F0000030F1004808023E860087017008DC
:102DD000C03F7108C13F0430F000480886008701F9
:102DE0007008810048088600870181170130F000D3
:102DF00070082300E60021004608013EF000003084
:102E0000473DF10070088600710887000830810096
:102E10005030F0000030F100460886004708870077
:102E200042317008C03F7108C13F4608860047081C
:102E300087008030810008002300370886003808AA
:102E400087000030011B01302100AA00043023005C
:102E50003706B70000303806B800083021004906B0
:102E6000031D412F200052087F393D0096001608AF
:102E700003193C2F10303D2F04302100A8002808F2
:102E8000C90023006B03031D872F58302100A800C1
:102E90000030A90023003708860038088700423137
:102EA00021002808C03F2908C13F8C316B2497318D
:102EB000023023006C06031D692F3708860038088E
:102EC00087000430810037088600380887008117A2
:102ED000080021002A08031D7A2F230037088600E6
:102EE0003808870048308100370886003808870096
:102EF000811708002300370886003808870008304B
:102F00008100370886003808870081170800B21F43
:102F10008C2F35083608B213EB0108002300630834
:102F2000031D080001302100A50025082300E3004F
:102F30006208031D080001302100A50025082300B8
:102F4000E20002306B06031DB72F370886003808F1
:102F500087004131810137088600380887004830F2
:102F600081003708860038088700811708006B0346
:102F7000031D0800E60108302100A500480A86006C
:102F80008701250881005030A5000030A6004808C0
:102F9000023E860087012508C03F2608C13F043055
:102FA000A50048088600870125088100480886009A
:102FB000870181170130A50025082300E6002100C4
:102FC0004608013EA5000030473DA60025088600C2
:102FD00026088700083081005030A5000030A60088
:102FE000460886004708870042312508C03F26086A
:102FF000C13F4608860047088700803081000800EE
:103000000934023443340034023401340034C0340F
:1030100032340934043400340034013402340234CC
:1030200001340034053424340034103401340434C1
:103030002434023402340534243406340034013498
:103040000534243401340034013407340534813428
:1030500003340A34003402340934043401340034B3
:1030600002340A34003400340034073405340234A6
:1030700002344034003400340734053482340234DE
:10308000403400340034343403344D340034693473
:10309000003463340034723400346F3400346334E9
:1030A000003468340034693400347034003420341F
:1030B00000345434003465340034633400346834EC
:1030C00000346E3400346F3400346C3400346F34A8
:1030D0000034673400347934003420340034493407
:1030E00000346E340034633400342E3400346734DA
:1030F0001A348A341A3483341A344E34113449342D
:10310000103477341A3468341E344F341A3453343C
:103110001A3457341A345B341A345F341A34633433
:103120001A34003408346C341A343D341E341634E6
:103130000334533400346D34003461340034723459
:103140000034743400342034003453340034683490
:1031500000346F34003465340034123401340034E8
:1031600002340234003400340834D83404340A34CD
:103170000034003401340134023403340134CF34D8
:1031800098344334983497349834C7349834083496
:1031900003343134003432340034343400340434F1
:0A31A0000334093404340034983479
:103452000800013008000530080024009614080016
:1034620024001615080024001108080020009115F8
:1034720008002000911108009D31C0250800163077
:1034820097000800240096161616080024009612CB
:1034920016160800F0007008910008009A312E22DA
:1034A200013008009A312E22023008009A312E2271
:1034B200013008009A313122003008009A31472247
:1034C200053008009A3143220A3008002400BC105B
:1034D200BB010E3008002400BC10BB010E300800F6
:1034E2002400160E890C890C0139080024003C10B6
:1034F20080310220043008002700931E08009A3110
:10350200ED22080024003C1436359A314B22033058
:10351200080024003C140314360D9A314B22053066
:103522000800A0309E009F019B019C0101309D007C
:10353200080026082400EF00210025082400EE00E0
:10354200080026082300D500210025082300D40006
:1035520008000D1620000D1721000D1220000D127B
:103562000D130800240094010830950096011330D1
:103572009200951208007608F1007508F0007708AD
:10358200F8007808F20000309D31702508007C3088
:1035920021009900980127009B0122009601210039
:1035A2001A1B0800D02A6400800101310130FE029A
:1035B2000030FF3B7F087E0403190034D52AF30054
:1035C200BC1D08007308F2007208B7007108B90048
:1035D2007008B800BC11080024006E086F040319BB
:1035E200F72A6F088A006E080A009A3127009312A0
:1035F2000800A50020000D132100A51F022B0D16A7
:10360200052B0D1220000D1220000D170D130800BE
:103612000230F0000030F10079089A31E0229B314B
:103622000030F500F600F7019A31BC2204300800A0
:103632000130F0000030F10079089A31E0229B312C
:103642000030F500F600F7019A31BC220230080082
:103652000230F0000030F10079089A31E0229B310B
:103662000030F500F600F7019A31BC220230080062
:103672000130F0000030F10079089A31E0229B31EC
:103682000030F500F600F7019A31BC220430080040
:103692000B1123005E0820009500230054085504F6
:1036A2000319080055088A0054080A009B310800D3
:1036B2009A31AA229B3123005C089C3130249B3131
:1036C200AB002B08AC002C030319592B90310120BD
:1036D2000800790886008701403FF000413FF10071
:1036E2007908023E8600870101089A31E0229B3167
:1036F2000030F500F600F7019A31BC2202300800D2
:103702001508C039123895000630200095000630A1
:103712002100A70027082300DE000B118B160030C2
:103722002100A5001030A6009A31A22208009A3189
:10373200B3229B319D314A259B319A31C8229B315C
:103742009A3140229B318F3153279B319A319222F9
:103752009B319B3181239B319C311624080001301F
:103762002400C1070030C23D0030C33D0030C43DDB
:1037720023006808031D08000130F0007008DF070D
:103782005F08031D0800FF30F0007008DF0008002A
:10379200A700121123005D08031DDF2B210027085B
:1037A2002400C9000330CA0021002508A60026080B
:1037B2002300DA00D901D90ADD01DD0A2100121540
:1037C2000800A60020000D1321000D1620000D1781
:1037D200FE302100A5002608860087012508810504
:1037E20020000D1EF92B21002608860087010114F6
:1037F20020000D130800A800AA01A9012A35A7007C
:103802002708AA00AA309B31E2239B310130210014
:10381200A7002708A90708302902031CFF2B280844
:103822009A31FA2221002A08080021004908031DC2
:1038320008003D008E019201163091009F309700E2
:103842007B309200210012153D008E192A2C8E1514
:10385200252C01302100A5002508C90008002100FF
:10386200A800AA01A90128089A31FA229C31210054
:103872002835A7002708A8000130A7002708A907B4
:1038820008302902031C342CAA309B31E223210088
:103892002A08080001302400C1070030C23D003070
:1038A200C33D0030C43D23006808031D08000130F9
:1038B2002100A50025082300DF075F08031D08007B
:1038C200FF302100A50025082300DF0008001215A3
:1038D200EF302000E60066083D0090058E140130AE
:1038E2002000E60066082300E800DF0175302000B2
:1038F200E0000030E1000030E2000030E300003080
:10390200E400E5009E31942608001215EF302100F4
:10391200B90039083D0090058E1401302100B9002C
:1039220039082300E800DF0175302100B3000030C0
:10393200B4000030B5000030B6000030B700B80067
:103942009E31C3260800FC00771DAC2CF0017C08D8
:103952009031CA209C31F71CB32CF001F00A7C088C
:103962009031CA207C08983EF800F9010E30F93DEA
:103972007808FA007908FB007A0886007B0887003D
:103982007708810008002300E80174302000E0007D
:103992000030E1000030E2000030E3000030E400DB
:1039A200E5009E3194269C313D008E101211101DAF
:1039B200E12CFB302000E60066083D009005D82C83
:1039C2002300DF010800B1002C1DEC2CA5013108F9
:1039D20091310C219C31AC1CF32CA501A50A3108B4
:1039E20091310C213108983EAD00AE010E30AE3D52
:1039F2002D08AF002E08B0002F088600300887007F
:103A02002C08810008002300E80174302100B30073
:103A12000030B4000030B5000030B6000030B7000E
:103A2200B8009E31C3269D313D008E101211101D2B
:103A3200212DFB302100B90039083D009005182DD9
:103A42002300DF010800181C452D210048088600CC
:103A5200870180300106031D432D230037088600AD
:103A62003808870084300106031D432D0C30F00016
:103A720021004808860087017008810048088600F6
:103A8200870181173D001810DF30F00070089005A3
:103A9200080022008C018D0120308E002030210090
:103AA2008C00A0308D00DF308E00CC3023008E00E1
:103AB2008D0110308C0024008D018C01210095179E
:103AC20022009D012700931292169116293021009F
:103AD200A5001A30A6009A319A228B150800F4002C
:103AE200700871040319882D7435203E8600023057
:103AF20087007008C03F7108C13F7208F300740864
:103B02002C3E86000230870073088100080074355D
:103B1200203E8600023087002A30C03F1A30C13F63
:103B220074082C3E86000230870081010800181CB0
:103B3200B92D210048088600870180300106031D47
:103B4200B72D230037088600380887008430010625
:103B5200031DB72D0C302100A500480886008701FF
:103B62002508810048088600870181173D0018104A
:103B7200DF302100A50025083D00900508009A319C
:103B82003A229D3124003C1CD22D9A3171229D3162
:103B9200003A0319D22D0F302000E0006008240003
:103BA200BA003A082000E000E101E035E10D77308B
:103BB200600784009830613D8500013F8A00003F24
:103BC2000A009D312000E20062082400BA000800C9
:103BD200F5007108F7007008F6007508F400740823
:103BE200F9000130F2020030F33B720A0319730A42
:103BF2000319080076088600770887000108F40098
:103C02007408F8000130F6070030F73D7808F40038
:103C1200790886008701740881000130F400740875
:103C2200F907F22DAD002608AC002508AB002D08DF
:103C3200A9002908AE000130A7020030A83B270ADC
:103C42000319280A031908002B0886002C0887008C
:103C52000108A9002908AA000130AB070030AC3DD9
:103C62002A08A9002E088600870129088100013050
:103C7200A9002908AE071C2E24003C100230FA00CD
:103C82007A08BB004A2E9A31572208009A315B22E9
:103C920008002E08FA007A08F9000430203E860057
:103CA20002308700413F8A00403F0A009E31FB00FC
:103CB200FC017C08003A03195F2E472E7B08023A6A
:103CC2000319442E013A0319442E472E08002400FA
:103CD200BC15752E9A31572208009A3137220330CB
:103CE20008009A315B2208002C08FA007A08F900D1
:103CF20021088A0020080A009E31FB00FC017C0892
:103D0200003A0319852E722E7B08013A0319722E8E
:103D1200033A03196B2E013A03196B2E073A031962
:103D22006E2E722E08009B2E9F318B270800953134
:103D32000E2508006108003A0319A32E7F3A0319E1
:103D4200BD2EC22E6008013A0319952E033A0319BB
:103D5200C22E013A0319982E063A0319C22E773A57
:103D62000319C22E013A0319C22E073A0319C22EB1
:103D7200013A0319C22EC22E6008FF3A0319C22E5D
:103D8200C22E0800CA2E9F31C32708009631422650
:103D920008003408003A0319D22E7F3A0319EC2E98
:103DA200F12E3308013A0319C42E033A0319F12EF6
:103DB200013A0319C72E063A0319F12E773A03196D
:103DC200F12E013A0319F12E073A0319F12E013AA5
:103DD2000319F12EF12E3308FF3A0319F12EF12EB9
:103DE20008002100B100230053082100AE00230087
:103DF20052082100AD000730AE36AD0C890BFD2E06
:103E02000E302D05AF0023005C08F13921002F048C
:103E1200B0003008B2009A31AA229E312100320845
:103E22009C3130249E31230052089C3130249E3133
:103E320031089C3130249E31903101209E319B31DA
:103E420059230800023023006B06031D2B2F8E31ED
:103E520011260800EB016608031D552F21004608B4
:103E6200013EF6000030473DF700760886007708ED
:103E72008700083081005030F6000030F700460815
:103E820086004708870042317608C03F7708C13F65
:103E920046088600470887000C30810046088600E5
:103EA2004708870081170800E60108000230230056
:103EB2006B06031D5F2F8631C6260800EB016608DC
:103EC200031D892F21004608013EAB000030473D0B
:103ED200AC002B0886002C08870008308100503087
:103EE200AB000030AC00460886004708870042312C
:103EF2002B08C03F2C08C13F4608860047088700B0
:103F02000C308100460886004708870081170800A8
:103F1200E601080000302400EA000030E9004B30DE
:103F2200E8000030E700EB01EC010830FD007D08FD
:103F3200ED002300DB011A30FD007D08F70001309F
:103F42009C31A4249F311E30FD007D08F700023011
:103F52009C31A4249F31F001C030F1002030F200E6
:103F62004030FD007D08F300023089315121710893
:103F72002300CF007008CE002400C501C601230033
:103F8200DD01080000302400EA000030E9004B3077
:103F9200E8000030E700EB01EC0108302100B2003C
:103FA20032082400ED002300DB011A302100B200A8
:103FB2003208AC0001309C31E4249F311E30B20043
:103FC2003208AC0002309C31E4249F31A501C0309C
:103FD200A6002030A7004030B2003208A80002300C
:103FE2008931D42126082300CF002100250823008F
:0E3FF200CE002400C501C6012300DD01080039
:020000040001F9
:04000E00E43FFF3F8D
:00000001FF
