:020000040000FA
:1000000080314228013008007E1480318B1D092880
:100010000A2812280B1C0D280E2812289631F126CA
:10002000803140280B1F1528162840282100121D5A
:100030001A281B2824282000121D1F2820282428C5
:100040008131AE21803140282100921D28282928A5
:1000500035282000921D2D282E28352821005308F0
:100060008A0052080A00803140282100911D392859
:100070003A2840282000911D3E283F2840282E285D
:100080007E10090080314428503084000030850003
:100090000B309631D3268031A030840000308500AB
:1000A00048309631D32680312030840001308500DD
:1000B00014309631D32680317E1020008B316F2B87
:1000C00020004203031D652866287C2840081F394C
:1000D000003A031D6C286D287C28D2170330410696
:1000E000031D732874287A280130F900790821004B
:1000F000DF007C282100DF0120004208031D812849
:100100008228AD2940081F39023A031D8828892812
:10011000AD2944080F39003A03198F289028AD29DA
:1001200044080F39F90002307902031898289928F9
:10013000AD29203021006406031D9F28A028AD2989
:100140002000D217C41BA528A628BA2844080F39B6
:100150000907C83E86008701403FDE00413FDF00BF
:1001600044080F39CE3E860087010108F90079085E
:10017000DD00CD2844080F390907553E8600870168
:10018000403FDE00413FDF0044080F39D03E86008B
:1001900087010108F9007908DD005D18D028D12811
:1001A000DC28FB30F900FF30FA005E087905DE003C
:1001B0005F087A05DF00E22804305E04DE000030CC
:1001C0005F04DF00C41BE528E628F12844080F3946
:1001D0000907C83E860087015E08C03F5F08C13F2F
:1001E000FB2844080F390907553E860087015E0841
:1001F000C03F5F08C13F03304106031D00290129AC
:1002000025295E0886005F088700811F08290929C3
:100210001A29C41B0C290D29142944080F39CE3E74
:100220008600870181141A2944080F39D03E8600C0
:10023000870181145E0886005F08870001155E084B
:1002400086005F0887008117AD2904305E06DE0056
:1002500000305F06DF005E0886005F088700811FB0
:100260003229332950297F30F9005E0886005F0863
:100270008700790881055E0886005F0887000117FE
:100280000530F3000030F4005F08F6005E08F5006A
:100290000230F7000030F8008931472180315529BC
:1002A0005E0886005F0887000117043020005E06A4
:1002B000DE0000305F06DF00DD185F296029682955
:1002C0005E0886005F088700811F672968299129D9
:1002D000C41B6B296C29732944080F39CE3E860054
:1002E00087018110792944080F39D03E86008701A3
:1002F00081103B30F9005E0886005F0887007908AE
:1003000081050530F3000030F4005F08F6005E0858
:10031000F5000230F7000030F800893147218031C4
:1003200099293B30F9005E0886005F08870079084C
:100330008105200044080F39983EF900FA010E307B
:10034000FA3D7908DB007A08DC00FE30F9005B0832
:1003500086005C0887007908810508002100640395
:10036000031DB329B429C2293D008E1AB829B92921
:10037000C22990011214121602302000E200620815
:100380002100E4003D00101DC629C729D429121DF3
:10039000CA29CB29D429FB302000E20062083D00A5
:1003A00090058831902081313D008E1CD829D929B3
:1003B000DC2920001211CC2A101CDF29E029F529A4
:1003C000121CE329E429F52984312B2481312100F1
:1003D000121504302000E20062082100E400FE3023
:1003E0002000E20062083D009005101EF829F9295E
:1003F000002A121EFC29FD29002A88311B20813188
:100400003D00101F042A052A312A121F082A092A32
:10041000182A7330F3000030F4000030F50000308B
:10042000F6000130F7000030F800893147218131B2
:10043000BF302000E20062083D0090059731E427BC
:10044000813121005B080319262A272A292A013035
:10045000DB025B08031D2D2A2E2A312A8D319525BA
:1004600081313D00901E352A362A3D2A921E392AB6
:100470003A2A3D2A8931742181313D00901C412A5C
:10048000422A572A921C452A462A572AFF30F3004F
:100490007F30F4000030F5000030F6000130F70046
:1004A0000030F8008931472181313D00930104304B
:1004B0002100640203185D2A5E2A612A20001211BD
:1004C000CC2A3D00921D652A662ACA2A2000E40132
:1004D0003D00901D6C2A6D2ACA2A0F082000E200F8
:1004E00062082100E500650C2000E200E20C620CCD
:1004F0000F39E30063082100DD00F7302000E2003F
:1005000062083D00900521006519872A882A982AEB
:100510005D08CE3E86008701010801392000E20017
:100520000130E20601086206FE3962068100A72A50
:100530005D08D03E86008701010801392000E200F5
:100540000130E20601086206FE39620681002100E0
:100550005D08031DAC2AAD2AB12A8C3111248131EA
:10056000BF2A7230F3000030F400E530F5000030AF
:10057000F6000030F700F800893147218131013061
:100580002000E2006208E40704306402031CC92A68
:10059000CA2A682A200012110800210012113D0009
:1005A0009301900198010E302100E9009930E80094
:1005B000EA01680886006908870081010130E807C0
:1005C0000030E93D01302000E50065082100EA0720
:1005D0006A080319EC2AED2AD92A12303D0091004D
:1005E0009F3097007B3092002100EB016B082000C8
:1005F000E5000130E535FF3E031DFA2A6535203E52
:10060000860087010030C03F0030C13FC23FC33F7A
:100610000130E50065082100EB0708306B02031C80
:10062000122B132BF62A3D000E1796010E120E13F5
:10063000F7302000E50065083D0090052000D2015C
:100640002100BF01C001C1013D009019282B292BB9
:10065000182B01302000E50065082100D900013089
:100660002000E50065082100D800D701D601DE0191
:10067000EB016B35553E860087010030C03FC13F1E
:100680006B35C83E860087010030C03FC13F6B0814
:10069000D03E8600870181016B08CE3E860087012F
:1006A000810101302000E50065082100EB070230E0
:1006B0006B02031C5C2B5D2B392B28302000D500EE
:1006C0000030D60016303D00980000302000A30016
:1006D0004030A2000830A1000430E5006508A00009
:1006E000A0172100E7010030C7000030C60000302D
:1006F000C5000030C400D501E401080021006308F2
:1007000086008701413FF5007508F200F301730888
:100710004102031D8D2B720840020318902B912B70
:10072000952B4008F2007208F5007508F200F301FD
:100730007208C0027308C13BF401B12B7408483E33
:10074000860087010108F2003D08860087017208D3
:1007500081000130F2007208BD070130F20072081A
:10076000F40775087402031CB62BB72B9E2B4008A8
:1007700041040319BC2BBD2BF92B20005908013E65
:10078000F20000305A3DF3007208860073088700BB
:10079000083081004830F2000030F300590886002C
:1007A0005A08870042317208C03F7308C13F2100D8
:1007B000630886008701011BDE2BDF2BEC2B20005A
:1007C000590886005A088700483081005908860079
:1007D0005A08870081172A2C2000590886005A08D9
:1007E000870008308100590886005A088700811761
:1007F0002A2C20005908013EF20000305A3DF30037
:100800007208860073088700083081004030F200CB
:100810000030F300590886005A08870042317208F8
:10082000C03F7308C13F590886005A08870004304A
:100830008100590886005A08870081172100420864
:100840004308BF135A08031D262C272C2A2C8D3150
:10085000952583310800210012113D00930190017C
:1008600098010E30F2009930F100F3017108860012
:100870007208870081010130F1070030F23D01303C
:10088000F0007008F30773080319472C482C362C26
:1008900012303D0091009F3097007B309200F401B0
:1008A0007408F0000130F035FF3E031D532C703505
:1008B000203E860087010030C03F0030C13FC23F6C
:1008C000C33F0130F0007008F40708307402031CC5
:1008D0006A2C6B2C502C3D000E1796010E120E1335
:1008E000F730F000700890052000D2012100BF0110
:1008F000C001C1013D0090197E2C7F2C702C01306D
:10090000F00070082100D9000130F0007008D80014
:10091000D701D601DE01F4017435553E860087010A
:100920000030C03FC13F7435C83E860087010030AB
:10093000C03FC13F7408D03E860087018101740822
:10094000CE3E8600870181010130F0007008F40777
:1009500002307402031CAD2CAE2C8C2C28302000ED
:10096000D5000030D60016303D0098000030200041
:10097000A3004030A2000830A1000430F00070084D
:10098000A000A0172100E7010030C7000030C6001A
:100990000030C5000030C400D501E4010800F800B3
:1009A0007808F4007408F90072087304031DD92C48
:1009B000DA2CDB2C722D7008F40079088600870190
:1009C000740881007008F40072087907F500750852
:1009D000FF3E8600870174088100003073020330F7
:1009E000031972020318F52CF62CF72C722D7008DF
:1009F000F400790A86008701740881007008F40009
:100A00007908023E86008701740881007008F400AE
:100A100072087907F5007508FE3E860087017408A4
:100A200081007008F40072087907F5007508FD3E32
:100A300086008701740881000030730207300319B3
:100A400072020318242D252D262D722D7008F40016
:100A50007908033E86008701740881007008F4005D
:100A600072087907F5007508FC3E86008701740856
:100A70008100003073020930031972020318412DFE
:100A8000422D432D722D7909F4007A09F500F40AFC
:100A90000319F50A03307405F60000307505F700F8
:100AA0007608F4007408F9077608F2027708F33B39
:100AB000FC30F205FF30F3056C2D7008F400790866
:100AC00086008701740881000130F2020030F33B98
:100AD0000130F4007408F90772087304031D712DC6
:100AE000722D5D2D08003D000E122000D21B792DC5
:100AF0007A2DC02D2100BF1F7E2D7F2D8F2D02301E
:100B0000F5007508E1005608031D872D882D8B2DF3
:100B10008C316B2485312100D801D901102E2000A1
:100B20005908013EF50000305A3DF6007508860070
:100B300076088700083081004030F5000030F6006C
:100B4000590886005A08870042317508C03F760868
:100B5000C13F590886005A0887000C3081005908A7
:100B600086005A08870081175508860056088700B6
:100B70000430810055088600560887008117102E22
:100B8000C01FC32DC42DDD2D0130F50075082100D7
:100B9000E1005708031DCD2DCE2DD12D8C316B24B6
:100BA00085312100D801D9015A08031DD82DD92D2E
:100BB000102E8D3195258531102E0230F5007508E7
:100BC0002100E10020005908013EF50000305A3DA7
:100BD000F6007508860076088700083081004030EE
:100BE000F5000030F600590886005A0887004231A7
:100BF0007508C03F7608C13F590886005A0887002B
:100C000004308100590886005A08870081172100A6
:100C1000D801D9015A08031D0E2E0F2E102ED92DE2
:100C20000800803020004006031D172E182EA92E24
:100C3000C030F0007008D200962E2830D0009830D6
:100C4000D1000030D4001230D300A92E4208031D79
:100C50002A2E2B2E592E4208F000F101F035F10D0D
:100C60004E30700784009830713D8500003FD00001
:100C7000013FD1005108F1005008F0000230700728
:100C8000840071080318710A85000008F2007208D8
:100C9000D3005108F1005008F000033070078400C1
:100CA00071080318710A85000008F2007208D40068
:100CB000A92ED201A92E043042020318602E612E03
:100CC0007C2E4208F000F101F035F10D3A3070074A
:100CD00084009830713D8500003FD000013FD10075
:100CE00050088400510885000008F000F1017008E8
:100CF000D3007108D400A92EEE304206031D812EC8
:100D0000822E922E1630D0009830D10050088400E8
:100D1000510885000008F000F1017008D300710847
:100D2000D400A92ED201A92ED201A92E4308F00089
:100D3000F1017108003A03199E2E942E7008013AB1
:100D400003191D2E033A0319262E013A03195B2EAF
:100D5000942E08008E340034003400340034013402
:100D60000534003401340034843400340034003459
:100D70000134003400340034283400344434003466
:100D8000653400347634003469340034633400341C
:100D900065340034493400346E3400347434003423
:100DA0006534003472340034663400346134003405
:100DB000633400346534003447340034553400342F
:100DC0004934003444340034003400344E340034A8
:100DD000003400347B34003435340034383400348B
:100DE0006434003430340034373400343234003466
:100DF00031340034303400342D3400343234003493
:100E00003734003463340034313400342D3400344A
:100E10003134003431340034643400346434003408
:100E20002D340034623400346434003430340034FF
:100E3000623400342D34003430340034383400341B
:100E40003034003430340034323400343034003440
:100E500030340034633400343934003461340034C5
:100E600036340034363400347D34003400340034F9
:100E70000830F0007008F200003020005402083002
:100E8000031953020318452F462F5E2F5308F00015
:100E90007008F20021006208031D4F2F502F552FBC
:100EA0000130F0007008E2005E2F6203031D592F2D
:100EB0005A2F5E2F0230F0007008E2007208F00036
:100EC000F10170082000D3027108D43B5508013E9F
:100ED000F0000030563DF100700886007108870070
:100EE000720881004830F00070082100E000200006
:100EF00052187B2F7C2FB52F962F2000500884008E
:100F0000510885000008F000210060088600870174
:100F10007008810001302000D0070030D13D013041
:100F2000F00070082100E0070130F2027208031D92
:100F30009A2F9B2F7D2FBA2F200050088400510834
:100F400085000008F0002100600886008701700815
:100F5000810001302000D0070030D13D0130F00089
:100F600070082100E0070130F2027208031DB92F5A
:100F7000BA2F9C2F08002100ED004D082200B5007B
:100F800021004C082200B4000730B536B40C890BA0
:100F9000C52F0E303405B60021005408F139220067
:100FA0003604B70037082100EE0097311527873146
:100FB00021006E0888317220873121004C08883169
:100FC0007220873197311527873121006E0801384B
:100FD0008831722087318030883154208731013E3A
:100FE0002200B40021006D08860001308700220035
:100FF0003408810097311F27873108000530080029
:10100000200091110800790886008701403FF00018
:10101000413FF1007908023E8600870101089731BF
:10102000532788310030F500F600F7019731292762
:101030008831023008003D001215EF30F9007908C0
:1010400090058E140130F90079082100DE00D501E9
:101050007530F3000030F4000030F5000030F60089
:101060000030F700F800893147218831080021005D
:10107000E80020000D1321000D1620000D17FE3092
:10108000E5002100680886008701200065088105C9
:101090000D1E4B284C285128210068088600870126
:1010A000011420000D1308002100EA00EC01EB01FF
:1010B0006C35E9006908EC00EC3088313720883164
:1010C00001302100E9006908EB0708306B02031CBE
:1010D0006A286B2858286A089731A7278831210089
:1010E0006C0808002100EA00EC01EB016A08973166
:1010F000A727883121006A35E9006908EA00013034
:10110000E9006908EB0708306B02031C882889286E
:101110007628EC3088313720883121006C080800AF
:101120002100DE017430F3000030F4000030F500DF
:101130000030F6000030F700F8008931472188318F
:101140003D008E101211A828FB30F9007908900597
:101150001019AB28AC28A4282100D50108002100D3
:101160006408031DB428B528CD283D008E019201E6
:10117000123091009F3097007B30920021001215B1
:10118000C2288E153D008E1DC628C728C1280130F3
:101190002000E50065082100E4000800F400700864
:1011A00071040319D428D528E6287435A03E86009A
:1011B00087017008C03F7108C13F7208F3007408CE
:1011C000AC3E8600870173088100F3287435A03E89
:1011D000860087010230C03F0030C13F7408AC3E3A
:1011E000860087018101080022008C018D012030DA
:1011F0008E00203021008C00A0308D00DF308E006A
:10120000CC3023008E008D0110308C0024008D0125
:101210008C012100951722009D0127009312921640
:1012200091167B302100E8001630E90097310C2739
:1012300088318B15080021003C100230FA007A0832
:10124000BB002A299631AF26893146299631B4262A
:10125000893146292E08FA007A08F9000430A03EA8
:1012600086008701413F8A00403F0A008931FB0028
:10127000FC017C08003A03193E2926297B08023A22
:1012800003192229013A03192229262908004C2989
:101290008D312825893173297408003A031954299E
:1012A0007F3A03196E2973297308013A03197329C8
:1012B000033A03197329013A03194829063A031915
:1012C0007329773A03197329013A03197329073AE5
:1012D00003197329013A0319732973297308FF3A13
:1012E00003197329732908003D00181C78297929EE
:1012F0009C29210063088600870180300106031DB8
:10130000822983299A2920005508860056088700DB
:1013100084300106031D8D298E299A290C30F00096
:101320002100630886008701700881006308860039
:10133000870181173D001810DF30F000700890051C
:10134000080088310020893121003C1CA829A929E6
:10135000B7299631CD268931003A0319B029B12930
:10136000B7290F302000DB005B082100BA00210004
:101370003A082000DB00DC01DB35DC0D5C305B076C
:10138000840090305C3D8500013F8A00003F0A00E8
:1013900089312000DD005D082100BA000800F80056
:1013A0007108F6007008F5007808F4007408F90078
:1013B000F02975088600760887000108F400740893
:1013C000F7000130F5070030F63D7708F4007908A2
:1013D00086008701740881000130F4007408F90761
:1013E0000130F2020030F33B720A031DFB29730A3D
:1013F000031DFB29FC29D92908002100BC150D2A51
:101400009631AF2689312B2A9631882689310330CF
:101410002B2A9631B42689312B2A2C08FA007A0817
:10142000F90021088A0020080A008A31FB00FC012B
:101430007C08003A03191D2A092A7B08013A03197E
:10144000092A033A0319002A013A0319002A073A24
:101450000319042A092A08002200B80021004D08B7
:101460002200B50021004C082200B4000730B53638
:10147000B40C890B372A0E303405B600210054080D
:10148000F13922003604B7003708B9009731152723
:101490008A3122003908883172208A3121004C08B3
:1014A000883172208A3122003808883172208A31CE
:1014B00097311F278A319731B9278A3108000230C6
:1014C00021006106031D652A662A6A2A83317E236C
:1014D0008A31972AE1015C08031D6F2A702A962A37
:1014E00020005908013EF60000305A3DF70076080A
:1014F000860077088700083081004030F600003011
:10150000F700590886005A08870042317608C03F24
:101510007708C13F590886005A0887000C308100BF
:10152000590886005A0887008117972ADC010800AD
:10153000963185268A31FA00210037088600870116
:101540007A0881000130FA007A08B7070130B80242
:101550000030B93B380839040319AF2AB02AB52A3C
:1015600096318F268A310530DD2ABC15BF2A963187
:10157000C3268A31DD2A9631BE268A31DD2A2C081F
:10158000FA007A08F90021088A0020080A008A3146
:10159000FB00FC017C08003A0319CF2ABB2A7B0818
:1015A000013A0319BB2A033A0319B72A013A03196E
:1015B000B72A073A0319BB2ABB2A08002100E20117
:1015C000DA01D701D601DC01E1017F30FD00200006
:1015D00055088600560887007D08810504305506A9
:1015E000D50000305606D6007F30FD005508860035
:1015F000560887007D08810504305506D500003067
:101600005606D6007F30FD00590886005A0887002C
:101610007D088105D201D301D4012100BF01C001A1
:10162000C1018E3188268A310330F3000030F40086
:101630000030F5000030F6000030F700F800893186
:1016400047218A31853173258A3108002200B8008C
:1016500021004D082200B50021004C082200B400F2
:101660000730B536B40C890B312B0E303405B6007B
:1016700021005408F13922003604B7003708B900B8
:10168000973115278B3122003908883172208B3130
:1016900021004C08883172208B312200BA01602B66
:1016A0003A083807B4003408860001308700010882
:1016B000883172208B3101302200B4003408BA071F
:1016C00021006F0822003A02031C672B682B502B65
:1016D00097311F278B319731B9278B31080097310C
:1016E000CE278B318B170B17A0302200BC003C0893
:1016F0002100D400AA302100CC000030CD005530AC
:101700002200BC003C08A40024088A312C228B3122
:1017100024308731BB278B31B0302100CC00003022
:10172000CD002200BD013D080F3CBC003D08243E19
:101730008600013087003C0881000130BC003C0875
:10174000BD0710303D02031CA62BA72B932B103096
:10175000BC003C082100EF0024308B3126238B3164
:1017600010302100ED000030EE0024308F310527CD
:101770008B317A2B803142289631CD268B31003A3D
:101780000319C32BC42BF42BD12B9631A5268B31F7
:10179000102C9631AA268B31102C9631B4268B3121
:1017A000102C21002F08FA007A08F9000630A03E1C
:1017B00086008701413F8A00403F0A008B31FB00D1
:1017C000FC017C08003A0319E62BCD2B7B08013A7B
:1017D0000319CD2B033A0319C52B013A0319C92B61
:1017E000073A0319CD2BCD2B21003C101730A03E1A
:1017F00086008701403F84008501810A00089631F8
:101800009B268B3101302100B8020030B93B3808EB
:101810003904031D0C2C0D2C0F2C0630102C03301A
:1018200008002D302000E00060082100DB00650882
:10183000FD39031D1C2C1D2C5D2C65363F39200005
:10184000E0000130E035FF3E031D222C6035203ED4
:10185000E10061082100E30063082000D900FF399E
:10186000031D0030DA0004305906D90000305A0652
:10187000DA002100630886008701010C890C0F390A
:101880000D3A031D442C452C592C6308023E86005A
:101890008701403FF000413FF1000830F200003086
:1018A000F30040308931CF218C318A31DE228C31F6
:1018B0006A2C8A315F228C316A2CFD30650520004C
:1018C000E00004306006031D662C672C6A2C8E3104
:1018D0000B268C3108002100D701D60102306106A9
:1018E000031D732C742C9A2C20005908013EF30020
:1018F00000305A3DF40073088600740887000830F1
:1019000081004830F3000030F400590886005A087E
:10191000870042317308C03F7408C13F59088600F0
:101920005A08870048308100590886005A08870005
:101930008117C52C200054084702031DA12C530811
:1019400046020318A42CA52CA92C4708D40046084D
:10195000D300873138278C314830F3000030F40051
:101960002000550886005608870042317308C03FA2
:101970007408C13F5508860056088700483081002A
:101980005508860056088700811708002000C80106
:10199000C901052DD21721005F03031DD02CD12CC6
:1019A000192D2000C814192DD217192DD217C41BB8
:1019B000DA2CDB2CE62C44080F390907C83E8600D8
:1019C0008701403FF200413FF300F02C44080F39FB
:1019D0000907553E86008701403FF200413FF30072
:1019E0007208860073088700811FF72CF82C192DC8
:1019F0007208860073088700011DFF2C002D192D29
:101A00000130F0007008C800192D40081F39F0009F
:101A1000F1017108003A03190E2D192D7008003AD2
:101A20000319CA2C013A0319D42C033A0319D62CF2
:101A3000192D2000D21F1D2D1E2D272D4830D0001E
:101A40000030D10052140230F0007008D3000800BA
:101A5000C03020004006031D2E2D2F2D5F2DEE30AF
:101A60004106031D342D352D942D043044064504C4
:101A7000031D3B2D3C2D942D343084009030850087
:101A8000003FF100013FF20072084702031D4A2D9A
:101A90007108460203184D2D4E2D522D4708F200B5
:101AA0004608F1003430D0009030D1007208D400E4
:101AB0007108D300C030F0007008D200942DC130FE
:101AC0004006031D642D652D942DEE304106031D47
:101AD0006A2D6B2D942D053044064504031D712D90
:101AE000722D942DAA30840086308500003FF100CD
:101AF000013FF20072084702031D802D7108460263
:101B00000318832D842D882D4708F2004608F10024
:101B1000AA30D0008630D1007208D4007108D300FA
:101B2000C030F0007008D200080021005908031DE1
:101B30009A2D9B2D0A2E0130F0007008D90058080C
:101B4000031DA32DA42D0A2E0130F0007008D8002B
:101B500002306106031DAD2DAE2DC12D20005508AC
:101B600086005608870041318101550886005608D5
:101B70008700483081005508860056088700811785
:101B80000A2E6103031DC52DC62D0A2EDC01083067
:101B9000F000630A86008701700881004030F00081
:101BA0000030F1006308023E860087017008C03FE4
:101BB0007108C13F0430F000630886008701700897
:101BC000810063088600870181170130F0007008EA
:101BD000DC0020005908013EF00000305A3DF100C1
:101BE0007008860071088700083081004030F000DE
:101BF0000030F100590886005A0887004231700809
:101C0000C03F7108C13F590886005A0887008030DC
:101C100081000A2E0800200055088600560887001B
:101C20000030011B0130F50004305506D5000030AE
:101C30005606D600083021006406031D202E212EF2
:101C4000362E200042087F393D0096001608031901
:101C50002A2E2B2E312E1030F30073082100E400C1
:101C6000362E0430F30073082100E4006103031DE5
:101C70003A2E3B2E7F2E4830F3000030F400200037
:101C8000550886005608870042317308C03F740823
:101C9000C13F873138278E31023021006206031D93
:101CA000522E532E602E20005508860056088700BD
:101CB0000430810055088600560887008117872E5A
:101CC0007508031D642E652E722E200055088600AF
:101CD000560887004830810055088600560887005E
:101CE0008117872E20005508860056088700083087
:101CF000810055088600560887008117872EBF1F70
:101D0000822E832E862E42084308BF13E10108006D
:101D10002000400E890C0339003A0319902E912EB1
:101D2000D92E042FD2170830FB007B082100E400D5
:101D3000042F863111268E31042F8F3182278E3168
:101D4000042FE730D0000030D10052140130FB00E6
:101D50007B08D300D217042F8C31C6248E31042F78
:101D6000803160208E31042F4408E63ED0000030E0
:101D7000D10052140130FB007B08D300D217042F8E
:101D8000D2174208FB004408E63E860087017B0824
:101D90008100042F0230F3000030F4000030F50021
:101DA0000030F6000030F700F800893147218E310D
:101DB000042F4108FB00FC017C08003A0319E12EC6
:101DC000042F7B08003A0319AC2E013A0319B02EF8
:101DD000023A0319B02E063A0319922E033A031958
:101DE000992E013A0319CA2E0F3A0319A12E013A6E
:101DF00003199D2E033A0319B42E013A0319C02E7C
:101E0000073A0319042F042F08002200B80021000C
:101E10004D082200B50021004C082200B400073014
:101E2000B536B40C890B102F0E303405B6002100E6
:101E30005408F13922003604B7003708B900973149
:101E400015278F3122003908883172208F31210007
:101E50004C08883172208F31973115278F3122003D
:101E600039080138883172208F312200BA01BB0154
:101E7000702F21006D08FF3E2200B400FF302100CA
:101E80006E3D2200B50035083B02031D492F340882
:101E90003A0203184C2F4D2F5D2F0030883154200B
:101EA0008F312200B4003A083807B50035088600A3
:101EB00001308700340881006C2F80308831542035
:101EC0008F312200B4003A083807B5003508860083
:101ED00001308700340881000130BA070030BB3D73
:101EE00021006E0822003B02031D7A2F21006D089D
:101EF00022003A02031C7D2F7E2F392F97311F2796
:101F00008F3108002000D2170E30DC009930DB0042
:101F1000DD015B0886005C08870081010130DB077A
:101F20000030DC3D0130FA007A08DD075D08031956
:101F30009A2F9B2F892F0030F000F1002030F20003
:101F40000030F30020308431CF248F313D000E1754
:101F50002000DE015E08D03E8600870181015E0818
:101F6000CE3E8600870181010130FA007A08DE0743
:101F700002305E02031CBD2FBE2FAA2F0030F000DE
:101F8000F1000130F2000030F300E6308431CF245C
:101F90008F313D000E1328302000D5000030D600D0
:101FA0002030FA007A082100E30063082000D900FD
:101FB000FF39031D0030DA004208FA007A082100D8
:101FC000E7006708031DE52FE62FEB2F1030FA001E
:101FD0007A08E400FF2F0130F3000030F400E7300E
:101FE000F5000030F6000130F7000030F8008931CC
:101FF00047218F312030FA007A082100E4000800E0
:10200000343403344D3400346934003463340034E0
:10201000723400346F340034633400346834003474
:1020200069340034703400342034003454340034C3
:102030006534003463340034683400346E34003462
:102040006F3400346C3400346F340034673400343F
:102050007934003420340034493400346E34003490
:10206000633400342E340034283400340034003417
:1020700000340134043400340134003400340034BA
:10208000003400340034003400340134573449340F
:102090004E34553453344234003400340034003468
:1020A0000034003400340034003400340034003490
:1020B0000034003400340034A0341634E8341634CC
:1020C000E0341634BC340B3498340A34D934163422
:1020D000FD340934A5341634AA341634AF3416341A
:1020E000B4341634B9341634BE341634C33416340A
:1020F000C83416341B340934093402342034003413
:10210000013401340034C03432340934043400342E
:1021100000340234FF34FF34FF3400340734053414
:1021200001340334083400340A340734053481346C
:082130000334083400340A34C2
:102CF6000800240096140800240016150800240075
:102D060096150800240011080800200091150800F7
:102D160024009616161608002400961216160800A9
:102D26008931A1219631080016302100970008004C
:102D3600F00070082400910008002100BC10BB01BF
:102D46000E30080096317C26963101300800963107
:102D56007C2696310230080096317C269631013069
:102D6600080096317F2696310030080096318F266E
:102D760096310530080096318B2696310A300800C8
:102D860096318B269631093008002100BC10BB0114
:102D96000E3008002400160E890C890C0139080033
:102DA600640080010131890BD42E003421003C10CF
:102DB6009631822696310430080021003C143635BF
:102DC60096319B2696310330080021003C140314EB
:102DD600360D96319B269631053008002700931E46
:102DE600F52EF62EF92E9731442796310800A0309D
:102DF60021009E009F019B019C0101309D0008005F
:102E0600240094010830950096013B3092009512FB
:102E16000800210069082200BF002100680822007E
:102E2600BE00080021000D1620000D1721000D120E
:102E360020000D120D13080020000D1321000D12A5
:102E460020000D120D1721000D1608007608F1005E
:102E56007508F0007708F8007808F200003088312D
:102E6600CE2097310800783021009900980127007C
:102E76009B012200960121001A1F422F432F3E2F4D
:102E8600080022003E083F0403194A2F4B2F502FFB
:102E96003F088A003E080A0097312700931208006F
:102EA600F3002100BC1D582F592F622F7308F20022
:102EB6007208B7007108B9007008B800BC110800A4
:102EC6000230F0000030F10079089731532797312E
:102ED6000030F500F600F7019731292797310430C5
:102EE60008000130F0000030F100790897315327CF
:102EF60097310030F500F600F70197312927973111
:102F0600023008000230F0000030F10079089731F5
:102F1600532797310030F500F600F701973129273E
:102F26009731023008000130F0000030F1007908D6
:102F36009731532797310030F500F600F7019731A6
:102F460029279731043008002000E5000D13E51FFE
:102F5600AD2FAE2FB12F21000D16B52F21000D126A
:102F660020000D1220000D170D13080097311527AC
:102F76009731210054088831722097312100ED00E5
:102F86006D08EE006E030319C92FCA2FB92F9731AA
:102F96001F27973108009731032797318831F4208E
:102FA6009731973136279731963197269731823167
:102FB600CD2297319631FA2697318831AF20973155
:102FC600080001302100C4070030C53D0030C63D71
:102FD6000030C73D5E08031DF12FF22FFF2F013091
:102FE600F0007008D5075508031DFA2FFB2FFF2F99
:102FF600FF30F0007008D50008001634033453344F
:1030060000346D3400346134003472340034743466
:1030160000342034003453340034683400346F34C0
:10302600003465340034123403344D3400345334E0
:1030360000344634003454340034313400343034EF
:10304600003430340034EE340034123401340034A9
:1030560002340034003400340834D8340434533491
:1030660000340034013401340234033401344A3468
:103076009834003490340034983442349834083408
:1030860003343134003432340034343400340434FC
:0A3096000334093404347C34903410
:020000040001F9
:04000E00E43F8F3FFD
:00000001FF
