:020000040000FA
:0400000080312628FD
:100008007E1480318B1E09280A2812280B1D0D2802
:100018000E28122888313320803124280B1F1528F8
:10002800162824282100121D1A281B2824282000FD
:10003800121D1F28202824288431B0248031242828
:100048007E100900803128287F30840080308500A8
:1000580050308600223087000130FF00A0309531F3
:10006800B1258031643084009630850047308600A1
:10007800023087000030FF0020309531B1258031F3
:10008800B9308400003085000F30FE000030FF00DA
:100098009531A5258031B0308400013085003F308E
:1000A800FE000030FF009531A52580312030840006
:1000B800023085002730FE000030FF009531A5256D
:1000C8008031A0308400023085004030FE000030CE
:1000D800FF009531A525803120308400033085004C
:1000E8004030FE000030FF009531A52580317E109C
:1000F80020008331792B0034003401340034023479
:100108000034033400340434003405340034063435
:1001180000340734003408340034093400340A3415
:1001280000340B3400340C3400340D3400340E34F5
:1001380000340F34003410340034113400341234D5
:1001480000341334003414340034153400341634B5
:1001580000341734003418340034193400341A3495
:1001680000341B3400341C3400341D3400341E3475
:1001780000341F3400342034003421340034223455
:100188000034233400342434003425340034263435
:1001980000342734003428340034293400342A3415
:1001A80000342B3400342C3400342D3400342E34F5
:1001B80000342F34003430340034313400343234D5
:1001C80000343334003434340034353400343634B5
:1001D80000343734003438340034393400343A3495
:1001E80000343B3400343C3400343D3400343E3475
:1001F80000343F3400344034003441340034423455
:100208000034433400344434003445340034463434
:1002180000344734003448340034493400344A3414
:1002280000344B3400344C3400344D3400344E34F4
:1002380000344F34003450340034513400345234D4
:1002480000345334003454340034553400345634B4
:1002580000345734003458340034593400345A3494
:1002680000345B3400345C3400345D3400345E3474
:1002780000345F3400346034003461340034623454
:100288000034633400346434003465340034663434
:1002980000346734003468340034693400346A3414
:1002A80000346B3400346C3400346D3400346E34F4
:1002B80000346F34003470340034713400347234D4
:1002C80000347334003474340034753400347634B4
:1002D80000347734003478340034793400347A3494
:1002E80000347B3400347C3400347D3400347E3474
:1002F80000347F3400348034003481340034823454
:100308000034833400348434003485340034863433
:1003180000348734003488340034893400348A3413
:1003280000348B3400348C3400348D3400348E34F3
:1003380000348F34003490340034913400349234D3
:1003480000349334003494340034953400349634B3
:1003580000349734003498340034993400349A3493
:1003680000349B3400349C3400349D3400349E3473
:1003780000349F340034A0340034A1340034A23453
:100388000034A3340034A4340034A5340034A63433
:100398000034A7340034A8340034A9340034AA3413
:1003A8000034AB340034AC340034AD340034AE34F3
:1003B8000034AF340034B0340034B1340034B234D3
:1003C8000034B3340034B4340034B5340034B634B3
:1003D8000034B7340034B8340034B9340034BA3493
:1003E8000034BB340034BC340034BD340034BE3473
:1003F8000034BF340034C0340034C1340034C23453
:100408000034C3340034C4340034C5340034C63432
:100418000034C7340034C8340034C9340034CA3412
:100428000034CB340034CC340034CD340034CE34F2
:100438000034CF34003420005203031D242A252A17
:100448003D2A50081F39003A031D2B2A2C2A3D2A21
:100458002100BB17033020005106031D342A352A1A
:100468003B2A0130E60066082300EB003D2A230002
:10047800EB0120005208031D422A432A782B50081A
:100488001F39023A031D492A4A2A782B54080F3982
:10049800003A0319502A512A782B54080F39E600DC
:1004A800033066020318592A5A2A782B2030210073
:1004B8004506031D602A612A782BBB172000D41B30
:1004C800662A672A7D2A54080F3909072A3E8600BA
:1004D80002308700403FEB00413FEC0054080F39E1
:1004E800C13E8600013087000108E6006608EA0080
:1004F800922A54080F390907B73E86000130870051
:10050800403FEB00413FEC0054080F39C43E8600E1
:10051800013087000108E6006608EA006A18952A93
:10052800962AA12AFB30E600FF30E7006B08660533
:10053800EB006C086705EC00A72A04306B04EB009D
:1005480000306C04EC00D41BAA2AAB2AB72A540842
:100558000F3909072A3E8600023087006B08C03F22
:100568006C08C13FC22A54080F390907B73E8600F4
:10057800013087006B08C03F6C08C13F033051064B
:10058800031DC72AC82AEE2A6B0886006C08870054
:10059800811FCF2AD02AE32AD41BD32AD42ADC2AC3
:1005A80054080F39C13E8600013087008114E32AC0
:1005B80054080F39C43E86000130870081146B0847
:1005C80086006C08870001156B0886006C08870098
:1005D8008117782B04306B06EB0000306C06EC00BA
:1005E8006B0886006C088700811FFB2AFC2A192BE0
:1005F8007F30E6006B0886006C0887006608810576
:100608006B0886006C08870001170530E000003091
:10061800E1006C08E3006B08E2000230E4000030FF
:10062800E5008831012082311E2B6B0886006C089A
:1006380087000117043020006B06EB0000306C06C1
:10064800EC00EA18282B292B312B6B0886006C0844
:100658008700811F302B312B5C2BD41B342B352B7F
:100668003D2B54080F39C13E8600013087008110A8
:10067800442B54080F39C43E86000130870081108E
:100688003B30E6006B0886006C0887006608810529
:100698000530E0000030E1006C08E3006B08E20080
:1006A8000230E4000030E500883101208231642BFB
:1006B8003B30E6006B0886006C08870066088105F9
:1006C800200054080F39983EE600E7010E30E73D58
:1006D8006608E8006708E900FE30E600680886005A
:1006E800690887006608810508009531DB25833194
:1006F8009531992583318B170B1723005A08031955
:10070800862B872B752CD601DA0121001D08833929
:1007180024389D001D149D149D18932B942B902B09
:100728009D149D18982B992B952B1D102300570865
:100738002500E000E101E035E10DE035E10DE035AF
:10074800E10D5030E2002230E300600862078600C5
:100758006108633D870021001B08C03F1C08C13F9A
:1007680001302500E00060082300D60721001D089D
:10077800833920389D001D149D149D18C42BC52B4A
:10078800C12B9D149D18C92BCA2BC62B1D102300E5
:1007980056082500E000E101E035E10D2300570887
:1007A8002500E200E301E235E30DE235E30DE23531
:1007B800E30D5030E4002230E50062086407E600EB
:1007C8006308653DE7006008660786006108673DC5
:1007D800870021001B08C03F1C08C13F01302500CD
:1007E800E00060082300D60721001D0883391C3863
:1007F8009D001D149D149D18022C032CFF2B9D1485
:100808009D18072C082C042C230056082500E0000E
:10081800E101E035E10D230057082500E200E3017E
:10082800E235E30DE235E30DE235E30D5030E40047
:100838002230E50062086407E6006308653DE700CA
:100848006008660786006108673D870021001B086D
:10085800C03F1C08C13F01302500E00060082300AC
:10086800D60721001D101D08833918389D001D1456
:100878009D149D18402C412C3D2C9D149D18452CF1
:10088800462C422C230056082500E000E101E03503
:10089800E10D230057082500E200E301E235E30DEE
:1008A800E235E30DE235E30D5030E4002230E50097
:1008B80062086407E6006308653DE70060086607AC
:1008C80086006108673D870021001B08C03F1C089F
:1008D800C13F01302500E00060082300D707210050
:1008E8001D1023005D0803197A2C7B2C8B2CDD014D
:1008F80021008E12270093128B1563008B112100A3
:100908008E16270093122300D501DC01DB015C0859
:1009180003198F2C902C812B5508031D942C952C92
:10092800812BDC01240035082100A70024003408AD
:100938002100A6005030A8002230A900873148279E
:100948008331A0302400B4070130B53D2300D50120
:10095800D50A812B8031262821004503031DB52C9B
:10096800B62CC32C3D008E1ABA2CBB2CC32C90017C
:100978001214121602302100A2002208C5003D0000
:10098800101DC72CC82CD52C121DCB2CCC2CD52C2B
:10099800FB302100A20022083D00900596318426F4
:1009A80084313D008E1CD92CDA2CDD2C200012114C
:1009B800C82D101CE02CE12CF32C121CE42CE52C87
:1009C800F32C8E31A9268431210012150430A2009F
:1009D8002208C500FE30A20022083D009005101E26
:1009E800F62CF72CFE2C121EFA2CFB2CFE2C963122
:1009F800442684313D00101F022D032D302D121F77
:100A0800062D072D172D73302000E0000030E1007F
:100A18000030E2000030E3000130E4000030E5007F
:100A2800883101208431BF302100A20022083D0016
:100A3800900596310A268431230068080319252D6C
:100A4800262D282D0130E8026808031D2C2D2D2D98
:100A5800302D8A31632284313D00901E342D352D8E
:100A68003C2D921E382D392D3C2D9631EF268431A0
:100A78003D00901C402D412D572D921C442D452D95
:100A8800572DFF302000E0007F30E1000030E20009
:100A98000030E3000130E4000030E5008831012037
:100AA80084313D00930104302100450203185D2D77
:100AB8005E2D612D20001211C82D3D00921D652D5F
:100AC800662DC62D2100A4013D00901D6C2D6D2DB5
:100AD800C62D0F082100A2002208C600460CA2005D
:100AE800A20C220C0F39A3002308C100F730A20082
:100AF80022083D00900521004619832D842D942D50
:100B08004108C13E86000130870001080139A20072
:100B18000130A20601082206FE3922068100A32D13
:100B28004108C43E86000130870001080139A2004F
:100B38000130A20601082206FE392206810041087A
:100B4800031DA72DA82DAC2D8831D6208431BB2DAF
:100B580072302000E0000030E100C630E2000030D2
:100B6800E3000030E400E5008831012084310130E1
:100B78002100A2002208A40704302402031CC52D6A
:100B8800C62D682D2000121108007108FD0070089C
:100B9800FC0074087504031DD22DD32DD42D922E7C
:100BA8007C0886007D0887007208810074087C072D
:100BB800F60075087D3DF7007608FF3EF800FF3027
:100BC800773DF90078088600790887007208810067
:100BD800003075020330031974020318F42DF52D43
:100BE800F62D922E7C08013EF60000307D3DF70080
:100BF8007608860077088700720881007C08023E24
:100C0800F60000307D3DF7007608860077088700FB
:100C18007208810074087C07F60075087D3DF700AE
:100C28007608FE3EF800FF30773DF9007808860028
:100C3800790887007208810074087C07F600750837
:100C48007D3DF7007608FD3EF800FF30773DF9005E
:100C580078088600790887007208810000307502DC
:100C680007300319740203183A2E3B2E3C2E922E9D
:100C78007C08033EF60000307D3DF70076088600CC
:100C8800770887007208810074087C07F6007508E9
:100C98007D3DF7007608FC3EF800FF30773DF9000F
:100CA800780886007908870072088100003075028C
:100CB8000930031974020318622E632E642E922ED3
:100CC8007C09F6007D09F700F60A0319F70A0330D4
:100CD8007605FA0000307705FB007A08FC077B08E8
:100CE800FD3D7A08F4027B08F53BFC30F405FF3043
:100CF800F5058C2E7C0886007D0887007208810027
:100D08000130F4020030F53B0130FC070030FD3DB6
:100D180074087504031D912E922E7E2E0800210062
:100D280012113D009301900198010E302100A70097
:100D38009930A600A80126088600270887008101A7
:100D48000130A6070030A73D0130A5002508A807F7
:100D580002302802031CB12EB22E9F2E16303D0001
:100D680091009F3097007B3092002100A90129084B
:100D7800A5000130A535FF3E031DBE2E2535203EBA
:100D8800860087010030C03F0030C13FC23FC33FEB
:100D98000130A5002508A9070C302902031CD52E0F
:100DA800D62EBB2E3D000E1796010E120E13F730ED
:100DB8002100A50025083D0090052100BB01230066
:100DC800B201B301B4013D009019EB2EEC2EDB2EDD
:100DD80001302100A50025082300E600013021008C
:100DE800A50025082300E500E401E301EA0121004C
:100DF800A9012935B73E8600013087000030C03F81
:100E0800C13F29352A3E8600023087000030C03FA6
:100E1800C13F2908C43E86000130870081012908A6
:100E2800C13E86000130870081010130A5002508F8
:100E3800A90703302902031C222F232FFD2E283057
:100E48002300B7000030B80016303D00980000308D
:100E58002000A3005030A2000830A1000430210077
:100E6800A50025082000A000A0172100C701003018
:100E78002300C0000030BF000030BE000030BD00BD
:100E8800E2012100C50108001F3021002605AA0043
:100E980000302705AB002A082B040319542F552FBF
:100EA800562FF42FB6012708AA002A08B4002608EE
:100EB800AA002A08B50095316B258731A030873103
:100EC800F5278731210034088731F527873121003C
:100ED80035088731F52787312100B701B80138086F
:100EE800AA00AB01AA35AB0D3608AC00AD01AC3594
:100EF800AD0DAC35AD0D37082C07AE002D08031825
:100F08002D0AAF00AE35AF0DAE35AF0DAE35AF0D16
:100F18002E082807B0002F08293DB1002A083007FD
:100F280086002B08313D8700403FB200413FB300A7
:100F380033088731F527873121003808AA00AB012B
:100F4800AA35AB0D3608AC00AD01AC35AD0DAC35EE
:100F5800AD0D37082C07AE002D0803182D0AAF0079
:100F6800AE35AF0DAE35AF0DAE35AF0D2E08280737
:100F7800B0002F08293DB1002A08300786002B0849
:100F8800313D870001088731F5278731013021007D
:100F9800AA002A08B80704303802031CD42FD52F1A
:100FA800732F0130AA002A08B70704303702031C40
:100FB800DE2FDF2F722F9531712587319531CB25A3
:100FC800873120302100A6070030A73D0130AA0054
:100FD8002A08B6070D303602031CF32FF42F572FBB
:100FE80008002100A50025082400910095317725E7
:060FF8008731080008002B
:101002000A2897314A27883132288931F4218831D8
:10101200322820006108003A031913287F3A031985
:101022002D2832286008013A03190228033A0319CD
:101032003228013A03190628063A03193228773A68
:1010420003193228013A03193228073A03193228C0
:10105200013A0319322832286008FF3A031932286C
:10106200322808000B1123005908200095002300A4
:101072004708480403193E283F28442848088A00A4
:1010820047080A00883101302300C9070030CA3DF1
:101092004A08803AF000F5307002031D52283030C1
:1010A2004902031C552856285B282300C901CA019E
:1010B200DD01DD0A01302300CB070030CC3D4C08B6
:1010C200803AF00080307002031D692826304B02FE
:1010D200031C6C286D287F28343023005B02031820
:1010E200732874287B280130F0007008DB07DA01CE
:1010F200DA0A7D28DC01DC0ACB01CC0108002100E0
:10110200C3012300E701E401E301E9012100C20177
:101112007F302000EF002300370886003808870060
:1011220020006F088105043023003706B700003025
:101132003806B8007F302000EF0023003708860011
:101142003808870020006F08810504302300370625
:10115200B70000303806B8007F302000EF002100D1
:101162003E0886003F08870020006F0881052100A5
:10117200BB01BC01BD012300B201B301B4018B313B
:10118200DD23883103302000E0000030E100003030
:10119200E2000030E3000030E400E5008831012085
:1011A20088318E310726883108002D302100A000B9
:1011B20020082300E80021004608FD39031DE2282B
:1011C200E3281F2946363F39A0000130A035FF3EF3
:1011D200031DE7282035203EA1002108C400440851
:1011E200BE00FF39031D0030BF0004303E06BE00C2
:1011F20000303F06BF00440886008701010C890CBD
:101202000F390D3A031D062907291B294408023EFE
:1012120086008701403FF000413FF1000830F200B4
:101222000030F300503097311C27883188318020FC
:1012320088312B299731822788312B29FD304605A9
:10124200A00004302006031D272928292B298A31D2
:10125200DD22883108002300E401E301023021008D
:101262004206031D352936295B293E08013EF3005B
:1012720000303F3DF4007308860074088700083090
:1012820081005830F3000030F4003E0886003F0829
:10129200870042317308C03F7408C13F3E08860090
:1012A2003F088700483081003E0886003F088700DB
:1012B20081178B293D0820005702031D6429210054
:1012C2003C08200056020318672968296F2957082D
:1012D2002100BD00200056082100BC008B315C2398
:1012E20089315830F3000030F400230037088600BB
:1012F2003808870042317308C03F7408C13F37087D
:101302008600380887004830810037088600380890
:101312008700811708002000D801D901D1292100B6
:10132200BB1723006B03031D97299829E529200089
:10133200D814E5292100BB17E5292100BB1720009D
:10134200D41BA429A529B12954080F3909072A3E1B
:10135200860002308700403FF200413FF300BC2983
:1013620054080F390907B73E860001308700403F15
:10137200F200413FF3007208860073088700811F64
:10138200C329C429E5297208860073088700011D54
:10139200CB29CC29E5290130F0007008D800E529D5
:1013A20050081F39F000F1017108003A0319DA29D7
:1013B200E5297008003A03199029013A03199B297B
:1013C200033A03199E29E5292100BB1FE929EA29CD
:1013D200F3295830B9000030BA003B140230F00053
:1013E2007008BC000800200050081F39013A031998
:1013F200FB29FC29FD29622A500E890C0339013A86
:101402000319042A052A062A622A540803190A2AF9
:101412000B2A492A540303190F2A102A492A622A3D
:1014220038302100B9000230BA000030BD00083067
:10143200BC003B14BB17622A38302100B9000230CD
:10144200BA00BB17622A57082300B40020005608CE
:101452002300B3004030F0007008B000B501B601BF
:10146200B217622A40302100B9000230BA000030BF
:10147200BD000730BC00C130F0007008BB00622A1A
:101482005208F00070082300DE002100BB17622A18
:101492005108F000F1017108003A0319512A622A39
:1014A2007008003A0319112A013A03191D2A213A38
:1014B2000319242A013A0319332A033A0319412A48
:1014C200622A080023006608031D682A692ADC2AAA
:1014D2000130F0007008E6006508031D712A722AC7
:1014E200DC2A0130F0007008E500023021004206DB
:1014F200031D7C2A7D2A902A23003708860038089B
:10150200870041318101370886003808870048305A
:10151200810037088600380887008117DC2A4203D9
:10152200031D942A952ADC2A2300E9010830F000E1
:101532002100440A86008701700881005030F000C3
:101542000030F1004408023E860087017008C03F67
:101552007108C13F0430F00044088600870170081A
:10156200810044088600870181170130F00070086D
:101572002300E90021003E08013EF00000303F3D1B
:10158200F100700886007108870008308100503031
:10159200F0000030F1003E0886003F08870042312B
:1015A2007008C03F7108C13F3E0886003F088700AF
:1015B20080308100DC2A08002300370886003808C2
:1015C20087000030011B0130F50004303706B700F8
:1015D20000303806B800083021004506031DF22A03
:1015E200F32A082B200052087F393D009600160886
:1015F2000319FC2AFD2A032B1030F3007308210083
:10160200C500082B0430F30073082100C500420313
:10161200031D0C2B0D2B512B5830F3000030F4001E
:101622002300370886003808870042317308C03F1C
:101632007408C13F8B315C238A310230210043069A
:10164200031D242B252B322B230037088600380854
:101652008700043081003708860038088700811728
:101662005B2B7508031D362B372B442B23003708C1
:10167200860038088700483081003708860038081D
:10168200870081175B2B2300370886003808870004
:1016920008308100370886003808870081175B2BE5
:1016A2002300B21F552B562B592B35083608B2137F
:1016B2002100C20108000830F0007008F20000307A
:1016C20021003D02083003193C020318692B6A2BE2
:1016D200812B3C08F0007008F2004308031D722BB6
:1016E200732B782B0130F0007008C300812B430369
:1016F200031D7C2B7D2B812B0230F0007008C30070
:101702007208F000F1017008BC027108BD3B2300B1
:101712003708013EF0000030383DF10070088600C5
:1017220071088700720881005830F0007008EC00E0
:1017320021003B189D2B9E2BD72BB82B210039085B
:1017420084003A0885000008F00023006C08860037
:1017520087017008810001302100B9070030BA3DCD
:101762000130F00070082300EC070130F202720829
:10177200031DBC2BBD2B9F2BDC2B210039088400C1
:101782003A0885000008F00023006C0886008701F3
:101792007008810001302100B9070030BA3D0130E4
:1017A200F00070082300EC070130F2027208031DFA
:1017B200DB2BDC2BBE2B08002000500E890C0339DA
:1017C200003A0319E52BE62B392C642C2100BB17B8
:1017D20008302000ED006D082100C500642C8C311A
:1017E200EF248B31642C8D317A258B31642CC730F8
:1017F2002100B9000030BA003B1401302000ED0096
:101802006D082100BC00BB17642C89318C218B31FF
:10181200642C82311F228B31642C5408ED3E21004E
:10182200B9000130BA003B1401302000ED006D0810
:101832002100BC00BB17642C2100BB1720005208FA
:10184200ED005408ED3E8600013087006D088100EE
:10185200642C0230E0000030E1000030E200003091
:10186200E3000030E400E500883101208B31642C74
:101872005108ED00EE016E08003A0319412C642C68
:101882006D08003A0319062C013A03190A2C023A90
:1018920003190A2C063A0319E72B033A0319F02B12
:1018A200013A03192A2C0F3A0319F82B013A0319AA
:1018B200F42B033A03190E2C013A03191D2C073A93
:1018C2000319642C642C0800F800700803196A2CB0
:1018D2006B2C752C7835B73E860001308700403F6F
:1018E200F900413FFA007E2C78352A3E860002300C
:1018F2008700403FF900413FFA0079087A04031D4E
:10190200832C842C872CF001F101EE2CFF30710521
:10191200F4007F307205F500790886007A088700A6
:1019220042317408C03F7508C13F7908013EF40096
:1019320000307A3DF5007408860075088700730848
:1019420081004030F400790886007A088700740824
:101952008105790886007A08870081157908860052
:101962007A088700811770080319B82CB92CD22C79
:101972007835B73E860001308700403FF400413F92
:10198200F50004307406F60000307506F70078356D
:10199200B73E8600013087007608C03F7708C13F16
:1019A200EA2C78352A3E860002308700403FF40058
:1019B200413FF50004307406F60000307506F7006A
:1019C20078352A3E8600023087007608C03F7708C5
:1019D200C13F7A08F1007908F00008008030200049
:1019E2005006031DF52CF62C792DC030F00070083E
:1019F2002100BB00652D8D302100B9009830BA005E
:101A02000030BD001230BC00792D5208031D0A2D92
:101A12000B2D3A2D5208F000F101F035F10DB330E3
:101A2200700784009830713D8500003F2100B900A5
:101A3200013FBA003A08F1003908F000023070079D
:101A4200840071080318710A85000008F200720808
:101A5200BC003A08F1003908F00003307007840036
:101A620071080318710A85000008F2007208BD00AF
:101A7200792D2100BB01792D043052020318422D29
:101A8200432D5F2D5208F000F101F035F10D9F302A
:101A9200700784009830713D8500003F2100B90035
:101AA200013FBA00390884003A0885000008F000B6
:101AB200F1017008BC007108BD00792D2100BB0145
:101AC200792D2100BB01792D20005308F000F1018E
:101AD2007108003A03196E2D622D7008013A03193C
:101AE200FC2C033A0319062D013A03193D2D622DF0
:101AF20008002100BB170E302000E8009930E700F3
:101B0200E901670886006808870081010130E7075C
:101B12000030E83D0130E6006608E907023069025C
:101B2200031C942D952D822D2030F0000030F10001
:101B32000030F200F3003030F4000030F50085315F
:101B4200C9258D313D000E172000EA016A08C43E06
:101B520086000130870081016A08C13E860001309B
:101B6200870081010130E6006608EA0703306A0255
:101B7200031CBC2DBD2DA72DED30F0000130F1006E
:101B82000030F200F3000230F4000030F50085313D
:101B9200C9258D313D000E1328302300B7000030D7
:101BA200B80020302000E60066082100C400440886
:101BB200BE00FF39031D0030BF0020005208E600BE
:101BC20066082100C7004708031DE82DE92DF02D06
:101BD20010302000E60066082100C500062E013004
:101BE2002000E0000030E100C730E2000030E300F6
:101BF2000130E4000030E500883101208D312030D1
:101C02002000E60066082100C50008003D000E1213
:101C12002100BB1B0D2E0E2E572E2300B21F122E9B
:101C2200132E252E0230F50075082100C200230074
:101C32006308031D1D2E1E2E212E89312C218E316B
:101C42002300E501E601A82E21003E08013EF50031
:101C520000303F3DF60075088600760887000830A0
:101C620081005030F5000030F6003E0886003F0843
:101C7200870042317508C03F7608C13F3E088600A2
:101C82003F0887000C3081003E0886003F0887002D
:101C92008117230037088600380887000430810046
:101CA20037088600380887008117A82E2000D01F29
:101CB2005B2E5C2E762E0130F50075082100C200E5
:101CC20023006408031D662E672E6A2E89312C219B
:101CD2008E312300E501E6016708031D712E722E85
:101CE200A82E8A3163228E31A82E0230F5007508A3
:101CF2002100C2003E08013EF50000303F3DF600E3
:101D02007508860076088700083081005030F5009B
:101D12000030F6003E0886003F0887004231750811
:101D2200C03F7608C13F3E0886003F088700043066
:101D320081003E0886003F08870081172300E501E5
:101D4200E6016708031DA62EA72EA82E722E0800F4
:101D5200210012113D009301900198010E30F20012
:101D62009930F100F3017108860072088700810141
:101D72000130F1070030F23D0130F0007008F30746
:101D820002307302031CC62EC72EB42E16303D003D
:101D920091009F3097007B309200F4017408F000AC
:101DA2000130F035FF3E031DD22E7035203E8600F5
:101DB20087010030C03F0030C13FC23FC33F013006
:101DC200F0007008F4070C307402031CE92EEA2EAE
:101DD200CF2E3D000E1796010E120E13F730F000B3
:101DE200700890052100BB012300B201B301B401C8
:101DF2003D009019FD2EFE2EEF2E0130F0007008EE
:101E02002300E6000130F0007008E500E401E30180
:101E1200EA01F4017435B73E8600013087000030D4
:101E2200C03FC13F74352A3E860002308700003031
:101E3200C03FC13F7408C43E860001308700810163
:101E42007408C13E86000130870081010130F00034
:101E52007008F40703307402031C302F312F0B2F4C
:101E620028302300B7000030B80016303D0098003B
:101E720000302000A3005030A2000830A10004303E
:101E8200F0007008A000A0172100C7010030230055
:101E9200C0000030BF000030BE000030BD00E201D3
:101EA2002100C50108002100440886008701413F46
:101EB200F5007508F200F301730823003402031DD4
:101EC200642F720833020318672F682F6C2F3308B0
:101ED200F2007208F5007508F200F3017208B3020D
:101EE2007308B43BF401892F7408583E86008701B9
:101EF2000108F20030088600023087007208810073
:101F02000130F2007208B0070130F2007208F407E3
:101F120075087402031C8E2F8F2F752F330834041B
:101F22000319942F952FCE2F21003E08013EF20077
:101F320000303F3DF30072088600730887000830C6
:101F420081005830F2000030F3003E0886003F085E
:101F5200870042317208C03F7308C13F44088600BF
:101F62008701011BB52FB62FC22F3E0886003F08FE
:101F72008700483081003E0886003F0887008117AD
:101F8200FF2F3E0886003F088700083081003E0888
:101F920086003F0887008117FF2F21003E08013E7F
:101FA200F20000303F3DF30072088600730887009C
:101FB200083081005030F2000030F3003E08860005
:101FC2003F08870042317208C03F7308C13F3E0894
:101FD20086003F088700043081003E0886003F08E3
:101FE20087008117230035083608B2136708031DDE
:0E1FF200FB2FFC2FFF2F8A3163228F31080056
:102ACE001630210097000800240016149531772542
:102ADE00953108002400161595317725953108009B
:102AEE002000911D7B2D7C2D772D91110800A0309B
:102AFE0021009E009F019B019C0101309D0008005A
:102B0E00210026082400E800210025082400E70003
:102B1E000800210026082300C800210025082300F4
:102B2E00C700080024009401083095009601133068
:102B3E009200200091112400951608006400800177
:102B4E0001310130FE020030FF3B7F087E04031D81
:102B5E00A62D0034FE0012001E000130FE020030D1
:102B6E00FF3B7F087E04031DB22D00347C30210014
:102B7E009900980127009B012200960121001A1F3F
:102B8E00C92DCA2DC52D080095316B259531A03064
:102B9E008731F52795312400161BD62DD72DCB2D39
:102BAE0095317125953108009631A62695319531CE
:102BBE00BD25953195316725953186319326953111
:102BCE0095317E2595319531F12595319631262613
:102BDE009531080021001508C039123895000630CD
:102BEE002000950006302100A70027082300D900F9
:102BFE000B118B16FE302100A5000730A600953173
:102C0E0090259531080001302300BD070030BE3DF0
:102C1E000030BF3D0030C03D6A08031D172E182E30
:102C2E00252E0130F0007008E2076208031D202EE9
:102C3E00212E252EFF30F0007008E2000800210042
:102C4E004508031D2B2E2C2E432E3D008E01920186
:102C5E00163091009F3097007B30920021001215A4
:102C6E00392E8E153D008E1D3D2E3E2E382E0130F6
:102C7E002100A5002508C50008003D001215EF3003
:102C8E002000E60066083D0090058E1401302000FD
:102C9E00E60066082300EA00E20175302000E0003D
:102CAE000030E1000030E2000030E3000030E400CC
:102CBE00E5008831012096310800003401340234D9
:102CCE0003340434053406340734083409340A3422
:102CDE000B340C340D340E340F34103411341234D2
:102CEE0013341434153416341734183419341A3482
:102CFE001B341C341D341E341F342300EA0174307F
:102D0E002000E0000030E1000030E2000030E3007F
:102D1E000030E400E5008831012096313D008E1030
:102D2E0012119F2EFB302000E60066083D00900534
:102D3E001019A22EA32E992E2300E20108002200C4
:102D4E008C018D018E01303021008C00F0308D0011
:102D5E00FF308E00CC3023008E008D018C012400BC
:102D6E008D018C012100951722009D0127009312E1
:102D7E009216911600302100A5000030A600953164
:102D8E00872596310800FC00771DCE2ECF2ED42E2F
:102D9E00F0017C089731BC279631F71CD72ED82E20
:102DAE00DE2EF001F00A7C089731BC2796317C08A4
:102DBE00983EF800F9010E30F93D7808FA007908CE
:102DCE00FB007A0886007B088700770881000800E0
:102DDE003D00181CF32EF42E172F210044088600F8
:102DEE00870180300106031DFD2EFE2E152F2300B8
:102DFE00370886003808870084300106031D082F27
:102E0E00092F152F0C30F000210044088600870191
:102E1E007008810044088600870181173D00181054
:102E2E00DF30F000700890050800F8007108F60019
:102E3E007008F5007808F4007408F9003D2F750845
:102E4E008600760887000108F4007408F700013048
:102E5E00F5070030F63D7708F40079088600870103
:102E6E00740881000130F4007408F9070130F20291
:102E7E000030F33B720A031D482F730A031D482FBF
:102E8E00492F262F080000302400C3000030C20056
:102E9E004B30C1000030C000C401C5010830FD0038
:102EAE007D08C6002300E1011A30FD007D08F70001
:102EBE0001309631CA2697311E30FD007D08F7008D
:102ECE0002309631CA269731F001C030F100203021
:102EDE00F2004030FD007D08F30002308C31652495
:102EEE00973171082300D0007008CF00CD01CE01BC
:102EFE002100C0010800023021004206031D882F68
:102F0E00892F8D2F8F3154279731BB2FC20123006C
:102F1E006908031D932F942FBA2F21003E08013EFE
:102F2E00F60000303F3DF7007608860077088700F0
:102F3E00083081005030F6000030F7003E08860061
:102F4E003F08870042317608C03F7708C13F3E08F0
:102F5E0086003F0887000C3081003E0886003F083F
:102F6E0087008117BB2FE9010800F5002030F10022
:102F7E007108F6007008F1000130F135890BC42F8D
:102F8E007508F2000130F235FF3E031DCA2F72356F
:102F9E007107F3000130F335FF3E031DD22F733559
:102FAE00F4007408F607760886008701811370080E
:102FBE00031DE22FE32FED2F75352A3E86000230DA
:102FCE0087007608C03F0030C13FF62F7535B73EFB
:102FDE008600013087007608C03F0030C13F76087A
:102FEE008600870101137608043E860087010117CB
:102FFE0008000934023443340034023401340034FE
:10300E00C034323409340434003400340134023410
:10301E0002340134003405342434003410340134C5
:10302E000434243402340234053424340634003497
:10303E0001340534243401340034013407340534AA
:10304E00813403340A340034023409340434013434
:10305E00003402340A3400340034003407340534AA
:10306E0002340234403400340034073405348234E0
:10307E000234403400340034343403344D340034DC
:10308E006934003463340034723400346F340034E5
:10309E0063340034683400346934003470340034DE
:1030AE002034003454340034653400346334003436
:1030BE00683400346E3400346F3400346C340034B1
:1030CE006F340034673400347934003420340034E3
:1030DE00493400346E340034633400342E340034FA
:1030EE0016340334533400346D34003461340034F8
:1030FE0072340034743400342034003453340034C9
:10310E00683400346F3400346534003412340134C2
:10311E00003402340234003400340834D834043419
:10312E000A340034003401340134023403340134DF
:10313E00AF3498344334983477349834A734983471
:10314E00083403343134003432340034343400342F
:0C315E0004340334093404340034983481
:020000040001F9
:04000E00E43FFF3F8D
:00000001FF
