:020000040000FA
:0400000080314E28D5
:100008007E1480318B1E09280A2812280B1D0D2802
:100018000E2812288B31B02380314C280B1F15284D
:1000280016284C282100121D1A281B2827282000D2
:10003800121D1F28202827282300C701C801863140
:10004800C92680314C288B1D2A282B284C282700AC
:10005800931E2F2830284C2801302100A5002508A0
:100068002300D5008B11270093122300520803198F
:100078003E283F28462801302100A50025082300F6
:10008800D1004C2801302100A50025082300D2000A
:100098007E10090080315028293084008530850081
:1000A80050308600223087000130FF00A0309D319B
:1000B80030258031B7308400003085001330FE00D1
:1000C8000030FF009D3124258031B030840001309C
:1000D80085004030FE000030FF009D31242580312E
:1000E80020308400023085002D30FE000030FF00F3
:1000F8009D3124258031A0308400023085004030B5
:10010800FE000030FF009D3124258031203084001E
:10011800033085004030FE000030FF009D3124256B
:1001280080317E1020008D316D2D2100B6003608FB
:10013800031D9F28A028E32909309D315A258031C5
:1001480021001B08A800A9010530A835A90D890BB5
:10015800A9281C08AA00AB010D30AA35AB0D890BE4
:10016800B12828082A04AC0029082B04AD0044084B
:10017800AE00AF01AE35AF0D4508B000B101B00E0D
:10018800B10EF030B10530080F39B104F030B005C8
:100198005030B2002230B30030083207B4003108C2
:1001A800333DB5002E08340786002F08353D8700FB
:1001B8002C08C03F2D08C13F08309D315A25803199
:1001C80021001C08A800A901A835A90DA835A90D6A
:1001D800A835A90D4408AA00AB01AA35AB0D4508FE
:1001E800AC00AD01AC0EAD0EF030AD052C080F39EA
:1001F800AD04F030AC055030AE002230AF002C0812
:100208002E07B0002D082F3DB1002A0830078600C0
:100218002B08313D870028088104413129088104D1
:100228001B08A8000530A836890B17292808A9003B
:10023800AA014408AB00AC01AB35AC0D4508AD00D4
:10024800AE01AD0EAE0EF030AE052D080F39AE047E
:10025800F030AD055030AF002230B0002D082F0728
:10026800B1002E08303DB2002B08310786002C085B
:10027800323D87002908810441312A088104013070
:10028800A8002808C4071B08A800A9010A30A83537
:10029800A90D890B4B294408AA00AB01AA35AB0D5F
:1002A8004508AC00AD01AC0EAD0EF030AD052C0824
:1002B8000F39AD04F030AC055030AE002230AF003D
:1002C8002C082E07B0002D082F3DB1002A08300752
:1002D80086002B08313D87002808C03F2908C13F08
:1002E80007309D315A25803121004408A800A90112
:1002F800A835A90D4508AA00AB01AA0EAB0EF0302F
:10030800AB052A080F39AB04F030AA055030AC0011
:100318002230AD002A082C07AE002B082D3DAF0077
:1003280028082E07860029082F3D87001B0881040E
:1003380041311C0881040130A8002808C407063090
:100348009D315A25803121001B08A800A9010530DC
:10035800A835A90D890BAC291C08AA00AB010D30E2
:10036800AA35AB0D890BB42928082A04AC00290842
:100378002B04AD004408AE00AF01AE35AF0D450803
:10038800B000B101B00EB10EF030B10530080F3930
:10039800B104F030B0055030B2002230B30030085C
:1003A8003207B4003108333DB5002E083407860003
:1003B8002F08353D87002C08C03F2D08C13F360364
:1003C800031DE729E829722B09309D315A25803110
:1003D80021001C08A800A901A835A90DA835A90D58
:1003E800A835A90D4408AA00AB01AA35AB0D4508EC
:1003F800AC00AD01AC0EAD0EF030AD052C080F39D8
:10040800AD04F030AC055030AE002230AF002C08FF
:100418002E07B0002D082F3DB1002A0830078600AE
:100428002B08313D870028088104413129088104BF
:100438001B08A8000530A836890B1F2A2808A90020
:10044800AA014408AB00AC01AB35AC0D4508AD00C2
:10045800AE01AD0EAE0EF030AE052D080F39AE046C
:10046800F030AD055030AF002230B0002D082F0716
:10047800B1002E08303DB2002B08310786002C0849
:10048800323D87002908810441312A08810401305E
:10049800A8002808C4071B08A800A9010A30A83525
:1004A800A90D890B532A4408AA00AB01AA35AB0D44
:1004B8004508AC00AD01AC0EAD0EF030AD052C0812
:1004C8000F39AD04F030AC055030AE002230AF002B
:1004D8002C082E07B0002D082F3DB1002A08300740
:1004E80086002B08313D87002808C03F2908C13FF6
:1004F80008309D315A25803121004408A800A901FF
:10050800A835A90D4508AA00AB01AA0EAB0EF0301C
:10051800AB052A080F39AB04F030AA055030AC00FF
:100528002230AD002A082C07AE002B082D3DAF0065
:1005380028082E07860029082F3D87001B088104FC
:1005480041311C0881040130A8002808C40707307D
:100558009D315A25803121001C08A800A9010D30C1
:10056800A835A90D890BB42A4408AA00AB01AA35FD
:10057800AB0D4508AC00AD01AC0EAD0EF030AD05CD
:100588002C080F39AD04F030AC055030AE002230E5
:10059800AF002C082E07B0002D082F3DB1002A0807
:1005A800300786002B08313D87002808C03F2908FE
:1005B800C13F1B08A800A9010530A835A90D890B62
:1005C800E12A4408AA00AB01AA35AB0D4508AC00E6
:1005D800AD01AC0EAD0EF030AD052C080F39AD04F1
:1005E800F030AC055030AE002230AF002C082E079A
:1005F800B0002D082F3DB1002A08300786002B08CF
:10060800313D8700280881044131290881040630DA
:100618009D315A25803121001C08A800A901A83560
:10062800A90DA835A90DA835A90D4408AA00AB0144
:10063800AA35AB0D4508AC00AD01AC0EAD0EF030DF
:10064800AD052C080F39AD04F030AC055030AE00C4
:100658002230AF002C082E07B0002D082F3DB10026
:100668002A08300786002B08313D870028088104B6
:100678004131290881041B08A8000530A836890BD8
:10068800422B2808A900AA014408AB00AC01AB35ED
:10069800AC0D4508AD00AE01AD0EAE0EF030AE05A6
:1006A8002D080F39AE04F030AD055030AF002230C0
:1006B800B0002D082F07B1002E08303DB2002B08DE
:1006C800310786002C08323D870029088104413112
:1006D8002A0881040130A8002808C4070330360618
:1006E800031D772B782B282D1B08A800A9010A3099
:1006F800A835A90D890B7C2B4408AA00AB01AA35A3
:10070800AB0D4508AC00AD01AC0EAD0EF030AD053B
:100718002C080F39AD04F030AC055030AE00223053
:10072800AF002C082E07B0002D082F3DB1002A0875
:10073800300786002B08313D87002808C03F29086C
:10074800C13F09309D315A25803121001C08A8007D
:10075800A9012808A900A8014408AB00AC01AB35E1
:10076800AC0D4508AD00AE01AD0EAE0EF030AE05D5
:100778002D080F39AE04F030AD055030AF002230EF
:10078800B0002D082F07B1002E08303DB2002B080D
:10079800310786002C08323D870028088104413142
:1007A800290881041B08A800A9014408AA00AB0174
:1007B800AA35AB0D4508AC00AD01AC0EAD0EF0305E
:1007C800AD052C080F39AD04F030AC055030AE0043
:1007D8002230AF002C082E07B0002D082F3DB100A5
:1007E8002A08300786002B08313D87002808810435
:1007F8004131290881040130A8002808C4070830BD
:100808009D315A25803121001C08A800A9010D300E
:10081800A835A90D890B0C2C4408AA00AB01AA35F0
:10082800AB0D4508AC00AD01AC0EAD0EF030AD051A
:100838002C080F39AD04F030AC055030AE00223032
:10084800AF002C082E07B0002D082F3DB1002A0854
:10085800300786002B08313D87002808C03F29084B
:10086800C13F1B08A800A9010530A835A90D890BAF
:10087800392C4408AA00AB01AA35AB0D4508AC00D9
:10088800AD01AC0EAD0EF030AD052C080F39AD043E
:10089800F030AC055030AE002230AF002C082E07E7
:1008A800B0002D082F3DB1002A08300786002B081C
:1008B800313D870028088104413129088104073027
:1008C8009D315A25803121001C08A800A901A835AE
:1008D800A90DA835A90DA835A90D4408AA00AB0192
:1008E800AA35AB0D4508AC00AD01AC0EAD0EF0302D
:1008F800AD052C080F39AD04F030AC055030AE0012
:100908002230AF002C082E07B0002D082F3DB10073
:100918002A08300786002B08313D87002808810403
:100928004131290881041B08A8000530A836890B25
:100938009A2C2808A900AA014408AB00AC01AB35E1
:10094800AC0D4508AD00AE01AD0EAE0EF030AE05F3
:100958002D080F39AE04F030AD055030AF0022300D
:10096800B0002D082F07B1002E08303DB2002B082B
:10097800310786002C08323D87002908810441315F
:100988002A0881040130A8002808C4071B08A80009
:10099800A9010A30A835A90D890BCE2C4408AA0054
:1009A800AB01AA35AB0D4508AC00AD01AC0EAD0EE0
:1009B800F030AD052C080F39AD04F030AC055030DF
:1009C800AE002230AF002C082E07B0002D082F3DB6
:1009D800B1002A08300786002B08313D8700280817
:1009E800C03F2908C13F06309D315A25803121007A
:1009F8004408A800A901A835A90D4508AA00AB011B
:100A0800AA0EAB0EF030AB052A080F39AB04F03054
:100A1800AA055030AC002230AD002A082C07AE00E1
:100A28002B082D3DAF0028082E07860029082F3DEA
:100A380087001B08810441311C0881040130A8008B
:100A48002808C507C4011D1008000034003401340B
:100A580000340234003403340034043400340534E0
:100A680000340634003407340034083400340934C0
:100A780000340A3400340B3400340C3400340D34A0
:100A880000340E3400340F34003410340034113480
:100A98000034123400341334003414340034153460
:100AA8000034163400341734003418340034193440
:100AB80000341A3400341B3400341C3400341D3420
:100AC80000341E3400341F34003420340034213400
:100AD80000342234003423340034243400342534E0
:100AE80000342634003427340034283400342934C0
:100AF80000342A3400342B3400342C3400342D34A0
:100B080000342E3400342F3400343034003431347F
:100B1800003432340034333400343434003435345F
:100B2800003436340034373400343834003439343F
:100B380000343A3400343B3400343C3400343D341F
:100B480000343E3400343F340034403400344134FF
:100B580000344234003443340034443400344534DF
:100B680000344634003447340034483400344934BF
:100B780000344A3400344B3400344C3400344D349F
:100B880000344E3400344F3400345034003451347F
:100B9800003452340034533400345434003455345F
:100BA800003456340034573400345834003459343F
:100BB80000345A3400345B3400345C3400345D341F
:100BC80000345E3400345F340034603400346134FF
:100BD80000346234003463340034643400346534DF
:100BE80000346634003467340034683400346934BF
:100BF80000346A3400346B3400346C3400346D349F
:100C080000346E3400346F3400347034003471347E
:100C1800003472340034733400347434003475345E
:100C2800003476340034773400347834003479343E
:100C380000347A3400347B3400347C3400347D341E
:100C480000347E3400347F340034803400348134FE
:100C580000348234003483340034843400348534DE
:100C680000348634003487340034883400348934BE
:100C780000348A3400348B3400348C3400348D349E
:100C880000348E3400348F3400349034003491347E
:100C9800003492340034933400349434003495345E
:100CA800003496340034973400349834003499343E
:100CB80000349A3400349B3400349C3400349D341E
:100CC80000349E3400349F340034A0340034A134FE
:100CD8000034A2340034A3340034A4340034A534DE
:100CE8000034A6340034A7340034A8340034A934BE
:100CF8000034AA340034AB340034AC340034AD349E
:100D08000034AE340034AF340034B0340034B1347D
:100D18000034B2340034B3340034B4340034B5345D
:100D28000034B6340034B7340034B8340034B9343D
:100D38000034BA340034BB340034BC340034BD341D
:100D48000034BE340034BF340034C0340034C134FD
:100D58000034C2340034C3340034C4340034C534DD
:100D68000034C6340034C7340034C8340034C934BD
:100D78000034CA340034CB340034CC340034CD349D
:100D88000034CE340034CF34003421004803031D2E
:100D9800CE2ECF2EDC2E3D008E1AD32ED42EDC2E56
:100DA80090011214121602302100A2002208C80075
:100DB8003D00101DE02EE12EEE2E121DE42EE52E34
:100DC800EE2EFB302100A20022083D0090059D3147
:100DD800DF2586313D008E1CF22EF32EF62E2000E4
:100DE8001211E82F101CF92EFA2E0C2F121CFD2EB2
:100DF800FE2E0C2F88311C2086312100121504305C
:100E0800A2002208C800FE30A20022083D0090057A
:100E1800101E0F2F102F172F121E132F142F172FDE
:100E28009D31BF2586313D00101F1B2F1C2F492FD8
:100E3800121F1F2F202F302F73302000E0000030AA
:100E4800E1000030E2000030E3000130E40000304F
:100E5800E5009E319F268631BF302100A20022087E
:100E68003D0090058831002086312300650803196C
:100E78003E2F3F2F412F0130E5026508031D452F06
:100E8800462F492F9231B72286313D00901E4D2FB3
:100E98004E2F552F921E512F522F552F9031022031
:100EA80086313D00901C592F5A2F702F921C5D2FB0
:100EB8005E2F702FFF302000E0007F30E10000300F
:100EC800E2000030E3000130E4000030E5009E312C
:100ED8009F2686313D009301043021004802031803
:100EE800762F772F7A2F20001211E82F3D00921DC0
:100EF8007E2F7F2FE62F2100A4013D00901D852F16
:100F0800862FE62F0F082100A2002208C900490CED
:100F1800A200A20C220C0F39A30023082300E7002B
:100F2800F7302100A20022083D0090052100491950
:100F38009E2F9F2FB12F23006708BB3E86000130EC
:100F48008700010801392100A2000130A20601082A
:100F58002206FE3922068100C22F23006708BE3E02
:100F6800860001308700010801392100A200013004
:100F7800A20601082206FE3922068100230067081E
:100F8800031DC72FC82FCC2F9031C5208631DB2FEA
:100F980072302000E0000030E100C930E20000308B
:100FA800E3000030E400E5009E319F2686310130E1
:100FB8002100A2002208A40704302402031CE52F04
:100FC800E62F812F2000121108009E31012687315B
:100FD8009D313C2587319C31C92487318931712164
:100FE80087319C31F42487319D316D2587319D31BE
:100FF800A12587310800080001302300B707003019
:10100800B83D0030B93D0030BA3D6808031D0D28D1
:101018000E281B280130F0007008DF075F08031D49
:10102800162817281B28FF30F0007008DF0008007A
:10103800210012113D009301900198010E30F20039
:101048009930F100F3017108860072088700810168
:101058000130F1070030F23D0130F0007008F3076D
:1010680002307302031C39283A28272816303D001D
:1010780091009F3097007B309200F4017408F000D3
:101088000130F035FF3E031D45287035203E8600AF
:1010980087010030C03F0030C13FC23FC33F01302D
:1010A800F0007008F4070C307402031C5C285D28FB
:1010B80042283D000E1796010E120E13F730F0006D
:1010C800700890052100BF012300B201B301B401EB
:1010D8003D0090197028712862280130F0007008CE
:1010E8002300E3000130F0007008E200E101E001B4
:1010F800E801F4017435B73E860087010030C03F2F
:10110800C13F74352A3E8600023087000030C03F58
:10111800C13F7408BE3E8600013087008101740813
:10112800BB3E86000130870081010130F000700865
:10113800F40703307402031CA228A3287E28283051
:101148002100B7000030B80016303D00980000308C
:101158002000A3005030A2000830A1000430F000A5
:101168007008A000A0172300EF010030BA0000307B
:10117800B9000030B8000030B700DF012100C80115
:1011880008002100470886008701413FF5007508DF
:10119800F200F301730823003402031DD5287208F6
:1011A80033020318D828D928DD283308F20072083A
:1011B800F5007508F200F3017208B3027308B43B36
:1011C800F401FA287408583E860087010108F200E5
:1011D8003008860002308700720881000130F20072
:1011E8007208B0070130F2007208F407750874023B
:1011F800031CFF280029E6283308340403190529AD
:1012080006293F2921004208013EF2000030433DF3
:10121800F300720886007308870008308100583090
:10122800F2000030F300420886004308870042318C
:101238007208C03F7308C13F470886008701011B39
:101248002629272933294208860043088700483081
:1012580081004208860043088700811770294208E8
:10126800860043088700083081004208860043084A
:1012780087008117702921004208013EF2000030E2
:10128800433DF30072088600730887000830810028
:101298005030F2000030F30042088600430887000F
:1012A80042317208C03F7308C13F420886004308B4
:1012B80087000430810042088600430887008117B0
:1012C800230035083608B2136408031D6C296D29FC
:1012D80070299231B72288310800210012113D008F
:1012E8009301900198010E302100A8009930A700C1
:1012F800A901270886002808870081010130A7076F
:101308000030A83D0130A6002608A90702302902AE
:10131800031C8F2990297D2916303D0091009F30AC
:1013280097007B3092002100AA012A08A60001300C
:10133800A635FF3E031D9C292635203E86008701E1
:101348000030C03F0030C13FC23FC33F0130A6005C
:101358002608AA070C302A02031CB329B4299929A4
:101368003D000E1796010E120E13F7302100A6004D
:1013780026083D0090052100BF012300B201B301FA
:10138800B4013D009019C929CA29B92901302100A1
:10139800A60026082300E30001302100A600260845
:1013A8002300E200E101E001E8012100AA012A3559
:1013B800B73E860087010030C03FC13F2A352A3E2C
:1013C8008600023087000030C03FC13F2A08BE3E79
:1013D80086000130870081012A08BB3E8600013063
:1013E800870081010130A6002608AA0703302A02D7
:1013F800031CFF29002ADB292830B7000030B80079
:1014080016303D00980000302000A3005030A200A4
:101418000830A10004302100A60026082000A00002
:10142800A0172300EF010030BA000030B9000030E7
:10143800B8000030B700DF012100C80108001F30E4
:1014480021002705AB0000302805AC002B082C0430
:1014580003192F2A302A312AE52A2400CF01210036
:101468002808AB002B082400CD0021002708AB007A
:101478002B082400CE0020302100A7070030A83D0B
:101488009C31D3248A31A0309D310F258A31240024
:101498004D089D310F258A3124004E089D310F25B6
:1014A8008A312400D001D10151082100AB00AC01E0
:1014B800AB35AC0D24004F082100AD00AE01AD35B1
:1014C800AE0D2400500821002D07AF002E08031888
:1014D8002E0AB000AF0EB00EF030B0052F080F394D
:1014E800B004F030AF052F082907B10030082A3DB5
:1014F800B2002B08310786002C08323D8700403F98
:10150800B300413FB40034089D310F258A312400CF
:1015180051082100AB00AC01AB35AC0D24004F08DD
:101528002100AD00AE01AD35AE0D240050082100FC
:101538002D07AF002E0803182E0AB000AF0EB00E0C
:10154800F030B0052F080F39B004F030AF052F0880
:101558002907B10030082A3DB2002B083107860060
:101568002C08323D870001089D310F258A31013052
:101578002100AB002B082400D10708305102031CBE
:10158800C62AC72A582A01302100AB002B0824009C
:10159800D00702305002031CD22AD32A572A9C3182
:1015A800D9248A319D314A258A3101302100AB0086
:1015B8002B082400CF070D304F02031CE42AE52A2C
:1015C800332A08007108FD007008FC0074087504CF
:1015D800031DEF2AF02AF12AAF2B7C0886007D082C
:1015E80087007208810074087C07F60075087D3D45
:1015F800F7007608FF3EF800FF30773DF9007808DD
:10160800860079088700720881000030750203306F
:10161800031974020318112B122B132BAF2B7C0800
:10162800013EF60000307D3DF70076088600770819
:101638008700720881007C08023EF60000307D3D7C
:10164800F70076088600770887007208810074081A
:101658007C07F60075087D3DF7007608FE3EF80029
:10166800FF30773DF900780886007908870072080E
:10167800810074087C07F60075087D3DF700760840
:10168800FD3EF800FF30773DF900780886007908BC
:101698008700720881000030750207300319740250
:1016A8000318572B582B592BAF2B7C08033EF600F9
:1016B80000307D3DF70076088600770887007208BD
:1016C800810074087C07F60075087D3DF7007608F0
:1016D800FC3EF800FF30773DF9007808860079086D
:1016E80087007208810000307502093003197402FE
:1016F80003187F2B802B812BAF2B7C09F6007D09EB
:10170800F700F60A0319F70A03307605FA000030E5
:101718007705FB007A08FC077B08FD3D7A08F40290
:101728007B08F53BFC30F405FF30F505A92B7C0858
:1017380086007D088700720881000130F4020030BD
:10174800F53B0130FC070030FD3D74087504031DAE
:10175800AE2BAF2B9B2B08000B1123004F0820004A
:1017680095002400340835040319BB2BBC2BC12B6E
:1017780035088A0034080A008B31230055080319FC
:10178800C62BC72BD72B0130F0007008D4070A30BE
:101798005406031DD02BD12BD72B270093128B1562
:1017A8002300D501D4015008031DDB2BDC2B5A2C58
:1017B8000130C5070030C63D88304506133003198F
:1017C8004606031DE82BE92BEB2B21008E12640043
:1017D8009C3023004506133003194606031DF52BDC
:1017E800F62BFB2B21008E162300C501C601013004
:1017F800C7070030C83D3C30470673300319480618
:10180800031D072C082C0A2C21008E1230302300CF
:101818004706753003194806031D132C142C222C77
:101828005308031D182C192C222C21008E16230076
:10183800C701C8010130F0007008DA000130240047
:10184800B6070030B73D3708803AF00080307002A4
:10185800031D302C19303602031C332C342C852CF4
:10186800230051080319392C3A2C562C4408803A85
:10187800F00080307002031D432C4E3043020318E1
:10188800462C472C512C01302300C3070030C43D9F
:101898000130F0007008D700562C0130F0007008B5
:1018A8002300D9002400B601B701852C0130C507F3
:1018B8000030C63DE8304506033003194606031DCF
:1018C800662C672C762C21008E120130F0007008EF
:1018D8002300D8070B305806031D732C742C762C64
:1018E800D001D8014C304506043003194606031DC3
:1018F8007E2C7F2C852C640021008E162300C501C8
:10190800C601080021001211230049084A040319DE
:101918008E2C8F2C9A2C490886004A088700811F34
:10192800962C972C9A2C210012156C2D033021002F
:101938004606031DA02CA12CA22CC6014608031D97
:10194800A62CA72CA92C12156C2D02304606031DB7
:10195800AE2CAF2CC82CA601A60A0030A700003078
:10196800A800A90102309531C1258C312100270832
:101978002300CA00210026082300C90003302100E3
:10198800B1003108C6006A2D4603031DCC2CCD2CAE
:101998006A2D413023005D02031CD32CD42CDA2C91
:1019A80040302100B1003108B300DF2C5D08210070
:1019B800B1003108B300330823005D022100B100F3
:1019C80031082300DD0020302400BB008030BA003D
:1019D80021003308B1003108B20023005C08031D60
:1019E800F62CF72C372D142D24003C0884003D08D4
:1019F800850000082100B10024003A0886003B0851
:101A0800870021003108810001302400BA07003026
:101A1800BB3D0130BC070030BD3D01302100B202A2
:101A280021003208031D192D1A2DF82C3D2D2400F4
:101A38003C0884003D08850000082100B10024000E
:101A48003A0886003B0887002100310881000130F0
:101A58002400BA070030BB3D0130BC070030BD3D53
:101A680001302100B20221003208031D3C2D3D2D1A
:101A78001B2D23005D08031D422D432D532D40309F
:101A880021003306031D492D4A2D4F2D0230B10088
:101A98003108C600532D0330B1003108C6002100BB
:101AA800A601A60A8030A7002030A8003308B1009C
:101AB8003108A90002309531C1258C312100270851
:101AC8002300CA00210026082300C900210012159E
:101AD80008002400D3018731E9278D319D3118256D
:101AE8008D319F317D278D318B170B1723005708B8
:101AF80003197F2D802DA82DD7014E08031D852D94
:101B0800862D912D0030803199208D3101302400AF
:101B1800D20052082300CE07A82D4E03031D952D91
:101B2800962D9B2D0130803199208D318A2D0230E0
:101B38004E06031DA02DA12DA82D0330803199201C
:101B48008D312300CE01A82D5A080319AC2DAD2DD7
:101B5800D12DDA014408803A2400D20080305202A4
:101B6800031DB92D013023004302031CBC2DBD2DDC
:101B7800C32D230056080319C22DC32DAE2D2700EF
:101B880093128B152300D201D10163002700931211
:101B98002300D601D901C301C40159080319D52D61
:101BA800D62D012E5608031DDA2DDB2D012ED90165
:101BB8000F304202FF3003194102031CE42DE52DCA
:101BC800E72DC101C20142082100A80023004108F5
:101BD8002100A7005030A9002230AA008A31232210
:101BE8008D31A0302300C1070130C23D01302400EF
:101BF800D20052082300D600D3012100B101B10A56
:101C0800543091317C218D316B3024005406031DF2
:101C18000E2E0F2E462E6E30D2005208D40023000E
:101C2800C101C20101302400D20052082300D000B3
:101C3800CD01C501C60100302100A700A800503021
:101C4800A9002230AA0094312F248D31203023009E
:101C5800C1070030C23D21008E124608031D352EF3
:101C6800362E312E5030A6002230A7002030240016
:101C7800D20052082100A8009D3186258D3121000F
:101C88008E16A22E63305406031D4B2E4C2EA22E08
:101C98006E30D2005208D40023004D080319552E87
:101CA800562E692E21008E124608031D5C2E5D2ECD
:101CB800582EAF30A6009830A7009F3142278D31AB
:101CC80021008E162300D001A22E0F304202E130EF
:101CD800031941020318712E722E9E2E21008E12B6
:101CE800230042082100A800230041082100A70082
:101CF8005030A9002230AA0094312F248D312100C0
:101D08004608031D882E892E832E5030A6002230C7
:101D1800A70020302400D20052082100A8009D31DD
:101D280086258D3121008E1620302300C107003012
:101D3800C23DA22ECD01CD0AC101C2018C3186243B
:101D48008D317A2D80314E2820005203031DAD2E8F
:101D5800AE2EC62E50081F39003A031DB42EB52EDC
:101D6800C62E2100BF17033020005106031DBD2ECB
:101D7800BE2EC42E0130E60066082300E900C62EF8
:101D88002300E90120005208031DCB2ECC2EFF2F83
:101D980050081F39023A031DD22ED32EFF2F5408A4
:101DA8000F39003A0319D92EDA2EFF2F54080F39AC
:101DB800E600033066020318E22EE32EFF2F2030E0
:101DC80021004806031DE92EEA2EFF2FBF17200029
:101DD800D41BEF2EF02E062F54080F3909072A3E80
:101DE800860002308700403FEB00413FEC0054087A
:101DF8000F39BB3E8600013087000108E6006608FF
:101E0800EA001A2F54080F390907B73E86008701E0
:101E1800403FEB00413FEC0054080F39BE3E8600BE
:101E2800013087000108E6006608EA006A181D2FDD
:101E38001E2F292FFB30E600FF30E7006B086605F0
:101E4800EB006C086705EC002F2F04306B04EB00E7
:101E580000306C04EC00D41B322F332F3F2F540872
:101E68000F3909072A3E8600023087006B08C03FF9
:101E78006C08C13F492F54080F390907B73E86003F
:101E880087016B08C03F6C08C13F03305106031D32
:101E98004E2F4F2F752F6B0886006C088700811F07
:101EA800562F572F6A2FD41B5A2F5B2F632F540896
:101EB8000F39BB3E86000130870081146A2F540811
:101EC8000F39BE3E86000130870081146B088600FA
:101ED8006C08870001156B0886006C08870081175D
:101EE800FF2F04306B06EB0000306C06EC006B082B
:101EF80086006C088700811F822F832FA02F7F30D8
:101F0800E6006B0886006C088700660881056B0888
:101F180086006C08870001170530E0000030E100FA
:101F28006C08E3006B08E2000230E4000030E500D2
:101F38009E319F268E31A52F6B0886006C0887007E
:101F48000117043020006B06EB0000306C06EC0033
:101F5800EA18AF2FB02FB82F6B0886006C088700DF
:101F6800811FB72FB82FE32FD41BBB2FBC2FC42F33
:101F780054080F39BB3E8600013087008110CB2FF3
:101F880054080F39BE3E86000130870081103B306F
:101F9800E6006B0886006C08870066088105053036
:101FA800E0000030E1006C08E3006B08E20002305A
:101FB800E4000030E5009E319F268E31EB2F3B3048
:101FC800E6006B0886006C0887006608810520001B
:101FD80054080F39983EE600E7010E30E73D6608E1
:101FE800E8006708E900FE30E6006808860069082E
:081FF80087006608810508005E
:102004003D00181C062807282828210047088600B8
:10201400870180300106031D10281128262837085F
:1020240086003808870084300106031D1A281B28FF
:1020340026280C30F00047088600870170088100CC
:1020440047088600870181173D001810DF30F00033
:102054007008900508002100AB002030A700270875
:10206400AC002608A7000130A735890B36282B08B9
:10207400A8000130A835FF3E031D3C28283527075A
:10208400A9000130A935FF3E031D44282935AA00C3
:102094002A08AC072C088600870181132608031D33
:1020A400542855285F282B352A3E860002308700A5
:1020B4002C08C03F0030C13F67282B35B73E86004F
:1020C40087012C08C03F0030C13F2C0886008701DF
:1020D40001132C08043E8600870101170800230021
:1020E400EC01E401E101E001E601EB017F302000B5
:1020F400EF002100370886003808870020006F08A9
:102104008105043021003706B70000303806B800D6
:102114007F302000EF002100370886003808870050
:1021240020006F088105043021003706B700003015
:102134003806B8007F302000EF00210042088600F6
:102144004308870020006F0881052100BF01C001FA
:10215400C1012300B201B301B40195313925903195
:1021640003302000E0000030E1000030E2000030E5
:10217400E3000030E400E5009E319F269031973162
:102184006127903108002D302100A0002008230091
:10219400E50021004908FD39031DD128D2280E2964
:1021A40049363F39A0000130A035FF3E031DD62833
:1021B4002035203EA1002108C7004708C200FF398E
:1021C400031D0030C30004304206C2000030430641
:1021D400C300470886008701010C890C0F390D3AAA
:1021E400031DF528F6280A294708023E86008701C0
:1021F400403FF000413FF1000830F2000030F300AE
:1022040050309E31712690319031712090311A29CD
:102214009F31092790311A29FD304905A000043067
:102224002006031D162917291A2993312F239031CB
:1022340008002300E101E00102306B06031D23299D
:1022440024294A2921004208013EF3000030433D7D
:10225400F400730886007408870008308100583041
:10226400F3000030F400420886004308870042313E
:102274007308C03F7408C13F4208860043088700C2
:1022840048308100420886004308870081177B2973
:102294002100410820005702031D54292100400851
:1022A400200056020318572958295F29570821008E
:1022B400C100200056082100C0009331AC239131A5
:1022C4005830F3000030F400210037088600380845
:1022D400870042317308C03F7408C13F3708860045
:1022E400380887004830810037088600380887009E
:1022F400811708002100B4002300DE014B084C04C0
:102304000319852986298E294B0886004C088700E5
:10231400811B8D298E29DF294B0886004C088700F4
:102324004131210031080102031899299A29A5296C
:1023340023004B0886004C08870041310108210026
:10234400B2003208B1002300DE01C1295E08C03E9C
:10235400860087012030873D01082100B200230058
:102364005E0821003407B30033088600023087007A
:10237400320881000130B20032082300DE07210058
:10238400310823005E02031CC829C929A829210099
:10239400A601C030A7002030A8004030B2003208A7
:1023A400A90002309531C12591312100270823006D
:1023B400CC00210026082300CB005E080800200082
:1023C400D801D901252A2100BF1723006903031D61
:1023D400EC29ED29392A2000D814392A2100BF1705
:1023E400392A2100BF172000D41BF929FA29062A0B
:1023F40054080F3909072A3E860002308700403FFF
:10240400F200413FF300102A54080F390907B73E80
:1024140086008701403FF200413FF30072088600C6
:1024240073088700811F172A182A392A7208860020
:1024340073088700011D1F2A202A392A0130F00061
:102444007008D800392A50081F39F000F1017108CA
:10245400003A03192E2A392A7008003A0319E5298B
:10246400013A0319F029033A0319F329392A2100FF
:10247400BF1F3D2A3E2A472A5830BD000030BE0007
:102484003F140230F0007008C0000800200050081B
:102494001F39013A03194F2A502A512AB62A500EDD
:1024A400890C0339013A0319582A592A5A2AB62A97
:1024B400540803195E2A5F2A9D2A54030319632AC8
:1024C400642A9D2AB62A3E302100BD000230BE0097
:1024D4000030C1000830C0003F14BF17B62A3E3098
:1024E4002100BD000230BE00BF17B62A57082300E2
:1024F400B400200056082300B3004630F0007008F2
:10250400B000B501B601B217B62A46302100BD00AD
:102514000230BE000030C1000730C000C130F000FE
:102524007008BF00B62A5208F00070082300DB00D0
:102534002100BF17B62A5108F000F1017108003AD2
:102544000319A52AB62A7008003A0319652A013A24
:102554000319712A213A0319782A013A0319872A9F
:10256400033A0319952AB62A080023006308031DB9
:10257400BC2ABD2A2E2B0130F0007008E30062084B
:10258400031DC52AC62A2E2B0130F0007008E20074
:1025940002306B06031DCF2AD02AE32A2100370814
:1025A40086003808870041318101370886003808E1
:1025B4008700483081003708860038088700811773
:1025C4002E2B6B03031DE72AE82A2E2BE601083085
:1025D400F0002100470A860087017008810050300E
:1025E400F0000030F1004708023E860087017008C1
:1025F400C03F7108C13F0430F000470886008701DE
:102604007008810047088600870181170130F000B7
:1026140070082300E60021004208013EF00000306B
:10262400433DF1007008860071088700083081007E
:102634005030F0000030F100420886004308870063
:1026440042317008C03F7108C13F42088600430808
:102654008700803081002E2B080021003708860077
:10266400380887000030011B0130F50004303706BC
:10267400B70000303806B80008304806031D432B65
:10268400442B592B200052087F393D009600160830
:1026940003194D2B4E2B542B1030F30073082100DB
:1026A400C800592B0430F30073082100C80023002C
:1026B4006B03031D5E2B5F2BA32B5830F3000030FC
:1026C400F400210037088600380887004231730877
:1026D400C03F7408C13F9331AC23933102302300CF
:1026E4006C06031D762B772B842B2100370886007C
:1026F40038088700043081003708860038088700CE
:102704008117AB2B7508031D882B892B962B210071
:10271400370886003808870048308100370886006B
:10272400380887008117AB2B21003708860038084A
:102734008700083081003708860038088700811731
:10274400AB2BB21FA62BA72BAA2B35083608B21326
:10275400EB0108000830F0007008F200003021009E
:1027640041020830031940020318B92BBA2BD22BAB
:102774004008F0007008F20023006C08031DC32B0E
:10278400C42BC92B0130F0007008EC00D22B6C0371
:10279400031DCD2BCE2BD22B0230F0007008EC00A1
:1027A4007208F000F10170082100C0027108C13BF9
:1027B4003708013EF0000030383DF1007008860013
:1027C40071088700720881005830F00070082300F7
:1027D400EA0021003F18EF2BF02B292C0A2C2100B2
:1027E4003D0884003E0885000008F00023006A08C4
:1027F400860087017008810001302100BD07003088
:10280400BE3D0130F00070082300EA070130F202F7
:102814007208031D0E2C0F2CF12B2E2C21003D08C9
:1028240084003E0885000008F00023006A08860042
:1028340087017008810001302100BD070030BE3DD2
:102844000130F00070082300EA070130F202720838
:10285400031D2D2C2E2C102C080021002808AB0061
:102864002B08B2002708AB002B08B1009C31D324FD
:102874009431A0309D310F259431210032089D31CF
:102884000F259431210031089D310F2594319C315D
:10289400D3249431A1309D310F2594312100B3010B
:1028A400B4019C31CD249431240011082100AB00E3
:1028B4002B08B2009C31E62494319C31CD24943110
:1028C40021003408AB00AC01AB35AC0D3308AD00CE
:1028D400AE01AD0EAE0EF030AE052D080F39AE04CC
:1028E400F030AD052D082907AF002E082A3DB000B1
:1028F4002B082F0786002C08303D87002400110880
:10290400C03F21003208C13F3308031D8A2C8B2CA1
:102914008F2C9C31E6249431992C0730340203180F
:10292400942C952C962C8B2C9C31ED2494310130D5
:102934002100AB002B08B40708303402031CA32C7D
:10294400A42C532C0130AB002B08B3070230330204
:10295400031CAD2CAE2C522C9C31D924943108008C
:10296400F80070080319B72CB82CC12C7835B73E81
:1029740086008701403FF900413FFA00CA2C7835B0
:102984002A3E860002308700403FF900413FFA00AA
:1029940079087A04031DCF2CD02CD32CF001F1013B
:1029A400382DFF307105F4007F307205F500790889
:1029B40086007A08870042317408C03F7508C13F19
:1029C4007908013EF40000307A3DF5007408860071
:1029D40075088700730881004030F4007908860088
:1029E4007A08870074088105790886007A088700C8
:1029F4008115790886007A08870081177008031901
:102A0400042D052D1C2D7835B73E86008701403FE7
:102A1400F400413FF50004307406F60000307506FA
:102A2400F7007835B73E860087017608C03F7708FF
:102A3400C13F342D78352A3E860002308700403F5E
:102A4400F400413FF50004307406F60000307506CA
:102A5400F70078352A3E8600023087007608C03FAA
:102A64007708C13F7A08F1007908F00008002000D7
:102A7400500E890C0339003A0319412D422D952D2E
:102A8400C02D2100BF1708302000ED006D08210083
:102A9400C800C02D963149269531C02D9631D426D3
:102AA4009531C02DEF302100BD000130BE003F1430
:102AB40001302000ED006D082100C000BF17C02DBB
:102AC4009131E1219531C02D8E31A8269531C02D4B
:102AD4005408ED3E2100BD000130BE003F1401301A
:102AE4002000ED006D082100C000BF17C02D21009B
:102AF400BF1720005208ED005408ED3E8600013057
:102B040087006D088100C02D0230E0000030E10034
:102B14000030E2000030E3000030E400E5009E31C4
:102B24009F269531C02D5108ED00EE016E08003A44
:102B340003199D2DC02D6D08003A0319622D013A29
:102B44000319662D023A0319662D063A0319432D1B
:102B5400033A03194C2D013A0319862D0F3A031930
:102B6400542D013A0319502D033A03196A2D013AE1
:102B74000319792D073A0319C02DC02D080021002F
:102B8400AE0026080319C72DC82DD12D2E35B73E0A
:102B940086008701403FAF00413FB000DA2D2E355B
:102BA4002A3E860002308700403FAF00413FB0001C
:102BB4002F083004031DDF2DE02DE32DA601A7010E
:102BC400482EFF302705AA007F302805AB002F08C8
:102BD40086003008870042312A08C03F2B08C13FD5
:102BE4002F08013EAA000030303DAB002A088600C1
:102BF4002B088700290881004030AA002F0886008E
:102C0400300887002A0881052F08860030088700CD
:102C140081152F08860030088700811726080319BC
:102C2400142E152E2C2E2E35B73E86008701403FDC
:102C3400AA00413FAB0004302A06AC0000302B064A
:102C4400AD002E35B73E860087012C08C03F2D0805
:102C5400C13F442E2E352A3E860002308700403F75
:102C6400AA00413FAB0004302A06AC0000302B061A
:102C7400AD002E352A3E8600023087002C08C03F66
:102C84002D08C13F3008A7002F08A6000800803097
:102C940020005006031D4F2E502ED32EC030F000BE
:102CA40070082100BF00BF2E8D302100BD00983078
:102CB400BE000030C1001230C000D32E5208031DE4
:102CC400642E652E942E5208F000F101F035F10DBA
:102CD400B930700784009830713D8500003F2100B1
:102CE400BD00013FBE003E08F1003D08F000023087
:102CF4007007840071080318710A85000008F20047
:102D04007208C0003E08F1003D08F000033070076F
:102D1400840071080318710A85000008F200720823
:102D2400C100D32E2100BF01D32E04305202031858
:102D34009C2E9D2EB92E5208F000F101F035F10DB4
:102D44009F30700784009830713D8500003F21005A
:102D5400BD00013FBE003D0884003E088500000818
:102D6400F000F1017008C0007108C100D32E2100E9
:102D7400BF01D32E2100BF01D32E20005308F00041
:102D8400F1017108003A0319C82EBC2E7008013AEB
:102D94000319562E033A0319602E013A0319972E8C
:102DA400BC2E08002100BF170E302000E800993027
:102DB400E700E9016708860068088700810101309F
:102DC400E7070030E83D0130E6006608E907023015
:102DD4006902031CEE2EEF2EDC2E2030F0000030B2
:102DE400F1000030F200F3003030F4000030F50060
:102DF4008A31E62296313D000E172000EA016A0866
:102E0400BE3E86000130870081016A08BB3E860011
:102E14000130870081010130E6006608EA070330CB
:102E24006A02031C162F172F012FED30F00001301A
:102E3400F1000030F200F3000230F4000030F5003D
:102E44008A31E62296313D000E1328302100B70066
:102E54000030B80020302000E60066082100C700DA
:102E64004708C200FF39031D0030C3002000520888
:102E7400E60066082300EF006F08031D422F432F6E
:102E84004A2F10302000E60066082100C800602F99
:102E940001302000E0000030E100EF30E2000130BA
:102EA400E3000130E4000030E5009E319F269631B6
:102EB40020302000E60066082100C80008003D001C
:102EC4000E122100BF1B672F682FAE2F2300B21FE5
:102ED4006C2F6D2F7D2F0230F5007508EB00600814
:102EE400031D752F762F792F91311B2197312300E4
:102EF400E201E301FF2F21004208013EF50000300A
:102F0400433DF60075088600760887000830810086
:102F14005030F5000030F600420886004308870070
:102F240042317508C03F7608C13F42088600430815
:102F340087000C308100420886004308870081170F
:102F44003708860038088700043081003708860077
:102F5400380887008117FF2F2000D01FB22FB32F0E
:102F6400CC2F0130F50075082300EB006108031D28
:102F7400BC2FBD2FC02F91311B2197312300E201BB
:102F8400E3016408031DC72FC82FFF2F9231B72216
:102F94009731FF2F0230F50075082300EB00210064
:102FA4004208013EF5000030433DF60075088600F6
:102FB40076088700083081005030F5000030F600B4
:102FC400420886004308870042317508C03F7608EE
:102FD400C13F42088600430887000430810042084C
:102FE40086004308870081172300E201E301640897
:102FF400031DFD2FFE2FFF2FC82F080009340234B4
:1030040043340034023401340034C03432340934DB
:103014000434003400340134023402340134003402
:103024000534243400341034013404342434023498
:103034000234053424340634003401340534243491
:1030440001340034013407340534813403340A3440
:1030540000340234093404340134003402340A34B0
:10306400003400340034073405340234023440346C
:1030740000340034073405348234023440340034DC
:103084000034343403344D3400346934003463344C
:103094000034723400346F340034633400346834E0
:1030A400003469340034703400342034003454342F
:1030B40000346534003463340034683400346E34CE
:1030C40000346F3400346C3400346F3400346734AB
:1030D40000347934003420340034493400346E34FC
:1030E4000034633400342E3400341634033453343F
:1030F40000346D3400346134003472340034743478
:1031040000342034003453340034683400346F34D1
:10311400003465340034123401340034023402348F
:10312400003400340834D83404340A34003400340D
:1031340001340134023403340134B5349834433453
:10314400983477349834A7349834083403343134B9
:1031540000343234003434340034533474346F342F
:103164007034213400340434033409340434003416
:0231740098348D
:103992001830210097000800240096159C31DF247E
:1039A2009C310800240016149C31DF249C3108004D
:1039B200240016159C31DF249C3108002000911D43
:1039C200E32CE42CDF2C9111080024009612161629
:1039D2009C31DF249C3108002400961616169C3177
:1039E200DF249C310800903021009E009F019B0142
:1039F2009C0101309D000800210027082400D60008
:103A0200210026082400D5000800210027082400F0
:103A1200B500210026082400B40008002100A600F9
:103A22002608240091009C31DF249D3108002400E7
:103A320094010830950096011330920020009111F4
:103A42002400951608006400800101310130FE0255
:103A52000030FF3B7F087E04031D252D0034FE004D
:103A620012001E000130FE020030FF3B7F087E0480
:103A7200031D312D00347C3021009900980127006C
:103A82009B012200960121001A1F482D492D442D29
:103A920008009C31D3249D31A0309D310F259D31EA
:103AA2002400161B552D562D4A2D9C31D9249D31AB
:103AB20008002100A7002708A600A60DA60D1D08D4
:103AC2002606833926069D001D149D149D186A2D15
:103AD2006B2D672D1D10080021001508C039123802
:103AE200950006302000950006302100A800280825
:103AF2002300CF000B118B16FF302100A6000730E8
:103B0200A7009D3106259D310800210012114608AB
:103B1200031D8C2D8D2D9F2D27082400BD00210013
:103B220026082400BC0021002808A9002908230037
:103B3200DD00DC01DC0A2100C601C60A12150800FC
:103B420021004808031DA62DA72DBE2D3D008E0184
:103B52009201163091009F3097007B309200210035
:103B62001215B42D8E153D008E1DB82DB92DB32D15
:103B720001302100A6002608C80008003D001215E9
:103B8200EF302000E60066083D0090058E140130FB
:103B92002000E60066082300E800DF0175302000FF
:103BA200E0000030E1000030E2000030E3000030CD
:103BB200E400E5009E319F269D3108002300E801C4
:103BC20074302000E0000030E1000030E2000030FC
:103BD200E3000030E400E5009E319F269D313D0068
:103BE2008E101211FA2DFB302000E60066083D000F
:103BF20090051019FD2DFE2DF42D2300DF01080084
:103C020022008C018D018E01303021008C00F030B9
:103C12008D00FF308E00CC3023008E008D018C0190
:103C220024008D018C012100951722009D0127009F
:103C32009312911600302100A6000030A7009C319B
:103C4200FD249E310800FC00771D282E292E2E2EE1
:103C5200F0017C089F31BD279E31F71C312E322E98
:103C6200382EF001F00A7C089F31BD279E317C0876
:103C7200983EF800F9010E30F93D7808FA0079080B
:103C8200FB007A0886007B0887007708810008001D
:103C92002100B2002D1D4E2E4F2E542EA6013208A9
:103CA20090312D209E312100AD1C582E592E5F2EB1
:103CB200A601A60A320890312D209E312100320839
:103CC200983EAE00AF010E30AF3D2E08B0002F0877
:103CD200B10030088600310887002D0881000800F5
:103CE200F8007108F6007008F5007808F40074080E
:103CF200F900922E75088600760887000108F40004
:103D02007408F7000130F5070030F63D7708F4003B
:103D1200790886008701740881000130F400740874
:103D2200F9070130F2020030F33B720A031D9D2EA7
:103D3200730A031D9D2E9E2E7B2E0800A82E9E31F7
:103D4200D1269E31D02E923148229E31D02E200093
:103D52006108003A0319B12E7F3A0319CB2ED02EF7
:103D62006008013A0319A02E033A0319D02E013A32
:103D72000319A42E063A0319D02E773A0319D02E2E
:103D8200013A0319D02E073A0319D02E013A03192A
:103D9200D02ED02E6008FF3A0319D02ED02E080064
:103DA20000302400C9000030C8004B30C70000308A
:103DB200C600CA01CB010830FD007D08CC002300FB
:103DC200DE011A30FD007D08F70001309E31242605
:103DD2009E311E30FD007D08F70002309E31242600
:103DE2009E31F001C030F1002030F2004030FD0081
:103DF2007D08F30002309431B2249E317108230011
:103E0200CC007008CB00C901CA012100C60108001C
:103E1200023023006B06031D0F2F102F142F883141
:103E2200C5209F31412FEB016608031D192F1A2F60
:103E3200402F21004208013EF6000030433DF700CA
:103E42007608860077088700083081005030F60037
:103E52000030F700420886004308870042317608A6
:103E6200C03F7708C13F42088600430887000C30F4
:103E7200810042088600430887008117412FE6012E
:103E820008002100121146080319482F492F4B2F11
:103E920012157C2FAD012708AC002608AB000130BB
:103EA200A8002808AD072D0A031D582F592F5A2F95
:103EB2006A2F2C08A9002B08A800AB0A0319AC0A28
:103EC20028088400290885001200031D692F6A2F23
:103ED200502F27082400BD00210026082400BC0022
:103EE20021002D08A80028082300DD00DC012100A4
:103EF200C601C60A1215080000302400C9000030AD
:103F0200C8004B30C7000030C600CA01CB010830E0
:103F12002100B30033082400CC002300DE011A3054
:103F22002100B3003308AD0001309E3149269F3194
:103F32001E302100B3003308AD0002309E31492605
:103F42009F312100A601C030A7002030A8004030D8
:103F5200B3003308A90002309531C1259F312100F9
:103F620027082300CC00210026082300CB00C9012A
:103F7200CA012100C6010800F5002030F1007108D5
:103F8200F6007008F1000130F135890BC52F750874
:103F9200F2000130F235FF3E031DCB2F723571075F
:103FA200F3000130F335FF3E031DD32F7335F400C8
:103FB2007408F60776088600870181137008031DCE
:103FC200E32FE42FEE2F75352A3E8600023087005C
:103FD2007608C03F0030C13FF62F7535B73E8600E8
:103FE20087017608C03F0030C13F7608860087010E
:0E3FF20001137608043E8600870101170800BF
:020000040001F9
:04000E00F43FFF3F7D
:00000001FF
