:020000040000FA
:1000000080315028053008007E1480318B1D09286E
:100010000A2812280B1C0D280E28122889311121BC
:1000200080314E280B1F152816284E282100111F3D
:100030001A281B2824282000111F1F2820282428C4
:1000400089313E2180314E282100121D282829287F
:1000500032282000121D2D282E2832288131B2216D
:1000600080314E282100921D362837284328200051
:10007000921D3B283C284328210053088A0052083F
:100080000A0080314E282100911D472848284E281B
:100090002000911D4C284D284E283C287E10090038
:1000A0008031522850308400003085001030883173
:1000B000EB208031A0308400003085004230883150
:1000C000EB2080317E10200089310029200042037E
:1000D000031D6B286C28822840081F39003A031D35
:1000E000722873288228D21703304106031D79280D
:1000F0007A2880280130F90079082100DE00822862
:100100002100DE0120004208031D87288828B1292C
:1001100040081F39023A031D8E288F28B129440850
:100120000F39003A031995289628B12944080F3948
:10013000F9000230790203189E289F28B129203047
:100140005D06031DA428A528B129D217C41BA92820
:10015000AA28BE2844080F390907C83E860087012F
:10016000403FE300413FE40044080F39CE3E8600A3
:1001700087010108F9007908E200D12844080F3905
:100180000907553E86008701403FE300413FE400F8
:1001900044080F39D03E860087010108F90079082C
:1001A000E2006218D428D528E028FB30F900FF309F
:1001B000FA0063087905E30064087A05E400E6289C
:1001C00004306304E30000306404E400C41BE92845
:1001D000EA28F52844080F390907C83E8600870138
:1001E0006308C03F6408C13FFF2844080F3909076E
:1001F000553E860087016308C03F6408C13F033055
:100200004106031D0429052929296308860064087D
:100210008700811F0C290D291E29C41B10291129B3
:10022000182944080F39CE3E8600870181141E2903
:1002300044080F39D03E8600870181146308860088
:100240006408870001156308860064088700811729
:10025000B12904306306E30000306406E40063085B
:10026000860064088700811F3629372954297F308A
:10027000F90063088600640887007908810563082F
:1002800086006408870001170530F3000030F40091
:100290006408F6006308F5000230F7000030F8004B
:1002A0008B31082380315929630886006408870050
:1002B0000117043020006306E30000306406E40008
:1002C000E218632964296C296308860064088700A2
:1002D000811F6B296C299529C41B6F2970297729E7
:1002E00044080F39CE3E8600870181107D294408DD
:1002F0000F39D03E8600870181103B30F90063083A
:10030000860064088700790881050530F300003015
:10031000F4006408F6006308F5000230F7000030CE
:10032000F8008B31082380319D293B30F9006308A8
:1003300086006408870079088105200044080F3989
:10034000983EF900FA010E30FA3D7908E0007A088B
:10035000E100FE30F9006008860061088700790836
:100360008105080020005D03031DB729B829C529B0
:100370003D008E1ABC29BD29C52990011214121600
:1003800002302000E7006708DD003D00101DC9298C
:10039000CA29D729121DCD29CE29D729FB30200003
:1003A000E70067083D0090058A31272281313D0032
:1003B0008E1CDB29DC29DF2920001211CC2A101C1D
:1003C000E229E329F629121CE629E729F6298431D6
:1003D000232481312100121504302000E700670832
:1003E000DD00FE30E70067083D009005101EF9298A
:1003F000FA29012A121EFD29FE29012A8A310B221F
:1004000081313D00101F052A062A322A121F092AAF
:100410000A2A192A7330F3000030F4000030F50086
:100420000030F6000130F7000030F8008B3108236F
:100430008131BF302000E70067083D009005893119
:10044000EF21813121005A080319272A282A2A2A54
:100450000130DA025A08031D2E2A2F2A322A8E3141
:10046000142681313D00901E362A372A3E2A921EDC
:100470003A2A3B2A3E2A8A31B12281313D00901C22
:10048000422A432A582A921C462A472A582AFF30D1
:10049000F3007F30F4000030F5000030F60001304A
:1004A000F7000030F8008B31082381313D009301C3
:1004B000043020005D0203185E2A5F2A612A1211AF
:1004C000CC2A3D00921D652A662ACA2A2000E9012D
:1004D0003D00901D6C2A6D2ACA2A0F082000E700F3
:1004E0006708DE005E0CE700E70C670C0F39E800D8
:1004F00068082100DC00F7302000E70067083D00B5
:10050000900520005E19852A862A972A21005C081A
:10051000CE3E86008701010801392000E700013046
:10052000E70601086706FE3967068100A72A210051
:100530005C08D03E86008701010801392000E700F1
:100540000130E70601086706FE39670681002100D1
:100550005C08031DAC2AAD2AB12A8C319524813167
:10056000BF2A7230F3000030F4005E30F500003036
:10057000F6000030F700F8008B310823813101309C
:100580002000E7006708E90704306902031CC92A54
:10059000CA2A682A200012110800210012113D0009
:1005A0009301900198010E302100E4009930E3009E
:1005B000E501630886006408870081010130E307D4
:1005C0000030E43D0130E2006208E50765080319E8
:1005D000EA2AEB2AD92A12303D0091009F30970079
:1005E0007B3092002100E6016608E2000130E2352E
:1005F000FF3E031DF72A6235203E8600870100304A
:10060000C03F0030C13FC23FC33F0130E20062083B
:10061000E60708306602031C0E2B0F2BF42A3D0060
:100620000E1796010E120E13F7302100E200620839
:100630003D0090052000D2012100BF01C001C10191
:100640003D009019242B252B142B01302100E200B2
:100650006208D8000130E2006208D700D601D50157
:10066000DD01E6016635553E860087010030C03F5A
:10067000C13F6635C83E860087010030C03FC13F9C
:100680006608D03E8600870181016608CE3E86005E
:10069000870181010130E2006208E607023066024C
:1006A000031C532B542B322B28302000D500003054
:1006B000D60016303D00980000302000A3004030E6
:1006C000A2000830A10004302100E20062082000EE
:1006D000A000A017DF0100302100C7000030C600D5
:1006E0000030C5000030C400D4012000DD01080046
:1006F00020005C0886008701413FF5007508F20084
:10070000F301730821004102031D882B7208400287
:1007100003188B2B8C2B902B4008F2007208F500ED
:100720007508F200F3017208C0027308C13BF401BE
:10073000AC2B7408483E860087010108F2003D0892
:1007400086008701720881000130F2007208BD073F
:100750000130F2007208F40775087402031CB12B13
:10076000B22B992B400841040319B72BB82BF12B5E
:1007700020005908013EF20000305A3DF300720893
:10078000860073088700083081004830F20000308E
:10079000F300590886005A08870042317208C03FAA
:1007A0007308C13F5C0886008701011BD82BD92B39
:1007B000E52B590886005A088700483081005908FF
:1007C00086005A0887008117222C590886005A088B
:1007D000870008308100590886005A088700811771
:1007E000222C20005908013EF20000305A3DF3004F
:1007F0007208860073088700083081004030F200DC
:100800000030F300590886005A0887004231720808
:10081000C03F7308C13F590886005A08870004305A
:100820008100590886005A08870081172100420874
:100830004308BF135908031D1E2C1F2C222C8E3178
:10084000142683310800210012113D00930190010C
:1008500098010E30F2009930F100F3017108860022
:100860007208870081010130F1070030F23D01304C
:10087000F0007008F307730803193F2C402C2E2C4E
:1008800012303D0091009F3097007B309200F401C0
:100890007408F0000130F035FF3E031D4B2C70351D
:1008A000203E860087010030C03F0030C13FC23F7C
:1008B000C33F0130F0007008F40708307402031CD5
:1008C000622C632C482C3D000E1796010E120E135D
:1008D000F730F000700890052000D2012100BF0120
:1008E000C001C1013D009019762C772C682C013095
:1008F000F00070082100D8000130F0007008D70027
:10090000D601D501DD01F4017435553E860087011D
:100910000030C03FC13F7435C83E860087010030BB
:10092000C03FC13F7408D03E860087018101740832
:10093000CE3E8600870181010130F0007008F40787
:1009400002307402031CA52CA62C842C2830200015
:10095000D5000030D60016303D0098000030200051
:10096000A3004030A2000830A1000430F00070085D
:10097000A000A017DF0100302100C7000030C60032
:100980000030C5000030C400D4012000DD010800A3
:10099000F8007808F4007408F90072087304031D65
:1009A000D22CD32CD42C6B2D7008F400790886003F
:1009B0008701740881007008F40072087907F50057
:1009C0007508FF3E860087017408810000307302BD
:1009D0000330031972020318EE2CEF2CF02C6B2D50
:1009E0007008F400790A8600870174088100700895
:1009F000F4007908023E86008701740881007008BF
:100A0000F40072087907F5007508FE3E860087013C
:100A1000740881007008F40072087907F500750801
:100A2000FD3E8600870174088100003073020730A4
:100A30000319720203181D2D1E2D1F2D6B2D70081A
:100A4000F4007908033E860087017408810070086D
:100A5000F40072087907F5007508FC3E86008701EE
:100A60007408810000307302093003197202031800
:100A70003A2D3B2D3C2D6B2D7909F4007A09F500B8
:100A8000F40A0319F50A03307405F6000030750501
:100A9000F7007608F4007408F9077608F202770880
:100AA000F33BFC30F205FF30F305652D7008F400D0
:100AB000790886008701740881000130F202003055
:100AC000F33B0130F4007408F90772087304031D46
:100AD0006A2D6B2D562D08003D000E122000D21BF2
:100AE000722D732DBB2D2100BF1F772D782D8A2DE0
:100AF0000230F50075082000DB0021005508031DB9
:100B0000822D832D862D8C31EB2485312100D70158
:100B1000D801092E20005908013EF50000305A3D49
:100B2000F60075088600760887000830810040309E
:100B3000F5000030F600590886005A088700423157
:100B40007508C03F7608C13F590886005A088700DB
:100B50000C308100590886005A0887008117550813
:100B60008600560887000430810055088600560824
:100B700087008117092EC01FBE2DBF2DD82D013033
:100B8000F5007508DB0021005608031DC82DC92D8E
:100B9000CC2D8C31EB2485312100D701D8015908A7
:100BA000031DD32DD42D092E8E3114268531092E07
:100BB0000230F5007508DB005908013EF5000030F1
:100BC0005A3DF600750886007608870008308100D7
:100BD0004030F5000030F600590886005A088700BA
:100BE00042317508C03F7608C13F590886005A084F
:100BF000870004308100590886005A088700811751
:100C00002100D701D8015908031D072E082E092EEF
:100C1000D42D0800803020004006031D102E112E18
:100C2000A22EC030F0007008D2008F2EC430D00049
:100C30009030D1000030D4001230D300A22E4208F0
:100C4000031D232E242E522E4208F000F101F03510
:100C5000F10DEA30700784009030713D8500003F4F
:100C6000D000013FD1005108F1005008F0000230DF
:100C70007007840071080318710A85000008F200EB
:100C80007208D3005108F1005008F00003307007DB
:100C9000840071080318710A85000008F2007208C8
:100CA000D400A22ED201A22E043042020318592EE3
:100CB0005A2E752E4208F000F101F035F10DD630B4
:100CC000700784009030713D8500003FD000013FE7
:100CD000D10050088400510885000008F000F1019F
:100CE0007008D3007108D400A22EEE304206031D16
:100CF0007A2E7B2E8B2EB230D0009030D10050084F
:100D00008400510885000008F000F1017008D3004C
:100D10007108D400A22ED201A22ED201A22E430825
:100D2000F000F1017108003A0319972E8D2E70081A
:100D3000013A0319162E033A03191F2E013A03191B
:100D4000542E8D2E08008E340034003400340034CC
:100D50000134053400340134003484340034003468
:100D60000034013400340034003428340034443476
:100D7000003465340034763400346934003463342C
:100D8000003465340034493400346E340034743433
:100D90000034653400347234003466340034613415
:100DA000003463340034653400344734003455343F
:100DB00000344934003444340034003400344E34B8
:100DC0000034003400347B3400343534003438349B
:100DD0000034643400343034003437340034323476
:100DE000003431340034303400342D3400343234A3
:100DF00000343734003463340034313400342D345B
:100E00000034313400343134003464340034643418
:100E100000342D340034623400346434003430340F
:100E20000034623400342D3400343034003438342B
:100E30000034303400343034003432340034303450
:100E400000343034003463340034393400346134D5
:100E5000003436340034363400347D340034003409
:100E600000340830F0007008F20000302000540216
:100E700008300319530203183E2F3F2F572F5308F2
:100E8000F0007008F20021006008031D482F492F70
:100E90004E2F0130F0007008E000572F6003031D53
:100EA000522F532F572F0230F0007008E0007208C5
:100EB000F000F10170082000D3027108D43B5508FE
:100EC000013EF0000030563DF100700886007108C8
:100ED0008700720881004830F00070082100DF00B0
:100EE00020005218742F752FAE2F8F2F200050081E
:100EF0008400510885000008F00021005F0886008A
:100F000087017008810001302000D0070030D13DFA
:100F10000130F00070082100DF070130F202720892
:100F2000031D932F942F762FB32F20005008840099
:100F3000510885000008F00021005F088600870145
:100F40007008810001302000D0070030D13D013011
:100F5000F00070082100DF070130F2027208031D63
:100F6000B22FB32F952F08002100E001D901D6013F
:100F7000D501DB012000DB017F30FD005508860034
:100F8000560887007D08810504305506D5000030DD
:100F90005606D6007F30FD005508860056088700AB
:100FA0007D08810504305506D50000305606D60070
:100FB0007F30FD00590886005A0887007D088105AA
:100FC000D201D301D4012100BF01C001C1018F3181
:100FD000842787310330F3000030F4000030F5003F
:100FE0000030F6000030F700F8008B31082387311D
:100FF00085316C25873108001630210097000800E4
:10110A000800080001300800240096140800240092
:10111A001615080024009615080024001108080076
:10112A00200091150800200091110800240096164D
:10113A001616080024009612161608008B3135235D
:10114A0088310800F000700824009100080021008E
:10115A00BC10BB010E30080088318920883101306B
:10116A0008008831892088310230080088318920B6
:10117A0088310130080088318C208831003008001D
:10118A0088319F2088310530080088319B208831BA
:10119A000A30080088319B20883109300800210074
:1011AA00BC10BB010E3008002400160E890C890CF5
:1011BA000139080021006308CD006208CC0008004C
:1011CA0021006308E8006208E70008006400800163
:1011DA000131890BEC28003421003C1088318F2022
:1011EA0088310430080021003C1436358831A720A4
:1011FA008831033008008931C12189318B170B17D7
:10120A0005298031502821003C140314360D8831F9
:10121A00A7208931053008002700931E15291629B1
:10122A00192989314D218931080024009401083097
:10123A00950096013B309200951208007608F1005D
:10124A007508F0007708F8007808F20000308A3153
:10125A006522893108007830210099009801270019
:10126A009B012200960121001A1F3C293D29382999
:10127A0008002000111321004C084D0403194629C7
:10128A0047294C294D088A004C080A008931080070
:10129A002100670868040319532954295929680841
:1012AA008A0067080A008931270093120800F300B0
:1012BA002100BC1D612962296B297308F20072089A
:1012CA00B7007108B9007008B800BC1108000230F4
:1012DA00F0000030F100790889315C218931003051
:1012EA00F500F600F701893123218931043008001D
:1012FA000130F0000030F100790889315C21893130
:10130A000030F500F600F7018931232189310230D6
:10131A0008000230F0000030F100790889315C21C0
:10132A0089310030F500F600F7018931232189312E
:10133A00023008000130F0000030F10079088931EC
:10134A005C2189310030F500F600F701893123214B
:10135A00893104300800203021009E009F019B0142
:10136A009C0101309D0011178530E2000830E3002E
:10137A008831DF208931080089311A2189318A317F
:10138A008B2289318931302189318731FC27893192
:10139A008231CD2289318931B02189318A3146227F
:1013AA0089310800790886008701403FF000413FF3
:1013BA00F1007908023E86008701010889315C2123
:1013CA0089310030F500F600F7018931232189318E
:1013DA000230080001302100C4070030C53D00304A
:1013EA00C63D0030C73D5D08031DFC29FD290A2AB8
:1013FA000130F0007008D4075408031D052A062A94
:10140A000A2AFF30F0007008D40008003D001215C7
:10141A00EF30F900790890058E140130F900790847
:10142A002100DD00D4017530F3000030F4000030F3
:10143A00F5000030F6000030F700F8008B31082381
:10144A008A3108002100DD017430F3000030F40015
:10145A000030F5000030F6000030F700F8008B315C
:10146A0008238A313D008E1012113F2AFB30F90001
:10147A00790890051019422A432A3B2A2100D401EF
:10148A00080020005D08031D4B2A4C2A642A3D00EF
:10149A008E019201123091009F3097007B309200AA
:1014AA0021001215592A8E153D008E1D5D2A5E2ACD
:1014BA00582A01302100E20062082000DD000800FD
:1014CA00F4007008710403196B2A6C2A7D2A74359A
:1014DA00A03E860087017008C03F7108C13F7208AC
:1014EA00F3007408AC3E86008701730881008A2ADB
:1014FA007435A03E860087018730C03F0830C13F5F
:10150A007408AC3E860087018101080022008C0124
:10151A008D0120308E00303021008C00A0308D00EB
:10152A00DF308E00CC3023008E008D018C01240028
:10153A008D018C012100951722009D01270093122D
:10154A009212911686302100E2000830E3008831B9
:10155A00E5208A318B1508003D00181CB52AB62AE9
:10156A00D72A20005C088600870180300106031D07
:10157A00BF2AC02AD52A5508860056088700843013
:10158A000106031DC92ACA2AD52A0C30F0005C08B4
:10159A0086008701700881005C0886008701811730
:1015AA003D001810DF30F000700890050800210097
:1015BA003C100230FA007A08BB00EB2A8831BB20C3
:1015CA008A31072B8831C0208A31072B2E08FA006E
:1015DA007A08F9000430A03E86008701413F8A005C
:1015EA00403F0A008A31FB00FC017C08003A0319DB
:1015FA00FF2AE72A7B08023A0319E32A013A031968
:10160A00E32AE72A08000D2B8D31A7258B31342BCD
:10161A007408003A0319152B7F3A03192F2B342B20
:10162A007308013A0319342B033A0319342B013A8C
:10163A000319092B063A0319342B773A0319342B69
:10164A00013A0319342B073A0319342B013A0319C7
:10165A00342B342B7308FF3A0319342B342B08002C
:10166A00883198208B3121003C1C3C2B3D2B4B2B85
:10167A008831D9208B31003A0319442B452B4B2B47
:10168A000F302000E00060082100BA0021003A086B
:10169A002000E000E101E035E10D5C3060078400E4
:1016AA009030613D8500013F8A00003F0A008B317E
:1016BA002000E20062082100BA000800F800710860
:1016CA00F6007008F5007808F4007408F900842B15
:1016DA0075088600760887000108F4007408F70088
:1016EA000130F5070030F63D7708F40079088600E6
:1016FA008701740881000130F4007408F907013089
:10170A00F2020030F33B720A031D8F2B730A031D8A
:10171A008F2B902B6D2B08002100BC15A12B883133
:10172A00BB208B31BF2B883195208B310330BF2BE7
:10173A008831C0208B31BF2B2C08FA007A08F900B7
:10174A0021088A0020080A008B31FB00FC017C0872
:10175A00003A0319B12B9D2B7B08013A03199D2BE3
:10176A00033A0319942B013A0319942B073A0319E4
:10177A00982B9D2B0800023020005B06031DC62B08
:10178A00C72BCB2B833178238B31F92BDB0121003B
:10179A005B08031DD12BD22BF82B20005908013EE0
:1017AA00F60000305A3DF700760886007708870071
:1017BA00083081004030F6000030F70059088600F2
:1017CA005A08870042317608C03F7708C13F590856
:1017DA0086005A0887000C308100590886005A088A
:1017EA0087008117F92BDB010800883192208B31A1
:1017FA00FA0021003708860087017A088100013043
:10180A00FA007A08B7070130B8020030B93B380845
:10181A0039040319112C122C172C88319F208B3173
:10182A0005303F2CBC15212C8831CF208B313F2C21
:10183A008831CA208B313F2C2C08FA007A08F9002B
:10184A0021088A0020080A008C31FB00FC017C0870
:10185A00003A0319312C1D2C7B08013A03191D2C5F
:10186A00033A0319192C013A0319192C073A0319D7
:10187A001D2C1D2C08008831D9208C31003A0319FF
:10188A00472C482C782C552C8831B1208C31942C3B
:10189A008831B6208C31942C8831C0208C31942C1C
:1018AA0021002F08FA007A08F9000630A03E8600C7
:1018BA008701413F8A00403F0A008C31FB00FC014E
:1018CA007C08003A03196A2C512C7B08013A031947
:1018DA00512C033A0319492C013A03194D2C073AA2
:1018EA000319512C512C21003C101730A03E8600C0
:1018FA008701403F84008501810A00088831A720BA
:10190A008C3101302100B8020030B93B3808390463
:10191A00031D902C912C932C0630942C0330080034
:10192A002D302000E50065082100DA0020005E085D
:10193A00FD39031DA12CA22CDE2C5E363F39E500B1
:10194A000130E535FF3E031DA62C6535203EE60035
:10195A006608DC005C08D900FF39031D0030DA0094
:10196A0004305906D90000305A06DA005C088600AD
:10197A008701010C890C0F390D3A031DC52CC62CA1
:10198A00DA2C5C08023E86008701403FF000413FA6
:10199A00F1000830F2000030F30040308B3163234D
:1019AA008C318731B4278C31EA2C8B31C0238C31AE
:1019BA00EA2CFD305E05E50004306506031DE62CC1
:1019CA00E72CEA2C8F3108278C3108002100D60138
:1019DA00D501023020005B06031DF42CF52C1A2DCC
:1019EA005908013EF30000305A3DF400730886009E
:1019FA0074088700083081004830F3000030F40092
:101A0A00590886005A08870042317308C03F740893
:101A1A00C13F590886005A08870048308100590892
:101A2A0086005A0887008117442D54084702031D6F
:101A3A00202D530846020318232D242D282D47084C
:101A4A00D4004608D300873131278C314830F3005F
:101A5A000030F400200055088600560887004231FD
:101A6A007308C03F7408C13F5508860056088700AE
:101A7A0048308100550886005608870081170800FB
:101A8A002000C801C901842DD21721005E03031D5D
:101A9A004F2D502D982D2000C814982DD217982D0F
:101AAA00D217C41B592D5A2D652D44080F39090721
:101ABA00C83E86008701403FF200413FF3006F2D88
:101ACA0044080F390907553E86008701403FF20056
:101ADA00413FF3007208860073088700811F762D44
:101AEA00772D982D7208860073088700011D7E2DB8
:101AFA007F2D982D0130F0007008C800982D4008FD
:101B0A001F39F000F1017108003A03198D2D982D43
:101B1A007008003A0319492D013A0319532D033A63
:101B2A000319552D982D2000D21F9C2D9D2DA62DD1
:101B3A004830D0000030D10052140230F000700852
:101B4A00D3000800C03020004006031DAD2DAE2D85
:101B5A00DE2DEE304106031DB32DB42D132E0430B5
:101B6A0044064504031DBA2DBB2D132E34308400C0
:101B7A0090308500003FF100013FF20072084702F1
:101B8A00031DC92D710846020318CC2DCD2DD12D68
:101B9A004708F2004608F1003430D0009030D100F6
:101BAA007208D4007108D300C030F0007008D20067
:101BBA00132EC1304006031DE32DE42D132EEE3003
:101BCA004106031DE92DEA2D132E0530440645046E
:101BDA00031DF02DF12D132EA330840086308500CD
:101BEA00003FF100013FF20072084702031DFF2D7A
:101BFA00710846020318022E032E072E4708F20028
:101C0A004608F100A330D0008630D1007208D40013
:101C1A007108D300C030F0007008D200080021001B
:101C2A005808031D192E1A2E8C2E0130F000700848
:101C3A00D8005708031D222E232E8C2E0130F000C7
:101C4A007008D700023020005B06031D2D2E2E2EB1
:101C5A00402E5508860056088700413181015508F3
:101C6A0086005608870048308100550886005608C5
:101C7A00870081178C2E5B03031D442E452E8C2E64
:101C8A002100DB010830F00020005C0A8600870191
:101C9A00700881004030F0000030F1005C08023E1C
:101CAA00860087017008C03F7108C13F0430F00008
:101CBA005C0886008701700881005C08860087013D
:101CCA0081170130F00070082100DB00200059085C
:101CDA00013EF00000305A3DF1007008860071089C
:101CEA008700083081004030F0000030F1005908C8
:101CFA0086005A08870042317008C03F7108C13F08
:101D0A00590886005A088700803081008C2E080006
:101D1A002000D2170E30E1009930E000E20160089D
:101D2A0086006108870081010130E0070030E13D4B
:101D3A000130FA007A08E20762080319A52EA62ED6
:101D4A00942E0030F000F1002030F2000030F30051
:101D5A0020308431C8248E313D000E172000E30163
:101D6A006308D03E8600870181016308CE3E860063
:101D7A00870181010130FA007A08E3070230630221
:101D8A00031CC82EC92EB52E0030F000F100013018
:101D9A00F2000030F300E1308431C8248E313D0076
:101DAA000E1328302000D5000030D6002030FA006B
:101DBA007A08DC005C08D900FF39031D0030DA001C
:101DCA004208FA007A08DF005F08031DED2EEE2EA6
:101DDA00F32E1030FA007A08DD00072F0130F300E5
:101DEA000030F4005F30F5000030F6000130F700F3
:101DFA000030F8008B3108238E312030FA007A083F
:101E0A002000DD00080020005508860056088700DB
:101E1A000030011B0130F50004305506D5000030B2
:101E2A005606D60008305D06031D1C2F1D2F312FC4
:101E3A0042087F393D00960016080319252F262FE0
:101E4A002C2F1030F30073082000DD00312F0430EE
:101E5A00F30073082000DD005B03031D352F362FC6
:101E6A00792F4830F3000030F400550886005608F0
:101E7A00870042317308C03F7408C13F8731312758
:101E8A008F31023021006006031D4C2F4D2F5A2F2F
:101E9A00200055088600560887000430810055083E
:101EAA008600560887008117832F7508031D5E2F49
:101EBA005F2F6C2F2000550886005608870048308F
:101ECA00810055088600560887008117832F200055
:101EDA005508860056088700083081005508860094
:101EEA00560887008117832F2100BF1F7D2F7E2F61
:101EFA00812F42084308BF132000DB01080020009D
:101F0A00400E890C0339003A03198C2F8D2FD42FD8
:101F1A00FF2FD2170830FB007B08DD00FF2F863128
:101F2A000A268F31FF2F8E318D268F31FF2F5F309A
:101F3A00D0000030D10052140130FB007B08D300DE
:101F4A00D217FF2F8D3145258F31FF2F8031662023
:101F5A008F31FF2F4408E13ED0000030D1005214E7
:101F6A000130FB007B08D300D217FF2FD21742089B
:101F7A00FB004408E13E860087017B088100FF2FB1
:101F8A000230F3000030F4000030F5000030F600B3
:101F9A000030F700F8008B3108238F31FF2F4108FA
:101FAA00FB00FC017C08003A0319DC2FFF2F7B0899
:101FBA00003A0319A72F013A0319AB2F023A031962
:101FCA00AB2F063A03198E2F033A0319942F013ABD
:101FDA000319C52F0F3A03199C2F013A0319982F99
:101FEA00033A0319AF2F013A0319BB2F073A031912
:101FFA00FF2FFF2F0800343403344D340034693482
:10200A00003463340034723400346F34003463347F
:10201A0000346834003469340034703400342034B5
:10202A000034543400346534003463340034683482
:10203A0000346E3400346F3400346C3400346F343E
:10204A00003467340034793400342034003449349D
:10205A0000346E340034633400342E3400342834AF
:10206A0000340034003400340134043400340134C0
:10207A0000340034003400340034003400340034B6
:10208A000134573449344E345534533442340034CD
:10209A000034003400340034003400340034003496
:1020AA000034003400340034003400340034AC34DA
:1020BA00083408340934F834083440340C34FA3417
:1020CA000B34F134083491340B34B1340834B63457
:1020DA000834BB340834C0340834C5340834CA342C
:1020EA000834CF340834D4340834DC340A3409349C
:1020FA00023420340034013401340034C034323420
:10210A0009340434003400340234FF34FF34FF3419
:10211A0000340734053401340334083400340A34F3
:10212A000734053481340334083400340A3416344D
:10213A000334533400346D3400346134003472345F
:10214A000034743400342034003453340034683496
:10215A0000346F34003465340034123403344D349F
:10216A0000345334003446340034543400343134A7
:10217A0000343034003430340034EE340034123455
:10218A000134003402340034003400340834D834C2
:10219A000434533400340034013401340234033437
:1021AA000134E6349034003490349C349034DE3474
:1021BA009034083403343134003432340034343443
:0E21CA00003404340334093404347C3490347B
:020000040001F9
:04000E00E43F8F3FFD
:00000001FF
