:020000040000FA
:0400000080313228F1
:100008007E1480318B1E09280A2812280B1D0D2802
:100018000E28122889314521803130288B1D15285A
:1000280016281E280B1C19281A281E2889310B216E
:10003800803130280B1F2128222830282100121D4A
:100048002628272830282000121D2B282C28302865
:100058008131C721803130287E1009008031342851
:10006800A0308400003085001630FE000030FF000C
:1000780089312A218031B0308400013085003E303A
:10008800FE000030FF0089312A21803120308400B1
:10009800023085003630FE000030FF0089312A2109
:1000A8008031A0308400023085004030FE000030EE
:1000B800FF0089312A2180312030840003308500F7
:1000C8004030FE000030FF0089312A2180317E1047
:1000D80020008C31142C20005203031D742875282D
:1000E8008D2850081F39003A031D7B287C288D284D
:1000F8002100A817033020005106031D84288528F5
:100108008B280130E60066082300E2008D282300D2
:10011800E20120005208031D92289328C62950089E
:100128001F39023A031D99289A28C62954080F39FD
:10013800003A0319A028A128C62954080F39E60057
:10014800033066020318A928AA28C62920302100EE
:100158003306031DB028B128C629A8172000D41BD0
:10016800B628B728CD2854080F390907B73E8600A6
:1001780001308700403FEB00413FEC0054080F3945
:10018800C13E8600013087000108E6006608EA00E3
:10019800E12854080F390907A03E86008701403F2F
:1001A800EB00413FEC0054080F39C43E8600013093
:1001B80087000108E6006608EA006A18E428E528CE
:1001C800F028FB30E600FF30E7006B086605EB001F
:1001D8006C086705EC00F62804306B04EB0000306F
:1001E8006C04EC00D41BF928FA28062954080F39A6
:1001F8000907B73E8600013087006B08C03F6C08CE
:10020800C13F102954080F390907A03E860087010D
:100218006B08C03F6C08C13F03305106031D152908
:1002280016293C296B0886006C088700811F1D2948
:100238001E293129D41B212922292A2954080F399A
:10024800C13E8600013087008114312954080F39D6
:10025800C43E86000130870081146B0886006C0854
:10026800870001156B0886006C0887008117C6296E
:1002780004306B06EB0000306C06EC006B0886005F
:100288006C088700811F49294A2967297F30E600C1
:100298006B0886006C088700660881056B08860075
:1002A8006C08870001170530E0000030E1006C0899
:1002B800E3006B08E2000230E4000030E50087311B
:1002C800CB2780316C296B0886006C0887000117E2
:1002D800043020006B06EB0000306C06EC00EA18D6
:1002E800762977297F296B0886006C088700811F8B
:1002F8007E297F29AA29D41B822983298B2954087E
:100308000F39C13E860001308700811092295408B8
:100318000F39C43E86000130870081103B30E6006B
:100328006B0886006C088700660881050530E000C8
:100338000030E1006C08E3006B08E2000230E400E2
:100348000030E5008731CB278031B2293B30E60009
:100358006B0886006C088700660881052000540831
:100368000F39983EE600E7010E30E73D6608E800E1
:100378006708E900FE30E60068088600690887001B
:1003880066088105080021003303031DCC29CD2907
:10039800DA293D008E1AD129D229DA2990011214BE
:1003A800121602302100B8003808B3003D00101DB5
:1003B800DE29DF29EC29121DE229E329EC29FB308B
:1003C8002100B80038083D0090058931D5218131D8
:1003D8003D008E1CF029F129F42920001211DF2A92
:1003E800101CF729F8290A2A121CFB29FC290A2AB9
:1003F800843157248131210012150430B80038089F
:10040800B300FE30B80038083D009005101E0D2AD4
:100418000E2A152A121E112A122A152A8931B521E7
:1004280081313D00101F192A1A2A472A121F1D2A36
:100438001E2A2E2A73302000E0000030E100003030
:10044800E2000030E3000130E4000030E5008731CD
:10045800CB278131BF302100B80038083D00900516
:1004680089319921813123005F0803193C2A3D2AEB
:100478003F2A0130DF025F08031D432A442A472A26
:100488008E318C2681313D00901E4B2A4C2A532AEE
:10049800921E4F2A502A532A8A31922281313D00D6
:1004A800901C572A582A6E2A921C5B2A5C2A6E2AAC
:1004B800FF302000E0007F30E1000030E200003033
:1004C800E3000130E4000030E5008731CB278131BB
:1004D8003D0093010430210033020318742A752A61
:1004E800782A20001211DF2A3D00921D7C2A7D2ADD
:1004F800DD2A2100BA013D00901D832A842ADD2AC5
:100508000F082100B8003808B400340CB800B80C43
:10051800380C0F39B9003908AF00F730B80038087F
:100528003D009005210034199A2A9B2AAB2A2F08EE
:10053800C13E86000130870001080139B80001304A
:10054800B80601083806FE3938068100BA2A2F088D
:10055800C43E86000130870001080139B800013027
:10056800B80601083806FE39380681002F08031D31
:10057800BE2ABF2AC32A8D3100258131D22A723082
:100588002000E0000030E100B430E2000030E30079
:100598000030E400E5008731CB27813101302100AC
:1005A800B8003808BA0704303A02031CDC2ADD2AEE
:1005B8007F2A2000121108007108FD007008FC0055
:1005C80074087504031DE92AEA2AEB2AA92B7C087A
:1005D80086007D0887007208810074087C07F60091
:1005E80075087D3DF7007608FF3EF800FF30773D3F
:1005F800F9007808860079088700720881000030C1
:10060800750203300319740203180B2B0C2B0D2BE6
:10061800A92B7C08013EF60000307D3DF7007608E6
:10062800860077088700720881007C08023EF60081
:1006380000307D3DF700760886007708870072084D
:10064800810074087C07F60075087D3DF700760880
:10065800FE3EF800FF30773DF900780886007908FB
:1006680087007208810074087C07F60075087D3DD4
:10067800F7007608FD3EF800FF30773DF90078086E
:1006880086007908870072088100003075020730FB
:10069800031974020318512B522B532BA92B7C08D6
:1006A800033EF60000307D3DF700760886007708A7
:1006B80087007208810074087C07F60075087D3D84
:1006C800F7007608FC3EF800FF30773DF90078081F
:1006D80086007908870072088100003075020930A9
:1006E800031974020318792B7A2B7B2BA92B7C090D
:1006F800F6007D09F700F60A0319F70A03307605B4
:10070800FA0000307705FB007A08FC077B08FD3DFE
:100718007A08F4027B08F53BFC30F405FF30F50558
:10072800A32B7C0886007D088700720881000130B1
:10073800F4020030F53B0130FC070030FD3D740841
:100748007504031DA82BA92B952B0800210032083E
:1007580086008701413FF5007508F200F301730830
:1007680023003402031DBA2B720833020318BD2B71
:10077800BE2BC22B3308F2007208F5007508F20090
:10078800F3017208B3027308B43BF401DF2B740859
:10079800583E860087010108F200300886000130C3
:1007A8008700720881000130F2007208B00701303A
:1007B800F2007208F40775087402031CE42BE52B99
:1007C800CB2B330834040319EA2BEB2B242C210000
:1007D8002B08013EF20000302C3DF3007208860021
:1007E80073088700083081005830F2000030F300A9
:1007F8002B0886002C08870042317208C03F730816
:10080800C13F320886008701011B0B2C0C2C182CC9
:100818002B0886002C088700483081002B088600AA
:100828002C0887008117562C2B0886002C08870077
:10083800083081002B0886002C0887008117562C69
:1008480021002B08013EF20000302C3DF300720815
:10085800860073088700083081005030F2000030AD
:10086800F3002B0886002C08870042317208C03F2D
:100878007308C13F2B0886002C08870004308100CC
:100888002B0886002C0887008117230035083608B6
:10089800B21321002E08031D522C532C562C8E31D6
:1008A8008C2683310800210012113D00930190012C
:1008B80098010E30F2009930F100F30171088600BA
:1008C8007208870081010130F1070030F23D0130E4
:1008D800F0007008F30702307302031C742C752CA7
:1008E800622C16303D0091009F3097007B309200BB
:1008F800F4017408F0000130F035FF3E031D802C30
:100908007035203E860087010030C03F0030C13F6F
:10091800C23FC33F0130F0007008F4070C30740286
:10092800031C972C982C7D2C3D000E1796010E1257
:100938000E13F730F000700890052100A80123007D
:10094800B201B301B4013D009019AB2CAC2C9D2C25
:100958000130F00070082300DE000130F00070085C
:10096800DD00DC01DB01E101F4017435A03E860005
:1009780087010030C03FC13F7435B73E8600013063
:1009880087000030C03FC13F7408C43E8600013074
:10099800870081017408C13E86000130870081010B
:1009A8000130F0007008F40703307402031CDD2CDA
:1009B800DE2CB92C28302100A0000030A100163010
:1009C8003D00980000302000A3005030A2000830FD
:1009D800A1000430F0007008A000A0172100B501A4
:1009E80000302300C0000030BF000030BE000030DF
:1009F800BD00DA012100B30108003D000E122100FC
:100A0800A81B072D082D502D2300B21F0C2D0D2DCE
:100A18001F2D0230F50075082100B00023005B0887
:100A2800031D172D182D1B2D8D31562585312300BB
:100A3800DD01DE01A32D21002B08013EF500003069
:100A48002C3DF6007508860076088700083081007E
:100A58005030F5000030F6002B0886002C0887007F
:100A680042317508C03F7608C13F2B0886002C0824
:100A780087000C3081002B0886002C08870081171E
:100A8800200886002108870004308100200886009D
:100A9800210887008117A32D2000D01F542D552D24
:100AA800702D0130F50075082100B00023005C08A6
:100AB800031D5F2D602D632D8D3156258531230053
:100AC800DD01DE0121002E08031D6B2D6C2DA32DE9
:100AD8008E318C268531A32D0230F5007508210052
:100AE800B0002B08013EF50000302C3DF6007508DB
:100AF800860076088700083081005030F500003005
:100B0800F6002B0886002C08870042317508C03F84
:100B18007608C13F2B0886002C0887000430810026
:100B28002B0886002C08870081172300DD01DE01D1
:100B380021002E08031DA12DA22DA32D6C2D080028
:100B48002100A8170E302000E8009930E700E901DD
:100B5800670886006808870081010130E7070030D0
:100B6800E83D0130E6006608E90702306902031C27
:100B7800BE2DBF2DAC2D2030F0000030F10000302C
:100B8800F200F3003030F4000030F5008231E0224A
:100B980085313D000E172000EA016A08C43E860030
:100BA8000130870081016A08C13E86000130870054
:100BB80081010130E6006608EA0703306A02031C77
:100BC800E62DE72DD12DEB30F0000130F10000309B
:100BD800F200F3000230F4000030F5008231E02228
:100BE80085313D000E1328302100A0000030A100FF
:100BF80020302000E60066082100B2003208AB0071
:100C0800FF39031D0030AC0020005208E6006608DA
:100C18002100B5003508031D122E132E1A2E103090
:100C28002000E60066082100B300302E01302000C5
:100C3800E0000030E100B530E2000030E3000130B0
:100C4800E4000030E5008731CB27853120302000D3
:100C5800E60066082100B300080080302000500636
:100C6800031D372E382EBB2EC030F000700821002F
:100C7800A800A72E8D302100A6009030A7000030D4
:100C8800AA001230A900BB2E5208031D4C2E4D2E6F
:100C98007C2E5208F000F101F035F10DB3307007E9
:100CA80084009030713D8500003F2100A600013F7F
:100CB800A7002708F1002608F0000230700784001A
:100CC80071080318710A85000008F2007208A9006B
:100CD8002708F1002608F000033070078400710827
:100CE8000318710A85000008F2007208AA00BB2EDA
:100CF8002100A801BB2E043052020318842E852E31
:100D0800A12E5208F000F101F035F10D9F30700767
:100D180084009030713D8500003F2100A600013F0E
:100D2800A70026088400270885000008F000F101C4
:100D38007008A9007108AA00BB2E2100A801BB2ECB
:100D48002100A801BB2E20005308F000F101710812
:100D5800003A0319B02EA42E7008013A03193E2E4A
:100D6800033A0319482E013A03197F2EA42E0800CE
:100D78002000500E890C0339003A0319C42EC52EE1
:100D8800182F432F2100A81708302000ED006D0808
:100D98002100B300432F863131268631432F853118
:100DA800A4258631432FB5302100A6000030A700C6
:100DB800281401302000ED006D082100A900A817B3
:100DC800432F8D31B6258631432F80316F208631F0
:100DD800432F5408EB3E2100A6000130A700281439
:100DE80001302000ED006D082100A900A817432F4D
:100DF8002100A81720005208ED005408EB3E860099
:100E0800013087006D088100432F0230E000003078
:100E1800E1000030E2000030E3000030E400E500CB
:100E28008731CB278631432F5108ED00EE016E083C
:100E3800003A0319202F432F6D08003A0319E52EB5
:100E4800013A0319E92E023A0319E92E063A031961
:100E5800C62E033A0319CF2E013A0319092F0F3A68
:100E68000319D72E013A0319D32E033A0319ED2E8D
:100E7800013A0319FC2E073A0319432F432F0800A0
:100E8800F80070080319492F4A2F532F7835A03ED0
:100E980086008701403FF900413FFA005C2F783512
:100EA800B73E860001308700403FF900413FFA0015
:100EB80079087A04031D612F622F652FF001F10173
:100EC800CA2FFF307105F4007F307205F5007908EC
:100ED80086007A08870042317408C03F7508C13F10
:100EE8007908013EF40000307A3DF5007408860068
:100EF80075088700730881004030F400790886007F
:100F08007A08870074088105790886007A088700BE
:100F18008115790886007A088700811770080319F7
:100F2800962F972FAE2F7835A03E86008701403F39
:100F3800F400413FF50004307406F60000307506F1
:100F4800F7007835A03E860087017608C03F77080D
:100F5800C13FC62F7835B73E860001308700403F35
:100F6800F400413FF50004307406F60000307506C1
:100F7800F7007835B73E8600013087007608C03F15
:100F88007708C13F7A08F1007908F0000800D42FEB
:100F98008B311C238731FC2F8E311D268731FC2F86
:100FA80020006108003A0319DD2F7F3A0319F72F53
:100FB800FC2F6008013A0319CC2F033A0319FC2FC0
:100FC800013A0319D02F063A0319FC2F773A03196F
:100FD800FC2F013A0319FC2F073A0319FC2F013A99
:100FE8000319FC2FFC2F6008FF3A0319FC2FFC2F74
:060FF800080008000800DB
:101216002700931E0F291029132989313621893178
:10122600080021000D1220000D1622000D172000C7
:101236000D1222000D13080021000D1222000D13BD
:1012460020000D1222000D1720000D160800640064
:10125600800101310130FE020030FF3B7F087E0431
:10126600031D2B29003423005108520403193C297D
:101276003D29422952088A0051080A00893127006F
:10128600931208000B112300590820009500230033
:101296004F085004031950295129562950088A002D
:1012A6004F080A00893108002100BB000D122200F8
:1012B6000D132100BB1F60296129642920000D162A
:1012C600662920000D1222000D170D130800893122
:1012D60014218931A0308A316A2289312100C20065
:1012E6004208C3004303031979297A296A298931F7
:1012F6001F21893108002100BC000D1622000D13A4
:101306000D17FE302100BB003C08860087013B0814
:10131600810520000D1E90299129962921003C085F
:1013260086008701011422000D13080001302300F6
:10133600BD070030BE3D0030BF3D0030C03D6108F6
:10134600031DA629A729B4290130F0007008DA0781
:101356005A08031DAF29B029B429FF30F0007008E0
:10136600DA0008003D001215EF302000E60066089E
:101376003D0090058E1401302000E600660823002B
:10138600E100DA0175302000E0000030E1000030B5
:10139600E2000030E3000030E400E5008731CB27AF
:1013A600893108002300E10174302000E00000309C
:1013B600E1000030E2000030E3000030E400E50028
:1013C6008731CB2789313D008E101211F029FB3071
:1013D6002000E60066083D0090051019F329F4295F
:1013E600EA292300DA010800FC00771DFB29FC2905
:1013F600012AF0017C088B318D238931F71C042AE0
:10140600052A0B2AF001F00A7C088B318D238931DD
:101416007C08983EF800F9010E30F93D7808FA008C
:101426007908FB007A0886007B0887007708810028
:10143600080021004508C7004708C8004408C7003F
:101446004708C900893114218A31A0308A316A22BD
:101456008A31210048088A316A228A3121004908E6
:101466008A316A228A31210046088A316A228A3103
:1014760089311F218A3189316A218A310800210088
:10148600BE00C101BF01C00121004135BD003D08BC
:10149600C100C13089317E218A3101302100BF0768
:1014A6000030C03D4008803ABD0080303D02031D3B
:1014B6005E2A08303F02031C612A622A472A21005D
:1014C6003E08893157218A31210041080800210050
:1014D600BE00C101C10ABF01C00121003E08893119
:1014E60057218A3121003E35BD003D08BE0001303E
:1014F600BF070030C03D4008803ABD0080303D0245
:10150600031D872A08303F02031C8A2A8B2A702A69
:10151600C13089317E218A312100410808003D0011
:10152600181C962A972AB82A2100320886008701B5
:1015360080300106031DA02AA12AB62A20088600AB
:101546002108870084300106031DAA2AAB2AB62A81
:101556000C30F000320886008701700881003208DE
:101566008600870181173D001810DF30F0007008F3
:1015760090050800F8007108F6007008F500780874
:10158600F4007408F900DE2A7508860076088700DC
:101596000108F4007408F7000130F5070030F63D45
:1015A6007708F40079088600870174088100013005
:1015B600F4007408F9070130F2020030F33B720AB6
:1015C600031DE92A730A031DE92AEA2AC72A080025
:1015D60021004308C5004508C6004208C500450865
:1015E600C700893114218A31A0308A316A228A31B2
:1015F600210046088A316A228A31210047088A3149
:101606006A228A31893114218A31A1308A316A22CB
:101616008A3180308A3142228A312100C50044084D
:101626008600013087004508810089311F218A31F3
:10163600080000302300E7000030E6004B30E500EC
:101646000030E400E801E9010830FD007D08EA0009
:10165600D8011A30FD007D08F70001308931F721E5
:101666008B311E30FD007D08F70002308931F721ED
:101676008B31F001C030F1002030F2004030FD0027
:101686007D08F3000230873144278B31710823002F
:10169600CA007008C900C701C8012100AD010800D1
:1016A600023021003006031D592B5A2B5E2B833145
:1016B600AA238B318C2BB00123006008031D642BF9
:1016C600652B8B2B21002B08013EF60000302C3DAC
:1016D600F7007608860077088700083081005030CA
:1016E600F6000030F7002B0886002C0887004231F0
:1016F6007608C03F7708C13F2B0886002C08870074
:101706000C3081002B0886002C08870081178C2B53
:10171600E0010800F5002030F1007108F6007008BD
:10172600F1000130F135890B952B7508F200013077
:10173600F235FF3E031D9B2B72357107F300013016
:10174600F335FF3E031DA32B7335F4007408F6072B
:1017560076088600870181137008031DB32BB42B0E
:10176600BE2B7535B73E8600013087007608C03F30
:101776000030C13FC62B7535A03E8600870176082E
:10178600C03F0030C13F7608860087010113760806
:10179600043E86008701011708002100C300893135
:1017A60014218B31A0308A316A228B3100308A3184
:1017B6006A228B31FF308A316A228B3189311421BA
:1017C6008B31A1308A316A228B312100C401C501D7
:1017D60000308A3142228B312100C2004308860044
:1017E60001308700420881000130C4070030C53D42
:1017F6000F304502FF3003194402031C032C042C4E
:10180600EB2B80308A3142228B312100C200430803
:101816008600013087004208810089311F218B3103
:1018260008002300EE01EF016E082100CA00230024
:101836006E082E3E86000230870021004A0881008D
:1018460001302300EE070030EF3D00306F022030FC
:1018560003196E02031C302C312C172C003021008A
:10186600C400C5002E30CA004A08C6008C315B246D
:101876008C3100302100C4000130C5002E30CA0072
:101886004A08C6008A311C228C3100302100C20071
:101896000130C300ED30CA004A08C4008A31EB2289
:1018A6008C31ED308B31D0238C31142C80313228A1
:1018B60021004408C70047082400D7001F30210034
:1018C6004405C70000304505C80047084804031909
:1018D6006D2C6E2C6F2CA92C893114218C31A030E3
:1018E6008A316A228C3100308A316A228C31240096
:1018F60057088A316A228C312400D801D901240084
:10190600580821004607C7004708860002308700AE
:1019160001088A316A228C3101302400D807003050
:10192600D93D5908803A2100C70080304702031D7F
:101936009F2C203024005802031CA22CA32C822C9E
:1019460089311F218C3189316A218C3108002100AF
:10195600B101AE012300DC01DB01E0012100B00191
:101966007F302000EF002100200886002108870034
:1019760020006F088105043021002006A0000030F9
:101986002106A1007F302000EF00210020088600FC
:101996002108870020006F088105043021002006F9
:1019A600A00000302106A1007F302000EF002100BA
:1019B6002B0886002C08870020006F08810521006F
:1019C600A801A901AA012300B201B301B40186311D
:1019D600BC268C3103302000E0000030E1000030EE
:1019E600E2000030E3000030E400E5008731CB2759
:1019F6008C31853101258C3108002D302100B6004F
:101A060036082300DF0021003408FD39031D0C2DA4
:101A16000D2D492D34363F39B6000130B635FF3E1F
:101A2600031D112D3635203EB7003708B2003208A7
:101A3600AB00FF39031D0030AC0004302B06AB00B1
:101A460000302C06AC00320886008701010C890C98
:101A56000F390D3A031D302D312D452D3208023E2A
:101A660086008701403FF000413FF1000830F20058
:101A76000030F30050308A31BD228D318C31AA24DA
:101A86008D31552D8B3153238D31552DFD30340538
:101A9600B60004303606031D512D522D552D8F31BB
:101AA60005278D3108002300DC01DB01023021000F
:101AB6003006031D5F2D602D852D2B08013EF3009A
:101AC60000302C3DF4007308860074088700083047
:101AD60081005830F3000030F4002B0886002C08F3
:101AE600870042317308C03F7408C13F2B08860047
:101AF6002C088700483081002B0886002C088700B8
:101B06008117B52D2A0820005702031D8E2D2100AE
:101B16002908200056020318912D922D992D570859
:101B26002100AA00200056082100A9008F317F2736
:101B36008D315830F3000030F40021002008860073
:101B46002108870042317308C03F7408C13F20084E
:101B56008600210887004830810020088600210879
:101B66008700811708002000D801D901FA2D21002D
:101B7600A81723006203031DC12DC22D0E2E2000BF
:101B8600D8140E2E2100A8170E2E2100A81720000B
:101B9600D41BCE2DCF2DDB2D54080F390907B73EA8
:101BA600860001308700403FF200413FF300E52DFB
:101BB60054080F390907A03E86008701403FF2000E
:101BC600413FF3007208860073088700811FEC2DE1
:101BD600ED2D0E2E7208860073088700011DF42D68
:101BE600F52D0E2E0130F0007008D8000E2E50088C
:101BF6001F39F000F1017108003A0319032E0E2E69
:101C06007008003A0319BA2D013A0319C52D033A93
:101C16000319C82D0E2E2100A81F122E132E1C2EBE
:101C26005830A6000030A70028140230F0007008D3
:101C3600A9000800200050081F39013A0319242E74
:101C4600252E262E8B2E500E890C0339013A0319A8
:101C56002D2E2E2E2F2E8B2E54080319332E342E76
:101C6600722E54030319382E392E722E8B2E4E30B7
:101C76002100A6000230A7000030AA000830A90003
:101C86002814A8178B2E4E302100A6000230A7007C
:101C9600A8178B2E57082300B400200056082300EF
:101CA600B300E430F0007008B000B501B601B21719
:101CB6008B2EE4302100A6000130A7000030AA00D8
:101CC6000730A900C130F0007008A8008B2E52081A
:101CD600F00070082300D5002100A8178B2E5108AC
:101CE600F000F1017108003A03197A2E8B2E700864
:101CF600003A03193A2E013A0319462E213A0319DE
:101D06004D2E013A03195C2E033A03196A2E8B2EC7
:101D1600080023005E08031D912E922E042F013029
:101D2600F0007008DE005D08031D9A2E9B2E042F1E
:101D36000130F0007008DD00023021003006031D7E
:101D4600A52EA62EB82E2008860021088700413130
:101D5600810120088600210887004830810020087C
:101D66008600210887008117042F3003031DBC2E2F
:101D7600BD2E042F2300E0010830F0002100320AB6
:101D860086008701700881005030F0000030F100B5
:101D96003208023E860087017008C03F7108C13FC5
:101DA6000430F0003208860087017008810032088E
:101DB6008600870181170130F00070082300E000DB
:101DC60021002B08013EF00000302C3DF100700888
:101DD600860071088700083081005030F00000301E
:101DE600F1002B0886002C08870042317008C03F9E
:101DF6007108C13F2B0886002C08870080308100BF
:101E0600042F0800210020088600210887000030E2
:101E1600011B0130F50004302006A0000030210629
:101E2600A10008303306031D192F1A2F2F2F20006B
:101E360052087F393D00960016080319232F242FD8
:101E46002A2F1030F30073082100B3002F2F04301F
:101E5600F30073082100B3003003031D332F342F22
:101E6600742F5830F3000030F40020088600210853
:101E7600870042317308C03F7408C13F8F317F2706
:101E86008F31023021003106031D4A2F4B2F572F69
:101E9600200886002108870004308100200886007B
:101EA6002108870081177E2F7508031D5B2F5C2F85
:101EB600682F200886002108870048308100200806
:101EC60086002108870081177E2F200886002108BA
:101ED60087000830810020088600210887008117C6
:101EE6007E2F2300B21F782F792F7C2F35083608D6
:101EF600B2132100B00108000830F0007008F200AB
:101F0600003021002A0208300319290203188C2FF9
:101F16008D2FA42F2908F0007008F2003108031D48
:101F2600952F962F9B2F0130F0007008B100A42F3B
:101F36003103031D9F2FA02FA42F0230F00070083D
:101F4600B1007208F000F1017008A9027108AA3BFD
:101F56002008013EF0000030213DF10070088600A7
:101F660071088700720881005830F000700823005D
:101F7600E30021002818C02FC12FFA2FDB2F2100E4
:101F860026088400270885000008F000230063085F
:101F9600860087017008810001302100A607003005
:101FA600A73D0130F00070082300E3070130F2027C
:101FB6007208031DDF2FE02FC22FFF2F21002608F6
:101FC6008400270885000008F000230063088600C7
:101FD60087017008810001302100A6070030A73D67
:101FE6000130F00070082300E3070130F2027208A6
:101FF600031DFE2FFF2FE12F08000934023443345E
:102006000034023401340034C03432340934043428
:10201600003400340134023402340134003405340F
:1020260024340034103401340434243402340234A9
:1020360005342434063400340134053424340134A0
:102046000034013407340534813403340A3400344F
:102056000234093404340134003402340A340034BE
:10206600003400340734053402340234403400347A
:1020760000340734053482340234403400340034EA
:10208600343403344D34003469340034633400345A
:10209600723400346F3400346334003468340034EE
:1020A600693400347034003420340034543400343D
:1020B6006534003463340034683400346E340034DC
:1020C6006F3400346C3400346F34003467340034B9
:1020D6007934003420340034493400346E3400340A
:1020E600633400342E34003416340334533400344D
:1020F6006D34003461340034723400347434003486
:102106002034003453340034683400346F340034DF
:10211600653400341234013400340234023400349D
:1021260000340834D83404340A340034003401341A
:102136000134023403340134AF34903443349034E0
:1021460077349034A734903408340334313400346F
:10215600323400343434003404340334093404345F
:04216600003490347D
:020000040001F9
:04000E00E43FFF3F8D
:00000001FF
