:020000040000FA
:1000000080313328961508007E1480318B1A0B1D21
:100010000D289C31EE24803131288B190B1C1428BB
:100020009C311824803131280B1F31282100121DEA
:1000300020282000121D20288331AC238031312854
:1000400021009219200092192B282100911D31289E
:100050002000911D3128230057088A0056080A0005
:1000600080317E100900803135282100C601C7018A
:10007000C801C901CA01B030840001308500403098
:10008000FE000030FF009C31792480312030840054
:10009000023085004E30FE000030FF009C31792494
:1000A0008031A0308400023085004A30FE000030EC
:1000B000FF009C317924803120308400033085009A
:1000C0004030FE000030FF009C3179247E1020007B
:1000D00089311B2920005203031D832850081F3932
:1000E000003A031D83282300C51703302000510662
:1000F000031D812801302100B90039082300E900DF
:1001000083282300E90120005208031D080050083D
:100110001F39023A031D080054080F39003A031929
:10012000080054080F392100B900033039020318C0
:10013000080020304906031D08002300C5172000D1
:10014000D41BB32854080F390907BD3E860001307F
:100150008700403F2100BE00413FBF0020005408FF
:100160000F39C83EC32854080F390907B73E860027
:1001700001308700403F2100BE00413FBF0020000A
:1001800054080F39CB3E860001308700010821005A
:10019000B9003908BD003D18D728FB30B900FF3041
:1001A000BA003E083905BE003F083A05DC28043095
:1001B0003E04BE0000303F04BF002000D41BED28E9
:1001C00054080F390907BD3E860001308700210021
:1001D0003E08C03F3F08C13FF92854080F390907BE
:1001E000B73E86000130870021003E08C03F3F082F
:1001F000C13F033020005106031D1F2921003E0886
:1002000086003F088700811F13292000D41B0C297A
:1002100054080F39C83E0F2954080F39CB3E8600C9
:1002200001308700811421003E0886003F088700C6
:1002300001153E0886003F0887008117080004303A
:1002400021003E06BE0000303F06BF003E0886008B
:100250003F088700811F49297F30B9003E0886008A
:100260003F088700390881053E0886003F0887005F
:1002700001170530B3000030B4003F08B6003E0857
:10028000B5000230B7000030B80090315020803106
:100290004E293E0886003F088700011704302100E0
:1002A0003E06BE0000303F06BF00BD185D293E0877
:1002B00086003F088700811F84292000D41B642901
:1002C00054080F39C83E672954080F39CB3E8600C1
:1002D0000130870081103B302100B9003E088600C4
:1002E0003F088700390881050530B3000030B400AD
:1002F0003F08B6003E08B5000230B7000030B80035
:100300009031502080318C293B30B9003E08860066
:100310003F08870039088105200054080F39983EAE
:100320002100B900BA010E30BA3D3908BB003A08C5
:10033000BC00FE30B9003B0886003C088700390845
:100340008105080020005203031DBA2950081F39F7
:10035000003A031DBA292300C517033020005106B7
:10036000031DB8290130E60066082300E900BA2918
:100370002300E90120005208031D080050081F391E
:10038000023A031D080054080F39003A0319080007
:1003900054080F39E60003306602031808002030C5
:1003A00021004906031D08002300C5172000D41BA7
:1003B000E82954080F390907BD3E8600013087003F
:1003C000403FEB00413FEC0054080F39C83EF6298E
:1003D00054080F390907B73E860001308700403FB7
:1003E000EB00413FEC0054080F39CB3E8600013052
:1003F00087000108E6006608EA006A18092AFB304F
:10040000E600FF30E7006B086605EB006C08670547
:100410000E2A04306B04EB0000306C04EC00D41B9B
:100420001D2A54080F390907BD3E86000130870098
:100430006B08C03F6C08C13F282A54080F390907D0
:10044000B73E8600013087006B08C03F6C08C13F93
:1004500003305106031D4A2A6B0886006C0887008A
:10046000811F3F2AD41B382A54080F39C83E3B2A23
:1004700054080F39CB3E86000130870081146B0889
:1004800086006C08870001156B0886006C088700E1
:100490008117080004306B06EB0000306C06EC009E
:1004A0006B0886006C088700811F732A7F30E60086
:1004B0006B0886006C088700660881056B0886005B
:1004C0006C08870001170530E0000030E1006C087F
:1004D000E3006B08E2000230E4000030E5009031F8
:1004E00021208131782A6B0886006C08870001176B
:1004F000043020006B06EB0000306C06EC00EA18BC
:10050000872A6B0886006C088700811FAC2AD41BE1
:100510008D2A54080F39C83E902A54080F39CB3E13
:1005200086000130870081103B30E6006B088600B2
:100530006C088700660881050530E0000030E100A6
:100540006C08E3006B08E2000230E4000030E500D4
:10055000903121208131B42A3B30E6006B088600BF
:100560006C08870066088105200054080F39983E02
:10057000E600E7010E30E73D6608E8006708E9009D
:10058000FE30E60068088600690887006608810575
:1005900008004903031DD82A3D008E1AD82A90016D
:1005A0001214121602302500EA006A082100C90060
:1005B0003D001019121DE52AFB302500EA006A08EB
:1005C0003D0090059031012082313D008E1CEB2AC8
:1005D0002000121108001018121CFE2A8631AD26C8
:1005E0008231121504302500EA006A082100C90092
:1005F000FE302500EA006A083D009005101A121E20
:10060000042B9E31122682313D00101F2D2B121F0C
:10061000192B73302100B3000030B4000030B50056
:100620000030B6000130B7000030B80090315020E3
:100630008231BF302500EA006A083D0090059D31F7
:10064000D725823165080319272B0130E50265089B
:10065000031D2D2B8831A92082313D00901A921E56
:10066000342B9F31042782319018921C492BFF3084
:100670002100B3007F30B4000030B5000030B60078
:100680000130B7000030B8009031502082313D0079
:1006900093010430210049020318512B200012114C
:1006A00008003D00921DA92B2100C501A62B0F08B3
:1006B0002500EA006A082100CA004A0C2500EA0069
:1006C000EA0C6A0C0F39EB006B082300E700F730E7
:1006D0002500EA006A083D00900521004A19742BA4
:1006E00023006708C83E772B23006708CB3E8600AF
:1006F00001308700010801392500EA000130EA06CF
:1007000001086A06FE396A06810023006708031D96
:100710008D2B9331312382319C2B72302100B30019
:100720000030B400CA30B5000030B6000030B70069
:10073000B80090315020823101302500EA006A086B
:100740002100C507043045020318A92B3D0090196C
:10075000572B20001211080021004903031DBB2B59
:100760003D008E1ABB2B900112141216023021008C
:10077000A2002208C9003D001019121DC82BFB3031
:100780002100A20022083D0090059E3150268331B1
:100790003D008E1CCE2B2000121108001018121CD8
:1007A000DE2B87315A27833112150430A20022082C
:1007B000C900FE30A20022083D009005101A121E4A
:1007C000E42B9D31F42583313D00101F0D2C121FA9
:1007D000F92B73302000E0000030E1000030E2002F
:1007E0000030E3000130E4000030E50090312120CA
:1007F0008331BF302100A20022083D0090059D31C9
:100800005525833165080319072C0130E502650879
:10081000031D0D2C9731922783313D00901A921EB3
:10082000142C9E31902683319018921C292CFF3075
:100830002000E0007F30E1000030E2000030E30003
:100840000130E4000030E5009031212083313D008B
:1008500093010430210049020318312C20001211A9
:1008600008003D00921D862C2100A401832C0F0856
:100870002100A2002208CA004A0CA200A20C220CED
:100880000F39A30023082300E700F7302100A2005E
:1008900022083D00900521004A19522C23006708C8
:1008A000C83E552C23006708CB3E860001308700E8
:1008B000010801392100A2000130A2060108220628
:1008C000FE392206810023006708031D6B2C92313C
:1008D000E42283317A2C72302000E0000030E10005
:1008E000CA30E2000030E3000030E400E50090315F
:1008F0002120833101302100A2002208A407043006
:1009000024020318862C3D009019372C2000121168
:1009100008002608B2002508B10029082A04031996
:10092000080031088600320887002708810029085E
:100930003107AB002A08323DAC002B08FF3EAD006A
:10094000FF302C3DAE002D0886002E0887002708BA
:10095000810000302A02033003192902031C080019
:100960003108013EAB000030323DAC002B08860060
:100970002C088700270881003108023EAB000030B8
:10098000323DAC002B0886002C0887002708810028
:1009900029083107AB002A08323DAC002B08FE3E87
:1009A000AD00FF302C3DAE002D0886002E088700DC
:1009B0002708810029083107AB002A08323DAC0026
:1009C0002B08FD3EAD00FF302C3DAE002D0886000B
:1009D0002E0887002708810000302A0207300319FB
:1009E0002902031C08003108033EAB000030323DF1
:1009F000AC002B0886002C088700270881002908F6
:100A00003107AB002A08323DAC002B08FC3EAD009C
:100A1000FF302C3DAE002D0886002E0887002708E9
:100A2000810000302A02093003192902031C080042
:100A30003109AB003209AC00AB0A0319AC0A033030
:100A40002B05AF0000302C05B0002F08B10730088F
:100A5000B23D2F08A9023008AA3BFC30A905FF309F
:100A6000AA0529082A04031908003108860032085B
:100A70008700270881000130A9020030AA3B01301D
:100A8000B1070030B23D312D7108FD007008FC0047
:100A900074087504031908007C0886007D08870027
:100AA0007208810074087C07F60075087D3DF70028
:100AB0007608FF3EF800FF30773DF90078088600A1
:100AC000790887007208810000307502033003192D
:100AD0007402031C08007C08013EF60000307D3DD6
:100AE000F7007608860077088700720881007C0886
:100AF000023EF60000307D3DF7007608860077085C
:100B000087007208810074087C07F60075087D3D37
:100B1000F7007608FE3EF800FF30773DF9007808D0
:100B20008600790887007208810074087C07F60047
:100B300075087D3DF7007608FD3EF800FF30773DF3
:100B4000F900780886007908870072088100003073
:100B50007502073003197402031C08007C08033E69
:100B6000F60000307D3DF7007608860077088700A4
:100B70007208810074087C07F60075087D3DF70057
:100B80007608FC3EF800FF30773DF90078088600D3
:100B90007908870072088100003075020930031956
:100BA0007402031C08007C09F6007D09F700F60AB0
:100BB0000319F70A03307605FA0000307705FB00C9
:100BC0007A08FC077B08FD3D7A08F4027B08F53BB8
:100BD000FC30F405FF30F5057408750403190800AE
:100BE0007C0886007D088700720881000130F402CD
:100BF0000030F53B0130FC070030FD3DEC2D2100BD
:100C0000480886008701413FAA002A08A700A801DA
:100C1000280823003402031D112E21002708230079
:100C200033020318182E33082100A7002708AA0052
:100C300021002A08A700A80127082300B3022100E9
:100C400028082300B43B2100A9012A08290203181F
:100C5000422E2908583E860087010108A70023007C
:100C6000300886000230870021002708810001300B
:100C7000A70027082300B00701302100A70027089C
:100C8000A907252E23003308340403197E2E2100E2
:100C90004608013EA7000030473DA800270886000F
:100CA00028088700083081005830A7000030A800CD
:100CB000460886004708870042312708C03F2808B9
:100CC000C13F480886008701011B722E4608860036
:100CD000470887004830810046088600470887009B
:100CE0008117080046088600470887000830810001
:100CF000460886004708870081170800210046083B
:100D0000013EA7000030473DA800270886002808BC
:100D10008700083081005030A7000030A800460846
:100D200086004708870042312708C03F2808C13F96
:100D30004608860047088700043081004608860080
:100D4000470887008117230035083608B213640866
:100D5000031D08008831A9200800210012113D0060
:100D60009301900198010E302100A7009930A60050
:100D7000A801260886002708870081010130A60700
:100D80000030A73D0130A5002508A8070230280241
:100D9000031CB92E16303D0091009F3097007B3028
:100DA00092002100A9012908A5000130A535FF3EC8
:100DB000031DD62E2535203E860087010030C03F1A
:100DC0000030C13FC23FC33F0130A5002508A9073D
:100DD0000C302902031CD32E3D000E1796010E1273
:100DE0000E13F7302100A50025083D0090052300D3
:100DF000C501B201B301B4013D009019F12E0130DB
:100E00002100A50025082300E30001302100A500F2
:100E100025082300E200E101E001E8012100A90129
:100E20002935B73E8600013087000030C03FC13F02
:100E30002935BD3E8600013087000030C03FC13FEC
:100E40002908CB3E86000130870081012908C83E71
:100E500086000130870081010130A5002508A9071F
:100E600003302902031C102F28302300B700003064
:100E7000B80016303D00980000302000A30050302C
:100E8000A2000830A10004302100A50025082000A0
:100E9000A000A0172300EF0100302400C4000030A0
:100EA000C3000030C2000030C1002300DF01210078
:100EB000C9010800210012113D0093019001980121
:100EC0000E30F2009930F100F301710886007208CB
:100ED000870081010130F1070030F23D0130F00060
:100EE0007008F30702307302031C652F163091005F
:100EF0009F3097007B309200F4017408F0000130BD
:100F0000F035FF3E031D802F7035203E860087019F
:100F10000030C03F0030C13FC23FC33F0130F0004E
:100F20007008F4070C307402031C7D2F0E17960115
:100F30000E120E13F730F000700890052300C50163
:100F4000B201B301B4013D0090199A2F0130F000B5
:100F500070082300E3000130F0007008E200E101B6
:100F6000E001E801F4017435B73E860001308700E6
:100F70000030C03FC13F7435BD3E86000130870060
:100F80000030C03FC13F7408CB3E8600013087006F
:100F900081017408C83E860001308700810101305C
:100FA000F0007008F40703307402031CB32F2830DC
:100FB0002300B7000030B80016303D009800003024
:100FC0002000A3005030A2000830A1000430F0003F
:100FD0007008A000A0172300EF0100302400C40017
:100FE0000030C3000030C2000030C1002300DF0128
:100FF0002100C90108002400BC10BB010E3008000C
:1010000000302400EA000030E9004B30E8000030F6
:10101000E700EB01EC010830FD007D08ED00230046
:10102000DC011A30FD007D08F70001309E313026CA
:1010300088311E30FD007D08F70002309E313026D9
:101040008831F001C030F1002030F2004030FD0066
:101050007D08F30002308A31132271082400C80091
:101060007008C700C501C6012300DB01080023008A
:1010700037088600380887000030011B0130210046
:10108000AA00043023003706B70000303806B80045
:10109000083021004906031D5C28200052087F39D2
:1010A0003D009600160803195728103058280430C0
:1010B0002100A8002808C90023006B03031DA228F3
:1010C00058302100A8000030A9002300370886000E
:1010D00038088700423121002808C03F2908C13F55
:1010E0008D312D258831023023006C06031D8428A4
:1010F00037088600380887000430810037088600EA
:10110000380887008117080021002A08031D952848
:1011100023003708860038088700483081003708E8
:1011200086003808870081170800230037088600EA
:1011300038088700083081003708860038088700A3
:1011400081170800B21FA72835083608B213EB0133
:10115000080023006308031D080001302100A500DA
:1011600025082300E3006208031D08000130210068
:10117000A50025082300E20002306B06031DD228DB
:10118000370886003808870041318101370886001A
:101190003808870048308100370886003808870003
:1011A000811708006B03031D0800E60108302100C9
:1011B000A500480A86008701250881005030A50057
:1011C0000030A6004808023E860087012508C03F7F
:1011D0002608C13F0430A50048088600870125087D
:1011E000810048088600870181170130A500250885
:1011F0002300E60021004608013EA5000030473DDF
:10120000A600250886002608870008308100503097
:10121000A5000030A6004608860047088700423136
:101220002508C03F2608C13F4608860047088700BA
:101230008030810008009D313D2589318B170B17C7
:10124000A0302500EC006C082300DD00AA3023004C
:10125000D0000030D10055302500EC006C0824008F
:10126000CF004F0890317F2089314F309131542188
:101270008931B0302300D0000030D1002500ED01CD
:101280006D080F3CEC006D084F3E86000230870071
:101290006C0881000130EC006C08ED0710306D0225
:1012A000031C40291030EC006C082100AD004F30C9
:1012B0009131D22189311030AB000030AC004F3079
:1012C0009531312589318231C9228931203021007F
:1012D0004906031D26293D008E18262923004E08A5
:1012E0004F04031979294E0886004F088700811B97
:1012F00026292100A501A50A4F30A6000230A7002B
:1013000010302500EC006C082100A80081308A31E3
:101310009622893126082300CF00210025082300CA
:10132000CE0026292000500E890C0339003A031DF7
:101330000800E7292300C51708302000ED006D08DC
:101340002100C90008008B319D2308008C31A7249F
:101350000800EF302300C3000130C4004514013001
:101360002000ED006D082300C600C5170800943169
:10137000792408008131A22108005408ED3E2300A1
:10138000C3000130C400451401302000ED006D0899
:101390002300C600C51708002300C5172000520807
:1013A000ED005408ED3E8600013087006D08810095
:1013B00008000230E0000030E1000030E2000030C0
:1013C000E3000030E400E5009031212008005108DE
:1013D000ED00EE016E08003A0319EF29122A6D089C
:1013E000003A0319B729013A0319BA29023A031935
:1013F000BA29063A03199A29033A0319A329013A8B
:101400000319D9290F3A0319A929013A0319A62961
:10141000033A0319BD29013A0319CC29073A0319E4
:10142000122A122A0800F80070080319202A7835B9
:10143000B73E860001308700403FF900413F282A2F
:101440007835BD3E860001308700403FF900413FBE
:10145000FA0079087A04031D302AF001F10108002E
:10146000FF307105F4007F307205F50079088600C1
:101470007A08870042317408C03F7508C13F790877
:10148000013EF40000307A3DF500740886007508CE
:101490008700730881004030F400790886007A08DC
:1014A000870074088105790886007A08870081150D
:1014B000790886007A088700811770080319792A4D
:1014C0007835B73E860001308700403FF400413F49
:1014D000F50004307406F60000307506F700783524
:1014E000B73E8600013087007608C03F7708C13FCD
:1014F000912A7835BD3E860001308700403FF400D8
:10150000413FF50004307406F60000307506F70020
:101510007835BD3E8600013087007608C03F7708E9
:10152000C13F7A08F1007908F0000800AD002508F5
:101530000319A32A2D35B73E860001308700403FAE
:10154000AE00413FAB2A2D35BD3E860001308700FD
:10155000403FAE00413FAF002E082F04031DB32AC9
:10156000A501A6010800FF302605A9007F30270548
:10157000AA002E0886002F08870042312908C03FA4
:101580002A08C13F2E08013EA90000302F3DAA00C5
:10159000290886002A088700280881004030A90011
:1015A0002E0886002F088700290881052E0886004E
:1015B0002F08870081152E0886002F0887008117C5
:1015C00025080319FC2A2D35B73E86000130870017
:1015D000403FA900413FAA0004302906AB0000307B
:1015E0002A06AC002D35B73E8600013087002B0857
:1015F000C03F2C08C13F142B2D35BD3E8600013065
:101600008700403FA900413FAA0004302906AB00F3
:1016100000302A06AC002D35BD3E86000130870023
:101620002B08C03F2C08C13F2F08A6002E08A5009C
:1016300008002300C5170E302100BB009930BA0006
:10164000BC013A0886003B08870081010130BA07D7
:101650000030BB3D0130B9003908BC0702303C0204
:10166000031C212B2030A5000030A6000030A7006D
:10167000A8003030A9000030AA00843189248B31C1
:101680003D000E172100BD013D08CB3E8600013014
:10169000870081013D08C83E860001308700810136
:1016A0000130B9003908BD0703303D02031C442B4B
:1016B000ED30A5000130A6000030A700A8000230E0
:1016C000A9000030AA00843189248B313D000E131B
:1016D00028302300B7000030B80020302100B900C6
:1016E0003908C8004808C600FF39031D0030C7008C
:1016F000200052082100B90039082300EF006F08CC
:10170000031D882B10302100B9003908C9000800DA
:1017100001302100B3000030B400EF30B5000130DB
:10172000B6000130B7000030B800903150202030B2
:101730002100B9003908C900080080302000500697
:10174000031D0800C030F00070082300C5000D2CF8
:10175000AD302300C3009830C4000030C700123001
:10176000C60008005208031DE42B5208F000F101E6
:10177000F035F10DD330700784009830713D85004D
:10178000003F2300C300013FC4004408F1004308A8
:10179000F00002307007840071080318710A850098
:1017A0000008F2007208C6004408F1004308F00087
:1017B00003307007840071080318710A850000085F
:1017C000F2007208C70008002300C50108000430B9
:1017D00052020318072C5208F000F101F035F10D08
:1017E000BF30700784009830713D8500003F2300B2
:1017F000C300013FC400430884004408850000087A
:10180000F000F1017008C6007108C700080023004D
:10181000C50108002300C501080020005308F0009E
:10182000F1017108003A0319162C0A2C7008013ACC
:101830000319A82B033A0319B22B013A0319E72B1A
:101840000A2C08002000500E890C0339003A031DB1
:1018500008007A2C2300C51708302100C00040087A
:10186000C90008008E31C82608008B3119230800F2
:10187000EF302300C3000130C400451401302100C3
:10188000C00040082300C600C51708009531902508
:10189000080080316A20080020005408ED3E230033
:1018A000C3000130C400451401302100C0004008CD
:1018B0002300C600C51708002300C51720005208E2
:1018C0002100C00020005408ED3E86000130870052
:1018D00021004008810008000230B3000030B4004D
:1018E0000030B5000030B6000030B700B8009031CD
:1018F0005020080051082100C000C1014108003AF1
:101900000319832CA62C4008003A0319462C013AEF
:101910000319492C023A0319492C063A03192A2CB7
:10192000033A0319322C013A03196C2C0F3A0319AC
:10193000382C013A0319352C033A03194C2C013A7F
:1019400003195C2C073A0319A62CA62C08002300C7
:10195000C5170E302000E8009930E700E90167085C
:1019600086006808870081010130E7070030E83D04
:101970000130E6006608E90702306902031CAF2C5B
:101980002030F0000030F1000030F200F300303081
:10199000F4000030F500853144258C313D000E17F0
:1019A0002000EA016A08CB3E8600013087008101F1
:1019B0006A08C83E86000130870081010130E600D8
:1019C0006608EA0703306A02031CD22CED30F000EF
:1019D0000130F1000030F200F3000230F40000307A
:1019E000F500853144258C313D000E13283023004D
:1019F000B7000030B80020302000E6006608210063
:101A0000C8004808C600FF39031D0030C700200089
:101A10005208E60066082300EF006F08031D172D2B
:101A200010302000E60066082100C90008000130DF
:101A30002000E0000030E100EF30E2000130E30080
:101A40000130E4000030E5009031212020302000FA
:101A5000E60066082100C900080008302100A50042
:101A60002508A7000030230047020830031946026A
:101A700003184E2D46082100A5002508A7002300C5
:101A80006C08031D452D0130492D6C03031D4E2D9F
:101A900002302100A50025082300EC0021002708C2
:101AA000A500A60125082300C60221002608230060
:101AB000C73B3708013E2100A50000302300383D18
:101AC0002100A60025088600260887002708810037
:101AD0005830A50025082300EA00451C8D2DAF2DA8
:101AE0002300430884004408850000082100A50065
:101AF00023006A0886008701210025088100013043
:101B00002300C3070030C43D01302100A500250893
:101B10002300EA0701302100A7022100270803194A
:101B20000800702D23004308840044088500000845
:101B30002100A50023006A088600870121002508EE
:101B4000810001302300C3070030C43D0130210073
:101B5000A50025082300EA0701302100A702210083
:101B6000270803190800922D3D000E122300C51B03
:101B7000FA2DB21FC82D0230F5007508EB00600881
:101B8000031DC42D943120242300E201E301080049
:101B900021004608013EF5000030473DF60075087B
:101BA000860076088700083081005030F50000304C
:101BB000F600460886004708870042317508C03F96
:101BC0007608C13F46088600470887000C30810030
:101BD00046088600470887008117230037088600DB
:101BE00038088700043081003708860038088700ED
:101BF000811708002000D01F112E0130F500750854
:101C00002300EB006108031D082E943120248D3140
:101C10002300E201E3016408031D080097319227C5
:101C200008000230F50075082300EB00210046088B
:101C3000013EF5000030473DF60075088600760845
:101C40008700083081005030F5000030F60046086B
:101C500086004708870042317508C03F7608C13FBB
:101C60004608860047088700043081004608860041
:101C7000470887008117082E3D000E122300C51B60
:101C8000842EB21F522E02302100AA002A082300FF
:101C9000EB006008031D4E2E9431D5242300E20191
:101CA000E301080021004608013EAA000030473D3C
:101CB000AB002A0886002B088700083081005030CE
:101CC000AA000030AB004608860047088700423172
:101CD0002A08C03F2B08C13F4608860047088700F6
:101CE0000C308100460886004708870081172300D2
:101CF00037088600380887000430810037088600DE
:101D000038088700811708002000D01F9C2E013062
:101D10002100AA002A082300EB006108031D932E6E
:101D20009431D5248E312300E201E3016408031DC0
:101D300008008831A920080002302100AA002A08E2
:101D40002300EB0021004608013EAA000030473D79
:101D5000AB002A0886002B0887000830810050302D
:101D6000AA000030AB0046088600470887004231D1
:101D70002A08C03F2B08C13F460886004708870055
:101D80000430810046088600470887008117932E9B
:101D9000803020005006031D0800C0302100A5003F
:101DA00025082300C500492FAD302300C30098301B
:101DB000C4000030C7001230C600080020005208DE
:101DC000031D1A2F52082100A500A601A535A60D56
:101DD000D330250784009830263D8500003F23003E
:101DE000C300013FC40044082100A60023004308AB
:101DF0002100A50002302507840026080318260AC2
:101E000085000008A70027082300C6004408210019
:101E1000A600230043082100A50003302507840005
:101E200026080318260A85000008A70027082300B3
:101E3000C70008002300C50108000430200052023A
:101E40000318432F52082100A500A601A535A60DB1
:101E5000BF30250784009830263D8500003F2300D1
:101E6000C300013FC4004308840044088500000803
:101E70002100A500A60125082300C6002100260890
:101E80002300C70008002300C50108002300C50186
:101E90000800200053082100A500A6012608003AEA
:101EA0000319532F462F2508013A0319D42E033A5C
:101EB0000319DE2E013A03191D2F462F08002100B9
:101EC000480886008701413FF5007508F200F301DC
:101ED000730823003402031D6F2F720833020318A6
:101EE000752F3308F2007208F5007508F200F3014F
:101EF0007208B3027308B43BF40175087402031846
:101F0000962F7408583E860087010108F2003008B9
:101F1000860002308700720881000130F2007208EA
:101F2000B0070130F2007208F4077D2F3308340443
:101F30000319D12F21004608013EF2000030473D31
:101F4000F30072088600730887000830810058305B
:101F5000F2000030F300460886004708870042314F
:101F60007208C03F7308C13F480886008701011B03
:101F7000C52F46088600470887004830810046087C
:101F80008600470887008117080046088600470832
:101F900087000830810046088600470887008117BF
:101FA000080021004608013EF2000030473DF300E2
:101FB0007208860073088700083081005030F200F4
:101FC0000030F30046088600470887004231720857
:101FD000C03F7308C13F46088600470887000430A9
:101FE00081004608860047088700811723003508CE
:101FF0003608B2136408031D0800973192270800C1
:1020000008002300E80174302100B3000030B40060
:102010000030B5000030B6000030B700B800903195
:10202000502090313D008E101211101D1E28FB30E3
:102030002100B90039083D00900515282300DF0173
:10204000080028288831002008009531F225080072
:102050006108003A031930287F3A03194A284F28AB
:102060006008013A03192228033A03194F28013A5C
:1020700003192528063A03194F28773A03194F28E0
:10208000013A03194F28073A03194F28013A031957
:102090004F284F286008FF3A03194F284F2808009F
:1020A0005728913118210800973126270800340855
:1020B000003A03195F287F3A031979287E283308EC
:1020C000013A03195128033A03197E28013A0319EA
:1020D0005428063A03197E28773A03197E28013AD4
:1020E00003197E28073A03197E28013A03197E282E
:1020F0007E283308FF3A03197E287E280800210035
:10210000B100230051082100AE0023005008210037
:10211000AD000730AE36AD0C890B8A280E302D0588
:10212000AF0023005D08F13921002F04B000300812
:10213000B2009C3145249031210032089D31BC25EC
:102140009031230050089D31BC25903131089D31DC
:10215000BC2590319C31572490319C31FE240800DD
:10216000023023006B06031DB8288F315F2708005B
:10217000EB016608031DE22821004608013EF60037
:102180000030473DF7007608860077088700083062
:1021900081005030F6000030F700460886004708FE
:1021A000870042317608C03F7708C13F4608860065
:1021B000470887000C3081004608860047088700E2
:1021C00081170800E6010800023023006B06031D9A
:1021D000EC288531FF250800EB016608031D162950
:1021E00021004608013EAB000030473DAC002B0803
:1021F00086002C088700083081005030AB0000308A
:10220000AC00460886004708870042312B08C03FD3
:102210002C08C13F46088600470887000C30810023
:10222000460886004708870081170800E601080075
:1022300000302400EA000030E9004B30E8000030B4
:10224000E700EB01EC0108302100B2003208240065
:10225000ED002300DC011A302100B2003208AC008E
:1022600001309E31702691311E30B2003208AC0030
:1022700002309E3170269131A501C030A600203079
:10228000A7004030B2003208A80002308A319622FE
:1022900026082400C800210025082400C700C50125
:1022A000C6012300DB010800AF0023005108210014
:1022B000AC00230050082100AB000730AC36AB0C5B
:1022C000890B5E290E302B05AD0023005D08F13926
:1022D00021002D04AE002E08B0009C314524913120
:1022E000210030089D31BC259131230050089D31DB
:1022F000BC2591319C3145249131210030080138B1
:102300009D31BC25913180309D3188259131013E30
:10231000AB002F088600023087002B0881009C311B
:10232000572408009B31D0239131FA0037088600EA
:1023300087017A0881000130FA007A08B707013076
:10234000B8020030B93B380839040319AB299B3176
:10235000E32305300800BC15B3299C310324080091
:102360009B31FF2308002C08FA007A08F9002108A5
:102370008A0020080A009131FB00FC017C08003A29
:102380000319C329B0297B08013A0319B029033A7C
:102390000319AD29013A0319AD29073A0319B029E8
:1023A000B0290800B200230051082100AF0023002B
:1023B00050082100AE000730AF36AE0C890BDC2987
:1023C0000E302E05B00023005D08F13921003004E5
:1023D000B1003108B3009C3145249131210033080C
:1023E0009D31BC259131230050089D31BC25913190
:1023F000B4012D08340203180D2A34083207AE0048
:102400002E0886000230870001089D31BC259131DD
:102410000130AE002E08B407F9299C3157249131C0
:102420009C31FE240800F5002030F1007108F60010
:102430007008F1000130F135890B1B2A7508F20094
:102440000130F235FF3E031D212A72357107F3007A
:102450000130F335FF3E031D292A7335F40074085B
:10246000F60776088600870181137008031D422A4B
:102470007535BD3E8600013087007608C03F0030CC
:10248000C13F4B2A7535B73E86000130870076087C
:10249000C03F0030C13F76088600870101137608EF
:1024A000043E8600870101170800AA002030A6001C
:1024B0002608AB002508A6000130A635890B5D2A49
:1024C0002A08A7000130A735FF3E031D632A2735E0
:1024D0002607A8000130A835FF3E031D6B2A2835CA
:1024E000A9002908AB072B0886008701811325085E
:1024F000031D842A2A35BD3E8600013087002B0843
:10250000C03F0030C13F8D2A2A35B73E86000130DA
:1025100087002B08C03F0030C13F2B088600870191
:1025200001132B08043E86008701011708009C3127
:102530000C249231003A031DA72ACA2A9B31EB23AF
:1025400008009B31EF2308009B31F72308002F0878
:10255000FA007A08F9000630203E86000230870033
:10256000413F8A00403F0A009231FB00FC017C0899
:10257000003A0319BC2AA42A7B08013A0319A42AA9
:10258000033A03199E2A013A0319A12A073A0319AB
:10259000A42AA42A3C101730203E8600023087006F
:1025A000403F84008501810A00089B31E723923176
:1025B0000130B8020030B93B38083904031DE22A63
:1025C00006300800033008002D302100A00020084C
:1025D0002300E50021004A08FD39031D272B4A3658
:1025E0003F39A0000130A035FF3E031DF32A2035FE
:1025F000203EA1002108C8004808C600FF39031D7D
:102600000030C70004304606C60000304706C70049
:10261000480886008701010C890C0F390D3A031D0B
:10262000242B4808023E86008701403FF000413FCE
:10263000F1000830F2000030F30050309F31552790
:1026400092319331CE2308009031B0200800FD3044
:102650004A05A00004302006031D08009631BD265F
:1026600008002D302100C30043082300E5002100AD
:102670004A08FD39031D742B4A363F39C300013027
:10268000C335FF3E031D402B4335203EC4004408A4
:10269000C8004808C600FF39031D0030C7000430D9
:1026A0004606C60000304706C70048088600870176
:1026B000010C890C0F390D3A031D712B4808023E9D
:1026C00086008701403FA500413FA6000830A700D3
:1026D0000030A80050309F317F27933193317E2303
:1026E00008009031E4200800FD304A05C3000430A2
:1026F0004306031D08008831372008002300EC0141
:10270000E401E101E001E601EB017F302100C200BC
:102710002300370886003808870021004208810519
:10272000043023003706B70000303806B8007F3089
:102730002100C200230037088600380887002100E6
:1027400042088105043023003706B7000030380600
:10275000B8007F302100C200460886004708870085
:10276000420881052300C501C601C701B201B301BA
:10277000B4018C312224933103302100B3000030A6
:10278000B4000030B5000030B6000030B700B8002B
:102790009031502093318E313C2608002300EC010B
:1027A000E401E101E001E601EB017F302000EF00F0
:1027B0002300370886003808870020006F0881054D
:1027C000043023003706B70000303806B8007F30E9
:1027D0002000EF002300370886003808870020001B
:1027E0006F088105043023003706B7000030380633
:1027F000B8007F302000EF0021004608860047081F
:10280000870020006F0881052300C501C601C701AC
:10281000B201B301B4018931922193310330200018
:10282000E0000030E1000030E2000030E300003062
:10283000E400E5009031212093318D31B42508006A
:10284000E101E00102306B06031D4C2C210046081B
:10285000013EF3000030473DF40073088600740821
:102860008700083081005830F3000030F40046083B
:1028700086004708870042317308C03F7408C13F93
:1028800046088600470887004830810046088600D1
:102890004708870081170800470820005702031DDA
:1028A000552C230046082000560203185E2C5708BA
:1028B0002300C700200056082300C6009631552685
:1028C0005830F3000030F4003708860038088700DD
:1028D00042317308C03F7408C13F3708860038088A
:1028E0008700483081003708860038088700811744
:1028F00008002000D801D901B42C2300C5176903B2
:10290000031DC82C2000D814C82C2300C517C82CC0
:102910002300C5172000D41B982C54080F39090731
:10292000BD3E860001308700403FF200413FA22CAF
:1029300054080F390907B73E860001308700403F31
:10294000F200413FF3007208860073088700811F80
:10295000C82C7208860073088700011DC82C01303E
:10296000F0007008D800C82C50081F39F000F101A1
:102970007108003A0319BD2CC82C7008003A0319DD
:102980007D2C013A0319852C033A0319882CC82C95
:102990002300C51F08005830C3000030C400451490
:1029A0000230F0007008C6000800E101E0010230CA
:1029B0006B06031D012D21004608013EA8000030D2
:1029C000473DA900280886002908870008308100B3
:1029D0005830A8000030A900460886004708870044
:1029E00042312808C03F2908C13F460886004708F1
:1029F0008700483081004608860047088700811715
:102A00000800470820005702031D0A2D230046082E
:102A1000200056020318132D57082300C70020007A
:102A200056082300C6008D312D255830A8000030EF
:102A3000A9002300370886003808870042312100AA
:102A40002808C03F2908C13F2300370886003808FE
:102A500087004830810037088600380887008117D2
:102A60000800B100230051082100AE0023005008E7
:102A70002100AD000730AE36AD0C890B3B2D0E307A
:102A80002D05AF0023005D08F13921002F04B000AF
:102A90003008B2009C3145249531210032089D3127
:102AA000BC259531230050089D31BC2595319C31C2
:102AB000452495312100320801389D31BC259531DE
:102AC000B301B4012C083402031D682D2B08330216
:102AD00003188D2D2B08FF3EAD00FF302C3DAE00BE
:102AE0002E083402031D762D2D08330203187A2D8B
:102AF00000307B2D80309D3188259531AD00330825
:102B00003107AE002E088600023087002D088100B4
:102B10000130B3070030B43D622D9C3157240800CA
:102B20002000D801D901CE2D2300C5176903031D4C
:102B3000E32D2000D814E32D2300C517E32D230037
:102B4000C5172000D41BB02D54080F390907BD3E0E
:102B5000860001308700403F2100A700413FBB2D88
:102B600054080F390907B73E860001308700403FFF
:102B70002100A700413FA8002708860028088700F9
:102B8000811FE32D2708860028088700011DE32DFB
:102B90000130A50025082000D800E32D50081F397A
:102BA0002100A500A6012608003A0319D82DE32D1F
:102BB0002508003A0319942D013A03199C2D033A74
:102BC00003199F2DE32D2300C51F08005830C300B3
:102BD0000030C400451402302100A5002508230060
:102BE000C600080050081F39013A031D0800500EA6
:102BF000890C0339013A031D0800540803193B2EC0
:102C00005403031D08003B2E5F302300C300023035
:102C1000C4000030C7000830C6004514C5170800BE
:102C20005F302300C3000230C400C51708005708F6
:102C30002300B400200056082300B3006730F000E2
:102C40007008B000B501B601B21708006730230064
:102C5000C3000230C4000030C7000730C600C130D6
:102C6000F0007008C50008005208F000700823004A
:102C7000D800C51708005108F000F1017108003AAA
:102C80000319432E542E7008003A0319042E013AFA
:102C90000319102E213A0319172E013A0319262E73
:102CA000033A0319342E542E08000830F00070083F
:102CB000F2000030230047020830031946020318CF
:102CC000712E4608F0007008F2006C08031D6A2E91
:102CD00001306E2E6C03031D712E0230F00070085F
:102CE000EC007208F000F1017008C6027108C73BE1
:102CF0003708013EF0000030383DF10070088600D2
:102D000071088700720881005830F0007008EA00EE
:102D1000451CA02EB92E43088400440885000008F5
:102D2000F0006A0886008701700881000130C3073F
:102D30000030C43D0130F0007008EA070130F202B3
:102D40007208031908008B2E43088400440885008C
:102D50000008F0006A0886008701700881000130D1
:102D6000C3070030C43D0130F0007008EA070130AD
:102D7000F202720803190800A42E23003708860007
:102D8000380887000030011B0130F5000430370699
:102D9000B70000303806B800083021004906031D8E
:102DA000E02E200052087F393D00960016080319D6
:102DB000DB2E1030DC2E0430F30073082100C90034
:102DC00023006B03031D1F2F5830F3000030F40065
:102DD000370886003808870042317308C03F7408FE
:102DE000C13F96315526963102306C06031D042FE3
:102DF00037088600380887000430810037088600CD
:102E000038088700811708007508031D132F37083D
:102E10008600380887004830810037088600380867
:102E200087008117080037088600380887000830B7
:102E30008100370886003808870081170800B21F14
:102E4000242F35083608B213EB0108002000500883
:102E50001F39013A031D0800500E890C0339013A4D
:102E6000031D080054080319772F5403031D08009D
:102E7000772F5F302300C3000230C4000030C7004A
:102E80000830C6004514C51708005F302300C30092
:102E90000230C400C5170800200057082300B40002
:102EA000200056082300B30067302100A500250844
:102EB0002300B000B501B601B21708006730230047
:102EC000C3000230C4000030C7000730C600C13064
:102ED0002100A50025082300C50008002000520895
:102EE0002100A50025082300D800C51708005108B7
:102EF0002100A500A6012608003A0319802F912F72
:102F00002508003A0319392F013A0319452F213AB0
:102F100003194C2F013A03195E2F033A03196E2F40
:102F2000912F080023006308031D08000130F00002
:102F30007008E3006208031D08000130F00070080B
:102F4000E20002306B06031DB72F370886003808F1
:102F500087004131810137088600380887004830F2
:102F600081003708860038088700811708006B0346
:102F7000031D0800E6010830F0002100480A860021
:102F80008701700881005030F0000030F1004808DF
:102F9000023E860087017008C03F7108C13F0430BF
:102FA000F000480886008701700881004808860004
:102FB000870181170130F00070082300E60021002E
:102FC0004608013EF0000030473DF10070088600E1
:102FD00071088700083081005030F0000030F100A7
:102FE000460886004708870042317008C03F7108D4
:102FF000C13F4608860047088700803081000800EE
:103000000934023443340034023401340034C0340F
:1030100032340934043400340034013402340234CC
:1030200001340034053424340034103401340434C1
:103030002434023402340534243406340034013498
:103040000534243401340034013407340534813428
:1030500003340A34003402340934043401340034B3
:1030600002340A34003400340034073405340234A6
:1030700002344034003400340734053482340234DE
:10308000403400340034343403344D340034693473
:10309000003463340034723400346F3400346334E9
:1030A000003468340034693400347034003420341F
:1030B00000345434003465340034633400346834EC
:1030C00000346E3400346F3400346C3400346F34A8
:1030D0000034673400347934003420340034493407
:1030E00000346E340034633400342E34003407343A
:1030F0001C3425341C341E341C349734123492345E
:10310000113412341C34D4341F34EB341B34EF34F8
:103110001B34F3341B34F7341B34FB341B34FF34BF
:103120001B3403341C34FB340734A9341F341634E5
:103130000334533400346D34003461340034723459
:103140000034743400342034003453340034683490
:1031500000346F34003465340034123401340034E8
:1031600002340234003400340834D83404340A34CD
:103170000034003401340134023403340134CF34D8
:1031800098344334983497349834C7349834083496
:1031900003343134003432340034343400340434F1
:0A31A0000334093404340034983479
:10378A0008000130080005300800240096140800DB
:10379A0024001615080024001108080020009115BD
:1037AA0008002000911108009F312C2708001630CC
:1037BA009700080024009616161608002400961290
:1037CA0016160800F0007008910008009B31CA2301
:1037DA00013008009B31CA23023008009B31CA23FA
:1037EA00013008009B31CD23003008009B31E323D0
:1037FA00053008009B31DF230A3008009B31DF23A4
:10380A00093008002400BC10BB010E300800240057
:10381A00160E890C890C0139080024003C108031ED
:10382A000220043008002700931E08009C319224CD
:10383A00080024003C1436359B31E7230330080086
:10384A0024003C140314360D9B31E723053008008D
:10385A00A0309E009F019B019C0101309D00080041
:10386A0026082400EF00210025082400EE000800A5
:10387A0026082300D300210025082300D2000800CF
:10388A000D1620000D1721000D1220000D120D1328
:10389A000800240094010830950096011330920024
:1038AA009512080020000D1321000D1220000D12A0
:1038BA000D1721000D1608007608F1007508F000B2
:1038CA007708F8007808F20000309E31DC260800FC
:1038DA007C3021009900980127009B012200960163
:1038EA0021001A1B0800752C640080010131013087
:1038FA00FE020030FF3B7F087E04031900347A2C55
:10390A00F300BC1D08007308F2007208B7007108C2
:10391A00B9007008B800BC11080024006E086F04D2
:10392A0003199C2C6F088A006E080A009C31270034
:10393A0093120800A50020000D132100A51FA72C33
:10394A000D16AA2C0D1220000D1220000D170D13B2
:10395A0008000230F0000030F10079089C3185241B
:10396A009C310030F500F600F7019C3161240430E7
:10397A0008000130F0000030F10079089C318524FC
:10398A009C310030F500F600F7019C3161240230C9
:10399A0008000230F0000030F10079089C318524DB
:1039AA009C310030F500F600F7019C3161240230A9
:1039BA0008000130F0000030F10079089C318524BC
:1039CA009C310030F500F600F7019C316124043087
:1039DA0008000B1123005E082000950023005208FE
:1039EA0053040319080053088A0052080A009C313C
:1039FA0008009C3145249C3123005D089D31BC257B
:103A0A009C31AB002B08AC002C030319FE2C9C3113
:103A1A0057240800790886008701403FF000413F9B
:103A2A00F1007908023E8600870101089C3185244D
:103A3A009D310030F500F600F7019C316124023017
:103A4A0008001508C0391238950006302000950084
:103A5A0006302100A70027082300DE000B118B1671
:103A6A0000302100A5001030A6009C313D2408003A
:103A7A009C314E249D319E31B6269D319C316D2458
:103A8A009D319B31DC239D318631AD269D319C31A0
:103A9A002D249D319D3126259D319D31A225080079
:103AAA0001302400C1070030C23D0030C33D003060
:103ABA00C43D23006808031D08000130F0007008A7
:103ACA00DF075F08031D0800FF30F0007008DF0001
:103ADA000800A60020000D1321000D1620000D1766
:103AEA00FE302100A50026088600870125088105E9
:103AFA0020000D1E852D210026088600870101144D
:103B0A0020000D130800A800AA01A9012A35A70060
:103B1A002708AA00AA309D316E259D310130210067
:103B2A00A7002708A90708302902031C8B2D28089B
:103B3A009C319F2421002A08080021004908031DFE
:103B4A0008003D008E019201163091009F309700C7
:103B5A007B309200210012153D008E19B62D8E156C
:103B6A00B12D01302100A5002508C9000800210057
:103B7A00A800AA01A90128089C319F249D3121008F
:103B8A002835A7002708A8000130A7002708A90799
:103B9A0008302902031CC02DAA309D316E25210050
:103BAA002A08080001302400C1070030C23D003055
:103BBA00C33D0030C43D23006808031D08000130DE
:103BCA002100A50025082300DF075F08031D080060
:103BDA00FF302100A50025082300DF000800121588
:103BEA00EF302000E60066083D0090058E14013093
:103BFA002000E60066082300E800DF017530200097
:103C0A00E0000030E1000030E2000030E300003064
:103C1A00E400E5009031212008001215EF30210060
:103C2A00B90039083D0090058E1401302100B90011
:103C3A0039082300E800DF0175302100B3000030A5
:103C4A00B4000030B5000030B6000030B700B8004C
:103C5A00903150200800FC00771D382EF0017C08B6
:103C6A00923113229E31F71C3F2EF001F00A7C0894
:103C7A00923113227C08983EF800F9010E30F93D82
:103C8A007808FA007908FB007A0886007B08870022
:103C9A007708810008002300E80174302000E00062
:103CAA000030E1000030E2000030E3000030E400C0
:103CBA00E500903121209E313D008E101211101D19
:103CCA006D2EFB302000E60066083D009005642E4C
:103CDA002300DF010800B1002C1D782EA501310850
:103CEA00923155229E31AC1C7F2EA501A50A3108BE
:103CFA00923155223108983EAD00AE010E30AE3DEC
:103D0A002D08AF002E08B0002F0886003008870063
:103D1A002C0881000800181CB12E210048088600D2
:103D2A00870180300106031DAF2E23003708860065
:103D3A003808870084300106031DAF2E0C30F000CE
:103D4A00210048088600870170088100480886001B
:103D5A00870181173D001810DF30F00070089005C8
:103D6A00080022008C018D0120308E0020302100B5
:103D7A008C00A0308D00DF308E00CC3023008E0006
:103D8A008D0110308C0024008D018C0121009517C3
:103D9A0022009D012700931292169116C530210028
:103DAA00A5001B30A6009C3135248B150800F400B1
:103DBA00700871040319F42E7435203E860002300F
:103DCA0087007008C03F7108C13F7208F300740889
:103DDA002C3E860002308700730881000800743583
:103DEA00203E860002308700C630C03F1B30C13FEC
:103DFA0074082C3E86000230870081010800181CD6
:103E0A00252F210048088600870180300106031DFE
:103E1A00232F2300370886003808870084300106DC
:103E2A00031D232F0C302100A500480886008701B6
:103E3A002508810048088600870181173D0018106F
:103E4A00DF302100A50025083D00900508009B31C0
:103E5A00D6239F3124003C1C3E2F9C310C249F31D9
:103E6A00003A03193E2F0F302000E00060082400BA
:103E7A00BA003A082000E000E101E035E10D7730B0
:103E8A00600784009830613D8500013F8A00003F49
:103E9A000A009F312000E20062082400BA000800EC
:103EAA00F5007108F7007008F6007508F400740848
:103EBA00F9000130F2020030F33B720A0319730A67
:103ECA000319080076088600770887000108F400BD
:103EDA007408F8000130F6070030F73D7808F4005E
:103EEA00790886008701740881000130F40074089B
:103EFA00F9075E2FAD002608AC002508AB002D0897
:103F0A00A9002908AE000130A7020030A83B270A01
:103F1A000319280A031908002B0886002C088700B1
:103F2A000108A9002908AA000130AB070030AC3DFE
:103F3A002A08A9002E088600870129088100013075
:103F4A00A9002908AE07882F24003C100230FA0085
:103F5A007A08BB00B62F9B31F32308009B31F72365
:103F6A0008002E08FA007A08F9000430203E86007C
:103F7A0002308700413F8A00403F0A009F31FB0020
:103F8A00FC017C08003A0319CB2FB32F7B08023AB5
:103F9A000319B02F013A0319B02FB32F08002400D8
:103FAA00BC15E12F9B31F32308009B31D323033047
:103FBA0008009B31F72308002C08FA007A08F90058
:103FCA0021088A0020080A009F31FB00FC017C08B6
:103FDA00003A0319F12FDE2F7B08013A0319DE2F6D
:103FEA00033A0319D72F013A0319D72F073A0319AE
:063FFA00DA2FDE2F0800A3
:020000040001F9
:04000E00E43FFF3F8D
:00000001FF
