:020000040000FA
:0400000080312628FD
:100008007E1480318B1E09280A2812280B1D0D2802
:100018000E2812288F314827803124280B1F1528D5
:10002800162824282100121D1A281B2824282000FD
:10003800121D1F2820282428833169238031242871
:100048007E100900803128287130840080308500B6
:1000580050308600223087000130FF00A0309231F6
:1000680068228031B4308400003085001330FE00EF
:100078000030FF0092315C228031B03084000130C2
:1000880085004030FE000030FF0092315C22803154
:1000980020308400023085002730FE000030FF0049
:1000A80092315C228031A0308400023085004030DB
:1000B800FE000030FF0092315C2280312030840045
:1000C800033085004030FE000030FF0092315C2292
:1000D80080317E1020008431892C003400340134B2
:1000E800003402340034033400340434003405345A
:1000F800003406340034073400340834003409343A
:1001080000340A3400340B3400340C3400340D3419
:1001180000340E3400340F340034103400341134F9
:1001280000341234003413340034143400341534D9
:1001380000341634003417340034183400341934B9
:1001480000341A3400341B3400341C3400341D3499
:1001580000341E3400341F34003420340034213479
:100168000034223400342334003424340034253459
:100178000034263400342734003428340034293439
:1001880000342A3400342B3400342C3400342D3419
:1001980000342E3400342F340034303400343134F9
:1001A80000343234003433340034343400343534D9
:1001B80000343634003437340034383400343934B9
:1001C80000343A3400343B3400343C3400343D3499
:1001D80000343E3400343F34003440340034413479
:1001E8000034423400344334003444340034453459
:1001F8000034463400344734003448340034493439
:1002080000344A3400344B3400344C3400344D3418
:1002180000344E3400344F340034503400345134F8
:1002280000345234003453340034543400345534D8
:1002380000345634003457340034583400345934B8
:1002480000345A3400345B3400345C3400345D3498
:1002580000345E3400345F34003460340034613478
:100268000034623400346334003464340034653458
:100278000034663400346734003468340034693438
:1002880000346A3400346B3400346C3400346D3418
:1002980000346E3400346F340034703400347134F8
:1002A80000347234003473340034743400347534D8
:1002B80000347634003477340034783400347934B8
:1002C80000347A3400347B3400347C3400347D3498
:1002D80000347E3400347F34003480340034813478
:1002E8000034823400348334003484340034853458
:1002F8000034863400348734003488340034893438
:1003080000348A3400348B3400348C3400348D3417
:1003180000348E3400348F340034903400349134F7
:1003280000349234003493340034943400349534D7
:1003380000349634003497340034983400349934B7
:1003480000349A3400349B3400349C3400349D3497
:1003580000349E3400349F340034A0340034A13477
:100368000034A2340034A3340034A4340034A53457
:100378000034A6340034A7340034A8340034A93437
:100388000034AA340034AB340034AC340034AD3417
:100398000034AE340034AF340034B0340034B134F7
:1003A8000034B2340034B3340034B4340034B534D7
:1003B8000034B6340034B7340034B8340034B934B7
:1003C8000034BA340034BB340034BC340034BD3497
:1003D8000034BE340034BF340034C0340034C13477
:1003E8000034C2340034C3340034C4340034C53457
:1003F8000034C6340034C7340034C8340034C93437
:100408000034CA340034CB340034CC340034CD3416
:100418000034CE340034CF34003420005203031D9E
:10042800162A172A2F2A50081F39003A031D1D2A99
:100438001E2A2F2A2100BC17033020005106031D55
:10044800262A272A2D2A0130E60066082300E9001B
:100458002F2A2300E90120005208031D342A352AD7
:10046800682B50081F39023A031D3B2A3C2A682B87
:1004780054080F39003A0319422A432A682B5408B2
:100488000F39E6000330660203184B2A4C2A682B02
:10049800203021004506031D522A532A682BBC1719
:1004A8002000D41B582A592A6F2A54080F390907E3
:1004B800B73E860001308700403FEB00413FEC002B
:1004C80054080F39C13E8600013087000108E60054
:1004D8006608EA00832A54080F390907B43E8600E3
:1004E8008701403FEB00413FEC0054080F39C43E00
:1004F8008600013087000108E6006608EA006A18ED
:10050800862A872A922AFB30E600FF30E7006B082C
:100518006605EB006C086705EC00982A04306B044C
:10052800EB0000306C04EC00D41B9B2A9C2AA82A00
:1005380054080F390907B73E8600013087006B0859
:10054800C03F6C08C13FB22A54080F390907B43EAE
:10055800860087016B08C03F6C08C13F0330510615
:10056800031DB72AB82ADE2A6B0886006C088700A4
:10057800811FBF2AC02AD32AD41BC32AC42ACC2A43
:1005880054080F39C13E8600013087008114D32AF0
:1005980054080F39C43E86000130870081146B0867
:1005A80086006C08870001156B0886006C088700B8
:1005B8008117682B04306B06EB0000306C06EC00EA
:1005C8006B0886006C088700811FEB2AEC2A092B30
:1005D8007F30E6006B0886006C0887006608810596
:1005E8006B0886006C08870001170530E0000030B2
:1005F800E1006C08E3006B08E2000230E400003020
:10060800E50094310C2482310E2B6B0886006C08AF
:1006180087000117043020006B06EB0000306C06E1
:10062800EC00EA18182B192B212B6B0886006C0894
:100638008700811F202B212B4C2BD41B242B252BEF
:100648002D2B54080F39C13E8600013087008110D8
:10065800342B54080F39C43E8600013087008110BE
:100668003B30E6006B0886006C0887006608810549
:100678000530E0000030E1006C08E3006B08E200A0
:100688000230E4000030E50094310C248231542B10
:100698003B30E6006B0886006C0887006608810519
:1006A800200054080F39983EE600E7010E30E73D78
:1006B8006608E8006708E900FE30E600680886007A
:1006C8006908870066088105080021004503031DA5
:1006D8006E2B6F2B7C2B3D008E1A732B742B7C2B6F
:1006E80090011214121602302100A2002208C5003F
:1006F8003D00101D802B812B8E2B121D842B852BEA
:100708008E2BFB302100A20022083D00900593317A
:10071800202383313D008E1C922B932B962B200097
:100728001211882C101C992B9A2BAC2B121C9D2B68
:100738009E2BAC2B8D3141258331210012150430BD
:10074800A2002208C500FE30A20022083D00900544
:10075800101EAF2BB02BB72B121EB32BB42BB72BFD
:100768009331002383313D00101FBB2BBC2BE92B99
:10077800121FBF2BC02BD02B73302000E00000309D
:10078800E1000030E2000030E3000130E400003016
:10079800E50094310C248331BF302100A2002208E7
:1007A8003D0090059231C622833123006508031964
:1007B800DE2BDF2BE12B0130E5026508031DE52B5D
:1007C800E62BE92B9731882783313D00901EED2BCE
:1007D800EE2BF52B921EF12BF22BF52B9331B32335
:1007E80083313D00901CF92BFA2B102C921CFD2B09
:1007F800FE2B102CFF302000E0007F30E10000309D
:10080800E2000030E3000130E4000030E5009431FC
:100818000C2483313D009301043021004502031864
:10082800162C172C1A2C20001211882C3D00921D12
:100838001E2C1F2C862C2100A4013D00901D252C68
:10084800262C862C0F082100A2002208C600460C80
:10085800A200A20C220C0F39A30023082300E700F2
:10086800F7302100A20022083D009005210046191A
:100878003E2C3F2C512C23006708C13E86000130D6
:100888008700010801392100A2000130A2060108F1
:100898002206FE3922068100622C23006708C43E26
:1008A800860001308700010801392100A2000130CB
:1008B800A20601082206FE392206810023006708E5
:1008C800031D672C682C6C2C9631052683317B2CF4
:1008D80072302000E0000030E100C630E200003055
:1008E800E3000030E400E50094310C24833101304A
:1008F8002100A2002208A40704302402031C852C2E
:10090800862C212C2000121108002400CE018731EA
:10091800E92784319231502284319431EA24843198
:100928008B170B1723005A0803199B2C9C2CAA2CF5
:10093800DA01270093128B1563008B11270093129D
:100948002300D401D9012400B001B10123005908C2
:100958000319AF2CB02CD62C5408031DB42CB52C7D
:10096800D62CD9010F304802FF3003194702031C67
:10097800BE2CBF2CC12CC701C80148082100A70004
:10098800230047082100A6005030A8002230A90003
:1009980087312C278431A0302300C7070130C83D98
:1009A800D401D40A2100B001B00A4F309631BC26D8
:1009B80084316B3024004F06031DE32CE42C192DE1
:1009C8006E30CC004C08CF002300C701C8010130AD
:1009D8002400CC004C082300D700D30100302100AC
:1009E800A600A7005030A8002230A9008931702144
:1009F800843120302300C7070030C83D21008E1203
:100A08004308031D082D092D042D5030A500223060
:100A1800A60020302400CC004C082100A700923109
:100A2800AB22843121008E16732D63304F06031DCF
:100A38001E2D1F2D732D6E30CC004C08CF002300C7
:100A480053080319282D292D3C2D21008E12430807
:100A5800031D2F2D302D2B2DAF30A5009830A6006B
:100A68009431AF24843121008E162300D701732DD1
:100A780048082100A700230047082100A60050309D
:100A8800A8002230A9008931702184312030230048
:100A9800C7070030C83D0F304802FF30031947022E
:100AA800031C572D582D5D2DD301D30AC701C8014A
:100AB800732D21008E124308031D632D642D5F2DB5
:100AC8005030A5002230A60020302400CC004C086D
:100AD8002100A7009231AB22843121008E16853186
:100AE80079258431962C8031262821001211230083
:100AF8004D084E040319812D822D8D2D4D08860039
:100B08004E088700811F892D8A2D8D2D21001215F1
:100B1800612E033021004306031D932D942D952D3E
:100B2800C3014308031D992D9A2D9C2D1215612E82
:100B380002304306031DA12DA22DBB2DA501A50A38
:100B48000030A6000030A700A80102308B31022334
:100B58008531210026082300CE0021002508230026
:100B6800CD0003302100B0003008C3005F2E4303DE
:100B7800031DBF2DC02D5F2E413023005D02031CD5
:100B8800C62DC72DCD2D40302100B0003008B20051
:100B9800D22D5D082100B0003008B20032082300D1
:100BA8005D022100B00030082300DD002030240061
:100BB800B7008030B60021003208B0003008B1001C
:100BC80023005C08031DE92DEA2D2C2E082E230096
:100BD800510884005208850000082100B000240054
:100BE8003608860037088700210030088100013068
:100BF8002400B6070030B73D01302300D10700308C
:100C0800D23D01302100B10221003108031D0D2E13
:100C18000E2EEB2D322E2300510884005208850039
:100C280000082100B0002400360886003708870035
:100C380021003008810001302400B6070030B73D9C
:100C480001302300D1070030D23D01302100B1022C
:100C580021003108031D312E322E0F2E23005D088E
:100C6800031D372E382E482E403021003206031D32
:100C78003E2E3F2E442E0230B0003008C300482ECE
:100C88000330B0003008C3002100A501A50A803058
:100C9800A6002030A7003208B0003008A8000230B3
:100CA8008B3102238531210026082300CE00210044
:100CB80025082300CD002100121508007108FD0049
:100CC8007008FC0074087504031D6B2E6C2E6D2EC5
:100CD8002B2F7C0886007D08870072088100740825
:100CE8007C07F60075087D3DF7007608FF3EF800A2
:100CF800FF30773DF9007808860079088700720888
:100D080081000030750203300319740203188D2E18
:100D18008E2E8F2E2B2F7C08013EF60000307D3D55
:100D2800F7007608860077088700720881007C083B
:100D3800023EF60000307D3DF70076088600770811
:100D480087007208810074087C07F60075087D3DED
:100D5800F7007608FE3EF800FF30773DF900780886
:100D68008600790887007208810074087C07F600FD
:100D780075087D3DF7007608FD3EF800FF30773DA9
:100D8800F900780886007908870072088100003029
:100D980075020730031974020318D32ED42ED52EEA
:100DA8002B2F7C08033EF60000307D3DF7007608C7
:100DB8008600770887007208810074087C07F600AF
:100DC80075087D3DF7007608FC3EF800FF30773D5A
:100DD800F9007808860079088700720881000030D9
:100DE80075020930031974020318FB2EFC2EFD2E20
:100DF8002B2F7C09F6007D09F700F60A0319F70A7C
:100E080003307605FA0000307705FB007A08FC0706
:100E18007B08FD3D7A08F4027B08F53BFC30F405BD
:100E2800FF30F505252F7C0886007D0887007208AD
:100E380081000130F4020030F53B0130FC0700303E
:100E4800FD3D74087504031D2A2F2B2F172F08004A
:100E58001F3021002605AA0000302705AB002A080C
:100E68002B040319382F392F3A2FE82F2400C901F2
:100E780021002708AA002A082400C7002100260804
:100E8800AA002A082400C80092310B228731A0301A
:100E9800923147228731240047089231472287310F
:100EA800240048089231472287312400CA01CB0127
:100EB8004B082100AA00AB01AA35AB0D2400490854
:100EC8002100AC00AD01AC35AD0D24004A0821006D
:100ED8002C07AE002D0803182D0AAF00AE0EAF0E7A
:100EE800F030AF052E080F39AF04F030AE052E08EC
:100EF8002807B0002F08293DB1002A0830078600CE
:100F08002B08313D8700403FB200413FB300330812
:100F180092314722873124004B082100AA00AB01F7
:100F2800AA35AB0D240049082100AC00AD01AC3551
:100F3800AD0D24004A0821002C07AE002D08031827
:100F48002D0AAF00AE0EAF0EF030AF052E080F39E8
:100F5800AF04F030AE052E082807B0002F08293D51
:100F6800B1002A08300786002B08313D87000108A8
:100F780092314722873101302100AA002A08240033
:100F8800CB0708304B02031CCA2FCB2F5C2F013034
:100F98002100AA002A082400CA0702304A02031CBA
:100FA800D62FD72F5B2F923111228731923182228F
:100FB800873101302100AA002A082400C9074908FE
:100FC8000319E72FE82F3C2F08009331422387317C
:100FD8009231742287319231012287318E319626DF
:100FE800873192312C228731923192228731923186
:080FF800E22287310800080025
:10100200200050081F39013A0319082809280A2824
:101012006F28500E890C0339013A0319112812283E
:1010220013286F2854080319172818285628540320
:1010320003191C281D2856286F2838302100BA00B1
:101042000230BB000030BE000830BD003C14BC17AB
:101052006F2838302100BA000230BB00BC176F285D
:1010620057082300B400200056082300B300403084
:10107200F0007008B000B501B601B2176F28403019
:101082002100BA000230BB000030BE000730BD00B4
:10109200C130F0007008BC006F285208F0007008E0
:1010A2002300DB002100BC176F285108F000F1017A
:1010B2007108003A03195E286F287008003A031974
:1010C2001E28013A03192A28213A03193128013A24
:1010D20003194028033A03194E286F2808002100FB
:1010E20034088600350887000030011B0130F50006
:1010F20004303406B40000303506B5000830450629
:10110200031D842885289A28200052087F393D0033
:101112009600160803198E288F2895281030F300A0
:1011220073082100C5009A280430F30073082100D7
:10113200C50023006B03031D9F28A028E428583014
:10114200F3000030F40021003408860035088700DF
:1011520042317308C03F7408C13F8831ED208831A5
:10116200023023006C06031DB728B828C5282100C9
:101172003408860035088700043081003408860070
:10118200350887008117EC287508031DC928CA286D
:10119200D7282100340886003508870048308100AE
:1011A20034088600350887008117EC2821003408AE
:1011B200860035088700083081003408860035082B
:1011C20087008117EC28B21FE728E828EB283508AA
:1011D2003608B213EB0108000830F0007008F20084
:1011E200003021003E02083003193D020318FA289C
:1011F200FB2813293D08F0007008F20023006C0858
:10120200031D042905290A290130F0007008EC00A9
:1012120013296C03031D0E290F2913290230F00034
:101222007008EC007208F000F10170082100BD02A4
:101232007108BE3B3408013EF0000030353DF1003C
:101242007008860071088700720881005830F0002B
:1012520070082300EA0021003C18302931296A294C
:101262004B2921003A0884003B0885000008F00061
:1012720023006A088600870170088100013021007E
:10128200BA070030BB3D0130F00070082300EA07C6
:101292000130F2027208031D4F29502932296F29A9
:1012A20021003A0884003B0885000008F000230072
:1012B2006A08860087017008810001302100BA07A0
:1012C2000030BB3D0130F00070082300EA07013016
:1012D200F2027208031D6E296F29512908002100AC
:1012E2002708AA002A08B1002608AA002A08B00086
:1012F20092310B228931A03092314722893121006B
:101302003108923147228931210030089231472237
:10131200893192310B228931A130923147228931B0
:101322002100B201B3019231052289312400110852
:101332002100AA002A08B10092311E22893192317D
:101342000522893121003308AA00AB01AA35AB0D71
:101352003208AC00AD01AC0EAD0EF030AD052C087C
:101362000F39AD04F030AC052C082807AE002D086B
:10137200293DAF002A082E0786002B082F3D870043
:1013820024001108C03F21003108C13F3208031D6B
:10139200CB29CC29D02992311E228931DA29073072
:1013A20033020318D529D629D729CC2992312522EF
:1013B200893101302100AA002A08B307083033021C
:1013C200031CE429E52994290130AA002A08B2075E
:1013D20002303202031CEE29EF29932992311122A5
:1013E20089310800F80070080319F829F929022A3E
:1013F2007835B43E86008701403FF900413FFA004C
:101402000B2A7835B73E860001308700403FF9004D
:10141200413FFA0079087A04031D102A112A142A7E
:10142200F001F101792AFF307105F4007F30720575
:10143200F500790886007A08870042317408C03FB7
:101442007508C13F7908013EF40000307A3DF5008D
:101452007408860075088700730881004030F40024
:10146200790886007A088700740881057908860061
:101472007A0887008115790886007A088700811723
:1014820070080319452A462A5D2A7835B43E86003B
:101492008701403FF400413FF50004307406F60036
:1014A20000307506F7007835B43E8600870176086D
:1014B200C03F7708C13F752A7835B73E86000130B4
:1014C2008700403FF400413FF50004307406F60007
:1014D20000307506F7007835B73E86000130870088
:1014E2007608C03F7708C13F7A08F1007908F0001A
:1014F20008002000500E890C0339003A0319822A91
:10150200832AD62A012B2100BC1708302000ED00C7
:101512006D082100C500012B8B318A238A31012BF2
:101522008C3115248A31012BEF302100BA000130B1
:10153200BB003C1401302000ED006D082100BD000D
:10154200BC17012B973121278A31012B82311122BD
:101552008A31012B5408ED3E2100BA000130BB0054
:101562003C1401302000ED006D082100BD00BC17C5
:10157200012B2100BC1720005208ED005408ED3E5B
:101582008600013087006D088100012B0230E000E7
:101592000030E1000030E2000030E3000030E400FF
:1015A200E50094310C248A31012B5108ED00EE0143
:1015B2006E08003A0319DE2A012B6D08003A03195E
:1015C200A32A013A0319A72A023A0319A72A063ABB
:1015D2000319842A033A03198D2A013A0319C72AE7
:1015E2000F3A0319952A013A0319912A033A03196A
:1015F200AB2A013A0319BA2A073A0319012B012B24
:1016020008002100AD0025080319082B092B122B15
:101612002D35B43E86008701403FAE00413FAF000A
:101622001B2B2D35B73E860001308700403FAE00B0
:10163200413FAF002E082F04031D202B212B242B0A
:10164200A501A601892BFF302605A9007F302705B9
:10165200AA002E0886002F08870042312908C03FC1
:101662002A08C13F2E08013EA90000302F3DAA00E2
:10167200290886002A088700280881004030A9002E
:101682002E0886002F088700290881052E0886006B
:101692002F08870081152E0886002F0887008117E2
:1016A20025080319552B562B6D2B2D35B43E86007C
:1016B2008701403FA900413FAA0004302906AB0040
:1016C20000302A06AC002D35B43E860087012B0877
:1016D200C03F2C08C13F852B2D35B73E8600013017
:1016E2008700403FA900413FAA0004302906AB0011
:1016F20000302A06AC002D35B73E86000130870047
:101702002B08C03F2C08C13F2F08A6002E08A500B9
:101712000800803020005006031D902B912B142CC2
:10172200C030F00070082100BC00002C8D30210078
:10173200BA009830BB000030BE001230BD00142C3D
:101742005208031DA52BA62BD52B5208F000F10140
:10175200F035F10DB930700784009830713D850085
:10176200003F2100BA00013FBB003B08F1003A08EC
:10177200F00002307007840071080318710A8500B6
:101782000008F2007208BD003B08F1003A08F000C0
:1017920003307007840071080318710A850000087D
:1017A200F2007208BE00142C2100BC01142C04307B
:1017B20052020318DD2BDE2BFA2B5208F000F10146
:1017C200F035F10D9F30700784009830713D85002F
:1017D200003F2100BA00013FBB003A0884003B08E9
:1017E20085000008F000F1017008BD007108BE001C
:1017F200142C2100BC01142C2100BC01142C20004B
:101802005308F000F1017108003A0319092CFD2B6D
:101812007008013A0319972B033A0319A12B013AD5
:101822000319D82BFD2B08002100BC170E30200015
:10183200E8009930E700E901670886006808870038
:1018420081010130E7070030E83D0130E60066081B
:10185200E90702306902031C2F2C302C1D2C20308A
:10186200F0000030F1000030F200F3003030F400FC
:101872000030F500863162268C313D000E172000C3
:10188200EA016A08C43E86000130870081016A08C5
:10189200C13E86000130870081010130E600660802
:1018A200EA0703306A02031C572C582C422CED30F5
:1018B200F0000130F1000030F200F3000230F400D9
:1018C2000030F500863162268C313D000E1328303F
:1018D2002100B4000030B50020302000E600660888
:1018E2002100C4004408BF00FF39031D0030C000BE
:1018F20020005208E60066082300EF006F08031D6F
:10190200832C842C8B2C10302000E60066082100EA
:10191200C500A12C01302000E0000030E100EF30D2
:10192200E2000130E3000130E4000030E5009431D0
:101932000C248C3120302000E60066082100C5000E
:1019420008003D000E122100BC1BA82CA92CEF2C74
:101952002300B21FAD2CAE2CBE2C0230F500750850
:10196200EB006008031DB62CB72CBA2C96315B260F
:101972008C312300E201E301402D21003F08013EAA
:10198200F5000030403DF6007508860076088700B5
:10199200083081005030F5000030F6003F08860024
:1019A2004008870042317508C03F7608C13F3F08B2
:1019B2008600400887000C3081003F0886004008FE
:1019C20087008117340886003508870004308100BB
:1019D20034088600350887008117402D2000D01F6B
:1019E200F32CF42C0D2D0130F50075082300EB00CB
:1019F2006108031DFD2CFE2C012D96315B268C31D6
:101A02002300E201E3016408031D082D092D402D86
:101A1200973188278C31402D0230F500750823005C
:101A2200EB0021003F08013EF5000030403DF6008A
:101A32007508860076088700083081005030F5006E
:101A42000030F6003F0886004008870042317508E2
:101A5200C03F7608C13F3F08860040088700043037
:101A620081003F0886004008870081172300E201B9
:101A7200E3016408031D3E2D3F2D402D092D080072
:101A8200210012113D009301900198010E30F200E5
:101A92009930F100F3017108860072088700810114
:101AA2000130F1070030F23D0130F0007008F30719
:101AB20002307302031C5E2D5F2D4C2D16303D004B
:101AC20091009F3097007B309200F4017408F0007F
:101AD2000130F035FF3E031D6A2D7035203E860031
:101AE20087010030C03F0030C13FC23FC33F0130D9
:101AF200F0007008F4070C307402031C812D822D53
:101B0200672D3D000E1796010E120E13F730F000EE
:101B1200700890052100BC012300B201B301B40199
:101B22003D009019952D962D872D0130F0007008FB
:101B32002300E3000130F0007008E200E101E0015F
:101B4200E801F4017435B43E860087010030C03FDD
:101B5200C13F7435B73E8600013087000030C03F78
:101B6200C13F7408C43E86000130870081017408B9
:101B7200C13E86000130870081010130F00070080B
:101B8200F40703307402031CC72DC82DA32D28307F
:101B92002100B4000030B50016303D00980000303E
:101BA2002000A3005030A2000830A1000430F00051
:101BB2007008A000A0172300EF010030C000003021
:101BC200BF000030BE000030BD00DF012100C501B2
:101BD20008002100440886008701413FF50075088E
:101BE200F200F301730823003402031DFA2D720878
:101BF20033020318FD2DFE2D022E3308F200720867
:101C0200F5007508F200F3017208B3027308B43BE1
:101C1200F4011F2E7408583E860087010108F20065
:101C22003008860002308700720881000130F2001D
:101C32007208B0070130F2007208F40775087402E6
:101C4200031C242E252E0B2E3308340403192A2EAE
:101C52002B2E642E21003F08013EF2000030403D51
:101C6200F30072088600730887000830810058303C
:101C7200F2000030F3003F0886004008870042313E
:101C82007208C03F7308C13F440886008701011BE8
:101C92004B2E4C2E582E3F088600400887004830B5
:101CA20081003F088600400887008117952E3F0873
:101CB200860040088700083081003F0886004008FF
:101CC20087008117952E21003F08013EF200003067
:101CD200403DF300720886007308870008308100D7
:101CE2005030F2000030F3003F08860040088700C1
:101CF20042317208C03F7308C13F3F088600400866
:101D02008700043081003F08860040088700811761
:101D1200230035083608B2136408031D912E922E53
:101D2200952E973188278D310800210012113D0030
:101D32009301900198010E302100A7009930A6006E
:101D4200A801260886002708870081010130A6071E
:101D52000030A73D0130A5002508A807023028025F
:101D6200031CB42EB52EA22E16303D0091009F30DA
:101D720097007B3092002100A9012908A5000130BB
:101D8200A535FF3E031DC12E2535203E8600870165
:101D92000030C03F0030C13FC23FC33F0130A50009
:101DA2002508A9070C302902031CD82ED92EBE2ED5
:101DB2003D000E1796010E120E13F7302100A500FA
:101DC20025083D0090052100BC012300B201B301AA
:101DD200B4013D009019EE2EEF2EDE2E01302100CF
:101DE200A50025082300E30001302100A5002508F5
:101DF2002300E200E101E001E8012100A901293507
:101E0200B43E860087010030C03FC13F2935B73E4E
:101E12008600013087000030C03FC13F2908C43E20
:101E220086000130870081012908C13E8600013009
:101E3200870081010130A5002508A9070330290286
:101E4200031C242F252F002F2830B4000030B500AA
:101E520016303D00980000302000A3005030A20050
:101E62000830A10004302100A50025082000A000B0
:101E7200A0172300EF010030C0000030BF00003087
:101E8200BE000030BD00DF012100C50108000B11BA
:101E9200230056082000950024002E082F04031961
:101EA200532F542F592F2F088A002E080A008F31E2
:101EB20023005708031D5E2F5F2FE12F0130C90752
:101EC2000030CA3D13304A02883003194902031C0C
:101ED2006B2F6C2F7D2F21008E12133023004A02AC
:101EE2009C3003194902031C772F782F7D2F210084
:101EF2008E162300C901CA010130CB070030CC3D48
:101F02004C08803AF000F3307002031D8A2F3C30F7
:101F12004B02031C8D2F8E2FAD2F3C3023004B061E
:101F2200733003194C06031D972F982F9A2F210007
:101F32008E12303023004B06753003194C06031DF8
:101F4200A32FA42FAD2F21008E162300CB01CC018D
:101F52000130F0007008DA0001302400B2070030CE
:101F6200B33D3308803AF00080307002031DBB2F6E
:101F72000A303202031CBE2FBF2FFF2F240031086C
:101F8200803AF00080307002031DC92F4E303002BB
:101F92000318CC2FCD2FD82F01302400B0070030EA
:101FA200B13D0130F00070082300D800DD2F013070
:101FB200F00070082300D9002400B201B301FF2F02
:101FC2000130C9070030CA3D03304A02E830031924
:101FD2004902031CED2FEE2FFF2F21008E12043039
:101FE20023004A024C3003194902031CF92FFA2F2D
:0E1FF200FF2F21008E162300C901CA0108002E
:1024020016302100970008002400961592311722F9
:1024120092310800240016149231172292310800DA
:102422002400161592311722923108002000911DC6
:102432001B2A1C2A172A911108002400961216162C
:102442009231172292310800240096161616923104
:10245200172292310800903021009E009F019B01BB
:102462009C0101309D000800210026082400D100B3
:10247200210025082400D00008002100260824009D
:10248200AF00210025082400AE0008002100A500AD
:10249200250824009100923117229231080024006D
:1024A200940108309500960113309200200091119A
:1024B2002400951608006400800101310130FE02FB
:1024C2000030FF3B7F087E04031D5D2A0034FE00BE
:1024D20012001E000130FE020030FF3B7F087E0426
:1024E200031D692A00347C302100990098012700DD
:1024F2009B012200960121001A1F802A812A7C2A30
:10250200080092310B229231A0309231472292314F
:102512002400161B8D2A8E2A822A92311122923190
:10252200080021001508C039123895000630200035
:10253200950006302100A70027082300D6000B11C2
:102542008B16FF302100A5000730A60092313E22F3
:1025520092310800210012114308031DB12AB22A48
:10256200C42A26082300D200210025082300D10016
:1025720021002708A80028082300DD00DC01DC0A6E
:102582002100C301C30A1215080001302300BD0750
:102592000030BE3D0030BF3D0030C03D6808031D25
:1025A200D32AD42AE12A0130F0007008DF075F083D
:1025B200031DDC2ADD2AE12AFF30F0007008DF006B
:1025C200080021004508031DE72AE82AFF2A3D00EA
:1025D2008E019201163091009F3097007B3092005D
:1025E20021001215F52A8E153D008E1DF92AFA2AB0
:1025F200F42A01302100A5002508C50008003D008D
:102602001215EF302000E60066083D0090058E149A
:1026120001302000E60066082300E800DF01753083
:102622002000E0000030E1000030E2000030E30072
:102632000030E400E50094310C24933108002300BB
:10264200E80174302000E0000030E1000030E200D8
:102652000030E3000030E400E50094310C249331B3
:102662003D008E1012113B2BFB302000E600660865
:102672003D00900510193E2B3F2B352B2300DF0127
:10268200080022008C018D018E01303021008C0067
:10269200F0308D00FF308E00CC3023008E008D0193
:1026A2008C0124008D018C012100951722009D01CF
:1026B200270093129216911600302100A5000030D7
:1026C200A6009231352293310800FC00771D6A2B57
:1026D2006B2B702BF0017C0895312A259331F71C66
:1026E200732B742B7A2BF001F00A7C0895312A2582
:1026F20093317C08983EF800F9010E30F93D7808D4
:10270200FA007908FB007A0886007B0887007708C0
:10271200810008002100B1002C1D902B912B962BDB
:10272200A501310895316D2593312100AC1C9A2BFE
:102732009B2BA12BA501A50A310895316D2593315B
:1027420021003108983EAD00AE010E30AE3D2D089D
:10275200AF002E08B0002F088600300887002C0832
:10276200810008003D00181CB72BB82BD92B210083
:1027720044088600870180300106031DC12BC22B4D
:10278200D72B340886003508870084300106031DE4
:10279200CB2BCC2BD72B0C30F000440886008701C2
:1027A2007008810044088600870181173D001810D7
:1027B200DF30F000700890050800F8007108F6009C
:1027C2007008F5007808F4007408F900FF2B75080A
:1027D2008600760887000108F4007408F7000130CB
:1027E200F5070030F63D7708F40079088600870186
:1027F200740881000130F4007408F9070130F20214
:102802000030F33B720A031D0A2C730A031D0A2CC3
:102812000B2CE82B0800152C94313E2494313D2CCE
:102822008831012094313D2C20006108003A0319BF
:102832001E2C7F3A0319382C3D2C6008013A0319EB
:102842000D2C033A03193D2C013A0319112C063AB7
:1028520003193D2C773A03193D2C013A03193D2CFB
:10286200073A03193D2C013A03193D2C3D2C60080F
:10287200FF3A03193D2C3D2C080000302400C30010
:102882000030C2004B30C1000030C000C401C5019D
:102892000830FD007D08C6002300DE011A30FD006D
:1028A2007D08F70001309331662394311E30FD001C
:1028B2007D08F7000230933166239431F001C03075
:1028C200F1002030F2004030FD007D08F3000230BC
:1028D2008931F321943171082300D0007008CF00B0
:1028E200CD01CE012100C3010800023023006B0696
:1028F200031D7C2C7D2C812C8D31EA259431AE2C4C
:10290200EB016608031D862C872CAD2C21003F08A5
:10291200013EF6000030403DF70076088600770859
:102922008700083081005030F6000030F7003F0881
:1029320086004008870042317608C03F7708C13FD1
:102942003F088600400887000C3081003F0886005F
:10295200400887008117AE2CE60108002100121101
:1029620043080319B52CB62CB82C1215E92CAC016E
:102972002608AB002508AA000130A7002708AC07EB
:102982002C0A031DC52CC62CC72CD72C2B08A8003B
:102992002A08A700AA0A0319AB0A270884002808F4
:1029A20085001200031DD62CD72CBD2C260823002F
:1029B200D200210025082300D10021002C08A70005
:1029C20027082300DD00DC012100C301C30A121520
:1029D200080000302400C3000030C2004B30C100A8
:1029E2000030C000C401C50108302100B200320825
:1029F2002400C6002300DE011A302100B200320892
:102A0200AC00013093318B2394311E302100B2008F
:102A12003208AC00023093318B2394312100A5019E
:102A2200C030A6002030A7004030B2003208A80013
:102A320002308B3102239431210026082300D0007A
:102A4200210025082300CF00CD01CE012100C301C2
:102A52000800F5002030F1007108F6007008F1005E
:102A62000130F135890B322D7508F2000130F23553
:102A7200FF3E031D382D72357107F3000130F33527
:102A8200FF3E031D402D7335F4007408F6077608E7
:102A92008600870181137008031D502D512D5B2D77
:102AA2007535B73E8600013087007608C03F00309A
:102AB200C13F632D7535B43E860087017608C03F5D
:102AC2000030C13F76088600870101137608043E74
:102AD20086008701011708002100AA002030A60005
:102AE2002608AB002508A6000130A635890B762DF5
:102AF2002A08A7000130A735FF3E031D7C2D27358C
:102B02002607A8000130A835FF3E031D842D283575
:102B1200A9002908AB072B08860087018113250825
:102B2200031D942D952D9F2D2A35B73E8600013029
:102B320087002B08C03F0030C13FA72D2A35B43E85
:102B4200860087012B08C03F0030C13F2B0886005A
:102B5200870101132B08043E860087010117080034
:102B62002300EC01E401E101E001E601EB017F3029
:102B72002000EF002100340886003508870020007D
:102B82006F088105043021003406B4000030350698
:102B9200B5007F302000EF002100340886003508A0
:102BA200870020006F088105043021003406B4003C
:102BB20000303506B5007F302000EF0021003F08CD
:102BC20086004008870020006F0881052100BC01B3
:102BD200BD01BE012300B201B301B4018A317A22E0
:102BE200953103302000E0000030E1000030E200C7
:102BF2000030E3000030E400E50094310C2495310C
:102C02008C31A224953108002D302100A00020082B
:102C12002300E50021004608FD39031D112E122E66
:102C22004E2E46363F39A0000130A035FF3E031D2F
:102C3200162E2035203EA1002108C4004408BF0002
:102C4200FF39031D0030C00004303F06BF000030D2
:102C52004006C000440886008701010C890C0F3928
:102C62000D3A031D352E362E4A2E4408023E8600AA
:102C72008701403FF000413FF1000830F200003090
:102C8200F30050309331DE2396319531B1259631E0
:102C92005A2E9431762496315A2EFD304605A000E4
:102CA20004302006031D562E572E5A2E88317020CE
:102CB200963108002300E101E00102306B06031D9A
:102CC200632E642E8A2E21003F08013EF30000305D
:102CD200403DF400730886007408870008308100C4
:102CE2005830F3000030F4003F08860040088700A7
:102CF20042317308C03F7408C13F3F088600400854
:102D02008700483081003F0886004008870081170D
:102D1200BB2E21003E0820005702031D942E2100E5
:102D22003D08200056020318972E982E9F2E570812
:102D32002100BE00200056082100BD008831ED2090
:102D420096315830F3000030F40021003408860038
:102D52003508870042317308C03F7408C13F340808
:102D6200860035088700483081003408860035081F
:102D72008700811708002100B3002300DE014F08FD
:102D820050040319C52EC62ECE2E4F0886005008B9
:102D92008700811BCD2ECE2E1F2F4F088600500894
:102DA200870041312100300801020318D92EDA2EA2
:102DB200E52E23004F0886005008870041310108A4
:102DC2002100B1003108B0002300DE01012F5E08AE
:102DD200C03E860087012030873D01082100B100F6
:102DE20023005E0821003307B20032088600023059
:102DF2008700310881000130B10031082300DE076D
:102E02002100300823005E02031C082F092FE82E40
:102E12002100A501C030A6002030A7004030B1003B
:102E22003108A80002308B31022396312100260896
:102E32002300D000210025082300CF005E080800EF
:102E42002000D801D901652F2100BC172300690396
:102E5200031D2C2F2D2F792F2000D814792F21001C
:102E6200BC17792F2100BC172000D41B392F3A2F11
:102E7200462F54080F390907B73E860001308700F4
:102E8200403FF200413FF300502F54080F39090729
:102E9200B43E86008701403FF200413FF3007208D2
:102EA200860073088700811F572F582F792F7208C9
:102EB200860073088700011D5F2F602F792F013074
:102EC200F0007008D800792F50081F39F000F10186
:102ED2007108003A03196E2F792F7008003A03190E
:102EE200252F013A0319302F033A0319332F792F73
:102EF2002100BC1F7D2F7E2F872F5830BA00003053
:102F0200BB003C140230F0007008BD000800230032
:102F12006308031D8D2F8E2FFF2F0130F0007008E4
:102F2200E3006208031D962F972FFF2F0130F00058
:102F32007008E20002306B06031DA02FA12FB42FF0
:102F420021003408860035088700413181013408A8
:102F5200860035088700483081003408860035082D
:102F620087008117FF2F6B03031DB82FB92FFF2F87
:102F7200E6010830F0002100440A8600870170084B
:102F820081005030F0000030F1004408023E86001B
:102F920087017008C03F7108C13F0430F000440847
:102FA2008600870170088100440886008701811726
:102FB2000130F00070082300E60021003F08013EC6
:102FC200F0000030403DF100700886007108870073
:102FD200083081005030F0000030F1003F088600D8
:102FE2004008870042317008C03F7108C13F3F0866
:102FF20086004008870080308100FF2F08000934D6
:10300200023443340034023401340034C0343234E4
:1030120009340434003400340134023402340134FB
:10302200003405342434003410340134043424349C
:1030320002340234053424340634003401340534B5
:103042002434013400340134073405348134033428
:103052000A340034023409340434013400340234B2
:103062000A340034003400340734053402340234A4
:10307200403400340034073405348234023440349E
:1030820000340034343403344D34003469340034B1
:1030920063340034723400346F34003463340034E7
:1030A200683400346934003470340034203400341D
:1030B20054340034653400346334003468340034EA
:1030C2006E3400346F3400346C3400346F340034A6
:1030D2006734003479340034203400344934003405
:1030E2006E340034633400342E3400341634033426
:1030F200533400346D34003461340034723400349B
:1031020074340034203400345334003468340034CE
:103112006F34003465340034123401340034023424
:103122000234003400340834D83404340A3400340D
:10313200003401340134023403340134B534983498
:103142004334983477349834A734983408340334A9
:10315200313400343234003434340034533474346F
:103162006F347034213400340434033409340434A9
:043172000034983459
:020000040001F9
:04000E00E43FFF3F8D
:00000001FF
