:020000040000FA
:0400000080312628FD
:1000060008007E1480318B1E09280A2812280B1D31
:100016000D280E28122888313520803124280B1F00
:100026001528162824282100121D1A281B282428E2
:100036002000121D1F28202824288E31E02680311A
:1000460024287E10090080312828FF30840084305F
:10005600850050308600223087000130FF00A03036
:10006600903101208031B730840000308500143093
:10007600FE000030FF009D31C1258031B030840084
:10008600013085003F30FE000030FF009D31C12564
:10009600803120308400023085002730FE00003099
:1000A600FF009D31C1258031A030840002308500DB
:1000B6004030FE000030FF009D31C12580312030E8
:1000C6008400033085004030FE000030FF009D3183
:1000D600C12580317E1020008D31E52D2100B5002F
:1000E6003508031D77287828BB2909309D31EB2573
:1000F600803121001B08A700A8010530A735A80DEF
:10010600890B81281C08A900AA010D30A935AA0D62
:10011600890B892827082904AB0028082A04AC0083
:100126004408AD00AE01AD35AE0D4508AF00B001D7
:10013600AF0EB00EF030B0052F080F39B004F03016
:10014600AF055030B1002230B2002F083107B3009E
:100156003008323DB4002D08330786002E08343DA2
:1001660087002B08C03F2C08C13F08309D31EB2586
:10017600803121001C08A700A801A735A80DA735C6
:10018600A80DA735A80D4408A900AA01A935AA0DEE
:100196004508AB00AC01AB0EAC0EF030AC052B083D
:1001A6000F39AC04F030AB055030AD002230AE0054
:1001B6002B082D07AF002C082E3DB00029082F076D
:1001C60086002A08303D8700270881044131280827
:1001D60081041B08A7000530A736890BEF282708DE
:1001E600A800A9014408AA00AB01AA35AB0D450831
:1001F600AC00AD01AC0EAD0EF030AD052C080F39DC
:10020600AD04F030AC055030AE002230AF002C0803
:100216002E07B0002D082F3DB1002A0830078600B2
:100226002B08313D870028088104413129088104C3
:100236000130A7002708C4071B08A700A8010A3039
:10024600A735A80D890B23294408A900AA01A935B9
:10025600AA0D4508AB00AC01AB0EAC0EF030AC05F8
:100266002B080F39AC04F030AB055030AD0022300E
:10027600AE002B082D07AF002C082E3DB000290834
:100286002F0786002A08303D87002708C03F280828
:10029600C13F07309D31EB25803121004408A7007E
:1002A600A801A735A80D4508A900AA01A90EAA0EFE
:1002B600F030AA0529080F39AA04F030A9055030F4
:1002C600AB002230AC0029082B07AD002A082C3DD4
:1002D600AE0027082D07860028082E3D87001B083C
:1002E600810441311C0881040130A7002708C40796
:1002F60006309D31EB25803121001B08A700A8019F
:100306000530A735A80D890B84291C08A900AA0168
:100316000D30A935AA0D890B8C2927082904AB00B5
:1003260028082A04AC004408AD00AE01AD35AE0D78
:100336004508AF00B001AF0EB00EF030B0052F0883
:100346000F39B004F030AF055030B1002230B200A2
:100356002F083107B3003008323DB4002D083307AB
:1003660086002E08343D87002B08C03F2C08C13F6D
:100376003503031DBF29C0294A2B09309D31EB25C2
:10038600803121001C08A700A801A735A80DA735B4
:10039600A80DA735A80D4408A900AA01A935AA0DDC
:1003A6004508AB00AC01AB0EAC0EF030AC052B082B
:1003B6000F39AC04F030AB055030AD002230AE0042
:1003C6002B082D07AF002C082E3DB00029082F075B
:1003D60086002A08303D8700270881044131280815
:1003E60081041B08A7000530A736890BF7292708C3
:1003F600A800A9014408AA00AB01AA35AB0D45081F
:10040600AC00AD01AC0EAD0EF030AD052C080F39C9
:10041600AD04F030AC055030AE002230AF002C08F1
:100426002E07B0002D082F3DB1002A0830078600A0
:100436002B08313D870028088104413129088104B1
:100446000130A7002708C4071B08A700A8010A3027
:10045600A735A80D890B2B2A4408A900AA01A9359E
:10046600AA0D4508AB00AC01AB0EAC0EF030AC05E6
:100476002B080F39AC04F030AB055030AD002230FC
:10048600AE002B082D07AF002C082E3DB000290822
:100496002F0786002A08303D87002708C03F280816
:1004A600C13F08309D31EB25803121004408A7006B
:1004B600A801A735A80D4508A900AA01A90EAA0EEC
:1004C600F030AA0529080F39AA04F030A9055030E2
:1004D600AB002230AC0029082B07AD002A082C3DC2
:1004E600AE0027082D07860028082E3D87001B082A
:1004F600810441311C0881040130A7002708C40784
:1005060007309D31EB25803121001C08A700A8018A
:100516000D30A735A80D890B8C2A4408A900AA011D
:10052600A935AA0D4508AB00AC01AB0EAC0EF030F8
:10053600AC052B080F39AC04F030AB055030AD00DC
:100546002230AE002B082D07AF002C082E3DB00040
:1005560029082F0786002A08303D87002708C03F54
:100566002808C13F1B08A700A8010530A735A80D1C
:10057600890BB92A4408A900AA01A935AA0D45087C
:10058600AB00AC01AB0EAC0EF030AC052B080F394E
:10059600AC04F030AB055030AD002230AE002B0875
:1005A6002D07AF002C082E3DB00029082F07860026
:1005B6002A08303D87002708810441312808810434
:1005C60006309D31EB25803121001C08A700A801CB
:1005D600A735A80DA735A80DA735A80D4408A9006D
:1005E600AA01A935AA0D4508AB00AC01AB0EAC0EAD
:1005F600F030AC052B080F39AC04F030AB055030A9
:10060600AD002230AE002B082D07AF002C082E3D82
:10061600B00029082F0786002A08303D87002708E2
:1006260081044131280881041B08A7000530A7363C
:10063600890B1A2B2708A800A9014408AA00AB01B8
:10064600AA35AB0D4508AC00AD01AC0EAD0EF030D1
:10065600AD052C080F39AD04F030AC055030AE00B6
:100666002230AF002C082E07B0002D082F3DB10018
:100676002A08300786002B08313D870028088104A8
:100686004131290881040130A7002708C407033037
:100696003506031D4F2B502BFE2C1B08A700A80167
:1006A6000A30A735A80D890B542B4408A900AA01C6
:1006B600A935AA0D4508AB00AC01AB0EAC0EF03067
:1006C600AC052B080F39AC04F030AB055030AD004B
:1006D6002230AE002B082D07AF002C082E3DB000AF
:1006E60029082F0786002A08303D87002708C03FC3
:1006F6002808C13F09309D31EB25803121001C08B7
:10070600A700A8012708A800A7014408AA00AB0172
:10071600AA35AB0D4508AC00AD01AC0EAD0EF03000
:10072600AD052C080F39AD04F030AC055030AE00E5
:100736002230AF002C082E07B0002D082F3DB10047
:100746002A08300786002B08313D870027088104D8
:100756004131280881041B08A700A8014408A90004
:10076600AA01A935AA0D4508AB00AC01AB0EAC0E2B
:10077600F030AC052B080F39AC04F030AB05503027
:10078600AD002230AE002B082D07AF002C082E3D01
:10079600B00029082F0786002A08303D8700270861
:1007A60081044131280881040130A7002708C407C5
:1007B60008309D31EB25803121001C08A700A801D7
:1007C6000D30A735A80D890BE42B4408A900AA0112
:1007D600A935AA0D4508AB00AC01AB0EAC0EF03046
:1007E600AC052B080F39AC04F030AB055030AD002A
:1007F6002230AE002B082D07AF002C082E3DB0008E
:1008060029082F0786002A08303D87002708C03FA1
:100816002808C13F1B08A700A8010530A735A80D69
:10082600890B112C4408A900AA01A935AA0D45086F
:10083600AB00AC01AB0EAC0EF030AC052B080F399B
:10084600AC04F030AB055030AD002230AE002B08C2
:100856002D07AF002C082E3DB00029082F07860073
:100866002A08303D87002708C03F2808C13F0730C7
:100876009D31EB25803121001C08A700A801A73572
:10088600A80DA735A80DA735A80D4408A900AA01EB
:10089600A935AA0D4508AB00AC01AB0EAC0EF03085
:1008A600AC052B080F39AC04F030AB055030AD0069
:1008B6002230AE002B082D07AF002C082E3DB000CD
:1008C60029082F0786002A08303D8700270881045B
:1008D6004131280881041B08A7000530A736890B7B
:1008E600712C2708A800A9014408AA00AB01AA3563
:1008F600AB0D4508AC00AD01AC0EAD0EF030AD054C
:100906002C080F39AD04F030AC055030AE00223063
:10091600AF002C082E07B0002D082F3DB1002A0885
:10092600300786002B08313D8700280881044131B5
:10093600290881040130A7002708C4071B08A7005F
:10094600A8010A30A735A80D890BA52C4408A900D3
:10095600AA01A935AA0D4508AB00AC01AB0EAC0E39
:10096600F030AC052B080F39AC04F030AB05503035
:10097600AD002230AE002B082D07AF002C082E3D0F
:10098600B00029082F0786002A08303D870027086F
:10099600C03F2808C13F06309D31EB25803121003C
:1009A6004408A700A801A735A80D4508A900AA0173
:1009B600A90EAA0EF030AA0529080F39AA04F030AC
:1009C600A9055030AB002230AC0029082B07AD003A
:1009D6002A082C3DAE0027082D07860028082E3D44
:1009E60087001B08C03F1C08C13F0130A70027082D
:1009F600C507C4011D10080000340034013400345A
:100A06000234003403340034043400340534003432
:100A16000634003407340034083400340934003412
:100A26000A3400340B3400340C3400340D340034F2
:100A36000E3400340F3400341034003411340034D2
:100A460012340034133400341434003415340034B2
:100A56001634003417340034183400341934003492
:100A66001A3400341B3400341C3400341D34003472
:100A76001E3400341F340034203400342134003452
:100A86002234003423340034243400342534003432
:100A96002634003427340034283400342934003412
:100AA6002A3400342B3400342C3400342D340034F2
:100AB6002E3400342F3400343034003431340034D2
:100AC60032340034333400343434003435340034B2
:100AD6003634003437340034383400343934003492
:100AE6003A3400343B3400343C3400343D34003472
:100AF6003E3400343F340034403400344134003452
:100B06004234003443340034443400344534003431
:100B16004634003447340034483400344934003411
:100B26004A3400344B3400344C3400344D340034F1
:100B36004E3400344F3400345034003451340034D1
:100B460052340034533400345434003455340034B1
:100B56005634003457340034583400345934003491
:100B66005A3400345B3400345C3400345D34003471
:100B76005E3400345F340034603400346134003451
:100B86006234003463340034643400346534003431
:100B96006634003467340034683400346934003411
:100BA6006A3400346B3400346C3400346D340034F1
:100BB6006E3400346F3400347034003471340034D1
:100BC60072340034733400347434003475340034B1
:100BD6007634003477340034783400347934003491
:100BE6007A3400347B3400347C3400347D34003471
:100BF6007E3400347F340034803400348134003451
:100C06008234003483340034843400348534003430
:100C16008634003487340034883400348934003410
:100C26008A3400348B3400348C3400348D340034F0
:100C36008E3400348F3400349034003491340034D0
:100C460092340034933400349434003495340034B0
:100C56009634003497340034983400349934003490
:100C66009A3400349B3400349C3400349D34003470
:100C76009E3400349F340034A0340034A134003450
:100C8600A2340034A3340034A4340034A534003430
:100C9600A6340034A7340034A8340034A934003410
:100CA600AA340034AB340034AC340034AD340034F0
:100CB600AE340034AF340034B0340034B1340034D0
:100CC600B2340034B3340034B4340034B5340034B0
:100CD600B6340034B7340034B8340034B934003490
:100CE600BA340034BB340034BC340034BD34003470
:100CF600BE340034BF340034C0340034C134003450
:100D0600C2340034C3340034C4340034C53400342F
:100D1600C6340034C7340034C8340034C93400340F
:100D2600CA340034CB340034CC340034CD340034EF
:100D3600CE340034CF34003420005203031DA42ED9
:100D4600A52EBD2E50081F39003A031DAB2EAC2E22
:100D5600BD2E2100BF17033020005106031DB42EFF
:100D6600B52EBB2E0130E60066082300E900BD2E35
:100D76002300E90120005208031DC22EC32EF62FC0
:100D860050081F39023A031DC92ECA2EF62F5408E1
:100D96000F39003A0319D02ED12EF62F54080F39E9
:100DA600E600033066020318D92EDA2EF62F20301D
:100DB60021004906031DE02EE12EF62FBF17200065
:100DC600D41BE62EE72EFD2E54080F390907B73E31
:100DD600860001308700403FEB00413FEC0054089D
:100DE6000F39C13E8600013087000108E60066081B
:100DF600EA00112F54080F390907B73E860087010C
:100E0600403FEB00413FEC0054080F39C43E8600DA
:100E1600013087000108E6006608EA006A18142F08
:100E2600152F202FFB30E600FF30E7006B08660524
:100E3600EB006C086705EC00262F04306B04EB0012
:100E460000306C04EC00D41B292F2A2F362F5408AF
:100E56000F390907B73E8600013087006B08C03F8F
:100E66006C08C13F402F54080F390907B73E86006A
:100E760087016B08C03F6C08C13F03305106031D54
:100E8600452F462F6C2F6B0886006C088700811F44
:100E96004D2F4E2F612FD41B512F522F5A2F5408EE
:100EA6000F39C13E8600013087008114612F540836
:100EB6000F39C43E86000130870081146B08860016
:100EC6006C08870001156B0886006C08870081177F
:100ED600F62F04306B06EB0000306C06EC006B0856
:100EE60086006C088700811F792F7A2F972F7F3015
:100EF600E6006B0886006C088700660881056B08AB
:100F060086006C08870001170530E0000030E1001C
:100F16006C08E3006B08E2000230E4000030E500F4
:100F26008831032086319C2F6B0886006C08870069
:100F36000117043020006B06EB0000306C06EC0055
:100F4600EA18A62FA72FAF2F6B0886006C0887001C
:100F5600811FAE2FAF2FDA2FD41BB22FB32FBB2F8B
:100F660054080F39C13E8600013087008110C22F18
:100F760054080F39C43E86000130870081103B308B
:100F8600E6006B0886006C08870066088105053058
:100F9600E0000030E1006C08E3006B08E20002307C
:100FA600E4000030E500883103208631E22F3B3033
:100FB600E6006B0886006C0887006608810520003D
:100FC60054080F39983EE600E7010E30E73D660803
:100FD600E8006708E900FE30E60068088600690850
:100FE60087006608810508002100A5002508240061
:0A0FF60091009D3185258731080028
:101006000C289F318E27883134289231E622883188
:10101600342820006108003A031915287F3A03197D
:101026002F2834286008013A03190428033A0319C3
:101036003428013A03190828063A03193428773A5E
:1010460003193428013A03193428073A03193428B6
:10105600013A0319342834286008FF3A0319342862
:10106600342808000B1123005608200095002400A0
:101076002E082F0403194028412846282F088A00E5
:101086002E080A00883123005708031D4B284C28D8
:10109600CF2801302400B2070030B33D13303302AD
:1010A600883003193202031C59285A286B2821005C
:1010B6008E121330240033029C3003193202031CB3
:1010C600652866286B2821008E162400B201B3011C
:1010D60001302300C9070030CA3D4A08803AF000B3
:1010E600F3307002031D79283C304902031C7C282A
:1010F6007D289C283C3023004906733003194A0694
:10110600031D86288728892821008E123030230067
:101116004906753003194A06031D922893289C2810
:1011260021008E162300C901CA010130F0007008A3
:10113600DA0001302400B4070030B53D3508803AA6
:10114600F00080307002031DAA280A303402031C06
:10115600AD28AE28CF2824003108803AF000803030
:101166007002031DB8284E3030020318BB28BC2875
:10117600C72801302400B0070030B13D0130F0002F
:1011860070082300D800CC280130F0007008230036
:10119600D9002400B401B50108003D000E1221005B
:1011A600BF1BD628D7281F292300B21FDB28DC281F
:1011B600EE280230F50075082100C70023006008FC
:1011C600031DE628E728EA289131BA218831230051
:1011D600E201E301702921004208013EF5000030DA
:1011E600433DF600750886007608870008308100C2
:1011F6005030F5000030F6004208860043088700AC
:1012060042317508C03F7608C13F42088600430850
:1012160087000C308100420886004308870081174A
:1012260037088600380887000430810037088600B2
:1012360038088700811770292000D01F2329242908
:101246003E290130F50075082100C700230061081A
:10125600031D2E292F2932299131BA2188312300E5
:10126600E201E3016408031D39293A297029933103
:101276005523883170290230F50075082100C70012
:101286004208013EF5000030433DF6007508860031
:1012960076088700083081005030F5000030F600EF
:1012A600420886004308870042317508C03F760829
:1012B600C13F420886004308870004308100420887
:1012C60086004308870081172300E201E3016408D2
:1012D600031D6E296F2970293A2908002100121171
:1012E6003D009301900198010E30F2009930F10013
:1012F600F301710886007208870081010130F10749
:101306000030F23D0130F0007008F307023073023E
:10131600031C8E298F297C2916303D0091009F30B1
:1013260097007B309200F4017408F0000130F0352C
:10133600FF3E031D9A297035203E86008701003046
:10134600C03F0030C13FC23FC33F0130F0007008CC
:10135600F4070C307402031CB129B22997293D0009
:101366000E1796010E120E13F730F0007008900556
:101376002100BF012300B201B301B4013D00901961
:10138600C529C629B7290130F00070082300E300FB
:101396000130F0007008E200E101E001E801F4012B
:1013A6007435B73E860087010030C03FC13F7435B3
:1013B600B73E8600013087000030C03FC13F740849
:1013C600C43E86000130870081017408C13E860054
:1013D6000130870081010130F0007008F407033006
:1013E6007402031CF729F829D32928302100B700F5
:1013F6000030B80016303D00980000302000A300F1
:101406005030A2000830A1000430F0007008A0009F
:10141600A0172300EE010030C0000030BF000030EE
:10142600BE000030BD00DF012100C9010800210017
:10143600480886008701413FF5007508F200F30170
:10144600730823003402031D2A2A72083302031884
:101456002D2A2E2A322A3308F2007208F500750862
:10146600F200F3017208B3027308B43BF4014F2A89
:101476007408583E860087010108F200300886008D
:1014860002308700720881000130F2007208B0074E
:101496000130F2007208F40775087402031C542A1E
:1014A600552A3B2A3308340403195A2A5B2A942AFC
:1014B60021004208013EF2000030433DF30072086D
:1014C600860073088700083081005830F20000302B
:1014D600F300420886004308870042317208C03F85
:1014E6007308C13F480886008701011B7B2A7C2AB6
:1014F600882A42088600430887004830810042084F
:101506008600430887008117C52A420886004308DB
:10151600870008308100420886004308870081174B
:10152600C52A21004208013EF2000030433DF30087
:101536007208860073088700083081005030F20078
:101546000030F300420886004308870042317208E3
:10155600C03F7308C13F4208860043088700043035
:10156600810042088600430887008117230035085A
:101576003608B2136408031DC12AC22AC52A93314C
:1015860055238A310800210012113D009301900174
:1015960098010E302100A7009930A600A801260860
:1015A60086002708870081010130A6070030A73D85
:1015B6000130A5002508A80702302802031CE42AEA
:1015C600E52AD22A16303D0091009F3097007B30E5
:1015D60092002100A9012908A5000130A535FF3E8A
:1015E600031DF12A2535203E860087010030C03FC5
:1015F6000030C13FC23FC33F0130A5002508A907FF
:101606000C302902031C082B092BEE2A3D000E176D
:1016160096010E120E13F7302100A50025083D0095
:1016260090052100BF012300B201B301B4013D00C2
:1016360090191E2B1F2B0E2B01302100A50025080B
:101646002300E30001302100A50025082300E20065
:10165600E101E001E8012100A9012935B73E860034
:1016660087010030C03FC13F2935B73E86000130B3
:1016760087000030C03FC13F2908C43E86000130C4
:10168600870081012908C13E86000130870081015B
:101696000130A5002508A90703302902031C542B95
:1016A600552B302B2830B7000030B80016303D00DF
:1016B600980000302000A3005030A2000830A1009E
:1016C60004302100A50025082000A000A017230053
:1016D600EE010030C0000030BF000030BE00003018
:1016E600BD00DF012100C90108001F3021002605C9
:1016F600AA0000302705AB002A082B040319842B07
:10170600852B862B342C2400C90121002708AA002A
:101716002A082400C70021002608AA002A08240057
:10172600C8009D3179258B31A0308731F7278B3161
:10173600240047088731F7278B3124004808873172
:10174600F7278B312400CA01CB014B082100AA00E0
:10175600AB01AA35AB0D240049082100AC00AD0150
:10176600AC35AD0D24004A0821002C07AE002D082B
:1017760003182D0AAF00AE0EAF0EF030AF052E08DF
:101786000F39AF04F030AE052E082807B0002F0839
:10179600293DB1002A08300786002B08313D870015
:1017A600403FB200413FB30033088731F7278B3102
:1017B60024004B082100AA00AB01AA35AB0D24007A
:1017C60049082100AC00AD01AC35AD0D24004A0836
:1017D60021002C07AE002D0803182D0AAF00AE0E0F
:1017E600AF0EF030AF052E080F39AF04F030AE055E
:1017F6002E082807B0002F08293DB1002A08300717
:1018060086002B08313D870001088731F7278B3189
:1018160001302100AA002A082400CB0708304B0219
:10182600031C162C172CA82B01302100AA002A080D
:101836002400CA0702304A02031C222C232CA72BA1
:101846009D317F258B319D31DB258B310130210088
:10185600AA002A082400C90749080319332C342C86
:10186600882B08007108FD007008FC0074087504D8
:10187600031D3E2C3F2C402CFE2C7C0886007D0848
:1018860087007208810074087C07F60075087D3DA4
:10189600F7007608FF3EF800FF30773DF90078083C
:1018A60086007908870072088100003075020330CF
:1018B600031974020318602C612C622CFE2C7C0820
:1018C600013EF60000307D3DF70076088600770879
:1018D6008700720881007C08023EF60000307D3DDC
:1018E600F70076088600770887007208810074087A
:1018F6007C07F60075087D3DF7007608FE3EF80089
:10190600FF30773DF900780886007908870072086D
:10191600810074087C07F60075087D3DF70076089F
:10192600FD3EF800FF30773DF9007808860079081B
:1019360087007208810000307502073003197402AF
:101946000318A62CA72CA82CFE2C7C08033EF60018
:1019560000307D3DF700760886007708870072081C
:10196600810074087C07F60075087D3DF70076084F
:10197600FC3EF800FF30773DF900780886007908CC
:10198600870072088100003075020930031974025D
:101996000318CE2CCF2CD02CFE2C7C09F6007D090A
:1019A600F700F60A0319F70A03307605FA00003045
:1019B6007705FB007A08FC077B08FD3D7A08F402F0
:1019C6007B08F53BFC30F405FF30F505F82C7C0868
:1019D60086007D088700720881000130F40200301D
:1019E600F53B0130FC070030FD3D74087504031D0E
:1019F600FD2CFE2CEA2C08002100121123004B08B6
:101A06004C040319072D082D132D4B0886004C088E
:101A16008700811F0F2D102D132D21001215E42D87
:101A2600033021004606031D192D1A2D1B2DC60154
:101A36004608031D1F2D202D222D1215E42D0230E0
:101A46004606031D272D282D412DA501A50A003088
:101A5600A6000030A700A8010230963160268C311E
:101A6600210026082300CC00210025082300CB00F6
:101A760003302100B0003008C600E22D4603031DE6
:101A8600452D462DE22D413023005D02031C4C2DD1
:101A96004D2D532D40302100B0003008B200582D96
:101AA6005D082100B0003008B200320823005D0254
:101AB6002100B00030082300DD002030D000803047
:101AC600CF0021003208B0003008B10023005C08C6
:101AD600031D6E2D6F2DAF2D8C2D23005108840014
:101AE6005208850000082100B00023004F08860038
:101AF6005008870021003008810001302300CF07FD
:101B06000030D03D0130D1070030D23D01302100F8
:101B1600B10221003108031D912D922D702DB52D96
:101B26002300510884005208850000082100B000F7
:101B360023004F08860050088700210030088100E6
:101B460001302300CF070030D03D0130D1070030EF
:101B5600D23D01302100B10221003108031DB42D10
:101B6600B52D932D23005D08031DBA2DBB2DCB2D5E
:101B7600403021003206031DC12DC22DC72D023073
:101B8600B0003008C600CB2D0330B0003008C600C8
:101B96002100A501A50A8030A6002030A700320842
:101BA600B0003008A8000230963160268C31210042
:101BB60026082300CC00210025082300CB002100A5
:101BC600121508009D31FE258D319D31B5258D31CB
:101BD600903148208D318B170B17230058080319B5
:101BE600F52DF62D1E2ED8015508031DFB2DFC2DB7
:101BF600072E0030803171208D3101302100B60072
:101C060036082300D5071E2E5503031D0B2E0C2E5A
:101C1600112E0130803171208D31002E0230550693
:101C2600031D162E172E1E2E0330803171208D3186
:101C36002300D5011E2E5A080319222E232E312EDB
:101C4600DA01270093128B1563008B11270093127C
:101C56002300D401D9012400B001B10123005908A1
:101C66000319362E372E5D2E5408031D3B2E3C2EAF
:101C76005D2ED9010F304802FF3003194702031CBD
:101C8600452E462E482EC701C80148082100A70048
:101C9600230047082100A6005030A8002230A900E2
:101CA6008B3178238D31A0302300C7070130C83D22
:101CB600D401D40A2100B001B00A4D3092311A2263
:101CC6008D316B3024004D06031D6A2E6B2E9D2E22
:101CD6006E302100B60036082400CD002300C7016F
:101CE600C80101302100B60036082300D700D30111
:101CF60021004608031D802E812EDA2E0030A60014
:101D0600A7005030A8002230A9009431CE248D318E
:101D160020302300C7070030C83D50302100A50001
:101D26002230A6002030B6003608A7009E312D26A8
:101D36008D31DA2E63304D06031DA22EA32EDA2E28
:101D46006E302100B60036082400CD00230053086B
:101D56000319AE2EAF2EBA2EAF302100A500983053
:101D6600A60090310D208D312300D701DA2E4808C8
:101D76002100A700230047082100A6005030A80034
:101D86002230A9009431CE248D3120302300C7079C
:101D96000030C83D0F304802FF3003194702031CCC
:101DA600D52ED62E902ED301D30AC701C8018C3169
:101DB600FF248D31F02D8031262821004903031D93
:101DC600E52EE62EF32E3D008E1AEA2EEB2EF32E8E
:101DD60090011214121602302100A2002208C90036
:101DE6003D00101DF72EF82E052F121DFB2EFC2E82
:101DF600052FFB302100A20022083D0090059E31F0
:101E0600A2268E313D008E1C092F0A2F0D2F200091
:101E16001211FF2F101C102F112F232F121C142FFD
:101E2600152F232F893171218E312100121504308F
:101E3600A2002208C900FE30A20022083D0090053B
:101E4600101E262F272F2E2F121E2A2F2B2F2E2F16
:101E56009E3182268E313D00101F322F332F602F88
:101E6600121F362F372F472F73302000E000003027
:101E7600E1000030E2000030E3000130E400003011
:101E8600E500883103208E31BF302100A2002208F0
:101E96003D0090059E3148268E31230065080319C2
:101EA600552F562F582F0130E5026508031D5C2F6C
:101EB6005D2F602F933155238E313D00901E642F88
:101EC600652F6C2F921E682F692F6C2F9F31352737
:101ED6008E313D00901C702F712F872F921C742F0E
:101EE600752F872FFF302000E0007F30E1000030A3
:101EF600E2000030E3000130E4000030E500883104
:101F060003208E313D00930104302100490203185D
:101F16008D2F8E2F912F20001211FF2F3D00921D25
:101F2600952F962FFD2F2100A4013D00901D9C2F7B
:101F36009D2FFD2F0F082100A2002208CA004A0C7F
:101F4600A200A20C220C0F39A30023082300E700ED
:101F5600F7302100A20022083D00900521004A1911
:101F6600B52FB62FC82F23006708C13E8600013063
:101F76008700010801392100A2000130A2060108EC
:101F86002206FE3922068100D92F23006708C43EA7
:101F9600860001308700010801392100A2000130C6
:101FA600A20601082206FE392206810023006708E0
:101FB600031DDE2FDF2FE32F913164218E31F22FA7
:101FC60072302000E0000030E100CA30E20000304C
:101FD600E3000030E400E500883103208E31013053
:101FE6002100A2002208A40704302402031CFC2FAF
:0A1FF600FD2F982F200012110800A3
:10200200FE0012001E000130FE020030FF3B7F087E
:102012007E04031D02280034210012114608031910
:1020220013281428162812154728AC012608AB00DD
:102032002508AA000130A7002708AC072C0A031DB7
:1020420023282428252835282B08A8002A08A70099
:10205200AA0A0319AB0A270884002808850012007F
:10206200031D342835281B2826082300D20021000E
:1020720025082300D10021002C08A70027082300EF
:10208200DD00DC012100C601C60A1215080000307D
:102092002400C3000030C2004B30C1000030C00039
:1020A200C401C50108302100B20032082400C60074
:1020B2002300DE011A302100B2003208AC000130E8
:1020C2009F310D2790311E302100B2003208AC0042
:1020D20002309F310D2790312100A501C030A600AA
:1020E2002030A7004030B2003208A80002309631FA
:1020F20060269031210026082300CE002100250809
:102102002300CD00CB01CC012100C6010800F5005F
:102112002030F1007108F6007008F1000130F1354D
:10212200890B90287508F2000130F235FF3E031D3D
:10213200962872357107F3000130F335FF3E031D17
:102142009E287335F4007408F60776088600870126
:1021520081137008031DAE28AF28B9287535B73E24
:102162008600013087007608C03F0030C13FC12899
:102172007535B73E860087017608C03F0030C13F03
:1021820076088600870101137608043E86008701DF
:10219200011708002100AA002030A6002608AB0083
:1021A2002508A6000130A635890BD4282A08A700E5
:1021B2000130A735FF3E031DDA2827352607A80080
:1021C2000130A835FF3E031DE2282835A900290861
:1021D200AB072B088600870181132508031DF2280F
:1021E200F328FD282A35B73E8600013087002B08E8
:1021F200C03F0030C13F05292A35B73E860087011E
:102202002B08C03F0030C13F2B0886008701011315
:102212002B08043E86008701011708002300EB010A
:10222200E401E101E001E6012100C7017F30200065
:10223200EF002100370886003808870020006F0869
:102242008105043021003706B70000303806B80097
:102252007F302000EF002100370886003808870011
:1022620020006F088105043021003706B7000030D6
:102272003806B8007F302000EF00210042088600B7
:102282004308870020006F0881052100BF01C001BB
:10229200C1012300B201B301B4019531D8259131B6
:1022A20003302000E0000030E1000030E2000030A6
:1022B200E3000030E400E5008831032091318831E9
:1022C200D020913108002D302100A00020082300E9
:1022D200E50021004A08FD39031D70297129AD2945
:1022E2004A363F39A0000130A035FF3E031D752953
:1022F2002035203EA1002108C8004808C200FF394D
:10230200031D0030C30004304206C2000030430601
:10231200C300480886008701010C890C0F390D3A69
:10232200031D94299529A9294808023E86008701A0
:10233200403FF000413FF1000830F2000030F3006E
:1023420050309F316027913191310F219131B9295C
:102352009F31C6279131B929FD304A05A0000430CA
:102362002006031DB529B629B9299331CE2391310F
:1023720008002300E101E001023021004706031DAD
:10238200C329C429E9294208013EF3000030433D34
:10239200F400730886007408870008308100583002
:1023A200F3000030F40042088600430887004231FF
:1023B2007308C03F7408C13F420886004308870083
:1023C2004830810042088600430887008117192A95
:1023D200410820005702031DF22921004008200075
:1023E20056020318F529F629FD2957082100C100D4
:1023F200200056082100C00094314B2491315830FE
:10240200F3000030F4002100370886003808870006
:1024120042317308C03F7408C13F3708860038084C
:102422008700483081003708860038088700811706
:1024320008002100B3002300DE014D084E040319F9
:10244200232A242A2C2A4D0886004E088700811B45
:102452002B2A2C2A7D2A4D0886004E0887004131FE
:102462002100300801020318372A382A432A2300A0
:102472004D0886004E088700413101082100B10055
:102482003108B0002300DE015F2A5E08C03E8600EC
:1024920087012030873D01082100B10023005E083A
:1024A20021003307B200320886000230870031086B
:1024B20081000130B10031082300DE07210030081D
:1024C20023005E02031C662A672A462A2100A50110
:1024D200C030A6002030A7004030B1003108A8006B
:1024E2000230963160269231210026082300CE0068
:1024F200210025082300CD005E0808002000D80135
:10250200D901C32A2100BF1723006903031D8A2AA8
:102512008B2AD72A2000D814D72A2100BF17D72AFE
:102522002100BF172000D41B972A982AA42A5408F6
:102532000F390907B73E860001308700403FF2009D
:10254200413FF300AE2A54080F390907B73E86000F
:102552008701403FF200413FF30072088600730892
:102562008700811FB52AB62AD72A72088600730807
:102572008700011DBD2ABE2AD72A0130F00070084B
:10258200D800D72A50081F39F000F1017108003A2B
:102592000319CC2AD72A7008003A0319832A013A70
:1025A20003198E2A033A0319912AD72A2100BF1F41
:1025B200DB2ADC2AE52A5830BD000030BE003F1479
:1025C2000230F0007008C0000800200050081F39D7
:1025D200013A0319ED2AEE2AEF2A542B500E890CE8
:1025E2000339013A0319F62AF72AF82A542B540818
:1025F2000319FC2AFD2A3B2B54030319012B022B3E
:102602003B2B542B38302100BD000230BE0000307D
:10261200C1000830C0003F14BF17542B38302100CE
:10262200BD000230BE00BF17542B57082300B40070
:10263200200056082300B3004030F0007008B000BC
:10264200B501B601B217542B40302100BD00023053
:10265200BE000030C1000730C000C130F000700879
:10266200BF00542B5208F00070082300DB00210049
:10267200BF17542B5108F000F1017108003A0319F9
:10268200432B542B7008003A0319032B013A031908
:102692000F2B213A0319162B013A0319252B033A62
:1026A2000319332B542B080023006308031D5A2BF4
:1026B2005B2BCD2B0130F0007008E3006208031D94
:1026C200632B642BCD2B0130F0007008E200023046
:1026D20021004706031D6E2B6F2B812B37088600C6
:1026E20038088700413181013708860038088700A1
:1026F2004830810037088600380887008117CD2BC3
:102702004703031D852B862BCD2B2300E6010830C2
:10271200F0002100480A86008701700881005030CD
:10272200F0000030F1004808023E86008701700880
:10273200C03F7108C13F0430F0004808860087019D
:102742007008810048088600870181170130F00077
:1027520070082300E60021004208013EF00000302C
:10276200433DF1007008860071088700083081003F
:102772005030F0000030F100420886004308870024
:1027820042317008C03F7108C13F420886004308C9
:10279200870080308100CD2B080021003708860099
:1027A200380887000030011B0130F500043037067D
:1027B200B70000303806B80008304906031DE22B86
:1027C200E32BF82B200052087F393D0096001608B3
:1027D2000319EC2BED2BF32B1030F30073082100BF
:1027E200C900F82B0430F30073082100C900470325
:1027F200031DFC2BFD2B402C5830F3000030F4005D
:10280200370886003808870042317308C03F7408D1
:10281200C13F94314B249331023023006B06031DD8
:10282200132C142C212C210037088600380887002D
:1028320004308100370886003808870081174A2C47
:102842007508031D252C262C332C21003708860001
:10285200380887004830810037088600380887002A
:1028620081174A2C21003708860038088700083073
:102872008100370886003808870081174A2C230018
:10288200B21F442C452C482C35083608B2132100BF
:10289200C70108000830F0007008F2000030210083
:1028A20041020830031940020318582C592C712C8C
:1028B2004008F0007008F20023006B08031D622C30
:1028C200632C682C0130F0007008EB00712C6B0354
:1028D200031D6C2C6D2C712C0230F0007008EB0083
:1028E2007208F000F10170082100C0027108C13BBA
:1028F2003708013EF0000030383DF10070088600D4
:1029020071088700720881005830F00070082300B7
:10291200EA0021003F188E2C8F2CC82CA92C2100F4
:102922003D0884003E0885000008F00023006A0884
:10293200860087017008810001302100BD07003048
:10294200BE3D0130F00070082300EA070130F202B8
:102952007208031DAD2CAE2C902CCD2C21003D080D
:1029620084003E0885000008F00023006A08860003
:1029720087017008810001302100BD070030BE3D93
:102982000130F00070082300EA070130F2027208F9
:10299200031DCC2CCD2CAF2C080021002708AA0047
:1029A2002A08B1002608AA002A08B0009D3179251C
:1029B2009431A0308731F7279431210031088731D3
:1029C200F7279431210030088731F72794319D3160
:1029D20079259431A1308731F72794312100B20152
:1029E200B3019D3173259431240011082100AA00FE
:1029F2002A08B1009D318C2594319D317325943183
:102A020021003308AA00AB01AA35AB0D3208AC0095
:102A1200AD01AC0EAD0EF030AD052C080F39AD0492
:102A2200F030AC052C082807AE002D08293DAF0078
:102A32002A082E0786002B082F3D87002400110844
:102A4200C03F21003108C13F3208031D292D2A2D24
:102A52002E2D9D318C259431382D073033020318E9
:102A6200332D342D352D2A2D9D319325943101306E
:102A72002100AA002A08B30708303302031C422DA2
:102A8200432DF22C0130AA002A08B207023032028A
:102A9200031C4C2D4D2DF12C9D317F2594310800C6
:102AA200F80070080319562D572D602D7835B73E62
:102AB20086008701403FF900413FFA00692D7835D1
:102AC200B73E860001308700403FF900413FFA00DF
:102AD20079087A04031D6E2D6F2D722DF001F1011C
:102AE200D72DFF307105F4007F307205F5007908AB
:102AF20086007A08870042317408C03F7508C13FDA
:102B02007908013EF40000307A3DF5007408860031
:102B120075088700730881004030F4007908860048
:102B22007A08870074088105790886007A08870088
:102B32008115790886007A088700811770080319C1
:102B4200A32DA42DBB2D7835B73E86008701403FCB
:102B5200F400413FF50004307406F60000307506BB
:102B6200F7007835B73E860087017608C03F7708C0
:102B7200C13FD32D7835B73E860001308700403FF4
:102B8200F400413FF50004307406F600003075068B
:102B9200F7007835B73E8600013087007608C03FDF
:102BA2007708C13F7A08F1007908F0000800200098
:102BB200500E890C0339003A0319E02DE12D342E11
:102BC2005F2E2100BF1708302000ED006D082100A4
:102BD200C9005F2E9631E82695315F2E9731732713
:102BE20095315F2EEE302100BD000130BE003F1452
:102BF20001302000ED006D082100C000BF175F2EDC
:102C020092317F2295315F2E86319F2695315F2E3C
:102C12005408EC3E2100BD000130BE003F140130DB
:102C22002000ED006D082100C000BF175F2E2100BB
:102C3200BF1720005208ED005408EC3E8600013018
:102C420087006D0881005F2E0230E0000030E10055
:102C52000030E2000030E3000030E400E50088319B
:102C6200032095315F2E5108ED00EE016E08003A07
:102C720003193C2E5F2E6D08003A0319012E013A0A
:102C82000319052E023A0319052E063A0319E22DFD
:102C9200033A0319EB2D013A0319252E0F3A0319B2
:102CA200F32D013A0319EF2D033A0319092E013AC4
:102CB2000319182E073A03195F2E5F2E0800210010
:102CC200AD0025080319662E672E702E2D35B73EEE
:102CD20086008701403FAE00413FAF00792E2D357F
:102CE200B73E860001308700403FAE00413FAF0053
:102CF2002E082F04031D7E2E7F2E822EA501A601F3
:102D0200E72EFF302605A9007F302705AA002E08EE
:102D120086002F08870042312908C03F2A08C13F98
:102D22002E08013EA90000302F3DAA002908860086
:102D32002A088700280881004030A9002E08860052
:102D42002F088700290881052E0886002F08870092
:102D520081152E0886002F08870081172508031980
:102D6200B32EB42ECB2E2D35B73E86008701403FC1
:102D7200A900413FAA0004302906AB0000302A0610
:102D8200AC002D35B73E860087012B08C03F2C08CA
:102D9200C13FE32E2D35B73E860001308700403F0C
:102DA200A900413FAA0004302906AB0000302A06E0
:102DB200AC002D35B73E8600013087002B08C03F9E
:102DC2002C08C13F2F08A6002E08A500080080305D
:102DD20020005006031DEE2EEF2E722FC030F000A1
:102DE20070082100BF005E2F8D302100BD00983099
:102DF200BE000030C1001230C000722F5208031D05
:102E0200032F042F332F5208F000F101F035F10D9A
:102E1200B930700784009830713D8500003F210071
:102E2200BD00013FBE003E08F1003D08F000023047
:102E32007007840071080318710A85000008F20007
:102E42007208C0003E08F1003D08F0000330700730
:102E5200840071080318710A85000008F2007208E4
:102E6200C100722F2100BF01722F043052020318D9
:102E72003B2F3C2F582F5208F000F101F035F10D95
:102E82009F30700784009830713D8500003F21001B
:102E9200BD00013FBE003D0884003E0885000008D9
:102EA200F000F1017008C0007108C100722F21000A
:102EB200BF01722F2100BF01722F20005308F000C2
:102EC200F1017108003A0319672F5B2F7008013A6C
:102ED2000319F52E033A0319FF2E013A0319362F6F
:102EE2005B2F08002100BF170E302000E800993048
:102EF200E700E90167088600680887008101013060
:102F0200E7070030E83D0130E6006608E9070230D5
:102F12006902031C8D2F8E2F7B2F2030F000003092
:102F2200F1000030F200F3003030F4000030F50020
:102F32008C31352497313D000E172000EA016A08D2
:102F4200C43E86000130870081016A08C13E8600C6
:102F52000130870081010130E6006608EA0703308C
:102F62006A02031CB52FB62FA02FEC30F0000130FF
:102F7200F1000030F200F3000230F4000030F500FE
:102F82008C31352497313D000E1328302100B700D3
:102F92000030B80020302000E60066082100C8009A
:102FA2004808C200FF39031D0030C3002000520848
:102FB200E60066082300EE006E08031DE12FE22FF3
:102FC200E92F10302000E60066082100C900FF2F1B
:102FD20001302000E0000030E100EE30E20001307C
:102FE200E3000130E4000030E5008831032097312E
:102FF20020302000E60066082100C90008000934DC
:10300200023443340034023401340034C0343234E4
:1030120009340434003400340134023402340134FB
:10302200003405342434003410340134043424349C
:1030320002340234053424340634003401340534B5
:103042002434013400340134073405348134033428
:103052000A340034023409340434013400340234B2
:103062000A340034003400340734053402340234A4
:10307200403400340034073405348234023440349E
:1030820000340034343403344D34003469340034B1
:1030920063340034723400346F34003463340034E7
:1030A200683400346934003470340034203400341D
:1030B20054340034653400346334003468340034EA
:1030C2006E3400346F3400346C3400346F340034A6
:1030D2006734003479340034203400344934003405
:1030E2006E340034633400342E3400341634033426
:1030F200533400346D34003461340034723400349B
:1031020074340034203400345334003468340034CE
:103112006F34003465340034123401340034023424
:103122000234003400340834D83404340A3400340D
:10313200003401340134023403340134B534983498
:103142004334983477349834A734983408340334A9
:10315200313400343234003434340034533474346F
:103162006F347034213400340434033409340434A9
:043172000034983459
:103ADE001630210097000800240096159D3185258B
:103AEE009D310800240016149D3185259D31080056
:103AFE00240016159D3185259D3108002000911D4D
:103B0E00892D8A2D852D91110800240096121616E6
:103B1E009D3185259D3108002400961616169D317F
:103B2E0085259D310800903021009E009F019B014C
:103B3E009C0101309D000800210026082400CF00C2
:103B4E00210025082400CE000800210026082400AC
:103B5E00AF00210025082400AE00080024009401C7
:103B6E000830950096011330920020009111240028
:103B7E00951608006400800101310130FE0200300C
:103B8E00FF3B7F087E04031DC22D00347C302100D4
:103B9E009900980127009B012200960121001A1F0F
:103BAE00D92DDA2DD52D08009D3179259D31A030E6
:103BBE008731F7279D312400161BE62DE72DDB2DCF
:103BCE009D317F259D3108002100A6002608A50005
:103BDE00A50DA50D1D082506833925069D001D146E
:103BEE009D149D18FB2DFC2DF82D1D1008009E31E7
:103BFE00C4269D319D31CD259D319D316F259D3141
:103C0E008A31C6229D319D319A259D319E311426D1
:103C1E009D319E3164269D31080021001508C03962
:103C2E001238950006302000950006302100A700BE
:103C3E0027082300D6000B118B1603302100A50098
:103C4E000030A6009D31AC259E31080021001211D6
:103C5E004608031D332E342E462E26082300D2008E
:103C6E00210025082300D10021002708A8002808DC
:103C7E002300DD00DC01DC0A2100C601C60A121594
:103C8E00080001302300BD070030BE3D0030BF3DAF
:103C9E000030C03D6808031D552E562E632E013090
:103CAE00F0007008DF075F08031D5E2E5F2E632E87
:103CBE00FF30F0007008DF00080021004908031DE6
:103CCE00692E6A2E812E3D008E01920116309100D2
:103CDE009F3097007B30920021001215772E8E15A3
:103CEE003D008E1D7B2E7C2E762E01302100A500F0
:103CFE002508C90008003D001215EF302000E6002F
:103D0E0066083D0090058E1401302000E60066081E
:103D1E002300E800DF0175302000E0000030E100F4
:103D2E000030E2000030E3000030E400E5008831AE
:103D3E0003209E3108002300E80174302000E000CB
:103D4E000030E1000030E2000030E3000030E4001B
:103D5E00E500883103209E313D008E101211BD2EDC
:103D6E00FB302000E60066083D0090051019C02EBD
:103D7E00C12EB72E2300DF01080022008C018D0119
:103D8E008E01303021008C00F0308D00FF308E001F
:103D9E00CC3023008E008D018C0124008D018C010E
:103DAE002100951722009D0127009312921691165D
:103DBE0000302100A5000030A6009D31A3259E31C4
:103DCE000800FC00771DEC2EED2EF22EF0017C0883
:103DDE00903188209E31F71CF52EF62EFC2EF00128
:103DEE00F00A7C08903188209E317C08983EF800BD
:103DFE00F9010E30F93D7808FA007908FB007A08CF
:103E0E0086007B0887007708810008002100B1003A
:103E1E002C1D122F132F182FA50131089031CB20F6
:103E2E009F312100AC1C1C2F1D2F232FA501A50A8D
:103E3E0031089031CB209F3121003108983EAD00E2
:103E4E00AE010E30AE3D2D08AF002E08B0002F088B
:103E5E008600300887002C08810008003D00181CE1
:103E6E00392F3A2F5B2F21004808860087018030BA
:103E7E000106031D432F442F592F3708860038089B
:103E8E00870084300106031D4D2F4E2F592F0C3005
:103E9E00F0004808860087017008810048088600F7
:103EAE00870181173D001810DF30F0007008900573
:103EBE000800F8007108F6007008F5007808F400A4
:103ECE007408F900812F75088600760887000108AE
:103EDE00F4007408F7000130F5070030F63D77085E
:103EEE00F400790886008701740881000130F4001F
:103EFE007408F9070130F2020030F33B720A031D19
:103F0E008C2F730A031D8C2F8D2F6A2F0800003003
:103F1E002400C3000030C2004B30C1000030C0008E
:103F2E00C401C5010830FD007D08C6002300DE0176
:103F3E001A30FD007D08F70001309E31E8269F31D2
:103F4E001E30FD007D08F70002309E31E8269F31BD
:103F5E00F001C030F1002030F2004030FD007D084D
:103F6E00F3000230953151259F3171082300CE00A8
:103F7E007008CD00CB01CC012100C6010800023033
:103F8E0021004706031DCC2FCD2FD12F8A311A22A7
:103F9E009F31FF2FC70123006608031DD72FD82F8F
:103FAE00FE2F21004208013EF6000030433DF7008F
:103FBE007608860077088700083081005030F600BA
:103FCE000030F70042088600430887004231760829
:103FDE00C03F7708C13F42088600430887000C3077
:103FEE00810042088600430887008117FF2FE601F3
:023FFE000800B9
:020000040001F9
:04000E00E43FFF3F8D
:00000001FF
