:020000040000FA
:0400000080312928FA
:1000060008007E1480318B1E09280A2812280B1D31
:100016000D280E28122889314A21803127280B1FE6
:100026001528162827282100121D1A281B282728DC
:100036002000121D1F28202827282300CB01CC01D1
:100046008E31E026803127287E10090080312B284A
:1000560002308400853085005030860022308700CB
:100066000130FF00A0309D319E258031B7308400DD
:10007600003085001330FE000030FF009D319225D0
:100086008031B0308400013085004030FE00003001
:10009600FF009D319225803120308400023085009A
:1000A6002730FE000030FF009D3192258031A030C0
:1000B6008400023085004030FE000030FF009D3194
:1000C6009225803120308400033085004030FE00C8
:1000D6000030FF009D31922580317E1020008D3149
:1000E600C32D2100B5003508031D7A287B28BE29BB
:1000F60009309D31BA25803121001B08A700A801CF
:100106000530A735A80D890B84281C08A900AA016B
:100116000D30A935AA0D890B8C2827082904AB00B8
:1001260028082A04AC004408AD00AE01AD35AE0D7A
:100136004508AF00B001AF0EB00EF030B0052F0885
:100146000F39B004F030AF055030B1002230B200A4
:100156002F083107B3003008323DB4002D083307AD
:1001660086002E08343D87002B08C03F2C08C13F6F
:1001760008309D31BA25803121001C08A700A8014E
:10018600A735A80DA735A80DA735A80D4408A900C1
:10019600AA01A935AA0D4508AB00AC01AB0EAC0E01
:1001A600F030AC052B080F39AC04F030AB055030FD
:1001B600AD002230AE002B082D07AF002C082E3DD7
:1001C600B00029082F0786002A08303D8700270837
:1001D60081044131280881041B08A7000530A73691
:1001E600890BF2282708A800A9014408AA00AB0138
:1001F600AA35AB0D4508AC00AD01AC0EAD0EF03026
:10020600AD052C080F39AD04F030AC055030AE000A
:100216002230AF002C082E07B0002D082F3DB1006C
:100226002A08300786002B08313D870028088104FC
:100236004131290881040130A7002708C4071B089B
:10024600A700A8010A30A735A80D890B262944085E
:10025600A900AA01A935AA0D4508AB00AC01AB0E51
:10026600AC0EF030AC052B080F39AC04F030AB0502
:100276005030AD002230AE002B082D07AF002C0801
:100286002E3DB00029082F0786002A08303D87003A
:100296002708C03F2808C13F07309D31BA25803165
:1002A60021004408A700A801A735A80D4508A90004
:1002B600AA01A90EAA0EF030AA0529080F39AA0428
:1002C600F030A9055030AB002230AC0029082B07CE
:1002D600AD002A082C3DAE0027082D078600280809
:1002E6002E3D87001B08810441311C088104013022
:1002F600A7002708C40706309D31BA2580312100A2
:100306001B08A700A8010530A735A80D890B87296A
:100316001C08A900AA010D30A935AA0D890B8F2941
:1003260027082904AB0028082A04AC004408AD00BD
:10033600AE01AD35AE0D4508AF00B001AF0EB00E43
:10034600F030B0052F080F39B004F030AF0550304B
:10035600B1002230B2002F083107B3003008323D19
:10036600B4002D08330786002E08343D87002B087D
:10037600C03F2C08C13F3503031DC229C3294D2B9D
:1003860009309D31BA25803121001C08A700A8013B
:10039600A735A80DA735A80DA735A80D4408A900AF
:1003A600AA01A935AA0D4508AB00AC01AB0EAC0EEF
:1003B600F030AC052B080F39AC04F030AB055030EB
:1003C600AD002230AE002B082D07AF002C082E3DC5
:1003D600B00029082F0786002A08303D8700270825
:1003E60081044131280881041B08A7000530A7367F
:1003F600890BFA292708A800A9014408AA00AB011D
:10040600AA35AB0D4508AC00AD01AC0EAD0EF03013
:10041600AD052C080F39AD04F030AC055030AE00F8
:100426002230AF002C082E07B0002D082F3DB1005A
:100436002A08300786002B08313D870028088104EA
:100446004131290881040130A7002708C4071B0889
:10045600A700A8010A30A735A80D890B2E2A440843
:10046600A900AA01A935AA0D4508AB00AC01AB0E3F
:10047600AC0EF030AC052B080F39AC04F030AB05F0
:100486005030AD002230AE002B082D07AF002C08EF
:100496002E3DB00029082F0786002A08303D870028
:1004A6002708C03F2808C13F08309D31BA25803152
:1004B60021004408A700A801A735A80D4508A900F2
:1004C600AA01A90EAA0EF030AA0529080F39AA0416
:1004D600F030A9055030AB002230AC0029082B07BC
:1004E600AD002A082C3DAE0027082D0786002808F7
:1004F6002E3D87001B08810441311C088104013010
:10050600A7002708C40707309D31BA25803121008E
:100516001C08A700A8010D30A735A80D890B8F2A46
:100526004408A900AA01A935AA0D4508AB00AC01EB
:10053600AB0EAC0EF030AC052B080F39AC04F03026
:10054600AB055030AD002230AE002B082D07AF00B2
:100556002C082E3DB00029082F0786002A08303DBA
:1005660087002708C03F2808C13F1B08A700A8012D
:100576000530A735A80D890BBC2A4408A900AA0195
:10058600A935AA0D4508AB00AC01AB0EAC0EF03098
:10059600AC052B080F39AC04F030AB055030AD007C
:1005A6002230AE002B082D07AF002C082E3DB000E0
:1005B60029082F0786002A08303D8700270881046E
:1005C60041312808810406309D31BA258031210049
:1005D6001C08A700A801A735A80DA735A80DA735A3
:1005E600A80D4408A900AA01A935AA0D4508AB0023
:1005F600AC01AB0EAC0EF030AC052B080F39AC04D9
:10060600F030AB055030AD002230AE002B082D0780
:10061600AF002C082E3DB00029082F0786002A08B7
:10062600303D8700270881044131280881041B08D2
:10063600A7000530A736890B1D2B2708A800A9019E
:100646004408AA00AB01AA35AB0D4508AC00AD01C4
:10065600AC0EAD0EF030AD052C080F39AD04F03000
:10066600AC055030AE002230AF002C082E07B0008B
:100676002D082F3DB1002A08300786002B08313D92
:100686008700280881044131290881040130A70028
:100696002708C40703303506031D522B532B012DA3
:1006A6001B08A700A8010A30A735A80D890B572BF0
:1006B6004408A900AA01A935AA0D4508AB00AC015A
:1006C600AB0EAC0EF030AC052B080F39AC04F03095
:1006D600AB055030AD002230AE002B082D07AF0021
:1006E6002C082E3DB00029082F0786002A08303D29
:1006F60087002708C03F2808C13F09309D31BA2529
:10070600803121001C08A700A8012708A800A7011E
:100716004408AA00AB01AA35AB0D4508AC00AD01F3
:10072600AC0EAD0EF030AD052C080F39AD04F0302F
:10073600AC055030AE002230AF002C082E07B000BA
:100746002D082F3DB1002A08300786002B08313DC1
:100756008700270881044131280881041B08A70067
:10076600A8014408A900AA01A935AA0D4508AB00AD
:10077600AC01AB0EAC0EF030AC052B080F39AC0457
:10078600F030AB055030AD002230AE002B082D07FF
:10079600AF002C082E3DB00029082F0786002A0836
:1007A600303D870027088104413128088104013043
:1007B600A7002708C40708309D31BA2580312100DB
:1007C6001C08A700A8010D30A735A80D890BE72B3B
:1007D6004408A900AA01A935AA0D4508AB00AC0139
:1007E600AB0EAC0EF030AC052B080F39AC04F03074
:1007F600AB055030AD002230AE002B082D07AF0000
:100806002C082E3DB00029082F0786002A08303D07
:1008160087002708C03F2808C13F1B08A700A8017A
:100826000530A735A80D890B142C4408A900AA0188
:10083600A935AA0D4508AB00AC01AB0EAC0EF030E5
:10084600AC052B080F39AC04F030AB055030AD00C9
:100856002230AE002B082D07AF002C082E3DB0002D
:1008660029082F0786002A08303D87002708C03F41
:100876002808C13F07309D31BA25803121001C0868
:10088600A700A801A735A80DA735A80DA735A80D5F
:100896004408A900AA01A935AA0D4508AB00AC0178
:1008A600AB0EAC0EF030AC052B080F39AC04F030B3
:1008B600AB055030AD002230AE002B082D07AF003F
:1008C6002C082E3DB00029082F0786002A08303D47
:1008D6008700270881044131280881041B08A700E6
:1008E6000530A736890B742C2708A800A9014408EF
:1008F600AA00AB01AA35AB0D4508AC00AD01AC0EA4
:10090600AD0EF030AD052C080F39AD04F030AC0556
:100916005030AE002230AF002C082E07B0002D0854
:100926002F3DB1002A08300786002B08313D87008D
:10093600280881044131290881040130A7002708CD
:10094600C4071B08A700A8010A30A735A80D890B04
:10095600A82C4408A900AA01A935AA0D4508AB0090
:10096600AC01AB0EAC0EF030AC052B080F39AC0465
:10097600F030AB055030AD002230AE002B082D070D
:10098600AF002C082E3DB00029082F0786002A0844
:10099600303D87002708C03F2808C13F06309D31FB
:1009A600BA25803121004408A700A801A735A80D63
:1009B6004508A900AA01A90EAA0EF030AA05290821
:1009C6000F39AA04F030A9055030AB002230AC0034
:1009D60029082B07AD002A082C3DAE0027082D0755
:1009E600860028082E3D87001B08C03F1C08C13F13
:1009F6000130A7002708C507C4011D1008000034F0
:100A06000034013400340234003403340034043436
:100A16000034053400340634003407340034083416
:100A26000034093400340A3400340B3400340C34F6
:100A360000340D3400340E3400340F3400341034D6
:100A460000341134003412340034133400341434B6
:100A56000034153400341634003417340034183496
:100A66000034193400341A3400341B3400341C3476
:100A760000341D3400341E3400341F340034203456
:100A86000034213400342234003423340034243436
:100A96000034253400342634003427340034283416
:100AA6000034293400342A3400342B3400342C34F6
:100AB60000342D3400342E3400342F3400343034D6
:100AC60000343134003432340034333400343434B6
:100AD6000034353400343634003437340034383496
:100AE6000034393400343A3400343B3400343C3476
:100AF60000343D3400343E3400343F340034403456
:100B06000034413400344234003443340034443435
:100B16000034453400344634003447340034483415
:100B26000034493400344A3400344B3400344C34F5
:100B360000344D3400344E3400344F3400345034D5
:100B460000345134003452340034533400345434B5
:100B56000034553400345634003457340034583495
:100B66000034593400345A3400345B3400345C3475
:100B760000345D3400345E3400345F340034603455
:100B86000034613400346234003463340034643435
:100B96000034653400346634003467340034683415
:100BA6000034693400346A3400346B3400346C34F5
:100BB60000346D3400346E3400346F3400347034D5
:100BC60000347134003472340034733400347434B5
:100BD6000034753400347634003477340034783495
:100BE6000034793400347A3400347B3400347C3475
:100BF60000347D3400347E3400347F340034803455
:100C06000034813400348234003483340034843434
:100C16000034853400348634003487340034883414
:100C26000034893400348A3400348B3400348C34F4
:100C360000348D3400348E3400348F3400349034D4
:100C460000349134003492340034933400349434B4
:100C56000034953400349634003497340034983494
:100C66000034993400349A3400349B3400349C3474
:100C760000349D3400349E3400349F340034A03454
:100C86000034A1340034A2340034A3340034A43434
:100C96000034A5340034A6340034A7340034A83414
:100CA6000034A9340034AA340034AB340034AC34F4
:100CB6000034AD340034AE340034AF340034B034D4
:100CC6000034B1340034B2340034B3340034B434B4
:100CD6000034B5340034B6340034B7340034B83494
:100CE6000034B9340034BA340034BB340034BC3474
:100CF6000034BD340034BE340034BF340034C03454
:100D06000034C1340034C2340034C3340034C43433
:100D16000034C5340034C6340034C7340034C83413
:100D26000034C9340034CA340034CB340034CC34F3
:100D36000034CD340034CE340034CF3400342000B7
:100D46005203031DA72EA82EC02E50081F39003AA5
:100D5600031DAE2EAF2EC02E2100BF17033020007C
:100D66005106031DB72EB82EBE2E0130E6006608CA
:100D76002300E900C02E2300E90120005208031DCC
:100D8600C52EC62EF92F50081F39023A031DCC2E48
:100D9600CD2EF92F54080F39003A0319D32ED42E2D
:100DA600F92F54080F39E600033066020318DC2ECB
:100DB600DD2EF92F203021004806031DE32EE42EF8
:100DC600F92FBF172000D41BE92EEA2E002F540856
:100DD6000F390907B73E860001308700403FEB0018
:100DE600413FEC0054080F39C13E860001308700B0
:100DF6000108E6006608EA00142F54080F390907AF
:100E0600B73E86008701403FEB00413FEC005408A7
:100E16000F39C43E8600013087000108E6006608E7
:100E2600EA006A18172F182F232FFB30E600FF3031
:100E3600E7006B086605EB006C086705EC00292FD8
:100E460004306B04EB0000306C04EC00D41B2C2F38
:100E56002D2F392F54080F390907B73E8600013068
:100E660087006B08C03F6C08C13F432F54080F39F9
:100E76000907B73E860087016B08C03F6C08C13F73
:100E860003305106031D482F492F6F2F6B0886002C
:100E96006C088700811F502F512F642FD41B542FAD
:100EA600552F5D2F54080F39C13E8600013087004B
:100EB6008114642F54080F39C43E86000130870020
:100EC60081146B0886006C08870001156B08860084
:100ED6006C0887008117F92F04306B06EB00003091
:100EE6006C06EC006B0886006C088700811F7C2F5F
:100EF6007D2F9A2F7F30E6006B0886006C088700EE
:100F0600660881056B0886006C08870001170530A6
:100F1600E0000030E1006C08E3006B08E2000230FC
:100F2600E4000030E5009F315D2786319F2F6B0876
:100F360086006C0887000117043020006B06EB0062
:100F460000306C06EC00EA18A92FAA2FB22F6B0806
:100F560086006C088700811FB12FB22FDD2FD41BAE
:100F6600B52FB62FBE2F54080F39C13E860001306B
:100F760087008110C52F54080F39C43E8600013002
:100F8600870081103B30E6006B0886006C088700FE
:100F9600660881050530E0000030E1006C08E300DA
:100FA6006B08E2000230E4000030E5009F315D2767
:100FB6008631E52F3B30E6006B0886006C0887001B
:100FC60066088105200054080F39983EE600E701BF
:100FD6000E30E73D6608E8006708E900FE30E600E7
:100FE60068088600690887006608810508002400ED
:0A0FF60016159D314D2587310800C6
:101004003D000E122100BF1B082809284F28230089
:10101400B21F0D280E281E280230F5007508EB00BB
:101024006008031D162817281A289131BA2188311F
:101034002300E201E301A02821004208013EF5005B
:101044000030433DF60075088600760887000830B6
:1010540081005030F5000030F60042088600430855
:10106400870042317508C03F7608C13F42088600B8
:10107400430887000C30810042088600430887003B
:101084008117370886003808870004308100370844
:101094008600380887008117A0282000D01F532815
:1010A40054286D280130F50075082300EB00610811
:1010B400031D5D285E2861289131BA2188312300FF
:1010C400E201E3016408031D68286928A02893311C
:1010D40056238831A0280230F50075082300EB0060
:1010E40021004208013EF5000030433DF60075083A
:1010F400860076088700083081005030F500003003
:10110400F600420886004308870042317508C03F54
:101114007608C13F420886004308870004308100F6
:10112400420886004308870081172300E201E30197
:101134006408031D9E289F28A02869280800210010
:1011440012113D009301900198010E30F200993084
:10115400F100F301710886007208870081010130F3
:10116400F1070030F23D0130F0007008F30702305F
:101174007302031CBE28BF28AC2816303D00910022
:101184009F3097007B309200F4017408F000013026
:10119400F035FF3E031DCA287035203E86008701C6
:1011A4000030C03F0030C13FC23FC33F0130F000B8
:1011B4007008F4070C307402031CE128E228C728E5
:1011C4003D000E1796010E120E13F730F000700852
:1011D40090052100BF012300B201B301B4013D0019
:1011E4009019F528F628E7280130F000700823004C
:1011F400E3000130F0007008E200E101E001E801E1
:10120400F4017435B73E860087010030C03FC13F0A
:101214007435B73E8600013087000030C03FC13FBF
:101224007408C43E86000130870081017408C13E01
:1012340086000130870081010130F0007008F40756
:1012440003307402031C272928290329283021008C
:10125400B7000030B80016303D0098000030200080
:10126400A3005030A2000830A1000430F000700840
:10127400A000A0172300EF010030C0000030BF0021
:101284000030BE000030BD00DF012100C8010800AD
:101294000B11230056082000950024002E082F046B
:1012A4000319552956295B292F088A002E080A009C
:1012B400893123005708031D60296129D62901308B
:1012C400C9070030CA3D88304906133003194A065D
:1012D400031D6D296E29702921008E1264009C3033
:1012E40023004906133003194A06031D7A297B2972
:1012F400802921008E162300C901CA010130CB07C1
:101304000030CC3D3C304B06733003194C06031DB2
:101314008C298D298F2921008E12303023004B0611
:10132400753003194C06031D98299929A229210017
:101334008E162300CB01CC010130F0007008DA00D6
:1013440001302400B2070030B33D3308803AF00086
:1013540080307002031DB0290A303202031CB32905
:10136400B429F42924003108803AF0008030700256
:10137400031DBE294E3030020318C129C229CD29CC
:1013840001302400B0070030B13D0130F000700896
:101394002300D800D2290130F00070082300D900BE
:1013A4002400B201B301F4290130C9070030CA3D59
:1013B400E8304906033003194A06031DE229E329EC
:1013C400E52921008E124C3023004906043003190C
:1013D4004A06031DEE29EF29F42921008E16230065
:1013E400C901CA0108002100470886008701413F5E
:1013F400F5007508F200F301730823003402031D9D
:10140400052A720833020318082A092A0D2A330808
:10141400F2007208F5007508F200F3017208B302D5
:101424007308B43BF4012A2A7408583E86008701E5
:101434000108F2003008860002308700720881003B
:101444000130F2007208B0070130F2007208F407AC
:1014540075087402031C2F2A302A162A3308340410
:101464000319352A362A6F2A21004208013EF20068
:101474000030433DF300720886007308870008308B
:1014840081005830F2000030F3004208860043081F
:10149400870042317208C03F7308C13F4708860085
:1014A4008701011B562A572A632A420886004308EB
:1014B400870048308100420886004308870081176E
:1014C400A02A4208860043088700083081004208A9
:1014D4008600430887008117A02A21004208013EA4
:1014E400F2000030433DF300720886007308870061
:1014F400083081005030F2000030F30042088600CA
:101504004308870042317208C03F7308C13F420854
:10151400860043088700043081004208860043089F
:1015240087008117230035083608B2136408031DA9
:101534009C2A9D2AA02A9331562389310800210030
:1015440012113D009301900198010E302100A70073
:101554009930A600A8012608860027088700810183
:101564000130A6070030A73D0130A5002508A807D3
:1015740002302802031CBF2AC02AAD2A16303D00BF
:1015840091009F3097007B3092002100A901290827
:10159400A5000130A535FF3E031DCC2A2535203E8C
:1015A400860087010030C03F0030C13FC23FC33FC7
:1015B4000130A5002508A9070C302902031CE32AE1
:1015C400E42AC92A3D000E1796010E120E13F730B5
:1015D4002100A50025083D0090052100BF0123003E
:1015E400B201B301B4013D009019F92AFA2AE92A9B
:1015F40001302100A50025082300E300013021006B
:10160400A50025082300E200E101E001E801210032
:10161400A9012935B73E860087010030C03FC13F8C
:101624002935B73E8600013087000030C03FC13FF6
:101634002908C43E86000130870081012908C13E83
:1016440086000130870081010130A5002508A90723
:1016540003302902031C2F2B302B0B2B2830B7000F
:101664000030B80016303D00980000302000A30080
:101674005030A2000830A10004302100A500250844
:101684002000A000A0172300EF010030C0000030AC
:10169400BF000030BE000030BD00DF012100C801E2
:1016A40008001F3021002605AA0000302705AB00E2
:1016B4002A082B0403195F2B602B612B0F2C2400A9
:1016C400C90121002708AA002A082400C700210014
:1016D4002608AA002A082400C8009D3147258B311A
:1016E400A0309D317D258B31240047089D317D2517
:1016F4008B31240048089D317D258B312400CA019B
:10170400CB014B082100AA00AB01AA35AB0D240084
:1017140049082100AC00AD01AC35AD0D24004A08E8
:1017240021002C07AE002D0803182D0AAF00AE0EC1
:10173400AF0EF030AF052E080F39AF04F030AE0510
:101744002E082807B0002F08293DB1002A083007C9
:1017540086002B08313D8700403FB200413FB30073
:1017640033089D317D258B3124004B082100AA00CC
:10177400AB01AA35AB0D240049082100AC00AD0132
:10178400AC35AD0D24004A0821002C07AE002D080D
:1017940003182D0AAF00AE0EAF0EF030AF052E08C1
:1017A4000F39AF04F030AE052E082807B0002F081B
:1017B400293DB1002A08300786002B08313D8700F7
:1017C40001089D317D258B3101302100AA002A08B2
:1017D4002400CB0708304B02031CF12BF22B832B84
:1017E40001302100AA002A082400CA0702304A0254
:1017F400031CFD2BFE2B822B8731FA278B319D3165
:10180400AA258B3101302100AA002A082400C90727
:10181400490803190E2C0F2C632B08007108FD00D6
:101824007008FC0074087504031D192C1A2C1B2C59
:10183400D92C7C0886007D08870072088100740812
:101844007C07F60075087D3DF7007608FF3EF8003A
:10185400FF30773DF9007808860079088700720820
:1018640081000030750203300319740203183B2C05
:101874003C2C3D2CD92C7C08013EF60000307D3DEB
:10188400F7007608860077088700720881007C08D4
:10189400023EF60000307D3DF700760886007708AA
:1018A40087007208810074087C07F60075087D3D86
:1018B400F7007608FE3EF800FF30773DF90078081F
:1018C4008600790887007208810074087C07F60096
:1018D40075087D3DF7007608FD3EF800FF30773D42
:1018E400F9007808860079088700720881000030C2
:1018F40075020730031974020318812C822C832C7F
:10190400D92C7C08033EF60000307D3DF7007608B4
:101914008600770887007208810074087C07F60047
:1019240075087D3DF7007608FC3EF800FF30773DF2
:10193400F900780886007908870072088100003071
:1019440075020930031974020318A92CAA2CAB2CB4
:10195400D92C7C09F6007D09F700F60A0319F70A69
:1019640003307605FA0000307705FB007A08FC079F
:101974007B08FD3D7A08F4027B08F53BFC30F40556
:10198400FF30F505D32C7C0886007D08870072089B
:1019940081000130F4020030F53B0130FC070030D7
:1019A400FD3D74087504031DD82CD92CC52C0800E2
:1019B4002100121123004D084E040319E22CE32CDC
:1019C400EE2C4D0886004E088700811FEA2CEB2C74
:1019D400EE2C21001215C22D033021004606031DF2
:1019E400F42CF52CF62CC6014608031DFA2CFB2C0E
:1019F400FD2C1215C22D02304606031D022D032DA7
:101A04001C2DA501A50A0030A6000030A700A801DE
:101A14000230963160268C31210026082300CE0046
:101A2400210025082300CD0003302100B000300838
:101A3400C600C02D4603031D202D212DC02D41308D
:101A440023005D02031C272D282D2E2D403021005C
:101A5400B0003008B200332D5D082100B00030081A
:101A6400B200320823005D022100B00030082300D8
:101A7400DD0020302400B7008030B6002100320899
:101A8400B0003008B10023005C08031D4A2D4B2D23
:101A94008D2D692D2300510884005208850000080B
:101AA4002100B00024003608860037088700210092
:101AB4003008810001302400B6070030B73D013002
:101AC4002300D1070030D23D01302100B1022100B2
:101AD4003108031D6E2D6F2D4C2D932D23005108BD
:101AE40084005208850000082100B0002400360854
:101AF4008600370887002100300881000130240067
:101B0400B6070030B73D01302300D1070030D23D85
:101B140001302100B10221003108031D922D932DC3
:101B2400702D23005D08031D982D992DA92D40309B
:101B340021003206031D9F2DA02DA52D0230B000DB
:101B44003008C600A92D0330B0003008C6002100BB
:101B5400A501A50A8030A6002030A7003208B000F5
:101B64003008A8000230963160268C312100260806
:101B74002300CE00210025082300CD0021001215EA
:101B840008002400CD019D31CD258D319D31862560
:101B94008D31903149208D318B170B172300580854
:101BA4000319D52DD62DFE2DD8015508031DDB2D87
:101BB400DC2DE72D0030803174208D31013021007F
:101BC400B60036082300D507FE2D5503031DEB2D63
:101BD400EC2DF12D0130803174208D31E02D023057
:101BE4005506031DF62DF72DFE2D0330803174208C
:101BF4008D312300D501FE2D5A080319022E032E20
:101C0400112EDA01270093128B1563008B11270024
:101C140093122300D401D9012400B001B10123009F
:101C240059080319162E172E3D2E5408031D1B2E7A
:101C34001C2E3D2ED9010F304802FF3003194702F4
:101C4400031C252E262E282EC701C8014808210072
:101C5400A700230047082100A6005030A800223026
:101C6400A9008B3153238D31A0302300C7070130E5
:101C7400C83DD401D40A2100B001B00A4E309231DB
:101C84001B228D316B3024004E06031D4A2E4B2E31
:101C9400802E6E302100B60036082400CE002300CA
:101CA400C701C80101302100B60036082300D7005F
:101CB400D30100302100A600A7005030A800223034
:101CC400A9009431CE248D3120302300C707003081
:101CD400C83D21008E124608031D712E722E6D2EF2
:101CE4005030A5002230A6002030B6003608A700E8
:101CF4009D31FC258D3121008E16DA2E63304E067F
:101D0400031D852E862EDA2E6E302100B60036088D
:101D14002400CE00230053080319912E922EA52EE1
:101D240021008E124608031D982E992E942EAF3052
:101D3400A5009830A60090310E208D3121008E161A
:101D44002300D701DA2E48082100A7002300470802
:101D54002100A6005030A8002230A9009431CE24DE
:101D64008D3120302300C7070030C83D0F304802B2
:101D7400FF3003194702031CC02EC12EC62ED30107
:101D8400D30AC701C801DA2E21008E124608031DAA
:101D9400CC2ECD2EC82E5030A5002230A6002030E7
:101DA400B6003608A7009D31FC258D3121008E1622
:101DB4008C31DA248D31D02D80312928210048033B
:101DC400031DE52EE62EF32E3D008E1AEA2EEB2E91
:101DD400F32E90011214121602302100A2002208E0
:101DE400C8003D00101DF72EF82E052F121DFB2EE6
:101DF400FC2E052FFB302100A20022083D00900597
:101E04009E3171268E313D008E1C092F0A2F0D2F15
:101E140020001211FF2F101C102F112F232F121C22
:101E2400142F152F232F8831A1208E312100121554
:101E34000430A2002208C800FE30A20022083D009F
:101E44009005101E262F272F2E2F121E2A2F2B2FE0
:101E54002E2F9E3151268E313D00101F322F332FED
:101E6400602F121F362F372F472F73302000E000CA
:101E74000030E1000030E2000030E3000130E40013
:101E84000030E5009F315D278E31BF302100A20074
:101E940022083D0090059E3117268E3123006508E7
:101EA4000319552F562F582F0130E5026508031DDD
:101EB4005C2F5D2F602F933156238E313D00901E91
:101EC400642F652F6C2F921E682F692F6C2F9F3102
:101ED40004278E313D00901C702F712F872F921C88
:101EE400742F752F872FFF302000E0007F30E10032
:101EF4000030E2000030E3000130E4000030E5008F
:101F04009F315D278E313D0093010430210048024A
:101F140003188D2F8E2F912F20001211FF2F3D00BB
:101F2400921D952F962FFD2F2100A4013D00901D99
:101F34009C2F9D2FFD2F0F082100A2002208C9000D
:101F4400490CA200A20C220C0F39A3002308230081
:101F5400E700F7302100A20022083D00900521008F
:101F64004919B52FB62FC82F23006708C13E860034
:101F740001308700010801392100A2000130A206C6
:101F840001082206FE3922068100D92F23006708A2
:101F9400C43E860001308700010801392100A200F7
:101FA4000130A20601082206FE3922068100230020
:101FB4006708031DDE2FDF2FE32F913164218E315B
:101FC400F22F72302000E0000030E100C930E2005E
:101FD4000030E3000030E400E5009F315D278E31DE
:101FE40001302100A2002208A40704302402031CAB
:101FF400FC2FFD2F982F2000121108007C302100A7
:102004009900980127009B012200960121001A1FC4
:102014000C280D280828080021001211460803196D
:1020240014281528172812154828AC012608AB00D7
:102034002508AA000130A7002708AC072C0A031DB5
:1020440024282528262836282B08A8002A08A70093
:10205400AA0A0319AB0A270884002808850012007D
:10206400031D352836281C2826082300D200210009
:1020740025082300D10021002C08A70027082300ED
:10208400DD00DC012100C601C60A1215080000307B
:102094002400C3000030C2004B30C1000030C00037
:1020A400C401C50108302100B20032082400C60072
:1020B4002300DE011A302100B2003208AC000130E6
:1020C4009E31DC2690311E302100B2003208AC0073
:1020D40002309E31DC2690312100A501C030A600DB
:1020E4002030A7004030B2003208A80002309631F8
:1020F40060269031210026082300D0002100250805
:102104002300CF00CD01CE012100C6010800F50057
:102114002030F1007108F6007008F1000130F1354B
:10212400890B91287508F2000130F235FF3E031D3A
:10213400972872357107F3000130F335FF3E031D14
:102144009F287335F4007408F60776088600870123
:1021540081137008031DAF28B028BA287535B73E1F
:102164008600013087007608C03F0030C13FC22896
:102174007535B73E860087017608C03F0030C13F01
:1021840076088600870101137608043E86008701DD
:10219400011708002100AA002030A6002608AB0081
:1021A4002508A6000130A635890BD5282A08A700E2
:1021B4000130A735FF3E031DDB2827352607A8007D
:1021C4000130A835FF3E031DE3282835A90029085E
:1021D400AB072B088600870181132508031DF3280C
:1021E400F428FE282A35B73E8600013087002B08E4
:1021F400C03F0030C13F06292A35B73E860087011B
:102204002B08C03F0030C13F2B0886008701011313
:102214002B08043E86008701011708002300EC0107
:10222400E401E101E001E601EB017F302000EF0071
:102234002100370886003808870020006F088105D0
:10224400043021003706B70000303806B8007F306C
:102254002000EF002100370886003808870020009E
:102264006F088105043021003706B70000303806B6
:10227400B8007F302000EF002100420886004308A8
:10228400870020006F0881052100BF01C001C10142
:102294002300B201B301B4019531D8259131033043
:1022A4002000E0000030E1000030E2000030E300F4
:1022B4000030E400E5009F315D2791318831022030
:1022C400913108002D302100A00020082300E500F2
:1022D40021004908FD39031D70297129AD294936AA
:1022E4003F39A0000130A035FF3E031D752920357C
:1022F400203EA1002108C7004708C200FF39031D82
:102304000030C30004304206C20000304306C3005C
:10231400470886008701010C890C0F390D3A031D0B
:1023240094299529A9294708023E86008701403F40
:10233400F000413FF1000830F2000030F30050306B
:102344009F312F279131913110219131B9299F313A
:10235400C7279131B929FD304905A0000430200672
:10236400031DB529B629B9299331CE23913108002B
:102374002300E101E00102306B06031DC229C329D9
:10238400E92921004208013EF3000030433DF400F6
:102394007308860074088700083081005830F30001
:1023A4000030F40042088600430887004231730875
:1023B400C03F7408C13F4208860043088700483084
:1023C4008100420886004308870081171A2A2100E9
:1023D400410820005702031DF32921004008200072
:1023E40056020318F629F729FE2957082100C100CF
:1023F400200056082100C00094314B2491315830FC
:10240400F3000030F4002100370886003808870004
:1024140042317308C03F7408C13F3708860038084A
:102424008700483081003708860038088700811704
:1024340008002100B3002300DE014F0850040319F3
:10244400242A252A2D2A4F08860050088700811B3C
:102454002C2A2D2A7E2A4F088600500887004131F5
:102464002100300801020318382A392A442A23009B
:102474004F08860050088700413101082100B1004F
:102484003108B0002300DE01602A5E08C03E8600E9
:1024940087012030873D01082100B10023005E0838
:1024A40021003307B2003208860002308700310869
:1024B40081000130B10031082300DE07210030081B
:1024C40023005E02031C672A682A472A2100A5010B
:1024D400C030A6002030A7004030B1003108A80069
:1024E4000230963160269231210026082300D00064
:1024F400210025082300CF005E0808002000D80131
:10250400D901C42A2100BF1723006903031D8B2AA4
:102514008C2AD82A2000D814D82A2100BF17D82AF8
:102524002100BF172000D41B982A992AA52A5408F1
:102534000F390907B73E860001308700403FF2009B
:10254400413FF300AF2A54080F390907B73E86000C
:102554008701403FF200413FF30072088600730890
:102564008700811FB62AB72AD82A72088600730802
:102574008700011DBE2ABF2AD82A0130F000700846
:10258400D800D82A50081F39F000F1017108003A28
:102594000319CD2AD82A7008003A0319842A013A6B
:1025A40003198F2A033A0319922AD82A2100BF1F3C
:1025B400DC2ADD2AE62A5830BD000030BE003F1474
:1025C4000230F0007008C0000800200050081F39D5
:1025D400013A0319EE2AEF2AF02A552B500E890CE2
:1025E4000339013A0319F72AF82AF92A552B540812
:1025F4000319FD2AFE2A3C2B54030319022B032B37
:102604003C2B552B38302100BD000230BE00003079
:10261400C1000830C0003F14BF17552B38302100CB
:10262400BD000230BE00BF17552B57082300B4006D
:10263400200056082300B3004030F0007008B000BA
:10264400B501B601B217552B40302100BD00023050
:10265400BE000030C1000730C000C130F000700877
:10266400BF00552B5208F00070082300DB00210046
:10267400BF17552B5108F000F1017108003A0319F6
:10268400442B552B7008003A0319042B013A031903
:10269400102B213A0319172B013A0319262B033A5D
:1026A4000319342B552B080023006308031D5B2BEF
:1026B4005C2BCD2B0130F0007008E3006208031D91
:1026C400642B652BCD2B0130F0007008E200023042
:1026D4006B06031D6E2B6F2B822B2100370886009F
:1026E400380887004131810137088600380887009F
:1026F4004830810037088600380887008117CD2BC1
:102704006B03031D862B872BCD2BE6010830F000CD
:102714002100470A86008701700881005030F000CC
:102724000030F1004708023E860087017008C03F70
:102734007108C13F0430F000470886008701700823
:10274400810047088600870181170130F000700876
:102754002300E60021004208013EF0000030433D22
:10276400F10070088600710887000830810050303D
:10277400F0000030F100420886004308870042312F
:102784007008C03F7108C13F4208860043088700B3
:1027940080308100CD2B08002100370886003808DE
:1027A40087000030011B0130F50004303706B70004
:1027B40000303806B80008304806031DE22BE32B2E
:1027C400F82B200052087F393D00960016080319A3
:1027D400EC2BED2BF32B1030F30073082100C80011
:1027E400F82B0430F30073082100C80023006B03A6
:1027F400031DFD2BFE2B422C5830F3000030F40057
:102804002100370886003808870042317308C03F2A
:102814007408C13F94314B249331023023006C0679
:10282400031D152C162C232C21003708860038088C
:102834008700043081003708860038088700811734
:102844004A2C7508031D272C282C352C2100370809
:102854008600380887004830810037088600380829
:10286400870081174A2C2100370886003808870022
:1028740008308100370886003808870081174A2C01
:10288400B21F452C462C492C35083608B213EB01EF
:1028940008000830F0007008F20000302100410206
:1028A4000830031940020318582C592C712C400885
:1028B400F0007008F20023006C08031D622C632CE6
:1028C400682C0130F0007008EC00712C6C03031DBF
:1028D4006C2C6D2C712C0230F0007008EC00720826
:1028E400F000F10170082100C0027108C13B3708F3
:1028F400013EF0000030383DF10070088600710898
:102904008700720881005830F00070082300EA0044
:1029140021003F188E2C8F2CC82CA92C21003D0897
:1029240084003E0885000008F00023006A08860041
:1029340087017008810001302100BD070030BE3DD1
:102944000130F00070082300EA070130F202720837
:10295400031DAD2CAE2C902CCD2C21003D08840001
:102964003E0885000008F00023006A0886008701FD
:102974007008810001302100BD070030BE3D0130E8
:10298400F00070082300EA070130F2027208031D08
:10299400CC2CCD2CAF2C080021002708AA002A0833
:1029A400B1002608AA002A08B0009D3147259431B9
:1029B400A0309D317D259431210031089D317D2544
:1029C4009431210030089D317D2594319D31472576
:1029D4009431A1309D317D2594312100B201B301A0
:1029E4009D3141259431240011082100AA002A08B0
:1029F400B1009D31542594319D31412594312100FC
:102A04003308AA00AB01AA35AB0D3208AC00AD0106
:102A1400AC0EAD0EF030AD052C080F39AD04F0301E
:102A2400AC052C082807AE002D08293DAF002A0864
:102A34002E0786002B082F3D870024001108C03F75
:102A440021003108C13F3208031D292D2A2D2E2DC6
:102A54009D3154259431382D073033020318332D1A
:102A6400342D352D2A2D9D315B25943101302100E3
:102A7400AA002A08B30708303302031C422D432D51
:102A8400F22C0130AA002A08B20702303202031CD9
:102A94004C2D4D2DF12C8731FA2794310800F80084
:102AA40070080319562D572D602D7835B73E8600D2
:102AB4008701403FF900413FFA00692D7835B73E60
:102AC400860001308700403FF900413FFA00790851
:102AD4007A04031D6E2D6F2D722DF001F101D72D97
:102AE400FF307105F4007F307205F5007908860027
:102AF4007A08870042317408C03F7508C13F7908DD
:102B0400013EF40000307A3DF50074088600750833
:102B14008700730881004030F400790886007A0841
:102B2400870074088105790886007A088700811572
:102B3400790886007A088700811770080319A32D85
:102B4400A42DBB2D7835B73E86008701403FF400A5
:102B5400413FF50004307406F60000307506F700B6
:102B64007835B73E860087017608C03F7708C13FB5
:102B7400D32D7835B73E860001308700403FF400FE
:102B8400413FF50004307406F60000307506F70086
:102B94007835B73E8600013087007608C03F770855
:102BA400C13F7A08F1007908F00008002000500EB7
:102BB400890C0339003A0319E02DE12D342E5F2EE0
:102BC4002100BF1708302000ED006D082100C80067
:102BD4005F2E9631E82695315F2E97317327953114
:102BE4005F2EEF302100BD000130BE003F140130E4
:102BF4002000ED006D082100C000BF175F2E923148
:102C0400802295315F2E8631A22695315F2E54089D
:102C1400ED3E2100BD000130BE003F140130200014
:102C2400ED006D082100C000BF175F2E2100BF1703
:102C340020005208ED005408ED3E86000130870064
:102C44006D0881005F2E0230E0000030E1000030AA
:102C5400E2000030E3000030E400E5009F315D272E
:102C640095315F2E5108ED00EE016E08003A03190C
:102C74003C2E5F2E6D08003A0319012E013A031908
:102C8400052E023A0319052E063A0319E22D033ADA
:102C94000319EB2D013A0319252E0F3A0319F32DCD
:102CA400013A0319EF2D033A0319092E013A0319C6
:102CB400182E073A03195F2E5F2E08002100AD007D
:102CC40025080319662E672E702E2D35B73E860013
:102CD4008701403FAE00413FAF00792E2D35B73E0E
:102CE400860001308700403FAE00413FAF002E0810
:102CF4002F04031D7E2E7F2E822EA501A601E72E12
:102D0400FF302605A9007F302705AA002E0886007B
:102D14002F08870042312908C03F2A08C13F2E08E6
:102D2400013EA90000302F3DAA00290886002A0888
:102D34008700280881004030A9002E0886002F084B
:102D44008700290881052E0886002F088700811531
:102D54002E0886002F088700811725080319B32E33
:102D6400B42ECB2E2D35B73E86008701403FA900F7
:102D7400413FAA0004302906AB0000302A06AC000B
:102D84002D35B73E860087012B08C03F2C08C13F74
:102D9400E32E2D35B73E860001308700403FA90061
:102DA400413FAA0004302906AB0000302A06AC00DB
:102DB4002D35B73E8600013087002B08C03F2C0814
:102DC400C13F2F08A6002E08A5000800803020006F
:102DD4005006031DEE2EEF2E722FC030F000700847
:102DE4002100BF005E2F8D302100BD009830BE0051
:102DF4000030C1001230C000722F5208031D032F8F
:102E0400042F332F5208F000F101F035F10DB930E1
:102E1400700784009830713D8500003F2100BD009B
:102E2400013FBE003E08F1003D08F000023070078B
:102E3400840071080318710A85000008F200720802
:102E4400C0003E08F1003D08F00003307007840024
:102E540071080318710A85000008F2007208C100A5
:102E6400722F2100BF01722F0430520203183B2F2E
:102E74003C2F582F5208F000F101F035F10D9F302E
:102E8400700784009830713D8500003F2100BD002B
:102E9400013FBE003D0884003E0885000008F000A4
:102EA400F1017008C0007108C100722F2100BF0138
:102EB400722F2100BF01722F20005308F000F1018E
:102EC4007108003A0319672F5B2F7008013A031940
:102ED400F52E033A0319FF2E013A0319362F5B2FFF
:102EE40008002100BF170E302000E8009930E700E9
:102EF400E901670886006808870081010130E70757
:102F04000030E83D0130E6006608E9070230690256
:102F1400031C8D2F8E2F7B2F2030F0000030F1000A
:102F24000030F200F3003030F4000030F5008C3152
:102F3400102497313D000E172000EA016A08C43EB0
:102F440086000130870081016A08C13E8600013095
:102F5400870081010130E6006608EA0703306A024F
:102F6400031CB52FB62FA02FED30F0000130F10077
:102F74000030F200F3000230F4000030F5008C3130
:102F8400102497313D000E1328302100B700003083
:102F9400B80020302000E60066082100C70047087A
:102FA400C200FF39031D0030C30020005208E600B0
:102FB40066082300EF006F08031DE12FE22FE92FBD
:102FC40010302000E60066082100C800FF2F013001
:102FD4002000E0000030E100EF30E2000130E300C7
:102FE4000130E4000030E5009F315D279731203047
:102FF4002000E60066082100C800080009340234F5
:1030040043340034023401340034C03432340934DB
:103014000434003400340134023402340134003402
:103024000534243400341034013404342434023498
:103034000234053424340634003401340534243491
:1030440001340034013407340534813403340A3440
:1030540000340234093404340134003402340A34B0
:10306400003400340034073405340234023440346C
:1030740000340034073405348234023440340034DC
:103084000034343403344D3400346934003463344C
:103094000034723400346F340034633400346834E0
:1030A400003469340034703400342034003454342F
:1030B40000346534003463340034683400346E34CE
:1030C40000346F3400346C3400346F3400346734AB
:1030D40000347934003420340034493400346E34FC
:1030E4000034633400342E3400341634033453343F
:1030F40000346D3400346134003472340034743478
:1031040000342034003453340034683400346F34D1
:10311400003465340034123401340034023402348F
:10312400003400340834D83404340A34003400340D
:1031340001340134023403340134B5349834433453
:10314400983477349834A7349834083403343134B9
:1031540000343234003434340034533474346F342F
:103164007034213400340434033409340434003416
:0231740098348D
:103A7A001830210097000800240096159D314D2525
:103A8A009D310800240016149D314D259D310800F2
:103A9A002000911D512D522D4D2D91110800240009
:103AAA00961216169D314D259D3108002400961652
:103ABA0016169D314D259D310800903021009E003B
:103ACA009F019B019C0101309D00080021002608EE
:103ADA002400D000210025082400CF00080021007E
:103AEA0026082400AF00210025082400AE000800A3
:103AFA002100A5002508240091009D314D259D3106
:103B0A0008002400940108309500960113309200B1
:103B1A0020009111240095160800640080010131EB
:103B2A000130FE020030FF3B7F087E04031D932D07
:103B3A000034FE0012001E000130FE020030FF3B7E
:103B4A007F087E04031D9F2D00349D3147259D313A
:103B5A00A0309D317D259D312400161BB52DB62D33
:103B6A00AA2D8731FA279D3108002100A6002608D0
:103B7A00A500A50DA50D1D082506833925069D005E
:103B8A001D149D149D18CA2DCB2DC72D1D1008007C
:103B9A009E3193269D31903100209D319D313D25E6
:103BAA009D318A31A1229D319D3162259D319D3100
:103BBA00E3259D319E3133269D31080021001508E9
:103BCA00C0391238950006302000950006302100D1
:103BDA00A70027082300D6000B118B1603302100FB
:103BEA00A5000030A6009D3174259D3108002100F2
:103BFA0012114608031D022E032E152E2608230035
:103C0A00D200210025082300D10021002708A8009E
:103C1A0028082300DD00DC01DC0A2100C601C60AEF
:103C2A001215080001302300BD070030BE3D0030E8
:103C3A00BF3D0030C03D6808031D242E252E322EBC
:103C4A000130F0007008DF075F08031D2D2E2E2EAD
:103C5A00322EFF30F0007008DF000800210048080B
:103C6A00031D382E392E502E3D008E01920116303A
:103C7A0091009F3097007B30920021001215462E4A
:103C8A008E153D008E1D4A2E4B2E452E01302100E9
:103C9A00A5002508C80008003D001215EF302000D5
:103CAA00E60066083D0090058E1401302000E6000B
:103CBA0066082300E800DF0175302000E0000030CC
:103CCA00E1000030E2000030E3000030E400E500EB
:103CDA009F315D279E3108002300E80174302000DF
:103CEA00E0000030E1000030E2000030E300003084
:103CFA00E400E5009F315D279E313D008E101211D0
:103D0A008C2EFB302000E60066083D009005101955
:103D1A008F2E902E862E2300DF01080022008C01B0
:103D2A008D018E01303021008C00F0308D00FF3083
:103D3A008E00CC3023008E008D018C0124008D0171
:103D4A008C012100951722009D01270093129216DB
:103D5A00911600302100A5000030A6009D316B2588
:103D6A009E310800FC00771DBB2EBC2EC12EF0012F
:103D7A007C08903189209E31F71CC42EC52ECB2E8B
:103D8A00F001F00A7C08903189209E317C08983E27
:103D9A00F800F9010E30F93D7808FA007908FB00BD
:103DAA007A0886007B0887007708810008002100CE
:103DBA00B1002C1DE12EE22EE72EA501310890312B
:103DCA00CC209E312100AC1CEB2EEC2EF22EA5014C
:103DDA00A50A31089031CC209E3121003108983E45
:103DEA00AD00AE010E30AE3D2D08AF002E08B0007A
:103DFA002F088600300887002C08810008003D0043
:103E0A00181C082F092F2A2F21004708860087012E
:103E1A0080300106031D122F132F282F3708860022
:103E2A003808870084300106031D1C2F1D2F282FF8
:103E3A000C30F000470886008701700881004708A7
:103E4A008600870181173D001810DF30F0007008E6
:103E5A0090050800F8007108F6007008F500780867
:103E6A00F4007408F900502F750886007608870058
:103E7A000108F4007408F7000130F5070030F63D38
:103E8A007708F400790886008701740881000130F8
:103E9A00F4007408F9070130F2020030F33B720AA9
:103EAA00031D5B2F730A031D5B2F5C2F392F08003C
:103EBA00662F9F318F279F318E2F9231E7229F31B4
:103ECA008E2F20006108003A03196F2F7F3A0319D9
:103EDA00892F8E2F6008013A03195E2F033A0319BE
:103EEA008E2F013A0319622F063A03198E2F773A59
:103EFA0003198E2F013A03198E2F073A03198E2FB1
:103F0A00013A03198E2F8E2F6008FF3A03198E2F5C
:103F1A008E2F080000302400C3000030C2004B304E
:103F2A00C1000030C000C401C5010830FD007D0891
:103F3A00C6002300DE011A30FD007D08F7000130BB
:103F4A009E31B7269F311E30FD007D08F7000230F2
:103F5A009E31B7269F31F001C030F1002030F200C7
:103F6A004030FD007D08F3000230953151259F3124
:103F7A0071082300D0007008CF00CD01CE012100C6
:103F8A00C6010800023023006B06031DCD2FCE2F79
:103F9A00D22F8931F5219F31FF2FEB016608031DCE
:103FAA00D72FD82FFE2F21004208013EF6000030FD
:103FBA00433DF700760886007708870008308100BD
:103FCA005030F6000030F7004208860043088700A8
:103FDA0042317608C03F7708C13F4208860043084D
:103FEA0087000C3081004208860043088700811749
:063FFA00FF2FE6010800A4
:020000040001F9
:04000E00F43FFF3F7D
:00000001FF
