:020000040000FA
:1000000080315028053008007E1480318B1D09286E
:100010000A2812280B1C0D280E2812289631F126CA
:1000200080314E280B1F152816284E282100111F3D
:100030001A281B2824282000111F1F2820282428C4
:100040009731282780314E282100121D2828292881
:1000500032282000121D2D282E2832288131BC2163
:1000600080314E282100921D362837284328200051
:10007000921D3B283C284328210038088A00370875
:100080000A0080314E282100911D472848284E281B
:100090002000911D4C284D284E283C287E10090038
:1000A0008031522850308400003085000B3096316A
:1000B000DB268031A0308400003085003D30963151
:1000C000DB26803120308400013085001D309631E0
:1000D000DB2680317E1020008B317D2B20004203F7
:1000E000031D732874288A2840081F39003A031D0D
:1000F0007A287B288A28D21703304106031D8128DD
:10010000822888280130F90079082100C4008A2853
:100110002100C40120004208031D8F289028BB291C
:1001200040081F39023A031D96289728BB29440826
:100130000F39003A03199D289E28BB2944080F391E
:10014000F900023079020318A628A728BB2920301D
:1001500021004906031DAD28AE28BB292000D21777
:10016000C41BB328B428C82844080F390907AB3E7C
:1001700086008701403FDE00413FDF0044080F3921
:10018000B33E860087010108F9007908DD00DB280D
:1001900044080F390907553E86008701403FDE00BD
:1001A000413FDF0044080F39B53E86008701010852
:1001B000F9007908DD005D18DE28DF28EA28FB3029
:1001C000F900FF30FA005E087905DE005F087A0565
:1001D000DF00F02804305E04DE0000305F04DF0042
:1001E000C41BF328F428FF2844080F390907AB3E45
:1001F000860087015E08C03F5F08C13F09294408A7
:100200000F390907553E860087015E08C03F5F0829
:10021000C13F03304106031D0E290F2933295E0813
:1002200086005F088700811F162917292829C41B0B
:100230001A291B29222944080F39B33E8600870159
:100240008114282944080F39B53E8600870181149E
:100250005E0886005F08870001155E0886005F085B
:1002600087008117BB2904305E06DE0000305F0680
:10027000DF005E0886005F088700811F4029412952
:100280005E297F30F9005E0886005F0887007908E4
:1002900081055E0886005F08870001170530F300BE
:1002A0000030F4005F08F6005E08F5000230F70049
:1002B0000030F80089315921803163295E088600B9
:1002C0005F0887000117043020005E06DE00003062
:1002D0005F06DF00DD186D296E2976295E0886002D
:1002E0005F088700811F752976299F29C41B7929FA
:1002F0007A29812944080F39B33E8600870181108D
:10030000872944080F39B53E8600870181103B30AC
:10031000F9005E0886005F088700790881050530CE
:10032000F3000030F4005F08F6005E08F5000230CC
:10033000F7000030F800893159218031A7293B307E
:10034000F9005E0886005F088700790881052000B3
:1003500044080F39983EF900FA010E30FA3D790849
:10036000DB007A08DC00FE30F9005B0886005C08E0
:10037000870079088105080021004903031DC12970
:10038000C229D0293D008E1AC629C729D02990013B
:100390001214121602302000E20062082100C90087
:1003A0003D00101DD429D529E229121DD829D929AB
:1003B000E229FB302000E20062083D009005883110
:1003C0009D2081313D008E1CE629E729EA29200085
:1003D0001211DA2A101CED29EE29032A121CF12928
:1003E000F229032A84313924813121001215043085
:1003F0002000E20062082100C900FE302000E20077
:1004000062083D009005101E062A072A0E2A121EB9
:100410000A2A0B2A0E2A8831282081313D00101F1C
:10042000122A132A3F2A121F162A172A262A733045
:10043000F3000030F4000030F5000030F600013029
:10044000F7000030F800893159218131BF30200098
:10045000E20062083D00900588310C2081312100C6
:1004600040080319342A352A372A0130C0024008CF
:10047000031D3B2A3C2A3F2A8E31122681313D0042
:10048000901E432A442A4B2A921E472A482A4B2A66
:100490008931862181313D00901C4F2A502A652ADE
:1004A000921C532A542A652AFF30F3007F30F4004F
:1004B0000030F5000030F6000130F7000030F800A1
:1004C0008931592181313D009301043021004902D5
:1004D00003186B2A6C2A6F2A20001211DA2A3D00B9
:1004E000921D732A742AD82A2000E4013D00901D31
:1004F0007A2A7B2AD82A0F082000E200620821000D
:10050000DA005A0C2000E200E20C620C0F39E30022
:1005100063082100C200F7302000E20062083D00BD
:10052000900521005A19952A962AA62A4208B33E18
:1005300086008701010801392000E2000130E2064F
:1005400001086206FE3962068100B52A4208B53EFE
:1005500086008701010801392000E2000130E2062F
:1005600001086206FE396206810021004208031D6F
:10057000BA2ABB2ABF2A8C3121248131CD2A72307C
:10058000F3000030F400DA30F5000030F6000030FF
:10059000F700F80089315921813101302000E20053
:1005A0006208E40704306402031CD72AD82A762A9A
:1005B000200012110800210012113D00930190014A
:1005C00098010E302100DE009930DD00DF015D086A
:1005D00086005E08870081010130DD070030DE3DC6
:1005E00001302000E50065082100DF075F080319DE
:1005F000FA2AFB2AE72A12303D0091009F3097002B
:100600007B3092002100E00160082000E50001300D
:10061000E535FF3E031D082B6535203E860087012A
:100620000030C03F0030C13FC23FC33F0130E50052
:1006300065082100E00708306002031C202B212BF5
:10064000042B3D000E1796010E120E13F7302000FA
:10065000E50065083D0090052000D2012100A201BF
:10066000A301A4013D009019362B372B262B013016
:100670002000E50065082100BE0001302000E500F3
:1006800065082100BD00BC01BB01C301E00160356C
:10069000553E860087010030C03FC13F6035AB3E0C
:1006A000860087010030C03FC13F6008B53E86002C
:1006B000870181016008B33E860087018101013016
:1006C0002000E50065082100E00702306002031CFD
:1006D0006A2B6B2B472B28302000D5000030D6002A
:1006E00016303D00980000302000A3004030A200EA
:1006F0000830A1000430E5006508A000A017210023
:10070000DC010030AA000030A9000030A800003051
:10071000A700BA01C9010800210048088600870126
:10072000413FF5007508F200F30173082402031D30
:100730009B2B7208230203189E2B9F2BA32B2308AD
:10074000F2007208F5007508F200F3017208A302C6
:100750007308A43BF401BF2B7408483E8600870150
:100760000108F2002008860087017208810001302C
:10077000F2007208A0070130F2007208F407750851
:100780007402031CC42BC52BAC2B230824040319AF
:10079000CA2BCB2B072C20005908013EF200003059
:1007A0005A3DF30072088600730887000830810004
:1007B0004830F2000030F300590886005A088700DC
:1007C00042317208C03F7308C13F210048088600CB
:1007D0008701011BEC2BED2BFA2B2000590886001A
:1007E0005A08870048308100590886005A08870057
:1007F0008117382C2000590886005A0887000830D5
:100800008100590886005A0887008117382C20007B
:100810005908013EF20000305A3DF300720886008C
:1008200073088700083081004030F2000030F30088
:10083000590886005A08870042317208C03F730881
:10084000C13F590886005A088700043081005908C2
:1008500086005A0887008117210025082608A21360
:100860003F08031D342C352C382C8E311226833151
:100870000800210012113D009301900198010E30F3
:10088000F2009930F100F3017108860072088700C8
:1008900081010130F1070030F23D0130F0007008B5
:1008A000F30773080319552C562C442C12303D00C5
:1008B00091009F3097007B309200F4017408F000A3
:1008C0000130F035FF3E031D612C7035203E86005F
:1008D00087010030C03F0030C13FC23FC33F0130FD
:1008E000F0007008F40708307402031C782C792C8F
:1008F0005E2C3D000E1796010E120E13F730F0001D
:10090000700890052000D2012100A201A301A401DA
:100910003D0090198C2C8D2C7E2C0130F00070083D
:100920002100BE000130F0007008BD00BC01BB0119
:10093000C301F4017435553E860087010030C03F85
:10094000C13F7435AB3E860087010030C03FC13FD8
:100950007408B53E8600870181017408B33E8600A5
:10096000870181010130F0007008F4070230740241
:10097000031CBB2CBC2C9A2C28302000D500003046
:10098000D60016303D00980000302000A300403013
:10099000A2000830A1000430F0007008A000A017E9
:1009A0002100DC010030AA000030A9000030A800BE
:1009B0000030A700BA01C9010800F8007808F40067
:1009C0007408F90072087304031DE72CE82CE92C65
:1009D000802D7008F4007908860087017408810072
:1009E0007008F40072087907F5007508FF3E86006C
:1009F000870174088100003073020330031972020A
:100A00000318032D042D052D802D7008F400790A9C
:100A100086008701740881007008F4007908023E9E
:100A200086008701740881007008F4007208790755
:100A3000F5007508FE3E8600870174088100700885
:100A4000F40072087907F5007508FD3E86008701FD
:100A50007408810000307302073003197202031812
:100A6000322D332D342D802D7008F4007908033E8B
:100A700086008701740881007008F4007208790705
:100A8000F5007508FC3E860087017408810000307F
:100A9000730209300319720203184F2D502D512D86
:100AA000802D7909F4007A09F500F40A0319F50A92
:100AB00003307405F60000307505F7007608F40081
:100AC0007408F9077608F2027708F33BFC30F20568
:100AD000FF30F3057A2D7008F4007908860087014D
:100AE000740881000130F2020030F33B0130F40061
:100AF0007408F90772087304031D7F2D802D6B2D78
:100B000008003D000E122000D21B872D882DCE2D0F
:100B10002100A21F8C2D8D2D9D2D0230F500750812
:100B2000C6003B08031D952D962D992D8C317B24F5
:100B300085312100BD01BE011E2E20005908013E55
:100B4000F50000305A3DF6007508860076088700EB
:100B5000083081004030F5000030F600590886006A
:100B60005A08870042317508C03F7608C13F5908CE
:100B700086005A0887000C308100590886005A0800
:100B800087008117550886005608870004308100C9
:100B9000550886005608870081171E2EC01FD12DCC
:100BA000D22DEB2D0130F50075082100C6003C0860
:100BB000031DDB2DDC2DDF2D8C317B2485312100C5
:100BC000BD01BE013F08031DE62DE72D1E2E8E310F
:100BD000122685311E2E0230F50075082100C60050
:100BE00020005908013EF50000305A3DF600750816
:100BF000860076088700083081004030F50000301C
:100C0000F600590886005A08870042317508C03F2F
:100C10007608C13F590886005A08870004308100D1
:100C2000590886005A08870081172100BD01BE01BE
:100C30003F08031D1C2E1D2E1E2EE72D08008030A0
:100C400020004006031D252E262EB72EC030F000B2
:100C50007008D200A42E2830D0009830D100003087
:100C6000D4001230D300B72E4208031D382E392E7F
:100C7000672E4208F000F101F035F10D4E3070079B
:100C800084009830713D8500003FD000013FD100C5
:100C90005108F1005008F00002307007840071081C
:100CA0000318710A85000008F2007208D300510889
:100CB000F1005008F0000330700784007108031839
:100CC000710A85000008F2007208D400B72ED20124
:100CD000B72E0430420203186E2E6F2E8A2E420861
:100CE000F000F101F035F10D3A30700784009830D2
:100CF000713D8500003FD000013FD10050088400C5
:100D0000510885000008F000F1017008D300710857
:100D1000D400B72EEE304206031D8F2E902EA02E4B
:100D20001630D0009830D10050088400510885005A
:100D30000008F000F1017008D3007108D400B72E4C
:100D4000D201B72ED201B72E4308F000F10171088D
:100D5000003A0319AC2EA22E7008013A03192B2E6B
:100D6000033A0319342E013A0319692EA22E080002
:100D70008E3400340034003400340134053400343F
:100D8000013400348434003400340034013400343D
:100D900000340034283400344434003465340034E2
:100DA00076340034693400346334003465340034FC
:100DB000493400346E340034743400346534003403
:100DC00072340034663400346134003463340034E7
:100DD0006534003447340034553400344934003429
:100DE00044340034003400344E34003400340034D1
:100DF0007B34003435340034383400346434003407
:100E00003034003437340034323400343134003478
:100E1000303400342D34003432340034373400346C
:100E200063340034313400342D3400343134003430
:100E30003134003464340034643400342D340034EC
:100E400062340034643400343034003462340034AA
:100E50002D3400343034003438340034303400342D
:100E60003034003432340034303400343034003420
:100E7000633400343934003461340034363400349F
:100E8000363400347D340034003400340830F0004F
:100E90007008F20000302000540208300319530299
:100EA0000318532F542F6C2F5308F0007008F200D2
:100EB00021004708031D5D2F5E2F632F0130F000D6
:100EC0007008C7006C2F4703031D672F682F6C2F16
:100ED0000230F0007008C7007208F000F1017008DD
:100EE0002000D3027108D43B5508013EF0000030C9
:100EF000563DF10070088600710887007208810075
:100F00004830F00070082100C50020005218892FD9
:100F10008A2FC32FA42F2000500884005108850079
:100F20000008F00021004508860087017008810054
:100F300001302000D0070030D13D0130F0007008B2
:100F40002100C5070130F2027208031DA82FA92F46
:100F50008B2FC82F200050088400510885000008FE
:100F6000F0002100450886008701700881000130EB
:100F70002000D0070030D13D0130F0007008210082
:100F8000C5070130F2027208031DC72FC82FAA2F10
:100F900008002200BC15D92F9631AB268731F72FD8
:100FA0009631812687310330F72F9631B02687316D
:100FB000F72F2C08FA007A08F90021088A00200887
:100FC0000A008731FB00FC017C08003A0319E92F75
:100FD000D52F7B08013A0319D52F033A0319CC2FDB
:100FE000013A0319CC2F073A0319D02FD52F080047
:100FF00022003C143635963197268731033008009D
:101000000130080020000D1321000D1220000D12E8
:101010000D1721000D16080001302100A707003030
:10102000A83D0030A93D0030AA3D4308031D192802
:101030001A2827280130F0007008BA073A08031D63
:10104000222823282728FF30F0007008BA00080063
:101050003D001215EF30F900790890058E1401302B
:10106000F90079082100C300BA017530F30000309F
:10107000F4000030F5000030F6000030F700F80012
:1010800089315921883108002100DD0020000D132D
:1010900021000D1620000D17FE30E50021005D082F
:1010A000860087012000650881050D1E58285928F3
:1010B0005E2821005D0886008701011420000D13C1
:1010C00008002100DF00E101E0016135DE005E087B
:1010D000E100E13088314420883101302100DE0018
:1010E0005E08E00708306002031C7728782865282E
:1010F0005F089731AB278831210061080800210083
:10110000DF00E101E0015F089731AB278831210062
:101110005F35DE005E08DF000130DE005E08E007BC
:1011200008306002031C952896288328E130883116
:10113000442088312100610808002100C301743077
:10114000F3000030F4000030F5000030F60000300D
:10115000F700F8008931592188313D008E101211B5
:10116000B528FB30F900790890051019B828B9287E
:10117000B1282100BA01080021004908031DC12837
:10118000C228DA283D008E019201123091009F3072
:1011900097007B30920021001215CF288E153D005C
:1011A0008E1DD328D428CE2801302000E500650804
:1011B0002100C900080022008C0140308D00203041
:1011C0008E00303021008C00A0308D00DF308E008A
:1011D000CC3023008E008D018C0124008D018C0108
:1011E0002100951722009D0127009312921291165B
:1011F00074302100DD001630DE009631D5268831AE
:101200008B150800F40070087104031908290929D6
:101210001C297435203E8600013087007008C03FCD
:101220007108C13F7208F30074082C3E860001303B
:101230008700730881002B297435203E8600013019
:1012400087000030C03F0830C13F74082C3E860044
:10125000013087008101080022003C100230FA00B2
:101260007A08BB003B299631AB2689315829963143
:10127000B026893158292E08FA007A08F90004307E
:10128000203E860001308700413F8A00403F0A002F
:101290008931FB00FC017C08003A031950293729E9
:1012A0007B08023A03193329013A031933293729F4
:1012B00008005E298D313825893185297408003A66
:1012C000031966297F3A0319802985297308013A91
:1012D00003198529033A03198529013A03195A2963
:1012E000063A03198529773A03198529013A031922
:1012F0008529073A03198529013A03198529852982
:101300007308FF3A03198529852908003D00181C38
:101310008A298B29AE292100480886008701803060
:101320000106031D94299529AC2920005508860043
:101330005608870084300106031D9F29A029AC2987
:101340000C30F000210048088600870170088100F9
:1013500048088600870181173D001810DF30F00033
:101360007008900508002100E8003008E5002F080B
:10137000E4000730E536E40C890BBA290E30640529
:10138000E6003908F1396604E7006708E90097319B
:10139000032789312100690888317F2089312100A4
:1013A0002F0888317F2089312100680888317F200B
:1013B00089318831022089319731BD278931080070
:1013C00096318426893122003C1CE729E829F62938
:1013D0009631C9268931003A0319EF29F029F629F7
:1013E0000F302000DB005B082200BA0022003A0820
:1013F0002000DB00DC01DB35DC0D5C305B078400AA
:1014000090305C3D8500013F8A00003F0A008A3130
:101410002000DD005D082200BA000800F800710815
:10142000F6007008F5007808F4007408F9002F2A17
:1014300075088600760887000108F4007408F70034
:101440000130F5070030F63D7708F4007908860092
:101450008701740881000130F4007408F907013035
:10146000F2020030F33B720A031D3A2A730A031D8D
:101470003A2A3B2A182A0800023021004606031D9A
:10148000422A432A472A83318C238A31742AC6018F
:101490004108031D4C2A4D2A732A20005908013E99
:1014A000F60000305A3DF70076088600770887007E
:1014B000083081004030F6000030F70059088600FF
:1014C0005A08870042317608C03F7708C13F590863
:1014D00086005A0887000C308100590886005A0897
:1014E00087008117742AC10108002100E600300836
:1014F000E3002F08E2000730E336E20C890B7C2A78
:101500000E306205E4003908F1396404E50065082D
:10151000E700973103278A312100670888317F204F
:101520008A3121002F0888317F208A3197310327A3
:101530008A3121006708013888317F208A31803064
:10154000883161208A31013E2100E2006608860070
:10155000870162088100883102208A310800210059
:10156000E9003008E6002F08E5000730E636E50C14
:10157000890BB62A0E306505E7003908F139670492
:10158000E8006808EA00973103278A3121006A08D9
:1015900088317F208A3121002F0888317F208A31CD
:1015A0002100EB01E22A6B086907E5006508860067
:1015B0008701010888317F208A3101302100E50050
:1015C0006508EB0764086B02031CE72AE82AD32AA4
:1015D000883102208A319731BD278A31080096313F
:1015E0007E268A31FA0022003708860087017A08B1
:1015F00081000130FA007A08B7070130B8020030E4
:10160000B93B380839040319062B072B0C2B9631EC
:101610008B268A310530342BBC15162B9631BF260C
:101620008A31342B9631BA268A31342B2C08FA00B1
:101630007A08F90021088A0020080A008B31FB0093
:10164000FC017C08003A0319262B122B7B08013A77
:101650000319122B033A03190E2B013A03190E2B0F
:10166000073A0319122B122B08002100C701BF01F2
:10167000BC01BB01C101C6017F30FD00200055083F
:101680008600560887007D08810504305506D50080
:1016900000305606D6007F30FD00550886005608FB
:1016A00087007D08810504305506D50000305606B8
:1016B000D6007F30FD00590886005A0887007D0853
:1016C0008105D201D301D4012100A201A301A4010B
:1016D0008F3105278B310330F3000030F4000030E8
:1016E000F5000030F6000030F700F800893159218C
:1016F0008B31853181258B3108009731D2278B3191
:101700008B170B17A0302100EC006C08B900AA3031
:10171000AF000030B0005530EC006C08CA004A0839
:101720008931B3218B31CA308A3175228B31B03087
:101730002100AF000030B0002200BE013E080F3C87
:101740002100EC0022003E08CA3E860087012100ED
:101750006C0881000130EC006C082200BE071030DC
:101760003E02031CB42BB52B9E2B10302100EC0045
:101770006C08E400CA308A31AF228B31103021006E
:10178000E2000030E300CA308D31A5258B31C72B34
:10179000803150289631C9268B31003A0319D12B5C
:1017A000D22B032CDF2B9631A1268B31202C9631A6
:1017B000A6268B31202C9631B0268B31202C22008E
:1017C0002F08FA007A08F9000630203E8600013022
:1017D0008700413F8A00403F0A008B31FB00FC013B
:1017E0007C08003A0319F52BDB2B7B08013A03191F
:1017F000DB2B033A0319D32B013A0319D72B073AF2
:101800000319DB2BDB2B22003C101730203E860017
:1018100001308700403F84008501810A000896312D
:1018200097268B3101302200B8020030B93B3808CE
:101830003904031D1C2C1D2C1F2C0630202C0330BA
:1018400008002D302000E00060082100C0005A0888
:10185000FD39031D2C2C2D2C6D2C5A363F392000C0
:10186000E0000130E035FF3E031D322C6035203EA4
:10187000E10061082100C80048082000D900FF39B4
:10188000031D0030DA0004305906D90000305A0632
:10189000DA002100480886008701010C890C0F3905
:1018A0000D3A031D542C552C692C4808023E860025
:1018B0008701403FF000413FF1000830F200003066
:1018C000F30040308A310E228C318B3135238C313C
:1018D0007A2C8A313C228C317A2CFD305A0520003A
:1018E000E00004306006031D762C772C7A2C8E31B4
:1018F00088268C3108002100BC01BB01023046065D
:10190000031D832C842CAA2C20005908013EF300CF
:1019100000305A3DF40073088600740887000830D0
:1019200081004830F3000030F400590886005A085E
:10193000870042317308C03F7408C13F59088600D0
:101940005A08870048308100590886005A088700E5
:101950008117D52C200054084702031DB12C5308D1
:1019600046020318B42CB52CB92C4708D4004608FD
:10197000D300873146278C314830F3000030F40023
:101980002000550886005608870042317308C03F82
:101990007408C13F5508860056088700483081000A
:1019A0005508860056088700811708002000C801E6
:1019B000C901152DD21721004403031DE02CE12C91
:1019C000292D2000C814292DD217292DD217C41B68
:1019D000EA2CEB2CF62C44080F390907AB3E8600A5
:1019E0008701403FF200413FF300002D44080F39CA
:1019F0000907553E86008701403FF200413FF30052
:101A00007208860073088700811F072D082D292D75
:101A10007208860073088700011D0F2D102D292DD7
:101A20000130F0007008C800292D40081F39F0006F
:101A3000F1017108003A03191E2D292D7008003A92
:101A40000319DA2C013A0319E42C033A0319E62CA2
:101A5000292D2000D21F2D2D2E2D372D4830D000BE
:101A60000030D10052140230F0007008D30008009A
:101A7000C03020004006031D3E2D3F2D6F2DEE305F
:101A80004106031D442D452DA42D04304406450474
:101A9000031D4B2D4C2DA42D343084009030850037
:101AA000003FF100013FF20072084702031D5A2D6A
:101AB0007108460203185D2D5E2D622D4708F20065
:101AC0004608F1003430D0009030D1007208D400C4
:101AD0007108D300C030F0007008D200A42DC130CE
:101AE0004006031D742D752DA42DEE304106031DF7
:101AF0007A2D7B2DA42D053044064504031D812D30
:101B0000822DA42DB830840086308500003FF1007E
:101B1000013FF20072084702031D902D7108460232
:101B20000318932D942D982D4708F2004608F100D4
:101B3000B830D0008630D1007208D4007108D300CC
:101B4000C030F0007008D20008002100E800300822
:101B5000E5002F08E4000730E536E40C890BAC2DD6
:101B60000E306405E6003908F1396604E7006708BD
:101B7000E900973103278D312100690888317F20E2
:101B80008D3121002F0888317F208D319731032737
:101B90008D3121006908013888317F208D31210085
:101BA000EA01EB01042E6208FF3EE400FF30633DD2
:101BB000E50065086B02031DDF2D64086A02031847
:101BC000E22DE32DF22D0030883161208D3121008E
:101BD000E4006A086807E500650886008701640874
:101BE0008100002E8030883161208D312100E40099
:101BF0006A086807E50065088600870164088100B7
:101C00000130EA070030EB3D63086B02031D0A2E2A
:101C100062086A02031C0D2E0E2ED32D883102207D
:101C20008D31080021003E08031D172E182E872E27
:101C30000130F0007008BE003D08031D202E212E4B
:101C4000872E0130F0007008BD0002304606031DEB
:101C50002A2E2B2E3E2E200055088600560887007F
:101C600041318101550886005608870048308100BF
:101C700055088600560887008117872E4603031DE6
:101C8000422E432E872EC1010830F000480A8600FC
:101C90008701700881004030F0000030F1004808F2
:101CA000023E860087017008C03F7108C13F0430C2
:101CB000F000480886008701700881004808860007
:101CC000870181170130F0007008C1002000590819
:101CD000013EF00000305A3DF100700886007108A6
:101CE0008700083081004030F0000030F1005908D2
:101CF00086005A08870042317008C03F7108C13F12
:101D0000590886005A08870080308100872E080015
:101D1000200055088600560887000030011B01305E
:101D2000F50004305506D50000305606D6000830C0
:101D300021004906031D9D2E9E2EB32E2000420831
:101D40007F393D00960016080319A72EA82EAE2E47
:101D50001030F30073082100C900B32E0430F300E3
:101D600073082100C9004603031DB72EB82EFC2EB0
:101D70004830F3000030F400200055088600560873
:101D8000870042317308C03F7408C13F873146273E
:101D90008E31023021004706031DCF2ED02EDD2EBE
:101DA0002000550886005608870004308100550839
:101DB0008600560887008117042F7508031DE12E41
:101DC000E22EEF2E20005508860056088700483086
:101DD000810055088600560887008117042F2000CF
:101DE000550886005608870008308100550886008F
:101DF000560887008117042FA21FFF2E002F032FE4
:101E000025082608A213C60108002000400E890CF0
:101E10000339003A03190D2F0E2F562F812FD21799
:101E20000830FB007B082100C900812F86311F2666
:101E30008F31812F8F3182278F31812FDC30D0007D
:101E40000030D10052140130FB007B08D300D217C0
:101E5000812F8C31D6248F31812F80316E208F31AC
:101E6000812F4408DB3ED0000030D10052140130F5
:101E7000FB007B08D300D217812FD2174208FB004A
:101E80004408DB3E860087017B088100812F0230F9
:101E9000F3000030F4000030F5000030F6000030B0
:101EA000F700F800893159218F31812F4108FB005B
:101EB000FC017C08003A03195E2F812F7B08003A51
:101EC0000319292F013A03192D2F023A03192D2F37
:101ED000063A03190F2F033A0319162F013A031973
:101EE000472F0F3A03191E2F013A03191A2F033AED
:101EF0000319312F013A03193D2F073A0319812F96
:101F0000812F08002000D2170E30DC009930DB0052
:101F1000DD015B0886005C08870081010130DB077A
:101F20000030DC3D0130FA007A08DD075D08031956
:101F30009A2F9B2F892F0030F000F1002030F20003
:101F40000030F30020308431DD248F313D000E1746
:101F50002000DE015E08B53E8600870181015E0833
:101F6000B33E8600870181010130FA007A08DE075E
:101F700002305E02031CBD2FBE2FAA2F0030F000DE
:101F8000F1000130F2000030F300DB308431DD2459
:101F90008F313D000E1328302000D5000030D600D0
:101FA0002030FA007A082100C80048082000D90033
:101FB000FF39031D0030DA004208FA007A082100D8
:101FC000DC005C08031DE52FE62FEB2F1030FA0034
:101FD0007A08C900FF2F0130F3000030F400DC3034
:101FE000F5000030F6000130F7000030F8008931CC
:101FF00059218F312030FA007A082100C9000800E9
:10200000343403344D3400346934003463340034E0
:10201000723400346F340034633400346834003474
:1020200069340034703400342034003454340034C3
:102030006534003463340034683400346E34003462
:102040006F3400346C3400346F340034673400343F
:102050007934003420340034493400346E34003490
:10206000633400342E340034283400340034003417
:1020700000340134043400340134003400340034BA
:10208000003400340034003400340134573449340F
:102090004E34553453344234003400340034003468
:1020A0000034003400340034003400340034003490
:1020B00000340034003400349C341634E8341634D0
:1020C000F8340734CA340B34EF340A34E1341634AC
:1020D000C9340734A1341634A6341634AB3416345C
:1020E000B0341634B5341634BA341634BF3416341A
:1020F000C43416342C340934093402342034003406
:10210000013401340034C03432340934043400342E
:1021100000340234FF34FF34FF3400340734053414
:1021200001340334083400340A340734053481346C
:082130000334083400340A34C2
:102CE60008000800240096140800240016150800A1
:102CF60024009615080024001108080020009115EC
:102D060008002000911108002400961616160800E7
:102D160024009612161608008931E0219631080023
:102D26001630210097000800F0007008240091007A
:102D360008002200BC10BB010E3008009631752633
:102D4600963101300800963175269631023008001A
:102D560096317526963101300800963178269631DF
:102D66000030080096318B269631053008009631E2
:102D7600872696310A300800963187269631093023
:102D860008002200BC10BB010E3008002400160EFD
:102D9600890C890C0139080021005E08B2005D0823
:102DA600B100080021005E08EE005D08ED00080095
:102DB600640080010131890BDC2E003422003C10B6
:102DC60096317B2696310430080022003C14031409
:102DD600360D963197269631053008002700931E4A
:102DE600F52EF62EF92E9731372796310800240056
:102DF60094010830950096013B3092009512080028
:102E060021000D1620000D1721000D1220000D12B5
:102E16000D1308007608F1007508F0007708F80031
:102E26007808F200003089310221973108007830A5
:102E360021009900980127009B012200960121009C
:102E46001A1F262F272F222F0800200011132100DA
:102E5600310832040319302F312F362F32088A00F9
:102E660031080A009731080021006D086E04031925
:102E76003D2F3E2F432F6E088A006D080A009731BA
:102E8600270093120800F3002200BC1D4B2F4C2F85
:102E9600552F7308F2007208B7007108B900700860
:102EA600B800BC1108000230F0000030F1007908CB
:102EB6009731462797310030F500F600F701973134
:102EC6000D279731043008000130F0000030F10082
:102ED60079089731462797310030F500F600F7015B
:102EE60097310D279731023008000230F00000308C
:102EF600F10079089731462797310030F500F60042
:102F0600F70197310D279731023008000130F000A4
:102F16000030F10079089731462797310030F500E7
:102F2600F600F70197310D2797310430080020305D
:102F360021009E009F019B019C0101309D001117FD
:102F46007330DD001630DE009631CF26973108004B
:102F56002000E5000D13E51FB12FB22FB52F21007C
:102F66000D16B92F21000D1220000D1220000D178D
:102F76000D1308009731032797312100390888314E
:102F86007F2097312100E2006208E3006303031902
:102F9600CD2FCE2FBD2F88310220973108009631D4
:102FA600FA2697318831DB20973197311A279731E6
:102FB6009631932697318231DB22973197319A27C2
:102FC60097318831BC20973108007908860087013F
:102FD600403FF000413FF1007908023E860087013C
:102FE60001089731462797310030F500F600F701C2
:102FF60097310D27973102300800163403345334C5
:1030060000346D3400346134003472340034743466
:1030160000342034003453340034683400346F34C0
:10302600003465340034123403344D3400345334E0
:1030360000344634003454340034313400343034EF
:10304600003430340034EE340034123401340034A9
:1030560002340034003400340834D8340434533491
:1030660000340034013401340234033401344A3468
:103076009834003490340034983442349834083408
:1030860003343134003432340034343400340434FC
:0A3096000334093404347C34903410
:020000040001F9
:04000E00E43F8F3FFD
:00000001FF
